:10000000007F002029430000C3780100FD4200006A
:10001000FD420000FD420000FD420000FD420000E4
:100020000000000000000000000000008D3F000004
:10003000FD42000000000000F53E0000FD4200000F
:1000400031400000314000003140000031400000EC
:1000500031400000314000003140000031400000DC
:1000600031400000314000003140000031400000CC
:1000700031400000314000003140000031400000BC
:1000800031400000314000003140000031400000AC
:10009000314000003140000031400000314000009C
:1000A000314000003140000031400000314000008C
:1000B000314000003140000031400000314000007C
:1000C000314000003140000031400000314000006C
:1000D000314000003140000031400000314000005C
:1000E000314000003140000031400000314000004C
:1000F000314000003140000031400000314000003C
:10010000314000003140000031400000314000002B
:10011000314000003140000031400000314000001B
:10012000314000003140000031400000314000000B
:1001300031400000314000003140000031400000FB
:1001400031400000314000003140000031400000EB
:04015000314000003A
:04015400FFFFFFFFAB
:1001580053B94AB9002908BF00281CBF4FF0FF3126
:100168004FF0FF3000F00CB8ADF1080C6DE904CE8B
:1001780000F05CF9DDF804E0DDE9022304B0704723
:10018800704700BF844641EA000313F0030349D1D6
:10019800403A23D30B6803604B6843608B688360E5
:1001A800CB68C3600B6903614B6943618B698361E9
:1001B800CB69C3610B6A03624B6A43628B6A8362D1
:1001C800CB6AC3620B6B03634B6B43638B6B8363B9
:1001D800CB6BC36340304031403ADBD230320BD373
:1001E8000B6803604B6843608B688360CB68C360AF
:1001F80010301031103AF3D20C3205D351F8043BC9
:1002080040F8043B043AF9D2043208D0D2071CBFA4
:1002180011F8013B00F8013B01D30B8803806046CD
:10022800704700BF082A13D38B07B1D010F003031F
:10023800AED0C3F10403D21ADB071CBF11F8013B8F
:1002480000F8013BA4D331F8023B20F8023B9FE7BA
:10025800043AD9D3013A11F8013B00F8013BF9D22D
:100268000B7803704B7843708B78837060467047C7
:1002780080EA010C1CF0030F37D110F0030C20F0BA
:10028800030021F0030150F8042B08BF51F8043B88
:100298000ED08CF0030C6FF07F434FEACC0C23FA9E
:1002A8000CFC51F8043B42EA0C0243EA0C0300BF81
:1002B800A2F1013C9A4201BF2CEA020C1CF0803FDB
:1002C80050F8042B51F8043BF2D04FEA02604FEA91
:1002D8001222012828BFB0EB036F08BF1B0AF4D015
:1002E80003F0FF03000EC01A704710F0030F0AD086
:1002F80010F8012B11F8013B012A28BF9A42F4D0CB
:10030800A2EB030070474DF8045D50F8042B01F090
:10031800030521F0030151F8043B022D26D04DD8E6
:1003280022F07F45B5EB132FA2F1013C2CEA020C19
:100338000DD11CF0803C08BF51F8043B0AD185EA76
:100348000205B5EB036F0CD150F8042BE8E74FEA30
:1003580013235BE03CF07F4C54D10B784FEA1265D5
:1003680054E04FEA126503F0FF034FE04FEA0245FD
:10037800A2F1013C4FEA15452CEA020CB5EB134FEC
:1003880018D11CF0803C08BF51F8043B07D185EA1E
:100398000205B5EB034F09D150F8042BE6E75FEAF5
:1003A8000C4C2FD10B884FEA12452FE04FEA03433C
:1003B8004FEA12454FEA134328E000BF02F0FF0559
:1003C800B5EB136FA2F1013C2CEA020C0DD11CF025
:1003D800803C08BF51F8043B0AD185EA0205B5EB19
:1003E800032F0AD150F8042BE8E74FEA13630DE016
:1003F80012F0FF0F06D051F8043B4FEA122523F004
:100408007F4303E04FF0000020BC704705F0FF0277
:1004180003F0FF00012828BF904204BF2D0A1B0AE1
:10042800F4D0A2EB000020BC704700BF2DE9F047D4
:1004380086468C460846089E154674461946002B83
:1004480040F0C1808542B2FA82F245D94AB1C2F180
:10045800200300FA02FC954094402EFA03F343EA85
:100468000C0C4FEA154EA8B2230CBCFBFEF80EFB91
:1004780018CC08FB00F943EA0C43994528D9EB1836
:1004880008F1FF3704D2994502D9A8F102072B4495
:10049800A3EB0903A4B2B3FBFEFC0EFB1C330CFB5D
:1004A80000F044EA0344A04214D92C190CF1FF339C
:1004B80004D2A04202D9ACF102032C44241A43EA24
:1004C80007401EB1D440002334607360BDE8F08754
:1004D8004746DDE76346F1E792BB431B01214FEA3C
:1004E800154EAFB2200CB3FBFEFC0EFB1C330CFB0D
:1004F80007F840EA0343984561D9EB180CF1FF303F
:1005080004D2984502D9ACF102002B44A3EB0803AE
:10051800A4B2B3FBFEFC0EFB1C330CFB07F744EA4A
:100528000344A7424DD92C190CF1FF3304D2A7423A
:1005380002D9ACF102032C44E41B43EA0040C0E7B3
:10054800C2F120039540944020FA03F12EFA03F3F8
:100558004FEA154E9040AFB20343B1FBFEFC0EFBD1
:100568001C10190C0CFB07F841EA0041884522D9F8
:1005780069180CF1FF3004D2884502D9ACF10200A9
:100588002944A1EB08019BB2B1FBFEFC0EFB1C1138
:100598000CFB07F743EA01439F420ED9EB180CF115
:1005A800FF3104D29F4202D9ACF102012B44DB1B7C
:1005B80041EA004193E76046E3E76146F7E76046B2
:1005C800A4E76346B8E7834206D916B9002108466E
:1005D8007CE7C6E900E0F9E7B3FA83F78FB983420D
:1005E80001D3724508D8BEEB020460EB0303012077
:1005F8009C461EB9002169E73846FAE7C6E9004C6F
:10060800F8E7C7F1200CBB400EFA07F522FA0CF404
:100618002EFA0CF1BA401C4320FA0CF3B8404FEA0A
:10062800144901431FFA84FEB3FBF9F809FB18309B
:100638000B0C08FB0EFA43EA00439A4540D9E3182D
:1006480008F1FF3004D29A4502D9A8F102002344E8
:10065800A3EB0A0389B2B3FBF9F809FB183308FBCB
:100668000EFE41EA03418E452CD9611808F1FF338B
:1006780004D28E4502D9A8F10203214443EA00407E
:10068800A1EB0E01A0FB02984145CE46434602D39A
:1006980006D14D4504D20138B9EB020E68EB0403CC
:1006A800002EA7D0B5EB0E0261EB030101FA0CFC9A
:1006B80022FA07F3F9404CEA0303C6E9003199E747
:1006C8004046C5E74346D9E72DE9F04F824616462E
:1006D8001C4600259FB00391307810B9284600F0D9
:1006E80085BD731C2528069306D00399D04700289A
:1006F800C0F27C8501351BE21822002110A815F0F4
:1007080059FB7378252B00F0BA80002398469E4643
:100718009C461846711C0F4611F8012B2B2A00F035
:10072800DD8000F2D480202A00F0DB80232A00F04C
:10073800DB802BB19DF8483043F040038DF84830FA
:10074800B8F1000F05D09DF8483043F020038DF82C
:100758004830BEF1000F05D09DF8483043F0100333
:100768008DF84830BCF1000F05D09DF8483043F0B3
:1007780008038DF8483028B19DF8483043F0040349
:100788008DF848309DF8483003F04401442903D1DE
:100798006FF386138DF848309DF848302A2A43F0C5
:1007A80080030E978DF8483040F0A3809DF84930BB
:1007B80043F001038DF849307B1C1A782E2A0CBFB0
:1007C800012100219DF8492061F341028DF849205B
:1007D8000CD15A1C0E925A782A2A40F09A809DF819
:1007E8004920023342F004028DF849201A786C2A15
:1007F80000F0BB8000F29D80682A00F0A3806A2A7E
:1008080000F0BC804C2A00F0C18013F8012B782A34
:1008180006938DF84B2000F201816D2A00F2C38007
:10082800692A00F2FB80572A00F2DA80412A04D0B4
:10083800A2F14503022B00F2F18004219DF84A3011
:1008480002F0DF02A2F1410761F302037A429DF848
:1008580049107A4162F3C7110A068DF84A308DF8BB
:100868004910CBB200F1198103F07802182A40F040
:1008780003816FF3C6038DF849300023F2E0B21C00
:1008880006928DF84B309DF84930D90740F1078121
:1008980054F8042B002A049208DA9DF8482042F004
:1008A80004028DF84820049A524204925A0740F1F3
:1008B800FE8054F8047B002F80F2FD809DF84930BB
:1008C8006FF341038DF849304FF0FF37F3E02D2ADD
:1008D8000DD0302A7FF42DAF01231CE74FF0010C17
:1008E80019E74FF0010E16E74FF0010813E7012052
:1008F80011E70EA802F002F80E9BBB423FF45DAF71
:100908009DF848201390C00F60F341028DF84820ED
:1009180053E70EA801F0F2FF9DF848301490C3F396
:10092800400242EAD07262F341038DF848300E9BD0
:100938005CE7742A26D07A2A7FF467AF06219DF8EF
:1009480049200CE05A78682A9DF8492006D10121EF
:1009580061F3C6028DF84920023356E7022161F39C
:10096800C6028DF8492001334FE75A786C2A9DF862
:10097800492001D10421EBE70321F0E705219DF887
:100988004920ECE707219DF84920E8E7BDF8482011
:1009980022F4F04222F0020242F4804242F00202C3
:1009A800ADF84820DFE76E3AD3B201229A4040F210
:1009B80082431A429DF8493037D112F0240F5FD193
:1009C800D1072BD503219DF84A2003F07803A3F122
:1009D800400061F3020243428DF84A20434141E05E
:1009E8000120A2F15801C9B200FA01F111F4624FD5
:1009F8007FF423AF40F6010319429DF849301AD11C
:100A080011F4043F0AD09DF84A2060F3020203F073
:100A18007803402B8DF84A207FF42FAF9DF848309B
:100A280043F001038DF8483027E702219DF84A205A
:100A380061F30202EBE702209DF84A1003F0780305
:100A480060F30201402B8DF84A1002BF9DF8481050
:100A580041F001018DF84810632A7FF40EAF003B86
:100A680018BF01239DF84820C2F340010B4363F3EC
:100A780041028DF8482006E713F0380FCED1FCE686
:100A880003219DF84A2013F0780F61F3020214BF86
:100A9800012300238DF84A20E4E70123E2E79DF9CA
:100AA8004820002AACBF4FF0FF32139AFDE69F079B
:100AB8007FF50AAF149F0023CDE913339DF84A3020
:100AC80003F00702042A9DF8492007D1900705D4AE
:100AD8009DF949100029ACBF06270D2703F007032D
:100AE800012BC2F3C30233D1D31E042B04D8DFE891
:100AF80003F02146462121002368012A4FEAE371C9
:100B0800CDE910311CD19DF94030D917CDE910310C
:100B180004349DF848309907079350D03246504620
:100B2800069B039915F090FF0028C0F25F830544E7
:100B3800069ED1E554F8043BD917CDE91031E8E712
:100B4800022AE5D119B243F3C033CDE91013DFE728
:100B5800022B24D1D31E042B04D8DFE803F018108D
:100B680010181800012A4FF0000154F8043B14D063
:100B7800022ACDE91031CCD19BB21093C9E70734D2
:100B880024F00704F4E80201CDE91001C1E754F8A4
:100B9800043B109300231193BBE7DBB2CDE7042B92
:100BA80008D1073424F00704D4E900010834CDE95A
:100BB8001001AEE7032BACD154F8043BDDE79DF8F8
:100BC8004BB0BBF1780FB3D8BBF1570F49D8BBF185
:100BD800250F00F09180BBF1240FA9D9BBF1410F7B
:100BE80003D0ABF14502022AA2D8DDE91012002A8F
:100BF800C0F23681079B1E0700F13581C3F3001947
:100C08004FEA4919C2F30A50C2F31302002840F010
:100C18002D8151EA020614BF01260026D20242EABB
:100C28005152C902BBF1460F40EA010E42EAE07C8C
:100C380008BF4FF0660B5EEA0C0CCDE90C1200F011
:100C48009B81002E40F049810D9AA0F2FE3842F0B7
:100C580000420D920020DDE90C1206464FF0050C0B
:100C680055E1ABF1580120293FF662AF01A050F8D9
:100C780021F000BF070E0000390B0000390B0000FF
:100C8800390B0000390B0000390B0000390B00004C
:100C9800390B0000390B0000F30B0000390B000082
:100CA8008B0D00009F0D0000F30B0000F30B0000FC
:100CB800F30B0000390B00009F0D0000390B0000FA
:100CC800390B0000390B0000390B0000410E000001
:100CD800070E00000D0E0000390B0000390B000054
:100CE800070D0000390B0000070E0000390B00004B
:100CF800390B0000070E000058460399F6E4002F50
:100D0800109E3ADB3946304615F012FA3718002E95
:100D18003FF40EAF4FF000099DF84A3013F010026F
:100D2800059200F05882023013F04003DDF84C8041
:100D3800089318BF149B404418BFC018049BCDF8F3
:100D48001C80002B40F362829DF848201B1A500734
:100D58000493C2F3800B00F15982510640F1498295
:100D6800B9F1000F07D048460399D0470028C0F2D0
:100D78003D82D946013530223CE2304615F034F93F
:100D8800C4E7109B4FF0000901208DF85C300DF18D
:100D98005D0717AEC0E7079B1A0754BFC3F30019D6
:100DA8004FF02B09DDE9102358BF4FEA4919002BF2
:100DB80006DA4FF02D09524263EB4303CDE91023C5
:100DC800DDE910010DF17503009312AA17AB01F0CC
:100DD800ABFD0646002F0CDB9DF848200DF175038E
:100DE8009B1B6FF386129F428DF8482001D9FB1A8E
:100DF8001393002E3FF49CAE0DF175075BE04FF0A6
:100E08000009DDE71098002800F0E0810DF1750376
:100E18000093002117AB12AA01F086FDBDF84A30F5
:100E2800064603F0EF0343F4F04343F010034FF09A
:100E38000009ADF84A30CDE7109B072A3FF678AE97
:100E4800DFE802F00C04060C08080C0C1D706FE6B5
:100E58001D806DE6EA17C3E9005269E61D6067E682
:100E68004FF02D09CEE64FF02B09CBE640F2FF7686
:100E7800B0422FD1A0480BF10103DBB2C35C0A4397
:100E880003F003031ED1012B0BBF492369234E2115
:100E98006E210CBF462266228DF85C309DF84830E2
:100EA8008DF85D106FF386138DF85E208DF848304D
:100EB8000DF15F0717AEB81BB9F1000F3FF42CAF67
:100EC800013029E7012B15BF6E234E2361214121F3
:100ED8001A46E1E70026A1E6013849185241002ADE
:100EE800FADACDE90C12AFE6490841EAC2715208B4
:100EF800B2F1333F404608F10108F5D200F102088B
:100F080001200CFB02FEA1FB0C12013E724418F1F9
:100F1800020FE9DB08B1CDE90C12DDE90C21B8F1CB
:100F2800000F2CDCC8F10400A0F1200C08F11C080B
:100F3800C24001FA08F821FA0CFCC1400BF0DF00AE
:100F480042EA0802472842EA0C0238D1F01C01DBC9
:100F5800B7422ADAABF10203002F5FFA83FB7BDD8D
:100F68009DF84800013F830676D43B1E18BF012335
:100F7800059307F101082CE04FF000086AE60232F9
:100F880041F100010CA808F1FF380136CDE90C2128
:100F980015F02BFDDDE90C2192184941002908F1D3
:100FA800FF38F9DACDE90C21B7E79DF84830BF1BC7
:100FB80098064FD43B1E18BF0123059304E0002375
:100FC800BBF1660F0593D4D117EB06084FF0660BFB
:100FD80044D4B8F1100FA8BF4FF010089FED447B20
:100FE80010208DED0E7B0B90DDE90E03B8F1000F9C
:100FF80037D1121841EB0301B1F1805F41D2CDE93D
:101008000C21079BBBF1660F03F0200240F0BD8066
:10101800002E41DC30218DF85C10002A6ED1002FA3
:1010280040F3B5812E228DF85D2086B17242BA4216
:10103800A8BF3A46002A1392A7EB0207D4BF0022A2
:1010480001229DF84A1062F345118DF84A100DF1FE
:101058005E0839E00023B0E7002389E74FF0000875
:10106800BCE7400840EAC3705B08CDE90E030EA850
:10107800CDE9082108F1FF3815F0B7FCDDE90821B2
:10108800B2E7520842EAC1720CA84908CDE90C211E
:10109800013615F0AAFCB4E70DF15C080B9900299C
:1010A80009DD0BA90CA8079215F0B7FC013E079AB9
:1010B80008F8010BF2D113969AB9002F40F3658115
:1010C8002E2108F8011B0026002F20DD0B9A002A8C
:1010D8001DDD0BA90CA815F0A0FC013F08F8010BB9
:1010E800F2E72E2208F8012BEDE700BFAFF30080EE
:1010F8000000000000000008C4B302002E228DF892
:101108005D20002EA3D0002F90DC0DF15E08059B1A
:10111800002B4ED1149747460BF0DF02452A23D106
:10112800002EBABF76422D232B23632EC8BF64211D
:101138007B70C4BFB6FBF1F301FB13664FF00A01E5
:10114800C8BF03F13000B6FBF1F3D2BFBA1CFA1CDA
:10115800B87087F800B0174603F1300001FB13633D
:10116800303307F8020B5370139B002B2CDC149BB5
:10117800002BD4BF002301239DF84A2063F3861275
:1011880000238DF84A203B7094E60BA90CA807921F
:1011980015F043FC079A30288DF85C0018BF06F15B
:1011A800FF3612B9002F40F3F2802E228DF85D2011
:1011B8004DE7474617F8012C08F1FF38302AF8D0D8
:1011C8002E2A08BF4746A7E70123D5E7714F814676
:1011D8007E1F0520A0E51A0748BF0130A4E5104688
:1011E80009920399D0470028099A05DA1FB0BDE88B
:1011F800F08F2022DDF810B0594600290BF1FF3B93
:10120800EDDC049BCDF810B02B445D1AB9F1000F4A
:1012180005D048460399D0470028E7DB0135089BED
:10122800002B77D09DF94930002B28DB3346DFF8B7
:10123800689118789B4619F80020013352073FD46B
:101248009DF84A30AE1B98065E4407D44246002AF1
:1012580008F1FF383BDC079B33449E1A9BF80000DB
:101268002E280AD10399D0470028BFDBB8F1000F18
:1012780006F1010631DC0BF1010B5D4638E0B146A1
:1012880099F80000C846702809F1010913D1AE1B6E
:10129800149D46443544AB1B002B33DC3B46424689
:1012A8005046039915F0D0FB00289FDB3044049E7C
:1012B8000546064464E00399D0470028E0DA95E73C
:1012C80005930399D0470028059BB2DA8EE73020B2
:1012D8000399D0470028B9DA88E730200399D04726
:1012E80008F1FF38C0E70399D0470028FFF67EAF22
:1012F8002878A84619F8003001355907F3D4A6EB29
:101308000B06C5E730200399D0470028FFF66EAFDB
:101318000136C0E79DF84A30DA0601D41B0706D526
:1013280030200399D0470028FFF660AF0135059BB0
:101338003BB103999DF84B00D0470028FFF656AF04
:101348000135A84406E030200399D0470028FFF66D
:101358004DAF0135A8EB0503002BF4DC3B463246C4
:101368005046039915F070FB0028FFF63FAF28445C
:101378009DE720200399D0470028FFF637AF0135B5
:10138800731B002BF5DCFFF7D3BB1646BFE60DF148
:101398005D08BCE68BBE0200C5B302000000000079
:1013A800F0B5594D85B0D5F83431996811F001017F
:1013B8001DD140F6034003AA03F0F6FB04460028BB
:1013C80040F09E80039CE3681B786BB904F01AFE1A
:1013D80005F18803D3E8AF2F02F00902D3E8EF1F25
:1013E800C3E8E02F0028F9D120460AF00DF90021C2
:1013F80041F2030003AA03F0D7FB044600287FD17B
:10140800039B424EDA68D2F80100D2F8051003C6F1
:1014180018460AF0F9F8214641F2010003AA03F040
:10142800C3FB044600286BD10398C3685A7885F833
:1014380024205A88EA841A7985F82520B3F80720E9
:101448002A85B3F805306B850AF0DEF8214641F2AB
:10145800020003AA03F0A8FB0446002850D1039F0A
:10146800FA68531C4132344618685968083303C473
:1014780093422646F7D138460AF0C6F805F086FAB0
:10148800044600283CD195F83E309E0632D5072107
:1014980040F6334003F04EFB0646002800F0688112
:1014A80007210C3019F063FF452303700623C0F8A9
:1014B80002408471447004712246C370314640F67C
:1014C800334003F071FB0446D0B9012140F63140A6
:1014D80003F030FB0646002800F04A8101210C3059
:1014E80019F054FF2246314640F6314003F05CFBC8
:1014F800044628B995F83030580609D46FF012041C
:10150800204605B0F0BD00BF000000202C000020E0
:10151800002142F2030002AA03F046FB0446002819
:10152800EED1029BA34EDA68D2F80100D2F805107A
:1015380003C618460AF068F895F893300F2B40F266
:10154800288195F85D1003AA11F0200100F013819D
:10155800214642F2600003F027FB04460028CFD161
:10156800039FFC68B4F801309AB24AB1E2783AB104
:10157800A5F8BC30E27806F12800114616F010FBF9
:10158800A3889AB25AB1A2794AB1A5F8D830A279FB
:101598008948114616F004FBA37985F8DA303846F5
:1015A8000AF032F895F8306016F0200618D10221BA
:1015B80040F66D4003F0BEFA0446002800F0D880DB
:1015C80002210C3019F0D3FE012321460370467026
:1015D800324640F66D4003F0E7FA044600288FD102
:1015E80095F85030190712D5002142F21C0002AAC2
:1015F80003F0DAFA0446002882D10298C368D3F8C7
:101608000120D3F80530C5E9262309F0FDFF95F838
:1016180090309A0625D503A90DF1060016F093FB24
:10162800044600287FF46CAF042142F2240003F042
:1016380081FA0646002800F09B8004210C3019F03E
:1016480096FEBDF8063022460380BDF80C303146C0
:10165800438042F2240003F0A7FA044600287FF4EE
:101668004FAF95F890305B0610D5002142F22A0062
:1016780002AA03F099FA044600287FF441AF0298C1
:10168800C3685B7885F8F43009F0BEFF082142F2A0
:10169800010003F04FFA0446002869D008210C30F5
:1016A80019F065FE95F89060444B16F0020F02465B
:1016B800434808BF184695F89130B70648BF40F030
:1016C800400013F0090F18BF40F40060F30795F8C5
:1016D800563048BF40F0100003F00603062B95F87B
:1016E800933008BF40F4C07013F0300F4FF0000182
:1016F80005D09F0654BF40F0807040F040701E0631
:1017080044BF022140F0405016F055FA214600220D
:1017180042F2010003F048FA044600287FF4F0AED4
:1017280095F83030B5F8BC1098063ED4C9B941F2E6
:10173800050003AA03F038FA044600287FF4E0AE57
:10174800B5F8BC30039C4BB9E3681E48B3F80120D8
:10175800A5F8BC209A88114616F022FA204609F00E
:1017680053FF082140F6014003F0E4F9044658BB52
:101778006FF06804C4E642F2020003F015FA04466A
:1017880000287FF4BDAE039C204603F023F92046D1
:1017980006E7214642F2020002AA03F005FA0446CF
:1017A80000287FF4ADAE029CEEE70029D9D16FF096
:1017B8000404A5E690000020DC0000200EF287005B
:1017C8002EF28700C000002008210C3019F0CFFD50
:1017D80095F890300246D90747BF2CA1D1E90001FE
:1017E8004FF00051284816F0E6F92146002240F64D
:1017F800014003F0D9F9044600287FF481AE014680
:1018080003AA4FF6014003F0CFF9044620BB039822
:1018180009F0FAFE21464FF6024003AA03F0C4F984
:101828000446C8B90398C368B3F80130A5F8753001
:1018380009F0EAFE95F875305B070DD521464FF69D
:10184800034003AA03F0B0F930B90398C3685B7882
:1018580085F8743009F0D8FE04F09EF80446002894
:101868007FF44EAE05F056FF044600287FF448AEDC
:1018780005F024FA044600287FF442AE03F09CFCED
:101888003EE600BFAFF30080108800029088000297
:1018980000800020000000002DE9F0472DED028BAC
:1018A80004469FED498B4A4E84B04FF02003EFF376
:1018B800118783F31288BFF36F8FD4F8E8508DB97E
:1018C800022104F580701CF041FF002843D1002359
:1018D8008DED008B3946029304F1F0023D4813F078
:1018E8005FFEE2E7D4F8EC202B689542C4F8E830B4
:1018F80008BFC4F8EC30D4F8003143F00203C4F850
:101908000031EB6823F0040343F00103EB606B68DC
:1019180087F31188BFF36F8F284698474FF020034D
:10192800EFF3118983F31288BFF36F8FEB68990780
:1019380023F0010219D4EA60D4F8003123F002033D
:10194800C4F8003189F31188BFF36F8FDB05ACD47D
:1019580013F024FDA9E704F1F80500220121284627
:101968001DF0CEF80028F8D1B1E7306823F0030362
:10197800EB600028E0D00027BA46D0F800800028A5
:10198800DAD04268014695420BD1016897B972686E
:101998003160824200D1716040F808AB13F0D4F88E
:1019A8003946B8F1000F0BD0D8F8002040460F4652
:1019B8009046E4E739607268824208BF7760EBE7D7
:1019C8004246F3E7AFF30080FFFFFFFFFFFFFFFF93
:1019D8001C460020D94E002010B5084C014623684B
:1019E80023B9BDE81040064814F035BC054814F08A
:1019F80032FC0023044A2360137010BD2C3E0020E3
:101A0800E2B40200FBB40200984D0020014610B178
:101A1800014814F020BC704711B5020038B50B4BD3
:101A28001B7873B10A4D0B482C8800214E2C8EBFB1
:101A380000240134A4B200EB841014F0F6FB2C80CF
:101A480038BDBDE8384000F00DBE00BF984D0020FD
:101A5800344C0020B01D002011B1034814F0FBBB2A
:101A6800024813F071B800BF31B50200800B0020A6
:101A7800014608B5054814F0EEFB0121044814F0AE
:101A880085FB0122034B1A7008BD00BF5CB502003C
:101A980000F70100984D002008B50146074814F0EA
:101AA800DAFB0021064814F071FB0021054814F008
:101AB8006DFB0022044B1A7008BD00BF6FB5020011
:101AC80000F70100F8F60100984D0020052913B52C
:101AD800044617D103790193C37800938378427839
:101AE8000178094814F0B7FB2378FF2B0AD00021AE
:101AF800064814F04BFB0121054802B0BDE8104030
:101B080014F044BB02B010BD82B5020000F701001A
:101B1800F8F6010008B5024813F016F8012008BDD0
:101B2800200B002038B5094D04462B6823B1BDE8C9
:101B38003840074814F08FBB0146064814F08BFB69
:101B48002C600548BDE8384012F0FEBF2C3E00204E
:101B580093B50200A7B50200680B002070B50246D5
:101B68000C46104B9D68E5B909680F4814F073FBE3
:101B780021462A4601202668B24209D04B6823B183
:101B880091F86C3000FA03F31D430132AC31F3E7EE
:101B9800064B05F003051D600248BDE8704012F0D1
:101BA800D3BF70BD080B0020E1B50200003E002045
:101BB800F0B5354B168A1B6885B096FBF3F6334BA8
:101BC8001F682FB9324805B0BDE8F04014F043BB98
:101BD8008C79304D14F0010418BFD46800214FF4FB
:101BE800A072284614F0E6F8012332462146CDE9D2
:101BF8000053384600230EF04BF94FF420720021B1
:101C0800254814F0D7F80023039303AB0093102260
:101C1800214B4FF4A071284614F0CCFA10F0FF03C2
:101C280001D01E48CFE71C4DDFF880C0DFF880E008
:101C3800BCF800202C460EEB821740353E46206843
:101C48006168083403C6AC423746F7D14E2A8CBFC8
:101C58000022013203F1010398BF92B20A2BACF8BB
:101C68000020E5D10E4B1C6854B921460D4814F0EC
:101C7800E5FA21460C4805B0BDE8F04014F0D5BAA5
:101C8800013C1C6005B0F0BDB0310020FC3D0020D7
:101C980019B60200384C0020B446002045B60200B0
:101CA800F00100207446002034460020364C002005
:101CB800B01D00202DE9F0437D4889B014F04BFF9A
:101CC8007C4A01A97A4814F054FF002003F08CFAEA
:101CD800044650B10146784814F0BDFA21467748C9
:101CE80014F0B9FA09B0BDE8F083754814F0B3FAF6
:101CF8000120744908F0A8FD044610B10146724855
:101D0800EAE7724809F068F8714E724B73617248DD
:101D18001CF06DFB10B900217048E1E76E481CF01B
:101D280066FB0028F7D06E4814F016FA04466D4892
:101D380014F012FA0443D5D46B4808F0A3FD054605
:101D4800694818F0DAFF002D044602DA674814F0F3
:101D580082FA002C02DA664814F07DFA0121624802
:101D680018F0E8FF634B2A4618602946624B204664
:101D78000DF020FF614B186010B9614814F06BFA40
:101D8800604800F0A3FB00F0A7FB00F07DFC10B159
:101D98005D4814F060FA00F035FC10B15B4814F0AF
:101DA8005AFA4FF000080021594814F047FA002168
:101DB800584814F03AFA584F0096584EC6F8008022
:101DC800384612F00FFF564812F00CFF554812F033
:101DD80009FF554812F006FFDFF88C91534812F0BE
:101DE80001FFD9F8000030B119F08CF8014690B124
:101DF8004F4814F030FA4F4D4F4803AC14F02BFA0B
:101E08000FCD0FC42B6803A8236008F0F5FF014627
:101E180020B14A4864E7C9F80000ECE74FF4A02273
:101E28000023384612F0B6FE18B1454814F013FAEC
:101E3800C4E7444814F00FFA4FF4A02200233848AE
:101E480012F0A8FE08B14048F0E7404814F003FA41
:101E58004FF4A0220023334812F09CFE08B13C48FE
:101E6800E4E73C4814F0F7F94FF4A02200232E4889
:101E780012F090FE044608B13748D7E7374814F007
:101E8800EAF9316823466A46D9F8000009F024F8CF
:101E9800014608B1324823E7324814F0DCF94FF024
:101EA800FF324FF0FF33214812F074FE86E700BF7F
:101EB80048F00100D80100205CB60200D5B6020047
:101EC8007EB60200A801002095B60200B0010020ED
:101ED800043E0020CC01002018F00100BAB6020030
:101EE80000F70100F8F60100F4010020EBB602004B
:101EF8001FB70200B0310020B4310020FC3D0020A3
:101F080052B70200251A00008AB70200A0B70200E3
:101F1800F44B0020B44B0020200B0020003E002092
:101F2800680B0020080B0020800B0020500B0020BD
:101F3800C5B70200F0F40100EEB702000EB80200C7
:101F48003EB802006AB8020097B80200BBB80200A7
:101F5800E9B8020011B9020036B9020059B9020005
:101F68006FB9020097B902002C3E0020F8B5274A45
:101F7800274928480DF038FA274B0446984205D0DF
:101F88000146264814F067F92046F8BD244E21483A
:101F98000DF074FA30460CF0EBF9A042054605D076
:101FA8000146204814F057F92C46EDE730781E4AD0
:101FB8001E4E40F00043C6F8C030C2F89C310CF009
:101FC800DDF9A842044602D001461948DAE7194F5C
:101FD80038460CF0CDF9A042054602D00146164815
:101FE800E0E73878154A40F00043C2F89031C6F867
:101FF8008C300CF0C3F9A842044602D001461048C0
:10200800C0E7104814F027F90024BDE70362010077
:102018005802002008F701000000AD0BB9B9020012
:10202800994D0020E3B902000080025000000150E1
:1020380027BA02009A4D00206CBA020000A0025094
:10204800ACBA0200EDBA0200014BD3F84005704764
:10205800000001500146014814F0FDB80BBB020016
:1020680008B5024814F0F7F8012008BD31BB02009A
:1020780008B5024814F0EFF8012008BD5CBB020067
:1020880008B5024814F0E7F8012008BD88BB020033
:1020980008B5024814F0DFF8012008BDADBB020006
:1020A80008B5024814F0D7F8012008BDD1BB0200DA
:1020B80008B5024814F0CFF8012008BD04BC02009E
:1020C80008B5024814F0C7F8012008BD29BC020071
:1020D80008B5024814F0BFF8012008BD5ABC020038
:1020E8000A4608B50123C0B203FA00F107484AB10D
:1020F8008368DB68984720B10146054814F0ABF8BF
:10210800012008BD83681B69F4E700BF18F00100CF
:102118007DBC0200F8B50125144B154E1960154B0E
:1021280015491A60154BB7684B6005FA00F38B60C8
:10213800FB6904460BB90120F8BD2A46304698478A
:102148000028F8D1E1B233698D401B684FF0A072C6
:102158001D4214BF4FF080634FF000733046BC69D6
:10216800A047003818BF0120E6E700BF543E002012
:1021780018F00100503E0020443E00208921000054
:10218800B2F5002F08B50AD1054A064B00201B6896
:1021980011689847BDE80840034812F0D5BC08BD4F
:1021A800503E0020543E0020380B002010B5054852
:1021B80012F058FC044618B10146034814F04BF8D5
:1021C800204610BD303E0020A0BC020010B54FF0E4
:1021D800FF324FF0FF33054812F0CAFB044618B12E
:1021E8000146034814F037F8204610BD303E002061
:1021F800BCBC020010B58AB008460D99042903D06A
:10220800144814F028F810E008930C9B0024099354
:1022180004AB02930323CDE9040201AACDE9062108
:1022280001940393FFF7D2FF10B101200AB010BD4B
:1022380009480A4983681C6802AB1A46A047014648
:1022480008B10748DDE7FFF7B1FF003818BF0120E4
:10225800ECE700BFD6BC020090F0010034F70100A3
:10226800FBBC020070B50446084E094D4FF0FF3222
:102278004FF0FF33304612F08DFC204601F0DEFBB4
:102288000028F3D0284613F0E6FFEFE7380B0020CC
:102298001CBD020070B5144601B922B10B4813F0F9
:1022A800DAFF012070BD20EAE0754FF400462146B0
:1022B80040F2E7304FF47A720023C5FB0601FDF7C0
:1022C80047FF13F0EDF82046ECE700BF3DBD0200E4
:1022D80010B58AB008460D99042903D0144813F0A4
:1022E800BAFF11E008930C9B0024099304AB0293F6
:1022F8000323CDE9040201AA0393CDE90621019441
:10230800FFF764FF034610B101200AB010BD094869
:1023180009498268146802AAA047014608B107481B
:10232800DDE7FFF743FF003818BF0120EDE700BFE6
:10233800D6BC020090F0010034F7010060BD020035
:10234800F0B593B007462822002108A813F032FD03
:102358003E481CF04CF93E481CF049F850B13D4B42
:1023680018681CF044F828B13B481CF040F848B9FC
:102378003A4800E03A4813F06EFF6FF00504204633
:1023880013B0F0BD4FF48031364813F037FF0446E0
:102398000028F4D130481CF02AF80028E8D04FF47F
:1023A8008031314813F02AFF04460028E7D12A4833
:1023B8001CF01DF80028DBD04FF400312B4813F037
:1023C8001DFF04460028DAD14FF4A4720023CDE99A
:1023D80006230523CDE90070CDE9020304904FF4EC
:1023E8002F72234B2349244812F01EFA234922480E
:1023F80012F0CCF904460028C1D1384615F03AFA53
:1024080008B11F48B7E71F4E08AD0FCE0FC596E8B5
:102418000F0085E80F001C4B384610931E2308A9AF
:10242800119301F0C3FA08B11848A4E7384601F03F
:10243800DDFB08B116489EE7B968164A91429ED05E
:10244800154813F008FF6FF0040498E7303E0020A9
:1024580090F001009C02002018F0010090BD0200DD
:1024680079BD020050F7010048F7010040F701006C
:102478006D220000E04E0020800D0020A4BD020067
:10248800ACBD020010F70100F8020020CABD02002E
:10249800E7BD0200637A040000BE0200012970B59E
:1024A80004460FD170B1084B1D685DB103680BB9C4
:1024B80043683BB1FFF7C8FDD4E900122B46BDE8DD
:1024C8007040184770BD00BF583E0020014B18608F
:1024D800704700BF583E002007B54FF0502349F61B
:1024E800AE32C3F85C25012200219A610D4801AA89
:1024F80019F0B2FE002805DB019B0B4A1979186810
:102508000AF00AFE00220121282001F08BFC282075
:1025180001F058FC0549064803B05DF804EB0CF0DF
:10252800E1BA00BF58F7010000800250A52400005E
:10253800A802002070B504460A4E00EBC105AC4263
:1025480001D100200DE0D4E90012012904D1104680
:102558001CF042FB0834F2E7304615F07BF90028FE
:10256800F8D070BD5C3E002073B5064601461F4892
:1025780013F071FE6EB944F618011D4B1D481A6818
:1025880022F4407242F4007202B0BDE8704015F0C7
:1025980061B944F61801174801AA15F053F9054620
:1025A800C8B99DF80440019414EB460416D51248A6
:1025B80013F051FE2C4644F618010E4844F40072FC
:1025C80015F048F9054630B9094B61100B484039F8
:1025D8001C6013F040FE284602B070BD802CEADD76
:1025E800074813F038FE8024E5E700BF57BE020015
:1025F800C00200205C3E00202BBE020066BE020026
:1026080042BE020008B509211148FFF793FF0346AF
:10261800D8B904210F48FFF78DFF0346A8B90E214A
:102628000D48FFF787FF034678B903210B48FFF7EA
:1026380081FF034648B9FFF797FF034628B9BDE86D
:10264800084003210648FFF775BF184608BD00BFBC
:1026580058F8010038F80100A8F7010020F8010037
:1026680090F7010008B501210548FFF763FF28B975
:10267800BDE8084002210348FFF75CBF08BD00BF62
:1026880018F8010080F7010010B5064C2046FFF746
:1026980057FE30B902210448FFF74CFF08B902235E
:1026A800236010BD5C3E002080F70100014B1B68D1
:1026B800184700BFC4020020014B1860704700BFD4
:1026C800C402002007B50B460021024600910348CA
:1026D800FDF7FAFF03B05DF804FB00BFB526000064
:1026E8002DE9F047058B04462807904611D40229A6
:1026F80005F0070540F0CD80204614F069F878B160
:102708000138218B042811D8DFE800F0C3106D854B
:10271800950001290CBF45F0100545F020052583DB
:1027280088F31188BFF36F8FBDE8F08701F0070ABF
:10273800AA4500F0A6800027B9463E46A368002BAC
:1027480000F0BD8041F00801218388F31188BFF3B0
:102758006F8FA168002900F0BB800D68002900F088
:10276800B780334652462046D1F80480C047002D32
:1027780076D02B6829461D46F0E701F007035A1F5B
:10278800012A1BD8002221F00701062B276889B2ED
:10279800C4E9002209D13B4603E0628B013262831F
:1027A8001B68002BF9D141F002012046218314F067
:1027B8000FF800287BD041F0200177E0042B0AD1E4
:1027C80021F0070189B22046218314F001F810B1E5
:1027D80041F020012183218B01F0070AAA4550D03E
:1027E8000027B946AAE7236921F0070141F006014D
:1027F800062DD3F8009021832DD1B9F1000F40D0D8
:1028080041F00801218388F31188BFF36F8F2046B8
:102818003949C84729E021F00701236941F004013B
:1028280089B2042DD3F804902183E6D000274FF015
:10283800040A3E4682E721F00701236941F00501B9
:1028480089B2052DD3F808902183D6D000274FF000
:10285800050A3E4672E700274FF0060A3E466DE736
:102868002B4687E7B9F1000FD1D14FF02003EFF3E2
:10287800118883F31288BFF36F8F238B23F008032B
:102888002383258BEA062ED525F01003238305F034
:1028980007056669218B002EBFF66FAF00232768F6
:1028A800C4E9003321F0070141F001012183218BA4
:1028B8004FF0000901F0070AAA457FF43FAF002F47
:1028C8009BD041F00801218388F31188BFF36F8FF3
:1028D800002FC7D03D68394633465246204613F08C
:1028E800A3FF2F46F4E7AB067FF51AAF25F02003C8
:1028F800238305F00705FFE65D680100F0B5024691
:1029080001680A270020074E0B461C780131355D07
:102918006D0701D41360F0BD07FB0043A3F130003D
:10292800F2E700BFC5B302002DE9F84F15469A46F5
:10293800D378224A6F2B12F803B080460F460BF06B
:10294800030B29D024D8582B0CBF10260A26DDF8F3
:1029580028903246002340463946FDF7F9FB092AFC
:10296800D4B21ED83034B045E4B277F1000709F884
:10297800014D01D3D14511D82B789B0605D5082EDA
:1029880015D1AB7843F00803AB704846BDE8F88F23
:1029980003F0F703702BD7E70826D8E780460F46E1
:1029A800D7E7BBF1010F0CBF37345734DBE7102EE4
:1029B800EBD1AB7843F01003E6E700BFC5B30200E4
:1029C80010B5094B094C00F01F024009012818BF37
:1029D800234603EB8203D3F8002222F0E04242EAC6
:1029E8000172C3F8002210BD0028845000258450CD
:1029F80070B54FF02003EFF3118683F31288BFF30D
:102A08006F8F0124134B144DC3F800450223032193
:102A1800C5F8D0360020FFF7D3FF2046FFF7D0FFD8
:102A28002146C5F804472920C5F80449C5F8004BD4
:102A3800FFF7C6FF2820FFF7C3FF2B20FFF7C0FFD3
:102A48002A20FFF7BDFF86F31188BFF36F8F0020A0
:102A580070BD00BF001000500040005048B1054B49
:102A6800054A1B68B3FBF2F35843044B43F00103D8
:102A7800184770477C07002040420F00F0F601001D
:102A8800062807D10122044BC3F80025BFF34F8F56
:102A980020BFFDE7704700BF004000500BF0E0BAD0
:102AA80008B504481BF0A3FD034B0020C3E900331D
:102AB80008BD00BFEC3E0020003F0020F8B50646E8
:102AC80013F092FA0546124F4FF0FF324FF0FF33E2
:102AD800104811F04DFF3C68BC420AD1002412E0B6
:102AE800A06813F081FAA84206D07B689C42F5D012
:102AF8002468002CF4D1F1E72A463046A16813F087
:102B0800A1FA0028F1D1034811F0ACFF2046F8BD26
:102B1800003F0020EC3E002010B504464FF0FF3285
:102B28004FF0FF330C4811F023FF34B96FF0150450
:102B3800094811F097FF204610BDA0680028F5D07D
:102B4800FFF7BCFF0028F1D1044B5A68C4E90032F2
:102B580014605C600446EBE7EC3E0020003F002078
:102B6800034A13680BB9526813600020704700BF0E
:102B7800C802002030B50C460E4985B00291D0F845
:102B8800AC110546CDE9003100F1E0014FF0FF330B
:102B9800204611F0A1FA50B9012384F86430D5F821
:102BA800A83123B1204605B0BDE83040184705B02C
:102BB80030BD00BFC56C010038B50C46114605464E
:102BC80014F07EF8034638B92846044914F078F81A
:102BD80003460020236038BD0120FBE733C802000C
:102BE8002DE9F04F012381460569466885B005F552
:102BF8007377D7E8EF2F002A03D1C7E8E13F002910
:102C0800F7D140F0B880B368B26A043B2632B3EB20
:102C1800420F4FEA420126BFB3FBF1F3B3FA83F345
:102C280000234FF0010428BFC3F12003013B9C405F
:102C380005F5E47800F099801022082170689A4020
:102C480002EB4402043099400932C5F860020631AB
:102C580022F003020A44B16A01FA03FC510001EBB5
:102C68004C01C5F86412B16A994000EB4103C5F8FC
:102C780058320333134423F00303C5F854327368FE
:102C8800C5F85C42C5F850323C4B4046C5E9A963DB
:102C9800316800F01DFA044630BBD9F804A0D9F811
:102CA8001090DAE9073409F5307B012B584608BF44
:102CB800103C1BF0FCFD0023DAF8240030494FF4E7
:102CC800806201EB802100935846234612F046F8B3
:102CD80009F52C702B491BF0ACFDDAF81400836859
:102CE8005C681CB96FF05704002137E04B46264A50
:102CF800DAF81810A04704460028F5D1DAF81400CD
:102D080083681B69002BEDD00122DAF81810984768
:102D180004460028E8D11D4B2846C5F8A8311C4BAD
:102D2800C5F8AC311B4B0393D5F810320293D5F894
:102D38000832CDE90083D5F86832B26AD5F8C813ED
:102D480000F08EF904460028CED105F1E00011F01C
:102D58006FFA0028C5F8D0030ADB0221384613F0C1
:102D6800E4FF204605B0BDE8F08F6FF00B04BBE729
:102D78006FF01504B8E76FF07704F2E71B6D0100F8
:102D8800A0510020016D0100F56C0100652E0000C6
:102D9800D36D0100636D01002DE9F84306464FF03D
:102DA80001090569D0F8048005F57377D7E8EF3F86
:102DB800022B03D1C7E8E29F002AF7D149D1264860
:102DC80005F14001FDF754FA20B16FF00F042046D9
:102DD800BDE8F883204805F1B001FDF749FA00285D
:102DE800F3D12846D5F8C81314F022F8044670BB6E
:102DF80071683669486983681B6933B322468969F3
:102E08009847044618BB06F530764946304611F017
:102E1800DDFF304605F5E47601F09AFA3046D8F839
:102E2800001014F042F8044688B90146E8223046FA
:102E380012F0C0FF21464FF4E272284612F0BAFFA2
:102E48002146384613F071FFC1E76FF0570402219D
:102E5800F7E76FF07704BAE733C8020013B5044602
:102E680040B100230122CDE90032074BD0E9091215
:102E780011F0E6F8A36E1B6823B1E06E02B0BDE85E
:102E88001040184702B010BD33C8020013B50446FD
:102E98000846216901F57371D1E8AF1F022910D1E5
:102EA80093B1A0B10121CDE900311346D0E909124F
:102EB80011F0C6F8074B984208BF6FF00B0002B03C
:102EC80010BD6FF00F00FAE76FF04C00F7E76FF0F6
:102ED8000100F4E72EF8FFFF2DE9F7438846154671
:102EE800066906F57373D3E8AF3F022B5FD1136809
:102EF80023B96FF0150003B0BDE8F0831B78002BF1
:102F0800F7D0D6F8C893B9F1000F33D106F5D877C2
:102F18004FF0FF324FF0FF33384611F029FD3046AD
:102F28002A6801A9FFF748FE019C1CB9384613F02E
:102F3800FAFEDEE705F10803A3666B6984F864907E
:102F4800E366E46360B1384613F0EDFE214630468F
:102F5800236E2A68FFF70EFE0020C8F80040CAE773
:102F68002022296804F1400013F0AEF8384613F027
:102F7800DAFEF1E730460F4913F0A2FE04460028B6
:102F8800B7D005F1080383666B69C063C366002385
:102F980080F8643020222968403013F095F82246E2
:102FA8000121304600F03EF80028D5D0A1E76FF0A7
:102FB8000F00A0E733C802002DE9F04F05460E4682
:102FC80090460027D0F8B0A085B0AAF5AE74214687
:102FD8003046FDF74DF9E0B9114BA4F1400B0293CF
:102FE800DAF810303246CDE9008329464FF0FF3336
:102FF8005846AAF5CE7911F06FF860B9702301220E
:1030080003FB079383F86420DAF80C300BB15846B9
:103018009847703417B105B0BDE8F08F0127D6E79F
:10302800356E01001FB5144690B18AB1012912D13D
:103038000A4B00F1E0010293D0F8AC314032019321
:103048004FF0FF332046009311F046F804B010BD4E
:103058006FF01500FAE70020F8E700BF356E0100B1
:103068002DE9F04387B00E46DDE90E811446DDE90F
:1030780010251F4630B329B3DFF850C000F1E0092E
:10308800002D08BF65469EB9CDE9034400F5CE740E
:10309800204605961BF095F903ABCDE900432A4677
:1030A8003B464146484611F0E9F807B0BDE8F083D1
:1030B800002241460E9248462A4607B0BDE8F04332
:1030C80011F006BA6FF01500EFE700BFC12F00003E
:1030D800F0B50E46044689B000286FD00123024699
:1030E800C3630023D0F89810364F403040F80C7C6A
:1030F80042F8301FCDE901334FF0FF330093C36D21
:103108001AF01BFC304A06AB92E8030083E8030080
:1031180018460CF071FA0546D8B904F134000CF0E1
:103128004BFA0546A8B93946284805AA1AF0D7FB2C
:10313800054670B9059B9A6872B10C33D4F89400AF
:10314800C4F8A03013F0A3FEC4F8D40030B96FF06F
:103158000B05284609B0F0BD0346EFE7D4F8940004
:1031680013F095FEC4F8D8000028F0D0D4F88C30BD
:10317800D4F8A010C4F8A8300423C4F8AC30C4F8BC
:10318800C4300223A362124BB4F89420D4F8D4704C
:10319800C4F8B810C4F8D010D4F89010236204F121
:1031A800A403A4F8B020C4F8A470C4F8C010A4F80C
:1031B800C820C4F8BC00A661E362CAE76FF0150531
:1031C800C7E700BFA6BE020004F50100B0BE0200BA
:1031D800CCF801002DE9F84305464FF02003EFF342
:1031E800118683F31288BFF36F8F4FF00C090D4BD4
:1031F8000D4F1C68DFF834802CB986F31188BFF3B3
:103208006F8FBDE8F883D4E90123002D18BF13465A
:103218002BB198F8142009FB02F2B85C984724688F
:10322800EAE700BF203F0020143F0020EC450020C3
:10323800012270B5164B1C7D04F01F039A40D04341
:10324800144B610903EB8103D3E8EF1F01EA000582
:10325800C3E8E65F002EF7D10A4213D00E4B0F4D9C
:103268008BB10C236343EA185178E85C13F011FC26
:103278000020FFF7AFFF0C235C4300232A192B51D2
:10328800C2E9013370BD83F31188BFF36F8FEFE795
:10329800EC450020283F00209B6A0100143F0020D5
:1032A8002DE9F041324B07461D7D4FF02003EFF327
:1032B800118883F31288BFF36F8F0C246C432D4B56
:1032C8002D4E195D1A19002947D007CA06EB040CC0
:1032D8008CE8070000221A5588F31188BFF36F8F16
:1032E8000C236B43F05CF218A8B37B1C10D04FF48E
:1032F80000400021D2F808C0204C0023ECFB00411C
:103308001F4A2046FCF724FF0121381A1BF042FC13
:1033180012F008F80120FFF75DFF1A4B6A0903EB6A
:103328008203012205F01F018A40D3E8EF0F104302
:10333800C3E8E10F0029F8D1134B3BB10C2303FB81
:1033480005F033185978305CFFF79AFBFFF770FFE8
:1033580011F0FCFF0120BDE8F0810146284600F08D
:1033680015F80028B8D007C8344484E80700B3E744
:10337800EC450020083F0020143F00203F420F008A
:1033880040420F00283F0020892A00002DE9F04F15
:1033980085B00E4603A900F043F84FF400470446F1
:1033A8004FF0000B1B4B039DD3F800A0431E1BB22C
:1033B80003EB4303DFF8648005EB830524B9A146DA
:1033C800484605B0BDE8F08FC446594668680023F2
:1033D800E0FB07C1104A6046FCF7BAFEC4465946EE
:1033E8000190A8680023E0FB07C10B4A6046FCF780
:1033F800AFFEBAF1FF3FA94601D0824505D9731C3B
:10340800DED0019B1844B042DAD9013CA4B20C3D8D
:10341800D4E700BFF402002040420F003F420F00F3
:1034280008B9024B0B600020704700BFF0F801009C
:103438000449431E0F3013F8012F8A5C83421A7027
:10344800F9D17047BBBE0200F0B50746264E8DB0D5
:1034580001AD0C460FCE0FC50FCE0FC596E807007D
:1034680085E807003846002F39D0002C39D0381F9E
:103478000246214610344B780D781B0443EA056355
:10348800CD7804312B4311F8025C8C4243EA0523C2
:1034980042F8043FEFD10421144C8A07036916D17E
:1034A800C3F30742A55C1A0EA25C42EA0562C3F3A5
:1034B8000725655DDBB2E35C42EA054242EA032286
:1034C80021F0030330336B4453F82C3C534050F83D
:1034D800042F013153402C290361DED101200DB0A6
:1034E800F0BD2046FBE700BF0CF50100BBBE0200A3
:1034F8002DE9F04F002703689DB003934368DFF878
:10350800B0A104938368DDE903460593C368069375
:103518000369DDE905BE0793436908938369DDE91B
:10352800072C0993C36998460A93099B0193CD59BF
:103538000CAB2DBA5AF8049BDD514FEAF223A9448B
:1035480083EAB213019D83EA72634B4425EA0205BC
:1035580002EA0C0985EA09052B44434486EA0B056F
:103568004FEA743888EAB408254006EA0B0985EA68
:10357800090588EAB458A844043703EB0E05402F20
:103588004344DE46DDF8048000937FD14FF0100AF3
:10359800464B0B9351460AF1010A1CAB0AF00F0780
:1035A80003EB870757F8403C01F00F094FEAB3488F
:1035B80001F10E070931029388EAF31801F00F01AF
:1035C8001CAB03EB810103EB890907F00F0751F8E6
:1035D800401C03EB870759F8403C57F8407C1944D6
:1035E800029B4FEAF74E88EAD3088EEA774E8EEAB6
:1035F800972E414471444FEAF52E0B9B05EA0208C9
:103608008EEAB51E2CEA05078EEA756E87EA08076A
:10361800774453F804EF49F8401C77440F440B9360
:103628000199009B39444FEA733E84EA06078EEA03
:10363800B30E1F4004EA06088EEAB35E87EA08075D
:103648007744BAF1400F01EB0B0E0F44B346CDF8A7
:1036580004C023D1039B00993B440360049B0B44A3
:103668004360059B23448360069B3344C360079BE8
:1036780073440361089B2B444361099B1344836192
:103688000A9B6344C3611DB0BDE8F08FB346CDF813
:1036980004C026469446009C2A4648E79446264697
:1036A8002A46009C7546009774E700BF2CF9010074
:1036B800F0F8010010B50446C8B17022002113F0DB
:1036C80031FC0B4B0B4A0C49C4E900230B4B0C484B
:1036D800C4E902130B4BC4E9040301200A4BA3619C
:1036E80003F17453A3F52303A3F69243E36110BDDA
:1036F80085AE67BB67E6096A72F36E3C3AF54FA57B
:103708007F520E518C68059BABD9831F002370B57F
:10371800136086B00593037905461446032B03D836
:10372800DFE803F0051A315C012006B070BD2D4BAF
:1037380009BA0491196800230422CDE901330092E3
:103748004E69006805AB04A9B0470028ECD1059B79
:1037580000201BBA2360E8E70B0C8DF811304BBA38
:103768008268ADF812301F4B090E1B6801920422C3
:1037780061F07F0100921E6A8DF8101005AB04A954
:103788000068B047E1E70B0C8DF811304BBAADF883
:1037980012300B0E63F07F038DF81030114BB1F52A
:1037A800405F1B6800681E6AAB6801930DD2022354
:1037B8000422009304A905ABB047BDF814305BBAE6
:1037C8002380003818BF0120AFE7042205AB009220
:1037D80004A9B047059B1BBA2360F2E7224613F001
:1037E800DFFFEEE76002002030B50379044685B0BC
:1037F800032B45D8DFE803F002152540214B12BA08
:1038080003921A68002300939569082209BA029165
:1038180020680DEB0201A847003818BF012005B049
:1038280030BD12BA174B0392A2681B68019204229A
:10383800009209BA20685D6A029103AB02A9A84701
:10384800EAE70BBA02930F4BB1F5405F1B6820689B
:103858005D6AA36809D252BA01930223ADF80C201D
:103868000422009303AB02A9E9E712BA03920422E7
:103878000193009203ABF6E7204613F0AFFFCBE7C6
:103888000120CCE760020020F0B50C46017905461E
:10389800022987B00ED8194824BAE1B10168A8688E
:1038A8000594CDE9003013464C6A0422286805A91E
:1038B800A0471BE003291ED1012023F003031E1992
:1038C800171BB44212D0214628463A5D13F086FFF2
:1038D80060B90434F5E70068CDE901110093059457
:1038E8001346C4690422286805A9A047003818BFF0
:1038F800012007B0F0BD0120FBE700BF60020020F7
:103908002DE9F84F06460D4617464FF0000BDFF835
:103918009080DFF89090DFF890A0BB4501D300209D
:1039280016E055F82B1005EB8B0C4145DCF804002C
:103938004FEA8B0211D0494520D0184B994226D125
:10394800DCE902320146304613F063FF10B1012072
:10395800BDE8F88F0BF1040BDFE702F108042B59DF
:103968000C3201469B0030462A440BF1030BFFF74B
:103978008BFF0028EBD12C59A344CEE70022DAF8BC
:1039880000301146DB6898470BF1020BC5E7024689
:103998003046FFF729FF0028F6D0D8E7010000805D
:1039A80002000080030000806002002070B50D4610
:1039B800044608B9012070BD0029FBD000F11006AB
:1039C8000FCD0FC60FCD0FC6184B95E8030086E83C
:1039D80003001B6822469B681549A069984701287F
:1039E800E8D001234FF02E72C4E90F32114A0020AB
:1039F800A2640322C4E913206266C4F884204FF449
:103A0800E8524FF4E055626704220B49E365C4E9C4
:103A18001551A4F86C0084F86E302367A167E2673B
:103A2800A4F88C0084F88E002360C4E760020020AC
:103A3800457801005CFA0100A48001002DE9F341FA
:103A48000368044633F0040204D10027384602B064
:103A5800BDE8F0814768012F21D1022B1DD1002537
:103A6800A846184E85632B46356805F5C0351035D0
:103A78009D421ED17268019B1A4207D0B168A36BA0
:103A880020460B43A363294613F0E4FE08F101081E
:103A9800B8F1090F06F10C06E5D100236360A06BAD
:103AA8000028D2D0E3690BB1216A98470023A363A9
:103AB800CBE72946204601AA13F0C4FE0028D9D036
:103AC800C4E700BFF0F90100F0B5022240F6080192
:103AD800D5B00446152613F0BDFE3A4F00223B68C8
:103AE8001146DB68052098476A4640F604012046DF
:103AF80013F0A8FE0546002862D1013E60D0009B65
:103B08009B07EBD5032240F60801204613F0A2FEDE
:103B1800082320462C4901AACDE9015513F0B4FE2B
:103B28002A4B06AE1F4603F1280C3246186859681E
:103B3800083303C263451646F7D1282306AA204650
:103B4800234913F0A1FE234B10AA03F1300C1646AB
:103B580018685968083303C663453246F7D11868B0
:103B68001D493423306010AA204613F08DFEDC2254
:103B78001A491DA8FCF706FBDC2319491DAA204693
:103B880013F082FE174AD7F83801516803AB03C314
:103B98009068154918600C2320460DEB030213F0BA
:103BA80073FE022240F60801204613F053FE00225D
:103BB80040F60801204613F04DFE284655B0F0BDEA
:103BC8000125FAE760020020AC1004006CF5010042
:103BD800A0C8040094F50100D0C80400C8F501008D
:103BE80010C90400A4F601008C100400F7B5604D5C
:103BF80004462B6800211B680069984700222B683F
:103C08001146DB68022098472B6801215B686069D0
:103C1800984700222B681146DB68022098472B68DA
:103C280001211B68206998471526524F00222B68EE
:103C38001146DB680A20984739466A46204613F041
:103C480001FE0146D0B9013E18D0009B1B07EDD5F7
:103C58006A46204613F0F6FD80B9009B6A460421A7
:103C68002046A36013F0EEFD40B9009B10212046CA
:103C7800E36001AA13F0E6FD012802D1012003B098
:103C8800F0BD019B002B55D0082B4ED15522302179
:103C9800204613F0DFFDAA223021204613F0DAFD7A
:103CA80055223421204613F0D5FDAA22342120467E
:103CB80013F0D0FD44F668512F4A204613F0CAFD90
:103CC80044F670512D4A204613F0C4FD4FF480325B
:103CD80042F2AC41204613F0BDFD40F2FF5242F2E1
:103CE800B441204613F0B6FD42F22041244A204652
:103CF80013F0B0FD40F2154242F22441204613F081
:103D0800A9FDCC223021204613F0A4FD3322302116
:103D1800204613F09FFDCC223421204613F09AFD53
:103D280033223421204613F095FD2046FFF7CCFEC0
:103D38000128A3D0D4E90C1204F12400FFF7E0FD18
:103D480000289BD101260F4DE968002301F5C031F9
:103D580020462A6901F5887113F084FD00288DD169
:103D68000136092E05F10C05EED10223236086E702
:103D780060020020148001000000B11DB8490270E3
:103D880015041504F0F90100014910220A60704772
:103D980010ED00E072B6404080F31188BFF36F8FDA
:103DA800BFF34F8F30BF62B6BFF36F8F704700BF4E
:103DB80072B6494081F3118820BF80F3118862B63A
:103DC800704700BF40B2002807DB01234109034ABE
:103DD80000F01F00834042F82130704700E100E006
:103DE80040B200280CDB01220649430900F01F00FD
:103DF8008240203341F82320BFF34F8FBFF36F8FEA
:103E0800704700BF00E100E0054B420953F822204B
:103E1800012300F01F0003FA00F01040704700BFB4
:103E280000E100E040B2002801F10101ACBF00F15F
:103E38006040064B4FEA4111C9B2ABBF00F5614083
:103E480000F00F0080F800131954704714ED00E0DB
:103E580030BFFFF7FDBF00BF144A08B5144B22F06E
:103E68007F029A60BFF34F8FBFF36F8FD3F888201C
:103E780022F47002C3F88820D3F8882042F4A00204
:103E8800C3F888204FF04042C3F83422BFF34F8F65
:103E9800BFF36F8F0023E1EE103A10F071FB11F0C1
:103EA80091FB00F031FA10F0AFFB00BF00000000FA
:103EB80000ED00E00A4A0B4993680968C3F89800C6
:103EC800C3F89C1008494B6843F080534B600023AB
:103ED80083F31188BFF36F8F9368D3F89C00704702
:103EE800EC450020A8B3020000ED00E023498A68F1
:103EF80082F8E1E04FF030001044EFF3098C80E8DD
:103F0800F01F1EF0100F03D102F1A00080EC108A00
:103F1800202080F31288BFF36F8F194F4FF000668F
:103F28000A6A8A603E6092F9E1E0D2F898000023BC
:103F3800C2F8983080F311881EF0100F03D00023C8
:103F4800E1EE103A03E002F1A00090EC108AEFF3E2
:103F5800148323F0040383F31488BFF36F8F02F1F3
:103F6800300090E8F01F8CF3098802F1000004B5D6
:103F780013F0AAFCBDE8044070470000EC4500209F
:103F880004ED00E01EF0040F0CBFEFF30880EFF320
:103F98000980816911F8021C0229FFD001B513F0CC
:103FA80084FC01BD42F8203C009B0D4942F81C3CB2
:103FB800019B21F0010142F8183C029B42F8081CC1
:103FC80042F8143C4FF0807342F8043C0023C0F8D8
:103FD80098304FF47D43203A0265C0F8E0307047CE
:103FE800796201000023E1EE103AEFF3148323F025
:103FF800040383F31488BFF36F8FBFF36F8F094BEC
:104008009860D0F8883083F30B88104681F30988CC
:10401800002163B681F31188BFF36F8F002200235C
:1040280012F026F9EC45002001B572B60B4AD069AA
:1040380000281EBF0021D1611AF0CAFA62B6EFF358
:104048000580A0F110004FEAC0000549014409C9E4
:104058009847BDE80140034908470000EC450020A7
:10406800D8F0010071400000044B9968186A884232
:1040780003D003494FF080520A607047EC45002096
:1040880004ED00E0154B9A6A12F0007F9A6A14BF9B
:104098001E201D2012F0807F9A6A18BF1F2012F47C
:1040A800801F9A6A18BF022012F4002F9A6A18BF5C
:1040B800212012F4802F9A6A18BF222012F4003FA0
:1040C8009A6A18BF232012F4803F9A6A18BF2420E6
:1040D8006FEA02426FEA12429A62704700ED00E00E
:1040E80010B5194B0246986A9C6A10F4805F14BF99
:1040F8001720162014F4006F9C6A18BF1820A40516
:1041080009D5986B986A000404D51AB19A6A22F402
:1041180000429A6219200C4B9A6A12F4806F9A6ACC
:1041280018BF1A20D2050CD49B6A13F4005F18BF7D
:104138001C20054A936A43F47F43936200230B7063
:1041480010BD1B20F5E700BF00ED00E010B51C4BCB
:104158000246986A9C6A10F0100F14BF11201020B4
:1041680014F0080F9C6A18BF1220A40709D5586BD1
:10417800986A000604D51AB19A6A22F080029A62F7
:1041880013200F4B9A6A12F0010F9A6A18BF142075
:1041980012F0200F9A6A18BF1520D40658BF9B6AE0
:1041A800074B9A6A920642BF5A6A22F400525A6230
:1041B8009A6A42F0FF029A6200230B7010BD00BF9A
:1041C80000ED00E070B5444B06465B6800259CB0E6
:1041D800C3F3080385F31188BFF36F8F02F07F40A4
:1041E800B0F17F4F11D102F00C0008280DD0100754
:1041F8004CBF0E4601250022033B8DF80720032BF8
:1042080005D8DFE803F01E5C60592E46F3E700246A
:104218009DF807309BB96822314602A8FBF7B2FF28
:10422800099B002D53D0C3F3080222B96FEA532328
:104238006FEA43230993204602A913F034FB1CB00C
:1042480070BD254BDA6A9107E1D4DA6A002ADEDB11
:10425800DA6A5200DBD55A69B16942F480725A6150
:10426800BFF34F8FBFF36F8F5A6931F8021C22F4E6
:1042780080725A61BFF34F8FBFF36F8F4DF6027292
:10428800914209D09A6AD2B242B101200DF10701D8
:10429800FFF75CFF0446BBE73468B9E79A6A12F493
:1042A8007F4F05D001200DF10701FFF719FFF1E756
:1042B8009B6AB3F5803FAAD3FFF7E4FEEAE7002044
:1042C8000DF10701E4E700200DF10701EDE723F404
:1042D800FF7323F00103ADE700ED00E0044B5A69DA
:1042E80042F010025A615A6942F480625A6170477A
:1042F80000ED00E0EFF30880EFF3098101B57246A5
:10430800FFF760FF01BD00BF002320210348C2184A
:104318000133452B82F80013F9D1704700E100E022
:10432800FEF7BCFB202080F3118808484FF4006199
:10433800401880F30988EFF314800221084380F3C2
:104348001488BFF36F8FFFF787FD0000A067002078
:10435800084B9B6883420BD1EFF3058343B1064BAF
:104368005A6842F080525A605A6A22F400425A62ED
:1043780011F0B6B8EC45002000ED00E01FB5094C7F
:10438800094A23460121094800F0EAF8002303936B
:10439800074B0121E41A01A80193029400F0EAF8FE
:1043A80004B010BD000007200000002074FA0100CE
:1043B800800D002010B50C7A0B6804F01F0223F062
:1043C8001F031A43CB68640923F01F03054943EA16
:1043D800440343F00103C1F89800C1F89C20C1F8D8
:1043E800A03010BD00ED00E02DE9F04F0F46144657
:1043F80006464FF000084E4D85B0B84580F29480CF
:10440800D6F80490B9F1000F36D0B9F11F0F40F279
:10441800898019F01F0F40F08580D6F800A01AF0A7
:104428001F0F7FD1504613F054FA834609EB0A0058
:10443800013813F04EFA834574D11BF1160F71D071
:104448005C456FDDC5F898B0D5F89C10C5F898B0F4
:10445800D5F8A03021F01F0143F01F0AD6E9003239
:104468001A44994202F1FF391ED1CA4508D1314692
:104478005FFA8BF013F036FA08F101080C36BCE746
:104488003146C5F898B0D5F89C3022F01F0203F0E9
:104498001F031343C5F89C30E0B213F023FA10F160
:1044A800160F3FD0441CE7E7C5F898B0D5F8A02010
:1044B800013B23F01F0302F01F021343CA45314694
:1044C800E0B2C5F8A030E8D013F00CFA10F1160FDE
:1044D80028D0C5F898B0D5F89C209DF808300AF186
:1044E800FF3A62F304038DF80830D5F8A0309DF840
:1044F80008205B0863F347128DF80820D6E90032DC
:104508001344009323F01F03411C5344A3EB0903F6
:10451800C8B223F01F030728039303D86946FFF79F
:1045280049FFBFE76FF01504204605B0BDE8F08FDE
:1045380000ED00E00522044BC3F89420BFF34F8F31
:10454800BFF36F8F704700BF00ED00E0BFF35F8FD0
:104558000022024BC3F89420704700BF00ED00E032
:1045680010B5034C2278FFF73FFF207010BD00BF45
:104578009B4D00202DE9F74F294D8A4606464FF0FE
:104588000008AB46274FD0451BDAD6F80490B9F19E
:10459800000F3FD031680846019113F09AF901994C
:1045A800044609EB0100013813F093F984424FF0F7
:1045B80014021D4B08D002FB08F36FF015024BF8EC
:1045C800032003B0BDE8F08F14F1160F2C60F8D06B
:1045D8001978A142F5DD02FB08B0C7F89840C7F882
:1045E8009840D7F89C4000F10801007B64F3040070
:1045F8000871D7F8A0000C79400860F347140C71D3
:10460800D7F89C1021F01F016960D7F8A01021F09D
:104618001F01296108F1010814350C36B3E700BF02
:104628002C3F002000ED00E09B4D002038B50E4DDA
:104638002C68082C15D80020FFF788FF0B4B0C4A74
:10464800C3F8C020844205D10A4B00201C70FFF734
:1046580071FF38BD696801EB0011FFF7ABFE01304F
:10466800F0E74FF0FF30F4E780FA010000ED00E0DA
:10467800AAFF44009B4D0020014B1860704700BF03
:1046880070030020084B0020D3F80425D20744BF4C
:104698000022C3F804251022044BC3F840244FF02D
:1046A8005023C3F81406704700D000500030005063
:1046B80030B50024094D0A4B85B02846029303946F
:1046C8001AF0F5F802AB284600934FF4A3620A23C8
:1046D800044910F043FB204605B030BD40120020CD
:1046E8000FC00200A05500200146014810F0ACBBE5
:1046F80040120020037830B5012B13D0022B27D0AD
:104708007BB90A46184B03F1100453F8045BA34223
:1047180042F8045BF9D11B78137043884B731B0A6A
:104728008B7330BD0A46104B03F1100453F8045B39
:10473800A34242F8045BF9D11B7813704368C3F3B2
:1047480007224B731B0CCB731B0A8A730B74E8E7A5
:1047580000F1100350F8042B984241F8042BF9D1CA
:1047680003780B70DDE700BF18C0020038B50546B6
:10477800052D1046194603D1BDE8384005F0CEBCDA
:10478800012D0CBF0648074816F08BFD044620B1E2
:1047980001210C3016F092FD2576204638BD00BF69
:1047A8004C0C0020C80B002010B50B460A490246E5
:1047B800D1F8100120B9BDE810400120FFF7D6BF9D
:1047C80016F0AFFD012100230446017603820C3068
:1047D80016F074FD204610BD0000002070B5044698
:1047E8000F2C0D461046194605D80D2C0DD9BDE8DD
:1047F8007040FFF7D9BF132C07D10C4816F051FDB4
:10480800044638B90024204670BD02460B4645B11F
:104818000748F3E701210C3016F050FD01232376F9
:10482800F1E70120BDE87040FFF7A0BF540D00205C
:10483800200C002038B5C368B3F801401B7863B971
:10484800204602F0A7FB054640B9084B1A8822B952
:104858006FEA04506FEA1050188038BD012102F049
:10486800ADFB2846BDE8384013F0F7BF784D00206F
:1048780008B50146044816F025FDBDE8084003497F
:1048880003481AF003B800BF14010020C403002035
:104898003014002010B5012104460C3016F0A1FD9B
:1048A8002146BDE810401623014A007813F061B98B
:1048B80040FB010070B53E4816F01AFD044600287A
:1048C80075D0037E032B32D0052B6DD0012B4ED132
:1048D800038A012B0CD840F66B13364A3649374801
:1048E80012F0C9F8404080F311884FF0030002DF4E
:1048F800022104F10C0016F074FD0546007813F04F
:10490800A9F883070CD440F66F132A4A2C492B4880
:1049180012F0B1F8404080F311884FF0030002DF35
:1049280006232146274A287813F023F91EE0038A34
:10493800032B0CD84FF4F7731E4A1F491F4812F077
:104948009AF8404080F311884FF0030002DF0421F9
:1049580004F10C0016F045FDFF22438806886276B4
:10496800228AC6F30B009A42608303D0204606F0E1
:104978004BFE0FE002F00EFB05460028F6D002F0D1
:10498800D7FB21466076320B284613F0FBFE2846FB
:1049980013F063FF0C4BD3F8143143B1BDE87040FA
:1049A8000A490B4819F072BF05F072FBF2E770BDB7
:1049B8001401002029C002005DC0020076C0020078
:1049C80093C0020010FB010000000020C403002077
:1049D80030140020C368B3F8012091B249B1D978E6
:1049E80039B10448A0F8BC20DA78C030114613F079
:1049F800D7B8704700000020F8B50746907A0E46F1
:104A0800144606F03FFD284B83424BD1204606F062
:104A180041FD0C23254D03FB00504388BB4241D187
:104A2800234FD7F8100120B106F0EEFD0023C7F898
:104A38001031204606F02EFD0C2707FB0050436876
:104A48009BB196B9204606F025FD012107FB0050D1
:104A58004268D2E90003127A03F01F07B9405B09E4
:104A6800D2B100EB830013F04CF8204606F012FD9B
:104A78000C2707FB00508368A3B1204606F00AFD07
:104A880078432E54204606F005FD07FB0055A8681C
:104A9800BDE8F84010F058B8C94300EB830013F0A4
:104AA80081F8E2E7F8BD00BFA40C0020403F0020D9
:104AB8000000002038B5042104460C3016F091FCA3
:104AC8004578017822464088FFF796FF25B1BDE872
:104AD8003840024810F038B838BD00BFF800002050
:104AE80038B5032104460C3016F07BFCE3680578E2
:104AF80022461978B0F80100FFF77EFF25B1BDE81E
:104B08003840024810F020B838BD00BFF800002037
:104B180010B5C1E900239DF808300C460B7206F069
:104B2800B9FC0C22024B02FB00335C6010BD00BFD5
:104B3800403F00202DE9F0474FF0FF324FF0FF33A0
:104B4800064617480F4616F0ACFB4FF0000804461F
:104B580000F10C0A0121504616F0B0FB204684F8FB
:104B6800188006F097FC4FF00C090E4D09FB005019
:104B78004680204606F08EFC09FB0050C0F80880ED
:104B8800204606F087FC09FB005503215046C5F86E
:104B9800048016F0ECFB068087702046BDE8F0879D
:104BA800A40C0020403F0020F0B515460C4687B005
:104BB80021B9FFF7BFFF0446002847D00122002192
:104BC800684612F0EDFF204606F064FC0C23214FE6
:104BD80003FB0070C0F808D0204616F0A2FB01467F
:104BE8001D4816F09CFB4FF4A022002368460FF0E6
:104BF800D1FF064680B14FF4A573184A18491948E1
:104C080011F039FF3146184811F035FF404080F364
:104C180011884FF0030002DF204606F03BFC0C230E
:104C280058433E5C56B1204606F0EEFC092E14BFF0
:104C38006FF004006FF06E0007B0F0BD15B12C6086
:104C48000020F9E7204606F0DFFCF9E76FF068007E
:104C5800F2E700BF403F00201C01002029C00200ED
:104C6800C1C0020076C00200CAC00200F7B5144BEA
:104C7800054693F94F300C46002B1DDA14B920462F
:104C880003B0F0BD082C4FF0000142F2180001AA51
:104C9800264628BF0826FFF787FF0028F0D1019F86
:104CA8003246F96828460131FBF76CFA384606F0B7
:104CB800ABFC3544A41BE1E76FF08500E0E700BFDB
:104CC800000000200138C0B202289ABF014B185CCE
:104CD800002070474EC102002DE9F043B0F8018072
:104CE80005466FEA08536FEA13530027644A9BB2DC
:104CF800118889B0994204BF1780012700F066FB2C
:104D08002E781FFA88F9C6B92C1D204612F09EFE8F
:104D1800B0B1214606A812F08EFE05F111010DF181
:104D2800110012F004FF01238DF81030EB78012BED
:104D380019D01F21484613F01EF809B0BDE8F083CA
:104D4800EB782146012B04BF4E4B93F82360304685
:104D580013F0D7FA014606A812F0E2FE214604A88D
:104D680012F0DEFEE2E7474E052296F8230006A978
:104D780002F008FB044640B90422434996F8230090
:104D880002F000FB04460028D3D02046002220F879
:104D9800888B06A912F0C4FEB5F81730A4F89E3027
:104DA800B5F81930A4F8A430B5F81B30A4F8A6302B
:104DB800EB782273012BE37010D104A904F18F0062
:104DC80012F0AEFE05F10B0104F1970012F0AFFEF0
:104DD800D6F89C305B0601D500F06EFE0721204610
:104DE80002F0ECF81FB10121204602F0E7F8204656
:104DF80013F06DFD637B072B3ED1231DD3E8AF3F36
:104E0800DD0418D4E3781BB196F89030180712D552
:104E1800022142F21600FFF78DFE054658B1022125
:104E28000C3016F0A4FA238800220380294642F2A7
:104E38001600FFF7B9FE96F89130D90706D500217C
:104E4800022320461A46009112F0CEFF96F89030C1
:104E58009A0611D5D6F834319B689B070CD50DF10D
:104E68000E0103A812F06FFF30B92046BDF80E20DE
:104E7800BDF80C1012F09AFF204613F0EEFC5CE728
:104E8800784D002000000020EEBF020000B5C16888
:104E980089B00B7801A88DF80030B1F801300431E1
:104EA800ADF8013011F8013C8DF80330B1F8073046
:104EB800ADF81730B1F80930ADF81930B1F80B304A
:104EC800ADF81B304B7B8DF81D3012F029FE0749D9
:104ED8000DF10B0012F02BFE0DF1110012F027FE60
:104EE8006846FFF7F9FE09B05DF804FB02C002004E
:104EF80029289ABF014B185C0920704724C1020079
:104F0800024BD3F834315B69184700BF000000201A
:104F180038B505460C4619B9FFF70CFE044698B19A
:104F280040F635439D4209D12046FFF7E9FF054683
:104F380040B1204606F068FB284638BD21460448A3
:104F480016F0EDF90025F7E76FF06805F4E700BF04
:104F58001C010020F8B50446458B467E807A06F091
:104F680091FA214619F0D4FB184B93F83E309B0672
:104F78002BD5304602F0C6FB38B3437B073B012BE9
:104F880003D9BDE8F84013F068BC13F066FC0521AE
:104F980040F63540FFF7CEFD0446B0B100F10C07EE
:104FA8000121384616F0E3F9012604210670384637
:104FB80016F0DDF9002305808670C3702146BDE830
:104FC800F84040F63540FFF7A3BFF8BD00000020C9
:104FD8002DE9F0473C4FDFF80C8107F11409FB6815
:104FE80048466FF39433FB6001F0B0FF451C4FF067
:104FF800FF324FF0FF332946334810F04DFC60B1C3
:1050080040F6EC1342463149314811F034FD404036
:1050180080F311884FF0030002DF2B4E15B910F012
:10502800BDF9DCE7F368C3F38633042B42D1337B45
:10503800002B42D100220023264816F037F90446F7
:1050480060B940F67E1342462349214811F013FD0A
:10505800404080F311884FF0030002DFDFF888A09A
:105068004FF0FF324FF0FF331C480FF093FDDAF892
:10507800100120B106F0C8FA0023CAF81031204602
:1050880016F04FF9CAF810012046FFF739FF88B12A
:1050980012480FF059FD204606F0FCF90C22104B7F
:1050A8001F2102FB003022464088FFF7A5FC20465E
:1050B80006F0AAFA1436013DB0E7012BFAD130699F
:1050C800383802F081FAF5E774030020C1C0020005
:1050D80076C002001C01002071C30200F800002005
:1050E800403F002029C00200000000202DE9F041C7
:1050F800044600F10C06304616F099F9B4F8108011
:105108000546B8F1010F0CD840F68D531B4A1C49CF
:105118001C4811F0B0FC404080F311884FF00300A8
:1051280002DF3046022116F05CF90746007812F0DB
:1051380091FCC20706460CD440F691530F4A124917
:10514800104811F098FC404080F311884FF003009C
:1051580002DF052321460D4A387812F00AFDB3070D
:1051680007D56369A4F8108013FA85F5E560BDE8F2
:10517800F0812046BDE8F04106F046BA29C0020099
:105188005DC0020076C00200EAC00200E8FA010031
:10519800084A0346D2F8340130B9D96839B1596997
:1051A80029B1C2F8343170476FF0770070476FF05B
:1051B800150070470000002008B50421034812F0CC
:1051C800A0FCBDE80840002000F024BF88000020B3
:1051D80010B5FCF7E5F8034B1B6813B1BDE81040A8
:1051E800184710BD583F002070B52E4D0646D5F81B
:1051F800343188B0002B4FD06FF0020105F18800E0
:1052080012F0D0FC012112F07CFC10EA010446D116
:10521800254B0A4605F1F8001E6012F0C1FC05F5A1
:105228008E7019F05EFA00220023CDE906236FF094
:1052380008034FF48062CDE90243CDE900441B4BDB
:105248001B4904941B480FF0EFFA1B4919480FF04B
:105258009DFA1A4819F02BFB6FF007034FF4006210
:105268001749164800940FF079FD164913480FF0B6
:105278008DFAD5F83431DB689847044648B926B921
:1052880008B0BDE87040FCF78BB805F178000FF066
:105298005FFD204608B070BD6FF01204F9E76FF0AB
:1052A8007704F6E700000020583F0020D94F00009F
:1052B800B85A00204813002003C10200301400200F
:1052C800B85E002009C10200004870470FC1020003
:1052D800F8B506460025094FFB79ECB2A34202D87F
:1052E8006FF0010009E0C4EBC4013046394412F004
:1052F80036FF01350028EFD02046F8BD0000002019
:1053080037B504460D4671B12846124912F027FFF9
:1053180048B929461048C4EBC404204412F02CFFB5
:10532800002003B030BD684612F077FB0028F8D1A2
:105338006846FFF7CDFF0028F5DA074BC4EBC40039
:105348006946184412F018FF002DE9D00146284696
:10535800E4E700BFF5BF02000000002038B50622D0
:105368001149054610F076FCC8B1062142F2050045
:10537800FFF7E0FB0446A0B1062229460C3015F0E1
:10538800FCFF0022214642F20500FFF70DFC38B968
:105398000548294612F0EBFE012300F8013C0020E5
:1053A80038BD6FF06800FBE71D000020064BD3E80E
:1053B800EFCF4CF4004CC3E8E2CF002AF7D1037AD0
:1053C80019430172704700BF88000020084BD3E8DA
:1053D800EF2F22F40041C3E8E01F0028F7D113049F
:1053E80004D500220220034904F0C8BD704700BF5D
:1053F800880000201B840100002307B50549CDE97A
:1054080000036A46022004F0B9FD019803B05DF874
:1054180004FB00BF618201002DE9F341044670B12D
:10542800584D95F8F42095F8F5300AB19A4209D20A
:10543800013385F8F530237A43F00403237202B070
:10544800BDE8F08100210622084601F09BFF0646D0
:1054580048B120460121FFF7A9FF304602B0BDE858
:10546800F04113F0FAB98DF800006946464800F09B
:1054780005FB9DF8006026B101212046FFF796FF45
:10548800DDE705F1880012F067FE4106C0F38017DA
:105498001DD439463D4800F0F1FA95F8F53053BB74
:1054A80095F8F52095F8F4309A4237D1002242F267
:1054B80029001146FFF778FB10BB95F8F53001334A
:1054C80085F8F530237A43F00403237218E005F1D8
:1054D800880012F041FE0205C0F3C02104D5012165
:1054E8002046FFF763FF3146284800F0C7FA00203E
:1054F80013F044F8D1E7002012F081FE0028CFD045
:10550800012012F07CFE17B1012013F037F80021BA
:105518001F4802B0BDE8F04100F0B0BA224604F1DD
:105528000108414612F82A0B12F02DFE0646002803
:10553800E6D195F8F530013385F8F530237A43F054
:105548000403237295F85B305B07D9D5414668465A
:1055580012F012FE0123082142F24E008DF80730A6
:10556800FFF7E8FA04460028CAD0694608220C303A
:1055780015F003FF3246214642F24E00FFF714FBB6
:10558800BEE700BF00000020EB820100BB820100E3
:10559800378201002DE9F743044608B3504D95F8CA
:1055A800F42095F8F5309AB10132934211DC0021CC
:1055B8000622084601F0E6FE0646A0B12046022172
:1055C800FFF7F4FE304603B0BDE8F04313F045B9E9
:1055D80013B1013B85F8F530237A23F004032372D5
:1055E80003B0BDE8F0838DF807000DF107013D48D1
:1055F80000F044FA9DF8076026B102212046FFF723
:10560800D5FEEDE705F1880012F0A6FD4206C0F3CD
:1056180080182DD44146344800F030FA002012F0AA
:10562800EEFD074688B995F8F53095F8F4209A42CA
:1056380032D2013B85F8F530237A024623F0040381
:1056480002202A49237204F099FC95F8F53013B129
:10565800012012F0D4FDB8F1000F02D0012012F0A1
:105668008DFF0021224803B0BDE8F04300F006BAE0
:1056780005F1880012F070FD0305C0F3C02104D5C0
:1056880002212046FFF792FE3146174800F0F6F94E
:10569800002012F073FFC1E7072142F22800FFF74C
:1056A80049FA04F1010906460028CED007210C303A
:1056B80015F05DFE494612F05FFD3A46314642F26A
:1056C8002800FFF771FA0028BFD195F8F530013BA3
:1056D80085F8F530237A23F004032372B5E700BF79
:1056E80000000020EB820100BB820100F181010073
:1056F8003782010070B50D46044618B9BDB16FF088
:10570800150070BD1B4912F02AFD0028F6D1237838
:10571800012BF4D1A37903F0C003C02BEFD12046AD
:10572800FFF7D6FD0028E9DB6FF07700E9E7124DB7
:10573800EB79012B1AD005F1880012F00DFDC30793
:105748000BD5EE7921463046FFF7DAFD0028D8D18F
:10575800EB7930460133EB71D3E7002CCFD02046EC
:10576800044912F0FCFC0028EBD0C8E76FF00B00EE
:10577800C7E700BFF5BF02000000002073B504466C
:1057880098B1002141F2090001AAFFF70DFA064677
:1057980058B9019B0622DD680E490135284610F0EC
:1057A80059FA28B9019805F02FFF002002B070BD02
:1057B80006222846084910F04DFA0028F2D029465A
:1057C800601C12F0D4FC0198267005F01DFF012022
:1057D800ECE700BF02C00200FCBF020007B5684644
:1057E800FFF7CCFF044BD87118B169460020FFF7CA
:1057F80087FD03B05DF804FB00000020F7B5184BE7
:10580800054693F876300E46DB0703D4002420467D
:1058180003B0F0BD00214FF6094001AAFFF7C4F913
:1058280003460028F2D101981627C268547802323C
:10583800B44228BF34469C4202DC05F0E5FEE6E7A8
:10584800114607FB035602F1140C51F804EB6145AD
:1058580046F804EBF9D10988013331801632EAE7BA
:105868000000002070B5154D88B0EC792CB90121E5
:1058780002A8FFF7C3FFE871C0B90021084608B0C5
:10588800BDE87040FFF736BF02AB06FB02310DF1F1
:10589800010012F06CFC0123694610468DF80030B7
:1058A800FFF72EFD013410B108B070BD1626EB7954
:1058B800E2B29342E8D80020F6E700BF00000020DB
:1058C80010B50C4649B1064B00201B780B7012F03E
:1058D80067FD08B90123237010BD6FF01500FBE7C1
:1058E800000000202DE9F04190460E461D46024674
:1058F80000284BD0002B49D0CF07047831D5254F4D
:10590800B8F1000F13D088060AD4C4EBC403FB5CBB
:10591800012B15D02B70B2060FD543F002030BE014
:1059280097F890305906F0D46FF0850006E0C4EB84
:10593800C403FB5C012B03D02B700020BDE8F08171
:10594800072101FB04711046013112F0E6FC002822
:10595800F4D1C4EBC4043B5D2B70B8F1000FECD05C
:10596800D9E74B070ED50B4EC4EBC407F35D012BEB
:10597800E2D1072111FB0431314412F0CEFCF35D72
:105988002B70DBE712F022FD0123F9E76FF0150019
:10599800D4E700BF0000002010B50A4CE3790BB132
:1059A800002010BDFFF71AFF0028FAD1E379002B79
:1059B800F6D1FFF757FF0028F3D1601CBDE810406F
:1059C800FFF7CCBC00000020072208B503490930C6
:1059D80010F040F9003818BF012008BDF5BF0200DB
:1059E80070B5154B0278044683F823200D46FFF75F
:1059F800EBFF034620786BB9104901F08BFC044695
:105A080010B96FF00B0070BD042101F0D7FA002027
:105A18002C60F8E704F10906314612F0D7FF40B9C7
:105A28002078314601F076FC04460028E9D00521AB
:105A3800EBE76FF01500E6E700000020EEBF02007C
:105A480038B504460D46FFF7BFFF0346207873B903
:105A58000422094901F096FC044660B1057300214F
:105A680001F0ACFA2046BDE8384012F0F6BE052237
:105A780004F10901EEE738BDEEBF0200034610B598
:105A8800044812F0D6FCC20703D5BDE8104002480E
:105A9800184710BD481500203815002010B5054CD2
:105AA800A06930B16FF00101103012F0CCFC002376
:105AB800A36110BD0000002073B5324B9E69002E13
:105AC8005ED006F110050E21284612F0B5FC00281C
