:020000040100F9
:10000000F8550021313C0001173A0101053C00017F
:10001000053C0001053C0001053C0001000000001A
:10002000000000000000000000000000F93800019E
:10003000053C000100000000A1380001053C000162
:1000400079390001793900017939000179390001E4
:1000500079390001793900017939000179390001D4
:10006000D34D010179390001793900017939000155
:1000700079390001793900017939000179390001B4
:1000800079390001793900017939000179390001A4
:100090007939000179390001793900017939000194
:1000A0007939000179390001793900017939000184
:0800B0007939000179390001E2
:1000B80053B94AB9002908BF00281CBF4FF0FF31C7
:1000C8004FF0FF3000F00CB8ADF1080C6DE904CE2C
:1000D80000F008F8DDF804E0DDE9022304B0704719
:1000E800704700BF2DE9F04786468C460846089EB3
:1000F800154674461946002B40F0C1808542B2FA75
:1001080082F245D94AB1C2F1200300FA02FC9540B7
:1001180094402EFA03F343EA0C0C4FEA154EA8B2AA
:10012800230CBCFBFEF80EFB18CC08FB00F943EAD5
:100138000C43994528D9EB1808F1FF3704D29945A3
:1001480002D9A8F102072B44A3EB0903A4B2B3FB1D
:10015800FEFC0EFB1C330CFB00F044EA0344A042F7
:1001680014D92C190CF1FF3304D2A04202D9ACF1F6
:1001780002032C44241A43EA07401EB1D44000234A
:1001880034607360BDE8F0874746DDE76346F1E712
:1001980092BB431B01214FEA154EAFB2200CB3FBB3
:1001A800FEFC0EFB1C330CFB07F840EA03439845A2
:1001B80061D9EB180CF1FF3004D2984502D9ACF1A3
:1001C80002002B44A3EB0803A4B2B3FBFEFC0EFB16
:1001D8001C330CFB07F744EA0344A7424DD92C19FA
:1001E8000CF1FF3304D2A74202D9ACF102032C442C
:1001F800E41B43EA0040C0E7C2F120039540944065
:1002080020FA03F12EFA03F34FEA154E9040AFB2ED
:100218000343B1FBFEFC0EFB1C10190C0CFB07F88A
:1002280041EA0041884522D969180CF1FF3004D20F
:10023800884502D9ACF102002944A1EB08019BB220
:10024800B1FBFEFC0EFB1C110CFB07F743EA014354
:100258009F420ED9EB180CF1FF3104D29F4202D90C
:10026800ACF102012B44DB1B41EA004193E76046F5
:10027800E3E76146F7E76046A4E76346B8E78342E9
:1002880006D916B9002108467CE7C6E900E0F9E777
:10029800B3FA83F78FB9834201D3724508D8BEEB0E
:1002A800020460EB030301209C461EB9002169E7A4
:1002B8003846FAE7C6E9004CF8E7C7F1200CBB401E
:1002C8000EFA07F522FA0CF42EFA0CF1BA401C4388
:1002D80020FA0CF3B8404FEA144901431FFA84FE90
:1002E800B3FBF9F809FB18300B0C08FB0EFA43EACC
:1002F80000439A4540D9E31808F1FF3004D29A45E3
:1003080002D9A8F102002344A3EB0A0389B2B3FB84
:10031800F9F809FB183308FB0EFE41EA03418E4544
:100328002CD9611808F1FF3304D28E4502D9A8F1FF
:100338000203214443EA0040A1EB0E01A0FB02980E
:100348004145CE46434602D306D14D4504D2013835
:10035800B9EB020E68EB0403002EA7D0B5EB0E0232
:1003680061EB030101FA0CFC22FA07F3F9404CEAAD
:100378000303C6E9003199E74046C5E74346D9E794
:1003880001A1D1E900017047C07900801000000088
:100398002DE9F047D0F834900F46D0E90BA101EBD6
:1003A80009043034A245164615A3D3E90023DFF823
:1003B800588014D8A1FB0801FFF77AFE10A3D3E9EF
:1003C8000023A4EB0A0420F07F45A4FB0801FFF7F3
:1003D8006FFE20F07F403D603060BDE8F087AAFBEB
:1003E8000801FFF765FE06A3D3E9002320F07F4547
:1003F80009F13000A0FB0801E9E700BFAFF3008076
:100408008D49FD1A0700000000CA9A3B0000000051
:100418002DE9F04F044690F8440094F820306FF32B
:10042800000084F84400C0F3800060F386138DB0A8
:1004380084F8203004F12E0113F09DFF00264FF0C0
:10044800910CA78E6A4D94F82030A7FB050103F0A4
:1004580079030CFB0711C4E9056684F8203026707F
:1004680061A3D3E90023E461FFF722FE3123C4E945
:100478000236A36BDFF87C810F33984288BF236173
:100488004FF0540398BFA6636660A4EB0806B6FB5A
:10049800F3F698BF206116F0FF06074671D198F869
:1004A800803003F00703032B1ED9D4F83890B9F134
:1004B800000F19D04CA3D3E900234FF0910EB8F8E0
:1004C80088C0ACFB05010EFB0C11FFF7F1FD87425C
:1004D8000AD1D8F88C304B449F4205D302339F424F
:1004E8009CBFA9F1100323614FF0000913F03DFFF1
:1004F80009EB00084FF000093F4B0DF12C0BCDE93B
:1005080006433E4BCDF820B005932369CDF80C90F7
:100518000493B4F834C04FF0020A33A3D3E900239C
:10052800ACFB0501912505FB0C11CDF82CA0FFF7BC
:10053800BFFD104619464FF47A720023FFF7B8FD45
:10054800564408F10F08F6B2434632460321CDE976
:100558000170CDF80090484604F08AF9594606F033
:10056800C3FC054600283CD194F84430504643EA81
:100578000A0384F844300AF03DFA28460DB0BDE875
:10058800F08F012EB0D198F82C30DB07ACD5D4F819
:100598003890B9F1000FA7D013A3D3E900234FF087
:1005A800910EB8F834C04FF0000AACFB05010EFB01
:1005B8000C11FFF77DFD874296D1D8F838304B44AF
:1005C8009F4291D302339F428ED8A9F11003236131
:1005D800D8F83830C4F838A003F10209C8F838A0B0
:1005E80084E70C20CAE700BF8D49FD1A0700000008
:1005F800002AE78400370021016B000151780001CF
:100608002DE9F0410546002016461F4607F090FBED
:100618000446D0B32B074FEA550804D5012007F04C
:1006280087FB044688B394F82C0031B961F30200C3
:1006380084F82C000020BDE8F08194F844306D0166
:1006480067F3830384F844309DF8183005F02005DB
:10065800DB0003F018031D4394F8203068F3020010
:1006680023F038031D4384F82050912509A3D3E9CA
:10067800002384F82C000648A186A6FB000105FB90
:100688000611FFF715FDA063D4E70C20D3E700BFE0
:10069800002AE7848D49FD1A0700000000000000C9
:1006A8002DE9F04F0B7995B0063B0D461290072BBC
:1006B80000F28681DFE813F0080084015F00800003
:1006C80084018401840158018B680C939B685BB199
:1006D8008E239C4A9C499D4812F07CFD404080F343
:1006E80011884FF0030002DF0C9B1E6896F8493012
:1006F80030461A074CBF0023336D0B9307F07AFA84
:100708000230C3B2109301234FF000084746444615
:10071800C1460F93CDF84480CDF838800022129B53
:10072800EA602B60EB7E62F38203EB7695F821306A
:1007380033B195F82220900640F07881013BDBB276
:10074800002F00F040813A68B2F8A4100B44AB8344
:100758000023A2F8A4300B9B4BB196F8493003F064
:100768003002202A1CBF6FF3051386F84930002C8D
:1007780040F01D8448E18B680C939B685BB1A02313
:10078800704A7149714812F025FD404080F3118884
:100798004FF0030002DF0C9B1E6896F84930304684
:1007A8001B074CBF0023336D0B9307F023FA02306D
:1007B800C3B210930423A7E7D1F80890D9F80040F2
:1007C800204607F007FE00283DD0A36A0C9333B3F8
:1007D8003C2220465E4913F03AFB0430C3B2109322
:1007E8000C9B1F68384607F019FA99F80530064639
:1007F80003F007030F9300287CD10D2338462B7193
:1008080008F026F94FF00008E880D7F8A030CDF8B6
:100818002C80374611934646CDF838807EE7B823BA
:10082800484A4C49494812F0D5FC404080F31188A9
:100838004FF0030002DF3C222046454913F007FB36
:100848000C9B1B68FFDE204607F0E8F9AF680C90A8
:1008580020B3D7F808900C97B9F1000F0BD1C92332
:10086800384A3D49394812F0B5FC404080F31188B8
:100878004FF0030002DFD9F80040A36ABB420BD057
:10088800CC23304A3549314812F0A4FC404080F36B
:1008980011884FF0030002DFFF23A0E7D7F83C9050
:1008A8003E46B9F1000F0BD1D823264A2A492748DA
:1008B80012F090FC404080F311884FF0030002DFF3
:1008C800D9F80040A36ABB420BD0DB231D4A244958
:1008D8001E4812F07FFC404080F311884FF003005F
:1008E80002DF99F805303F6803F007030F93FF23F1
:1008F800109382E790F8492017074CBF0022026D39
:10090800022B0B9210D0042B18D0012B18D0FD23EA
:100918000C4A14490D4812F05DFC404080F31188E0
:100928004FF0030002DF04E20723002795F81A803E
:100938002B71C8F3C00811970E97EFE60823F4E768
:100948000623F2E775760101067701016A72010153
:10095800D4370021BE7601010C7701011977010116
:1009680014770101768101018F68FB6B63B14FF445
:100978009073A64AA649A74812F02CFC404080F381
:1009880011884FF0030002DF3C684FF00008204652
:1009980008F05EF8E880D4F8A03020461193FB7A7E
:1009A800464603F007030F93EB6844460E9308F09E
:1009B8004FF80530C3B2C146CDE90B881093ADE6B8
:1009C80040F23F13A4E7D4B1A28E13449BB2A3868E
:1009D800AB830B9B002B40F0C582236B002B40F0B0
:1009E800E98240F2EB23894A8B498A4812F0F2FBEC
:1009F800404080F311884FF0030002DFE7E2AB8349
:100A08000B9B002B40F089822946129806F0EEF9DC
:100A18000E9B33B101230E9A11461068137106F02C
:100A2800E5F915B0BDE8F04F06F0E6B995F92320D1
:100A380095F82330002AFFF68EAED90705F1240B6E
:100A480012D50B9B73B196F8493003F03003202B75
:100A580008D095F820105A4630466B7EC1F38011B5
:100A680013F08FFF05F12A0B95F823309A0748BF3A
:100A78000BF1060B580748BF0BF1010B13F00802E6
:100A88001CBF5A460BF1020B13F0100116BFCDF82C
:100A980034B00D910BF1030B990605D50B9B0BB1E7
:100AA800002A50D10BF1120B95F8233095F822202B
:100AB8005B0648BF0BF1010B05F12201C2F30502E9
:100AC800ABEB01010132C9B2D2B291429EBF511AB9
:100AD800CBB2114695F821A088BF00232A798A4510
:100AE8008ABFAAEB010A4FF0000A5FFA8AFA0D2AB8
:100AF8000ED16BB11A465946A879139308F0DEF95E
:100B0800119B2BB15A462946139B119800F038FCCB
:100B18000D9B002B4DD09A780D991302497803F458
:100B2800F8530B4345D0B8F1000F1AD15F2A40F2B1
:100B38008F80002F4BD03A68B2F8A4305344AB836F
:100B4800A2F8A48007E651783046090913F083FF1C
:100B58000028A7D05B462A462146304600F06CFAAA
:100B6800A0E7DFB954B1A38E53449BB2A386AB83ED
:100B7800236B2BB1236BDD602563DAE0A5F81CA09D
:100B880040F2DD13214A2549224812F023FB404058
:100B980080F311884FF0030002DFEBE73A68B2F800
:100BA800A4305344AB830023A2F8A430002CDFD137
:100BB800E6E707B33A68B2F8A4305344AB8300239E
:100BC800A2F8A430B8F1000F3FF4C5ADEEE73CB38E
:100BD800A38E53449BB2A386AB830B9B002B00F0E0
:100BE800E68196F8493003F03002202A00F0DF81D0
:100BF8006FF30513D9E12CB3A38E53449BB2A3869C
:100C0800AB83B8F1000FE8D0B2E700BF75760101F9
:100C18002C7701016A720101B97601013F77010160
:100C2800A5F81CA00B9B002B3FF4EEAE96F84930BC
:100C380003F03002202A3FF4E7AE6FF3051386F87D
:100C48004930E1E6A5F81CA0B8F1000FEAD097E713
:100C5800002C71D1B84813F0C5F80446F0B9EB7E02
:100C6800180744BF43F00403EB76002F00F085819A
:100C780000223968B1F8A4305344AB830B9BA1F828
:100C8800A420002B3FF4C0AE96F8493003F03001A1
:100C980020293FF4B9AE62F30513D0E790F820306D
:100CA80080F8008068F3C71380F820300C9BC0E9F7
:100CB8000B88002B08BF3B46C0E9058883620E9B62
:100CC800A0F834A000F11C09C0618363002F37D05D
:100CD8003B68B3F8A42092441FFA8AFAA3F8A4A0A8
:100CE8000D9BA5F81CA01A7899F8043062F3050347
:100CF80089F804300D9B9A7801235209934099F89A
:100D0800052063F3020289F80520EB7E13F0080240
:100D180023D043F00403EB76DFB129461298C7F8D5
:100D28003C9013F048FD99F804306FF3861389F866
:100D3800043015B0BDE8F08FA38E5344A386C5E7F1
:100D4800236B23B1DD60B4F834A02563C8E7E562FE
:100D5800F9E70C9BC3F80890E5E70C9B002B00F023
:100D6800B58096F8443013F0010340F014810C9AD2
:100D780093600D9B0D9A93F900307049002BACBF1E
:100D88001E234FF49673C9F80830977852783F02BB
:100D980007F4F85717430D9A5F43127899F805003E
:100DA80012F0400F14BF32224FF4FA727A43B2FBAA
:100DB800F1F803EB480340330121C9F8083000F08B
:100DC800070014F034F80F9A6B6912F0040F95F8C5
:100DD8002110A3F1300300F09580AA7EC900C2F368
:100DE8008002520001322B31914001F5BC72DE19AC
:100DF800361AA6EB08060023B61A3122C4E90132D6
:100E0800E36099F805304E4F03F00703032B8FBFBB
:100E18004FF4347303F10902D2005B1098BF22FA31
:100E280003F300F22E201844A0FB070140A3D3E9E6
:100E38000023FFF73DF93EA3D3E9002320F07F40CC
:100E48002061A6FB0701FFF733F9109B20F07F46CE
:100E5800FF2B19D000202B690121403BCDE9000070
:100E6800109A334403F08EFD10F0FD0F0CD04FF4B0
:100E78002B73344A3449354812F0ACF9404080F3BA
:100E880011884FF0030002DF3C223149204612F05E
:100E9800DEFF021D00202F492B69CDE906412E49AE
:100EA800089405912169403B0491CDE90200012194
:100EB800CDE90060D2B203F0DBFC10F0FD0F3FF487
:100EC80038AF4FF42F731F4A244923E527B1FB6B32
:100ED8007BB1FB6B4B450CD040F25623194A204995
:100EE8001A4812F077F9404080F311884FF0030058
:100EF80002DF3B6893F86E30190763D4C7F83C905B
:100F0800E56236E70F9A02F003020A440F990932A4
:100F1800D200C1F34001CA4069E796F8493003F0AE
:100F28003002202A3FF470AD64F3051387E600BF52
:100F38008D49FD1A07000000D037002140420F00FC
:100F480000CA9A3B75760101947701016A72010122
:100F5800D4370021A57F000155800001C177010128
:100F68005377010196F8493003F03002202A1CBF5C
:100F780067F3051386F849302FE50B9B002B3FF4E8
:100F880043AD96F8493003F03002202A3FF43CADD7
:100F980067F3051353E60B9B4BB196F8493003F002
:100FA8003001202903D062F3051386F84930236BFA
:100FB800002B37D096F84420D2071CD59D427FF4E9
:100FC800DAADB6E60B9B73B9236B002BF2D1294639
:100FD800129813F0F0FB3B6893F86E301B070CD5A2
:100FE800FB6B53B1A5E696F8493003F03002202A8E
:100FF8007FF4FEADE8E7DD602563A36A63B940F2DC
:10100800F5230A4A0A490B4812F0E4F8404080F3F5
:1010180011884FF0030002DF204615B0BDE8F04FFD
:1010280007F024B9002FD2D1DBE400BF75760101A7
:10103800207701016A7201012DE9F04F4FF0060B8C
:10104800046D8BB094F83E50814684F83F500BFBFA
:1010580005F505F1320626448A461746191D05226C
:101068003046984612F057FD3379052103F01F03E7
:101078003371304612F03BFF254495F8373000F0C5
:101088003F0060F30503012885F8373040F25281AC
:1010980099F8493094F86E20C3F3010363F3000212
:1010A80084F86E2009F14A015A4604F1200504F13A
:1010B800680012F030FD042208F10901284612F0F8
:1010C8002AFD284613F05DFD0322208608F10D0154
:1010D80004F1240012F01FFDB8F8103042F210712C
:1010E800E3859AF8212094F8273062F3020384F804
:1010F800273040F2E243B8F802B0B4F85E201FFA95
:101108008BF65E43731E01FB0233B3FBF6F39BB20F
:10111800A4F86030B4F860309BB2062B40F20D8121
:10112800B4F86030B4F85C20063B9BB29A4201D90F
:10113800A4F85C30062294F86E3062F3061384F843
:101148006E3098F808A094F828304FEA5A1A6AF3D3
:10115800C50384F8283013F09CFE054650460AF073
:1011680069FD2B1873437C4A03F5742303F23F236C
:10117800B3FBF2F363647308963BA36498F80130F9
:10118800022513F0200F0CBF1E234FF496736365DE
:1011980099F84930002065F3051389F8493006F0BD
:1011A8001FFD814502D1012006F01AFD90F8493053
:1011B80065F3051380F84930204607F049FC0C22F6
:1011C800D4F8983005461A71D880C3F80890A3F867
:1011D80022B094F8272083F824A0C2F3020283F8EF
:1011E800212094F82700012100F0070013F01FFECA
:1011F80098F8011098F800C001F01F037A694CEACA
:10120800032C636D303A03FB0C2294F827C011F0CD
:10121800400F0CF0070C0CBF00214FF41611BCF165
:10122800030F97F8213040F28A8097F81AE0DB0024
:10123800CEF3800E4FEA4E0E2B330EF1010E03FA59
:101248000EF303F5BC73A2EB00088844A8EB03086F
:10125800636C3122F61A0023BCF1030FC4E9013292
:10126800E3608FBF4FF434730CF10903DB004FEADE
:101278006C0C98BF23FA0CF3DFF8E09000F22E20F4
:101288001844A0FB090132A3D3E90023FEF710FF9D
:10129800A6FB096B324B20F07F4AC4F810A06366A6
:1012A80030462BA3D3E900235946FEF701FF4FF43C
:1012B800567307223F6908932A4B0535CDE9064343
:1012C800294B20F07F44CDE904A34FF0000A274BB7
:1012D800CDF80CA0A4FB033102FB0411F01A6BEB50
:1012E80001014FF47A720023FEF7E2FE18A3D3E956
:1012F8000023CDE90140A8FB0901FEF7D9FE403FD4
:1013080020F07F40EDB200903B462A46012150462E
:1013180003F0AEFA10F0FD0F0CD040F25933144A26
:101328001449154811F056FF404080F311884FF0DA
:10133800030002DF0BB0BDE8F08F0023F8E663443A
:101348000933DB004FEA6C0E23FA0EF37BE700BF8C
:101358008D49FD1A0700000040420F0000CA9A3B61
:10136800EDDA000125870001818600018D49FD1A0B
:1013780045780101097601016A7201010000000047
:101388002DE9F04704460E46154690B03BB12F783C
:1013980047B16A782C2A0CD07A1C934203D210B039
:1013A800BDE8F0870122DB1B013B03F0FF03154476
:1013B800ECE7222BF3D9222F01D03A2FEFD10422C8
:1013C80005F10F0104F1240012F0A5FB04F13E0819
:1013D800022205F1170104F1280012F09CFB0522F6
:1013E80005F11901404612F096FB94F842300521A8
:1013F80003F01F0384F84230404612F078FD94F859
:10140800433000F03F0060F30503012884F84330BF
:10141800C5D90021D4F88831C3F8A01001236A7F08
:101428005209934094F8452063F3471284F8452005
:101438006B7994F84420DB0863F3040284F84420B1
:10144800AB79D2B25B0963F3471284F84420A879D8
:1014580094F8452060F3040284F84520287AEA7954
:1014680042EA0022687A84F84820120A84F849205F
:1014780094F84A2000F00F0022F00F02024384F88B
:101488004A20687BD2B200F00F0C02F00F0242EA49
:101498000C1284F84A2094F84B2022F00F0242EAFA
:1014A800101284F84B20687AD2B2000960F3071250
:1014B80084F84B20D2B20F2A98BF0B4694F85320D9
:1014C80063F3071284F85320EA7AAB7A43EA0223DB
:1014D8002A7B84F84C301B0A84F84D3094F84E303F
:1014E80002F00F0223F00F03134384F84E302B7BD6
:1014F80094F84F201B0963F3071284F84F202A7DC4
:10150800EB7C43EA02236A7D84F850301B0A84F896
:10151800513094F8523002F00F0223F00F031343B6
:1015280084F8523094F83C20AB7F61F3060284F8CB
:101538003C20A363EA7F43EA022394F83C20A36398
:101548006FF3060284F83C2095F8202043EA024312
:1015580094F83C20A3636FF3060284F83C2095F8C6
:10156800212043EA0263A36394F83C306FF3060337
:1015780084F83C3095F82220DBB262F306031A06A1
:1015880084F83C3040F184813A2F40F08181CA4B85
:10159800082205F1230104F157000B9312F0BBFA5E
:1015A8000CAB0BAA05F12B0104F5C97012F0C7FBAF
:1015B80060B14FF4DD73C14AC149C24811F00AFE57
:1015C800404080F311884FF0030002DF94F8773031
:1015D800042243F0010304F15B0184F8773004F13D
:1015E8005F0704F17C0012F096FA102238460CA925
:1015F80012F032FC1C230021A4F8703184F8721117
:1016080004F18C0204F1FC0342F8041F9342FBD15D
:10161800002104F5B67243F8041F9A42FBD195F8ED
:101628000490EB784FEA490949EAD3196B7942F2F9
:10163800107203F0070349EA432940F2E243A4F891
:101648002A9003FB09F9B4F88C3102FB0393013BA0
:10165800B3FBF9F39BB2A4F88E31D4F8883193F830
:10166800288013F016FCC8F3C208074640460AF063
:10167800E1FA3B1809FB03F3934A03F5742303F2D9
:101688003F23B3FBF2F3C4F874314FEA5903963B96
:10169800C4F87831EB7894F8450013F0400F0CBF8C
:1016A8001E234FF496730121C4F88431400913F0C6
:1016B800BEFBEB78A97803F03F0341EA0321D4F895
:1016C80084318046B4F88C00594307F06BFE94F8D7
:1016D8004F3094F8445094F853201B096D091209AF
:1016E80005FB0322A36C7769C3F313035A434378BA
:1016F800303F013B5A43D4F888310F4493F8271000
:1017080096F8213001F00701032940F2C880B17E24
:10171800DB00C1F3800149002B3301318B4003F515
:10172800BC73A7EB08071744FF1AD4F874313122A9
:10173800A9EB03050023C4E90132E36094F83C30C7
:1017480094F845105B097F2903F004034FEA51120E
:1017580095BF9B189B0103F5847303F585439BBFD5
:10176800DB0052101033D34008F22E20DFF85C81E2
:101778001844A0FB08014EA3D3E90023FEF798FC08
:101788004BA3D3E9002320F07F402061A7FB080189
:10179800FEF78EFC336920F07F49403B994412F0F4
:1017A800E4FD00F10F01484612F0E1FD030218D5EF
:1017B800D4F8742194F84410AB1A1F44D4F880313B
:1017C80049091344C4F88031A26B94F83C3052188C
:1017D800C3F3060040F1000161F30603A26384F835
:1017E8003C303B4B3B4A2046DA6007F0C9FB30A34C
:1017F800D3E90023A5FB085A814651462846FEF73F
:1018080057FC40F2312336690893334B0722CDE960
:101818000643324B09F106090593236920F07F44FA
:1018280004934FF6FF7303932D4B403EA4FB033103
:1018380002FB0411E81A6AEB01014FF47A720023E3
:10184800FEF736FC1AA3D3E90023CDE90140A7FB34
:101858000801FEF72DFC5FFA89F920F07F4000901F
:1018680033464A460121002003F002F810F0FD0F2C
:101878003FF495AD40F23223104A1A49114811F04D
:10188800A9FC404080F311884FF0030002DF86E591
:1018980094F83C306FF3C71384F83C30AAE60B4445
:1018A8000933DB004910CB403BE700BFAFF30080B2
:1018B8008D49FD1A07000000334749425979010153
:1018C800C07401016A72010140420F0000CA9A3BCC
:1018D8001404002165E20001759000019D8F00014C
:1018E8008D49FD1A0976010138B5134B0546984212
:1018F8000C460BD97623114A1149124811F06AFC9B
:10190800404080F311884FF0030002DF0E4BE117CF
:10191800E41841F10001601941F1000104A3D3E981
:101928000023FEF7C5FB104638BD00BFAFF30080AB
:10193800E27F841E00000000E17F841E5D7A0101C1
:10194800B17A01016A720101E27F841E0000000081
:1019580038B5144612F009FD214612F008FD044678
:1019680010F4000021D103340F2C1DD9072540F2B3
:10197800D913114A1149124811F02CFC0CA3D3E9D0
:1019880000231048A4FB000105FB0411FEF790FB9F
:101998000D4902460D4811F01DFC404080F31188A6
:1019A8004FF0030002DF012038BD0020FCE700BF34
:1019B80000CA9A3B000000001F7D010176810101E9
:1019C8006A7201018D49FD1A857E0101327E01018D
:1019D8002DE9F04F89B004460CF074FEC0B200281F
:1019E80042D113F02DFA94F83450C5F3C405013DE3
:1019F800EDB200264FF01C0837464FF0010A08FBED
:101A080005F994F8342094F8240002F00703B3EBA6
:101A1800501F4FEA501EC0F0E78194F82FC094F889
:101A280032B04FEA1C1CBCEB1B1F4FEA1B1140F2E3
:101A38001283002F40F0048313466AF3020384F8EC
:101A480034305B46013161F3071384F8323094F87F
:101A580052314B441C3354F82330002B00F0DD8105
:101A680001360127F6B2CCE70CF04CFEC6B20CF0FA
:101A7800C9FF5A4A1378013313700DF001F9B0BB4E
:101A8800574BB4F86C001E7013F024F894F8341017
:101A980094F83330C1F30205C3F303021544627F9F
:101AA800013DC2F30002154494F8322094F82470E2
:101AB80012097F09013A02FB075594F82F201B09E8
:101AC800120907FB02334278C2EBD10203FB02552D
:101AD800A36AEDB2C3F313035D430DF0C5F8401BD1
:101AE8000DF0C8F80DF0D2F8401B0DF0D5F813F042
:101AF800A7F994F83420D1084D1EEDB2002E3FF41A
:101B080078AF94F8243002F00702B2EB531F6FD17C
:101B180094F82F2094F832001209B2EB101F67D105
:101B280094F8332002F00F00B0EB121F60D103F0DD
:101B38001F038B425CD1637FDE0759D5C3F30212C2
:101B480062F343030120637707F03EFE064660B95F
:101B580040F26723234A2449244811F03BFB4040C4
:101B680080F311884FF0030002DF96F8203003F06D
:101B78000303032B7FF43DAF96F82330012B0DD1DF
:101B880094F86630002B7FF434AF96F8243084F84C
:101B98006630B6F82530A4F868302AE7002B7FF4C1
:101BA80028AF94F8653098067FF423AF06F1240730
:101BB8000521384612F09BF901287FF61AAF94F8F0
:101BC8006530052260F3050384F86530394604F171
:101BD800600011F0A0FFB6F82930DCE727430021A8
:101BE80026430021DE7F0101E17E01016A720101C5
:101BF800022007F0E9FD064600283FF4FAAE90F807
:101C08002020910609D5637FC2F38202C3F3420103
:101C180091421CBF62F30613637794F8523194F82B
:101C28003420013BC2F3020294F82B10134494F8B9
:101C38003320C1F30311C2F3030201FB023394F80A
:101C48005021DFB2BA429CBFBA1AD7B294F83520F5
:101C580002F01F0204EB4202B2F86C80404612F018
:101C680039FF94F834204378B3EBD20F7FF4C1AE38
:101C780096F82130002B3FF4BCAE4FF01C0909FB4D
:101C8800057904EB8909D9F87030002B7FF4B1AEDF
:101C980094F85231BB4204D994F85131BB427FF6D3
:101CA800A8AE94F91C30002B1FDA0DF08FF860B93C
:101CB80040F29B23DA4ADB49DB4811F08BFA4040BB
:101CC80080F311884FF0030002DF0DF09DF860B932
:101CD80040F29E23D24AD549D34811F07BFA4040BE
:101CE80080F311884FF0030002DF07F08BFD042317
:101CF800A6F80680337194F8247094F82B10A26922
:101D08007F09D940D21B237F94F83470C3F30603AC
:101D180007F0070763F10003013FD21994F8330075
:101D280003F07F0343F1000300F00F0003F07F038B
:101D3800E0FB0123B260327B63F306023273B4F82E
:101D48006C0012F0C7FE03900CF046FF04900CF0F4
:101D580097FF94F824A094F833804FEA5A1A08F0B1
:101D68000F030AF1FF32134493FBFAF394F82B2084
:101D78004FEA1818120953436289534340F2E2426A
:101D880002FB0307A4A3D3E9002394F82500400924
:101D980013F02FFA4FF0070E04998346A448A7EBD7
:101DA8000B07A1FB000C0EFB01C1FEF781F994F8AB
:101DB8002F3007441B090AFB0388A36AC3F31303E4
:101DC80003FB08F8039B5B78013B03FB1877994BEF
:101DD800B7FBF3F203FB1277B38937616FF3CE13C6
:101DE800B381C9F8706004E6013303F0070363F3B5
:101DF800020284F8342094F85221013A134494F8EA
:101E08005021DBB29A429CBF9B1ADBB24B441C3375
:101E180054F82330002B40F0758194F834B04FEA21
:101E2800DB0B07AA211D584612F072F807A812F01A
:101E3800A8FE04F10801022207460DF119008DF8E9
:101E480018B011F068FE07A80CF0AAFB9DF81A104C
:101E5800BDF8183040F25B6043EA01410CF046FCE3
:101E6800BBF1000F40F0938294F8670009F0B4FDCD
:101E7800012007F0A9FC054660B940F21643684AFC
:101E88006D49694811F0A6F9404080F311884FF078
:101E9800030002DF94F91C302035002B80F2CB823E
:101EA80094F82430A169227F5B09C2F30602C91A9B
:101EB80062F1000202F07F02BBF1000F11D094F82A
:101EC800343094F8330094F82B6003F0070300F0E3
:101ED8000F003609013B06FB00335B18194642F137
:101EE800000204F15806C4F84F10C4F8532004F156
:101EF80037010422304611F00EFE3146304607AA5B
:101F080011F0D1FF94F825102A46490904F13F0041
:101F18000CF0EEFE0CF088FB0CF03CFDB4F86C0005
:101F280012F0D8FD94F8345094F83320C5F3020326
:101F3800C2F303010B44617F013BC1F300010B4471
:101F480094F8321094F8246009097609013901FBE4
:101F5800063394F82F101209090906FB012241786B
:101F6800C1EBD50102FB0133DEB2344BA56A93F80D
:101F78000080C5F313057543B8F1000F00F05D82CA
:101F88000CF07EFE804694F825000121400913F0EC
:101F9800CBF994F8253002465B09184613F029F965
:101FA800043D0121454480461846AD1A13F0BAF99C
:101FB800A5EB0805291A00200CF0E8FD00EB8605C2
:101FC800113594F825000121400913F0ABF994F874
:101FD800253005445B09184613F00BF90121054427
:101FE800184613F0A1F928440CF008FE0CF060FE26
:101FF800217F94F824200023A069520901F07F0171
:10200800FEF756F8411E3A46204689B213F0FDF80D
:1020180009B0BDE8F08F00BF00CA9A3B000000007D
:10202800DE7F01015F7501016A7201012D800101E6
:102038008D49FD1A0080841EE17E0101274300219D
:102048005B46ACEB010101FB0E6E6CF307135FFA04
:102058008EF684F8323094F833304FEAD20B03F01E
:102068000F01B1EB131F05D2013161F3030384F8AB
:102078003330D6E600F01F0058454CD994F8351097
:1020880094F86AC0C1F304030133DBB29C4550D90C
:102098000A4603F01F0363F3040284F8352004EBB7
:1020A8004303B3F86C0012F015FD94F8241090F86F
:1020B80001B001F01F02934527D8638E94F82F00D2
:1020C80023F47F6343F010034FEACB02638642F0A8
:1020D800010249090009C3F3033300FB013384F803
:1020E80034200BF1FF32D2B2561B013E5E4394F806
:1020F8005231F6B208FB02331C3354F82330002B5C
:102108003FF48FAE0136F6B27BE494F8343062F3D4
:10211800C70384F83430637F13F0010B0DD1C3F388
:102128000212C3F342018A4207D043F001036377E6
:1021380077E6134660F3C703EBE70026354694F8C5
:10214800353094F852916FF3040384F8353094F8DD
:102158002430F7B203F01F03BB4222D884F852910F
:102168000DB104F049FE05F07BF8064660B940F26F
:102178009D33C54AC549C64811F02CF8404080F344
:1021880011884FF0030002DF94F86650002D00F02C
:10219800B48006233370204609B0BDE8F04F09F03B
:1021A8004DBC94F83530013703F01F0304EB4303AB
:1021B800B3F86CA0FFB2504612F08CFC4378BB42D7
:1021C80017D194F8243094F85281DFF8C8B25B092B
:1021D8005F1EFFB27BB994F8352094F86A10C2F3F9
:1021E80004030133DBB2994284BF63F3040284F829
:1021F80035200136ABE71C2303FB068304EB83037E
:102208001D6F9DB100221A672946286807F010FB48
:1022180094F8503108F101095FFA89F94B458CBFF0
:10222800C8464FF000083B46C146D1E7022007F0F8
:10223800CBFA05460028EBD007F0E4FA95F82030F1
:10224800A5F806A06FF3010385F82030002385F870
:10225800213004232B71A269237FD21BC3F3060309
:1022680063F10003013AAA6003F07F032A7B43F17C
:102278007F0363F306022A73B4F86C0012F02AFC99
:1022880003900CF0A9FC05900CF0FAFC049094F86B
:102298002500814B400912F0ACFF4FF0070E05995D
:1022A8008146A1FB030C76A3D3E900230EFB01C1F1
:1022B800FDF7FEFE049B94F82F20A3EB090394F886
:1022C8002410184494F83330120949091B0901FBFA
:1022D8000233A26AC2F313025343039A5278013AB3
:1022E80002FB1300B0FBFBF301220BFB1300AB89CD
:1022F800286162F3CE13AB8186E794F865309A06BD
:1023080023D0217F94F824202B46A069520901F09C
:102318007F01FDF7CDFEB4F86830C01A030414D469
:10232800052204F1600104F11E0011F0F4FB94F899
:10233800652094F82330C2F3050161F3050365F3C2
:10234800050284F8233084F8652005235349337047
:10235800534BB27909781B7861F30002B380B271EC
:10236800002B3FF418AF94F82500400912F041FF04
:1023780030610CF085FC05460CF094FC2D1AB56014
:10238800D4F86031F3600023C4E9583303E716B981
:1023980094F836006AE594F83430C3F3C403013B7B
:1023A8005FFA83F8454544D0217F94F82420A0693A
:1023B8000023520901F07F01FDF77AFE94F823A06B
:1023C80004F1120301930AF03F0A04F1100304F127
:1023D8001E0901384A463946009380B2534612F026
:1023E800FDFB94F8243094F82F1094F833205B09FF
:1023F8000909120901FB0322A8EB0503013B02FBB3
:102408001363DEB204F1100504F11E0804F1120989
:10241800002E3FF42BAD94F823202B464146384636
:10242800CDF8009002F03F02013E12F026FCF6B211
:10243800EEE70020E6E728466CE50CF033FC05449F
:10244800294640460CF0A2FB0135854206460CD0D1
:1024580040F262430C4A13490D4810F0BBFE40405D
:1024680080F311884FF0030002DFD4F86031D4F80C
:102478006451303305EB43053544A2E5AFF30080E2
:1024880000CA9A3B00000000DE7F0101E3700101F1
:102498006A7201010080841E8D49FD1A26430021BD
:1024A800274300213A80010101480FF069BC00BFB1
:1024B8003419002138B5094D4FF0FF324FF0FF3382
:1024C800284612F063FF044601F0CCFD10B1204607
:1024D8000CF0B8FF10F07EF8EEE700BF54190021A9
:1024E800034673B5054613F8010B0E46022801F1A1
:1024F800FF3424D0052834D0012843D1022C41D9F7
:1025080003220020CDE900320022002301F068FDFB
:102518000446B8B3EB78321F9A4204D002B0BDE843
:1025280070400CF08FBF291D04F10C0012F068FFF9
:102538002146154802B0BDE8704012F02DBF032CAB
:1025480020D90422CDE900320022002301F048FD01
:102558000446B8B1B5F80330721F9A42DED1691D3E
:10256800E2E7032C0ED904200022CDE90030002335
:1025780001F036FD044628B1B5F80330721FC3F3E5
:102588000D03EAE702B070BD5419002170B5284860
:1025980088B001F071FD00220023CDE90623002355
:1025A8006FF00802CDE90133CDE9032300934FF41E
:1025B8004072204B204921480FF070FA20491F48EB
:1025C80013F0B3FF1F4810F013FE1F4A1F491D48A0
:1025D80010F01CFE4FF0FF324FF0FF331C480FF095
:1025E800EFFB134D194E4FF0FF324FF0FF332846E3
:1025F80012F0CCFE017E0446032906D0052905D039
:10260800012910D00CF01EFFEDE7022104F10C00A7
:1026180012F007FF3046228AE16810F00BFE00280E
:1026280003DB2046EEE70421F0E70FF0D3FFF1E7E4
:1026380044190021BD24000138430021F819002164
:102648009C700101146C010110000021102400216C
:1026580034190021014B1B68184700BF28000021CE
:10266800014B1860704700BF2800002107B50B46D2
:10267800002102460091034800F014F903B05DF808
:1026880004FB00BF5D2600012DE9F047058B0446D9
:102698002807904611D4022905F0070540F0CD809F
:1026A800204610F03CFC78B10138218B042811D861
:1026B800DFE800F0C3106D85950001290CBF45F0D7
:1026C800100545F02005258388F31188BFF36F8F27
:1026D800BDE8F08701F0070AAA4500F0A6800027A8
:1026E800B9463E46A368002B00F0BD8041F00801C2
:1026F800218388F31188BFF36F8FA168002900F048
:10270800BB800D68002900F0B7803346524620464A
:10271800D1F80480C047002D76D02B6829461D4685
:10272800F0E701F007035A1F012A1BD8002221F005
:102738000701062B276889B2C4E9002209D13B4664
:1027480003E0628B013262831B68002BF9D141F0F0
:1027580002012046218310F0E2FB00287BD041F0E3
:10276800200177E0042B0AD121F0070189B2204625
:10277800218310F0D4FB10B141F020012183218B7B
:1027880001F0070AAA4550D00027B946AAE72369ED
:1027980021F0070141F00601062DD3F800902183AE
:1027A8002DD1B9F1000F40D041F00801218388F301
:1027B8001188BFF36F8F20463949C84729E021F0B7
:1027C8000701236941F0040189B2042DD3F804906C
:1027D8002183E6D000274FF0040A3E4682E721F025
:1027E8000701236941F0050189B2052DD3F8089046
:1027F8002183D6D000274FF0050A3E4672E700270E
:102808004FF0060A3E466DE72B4687E7B9F1000F01
:10281800D1D14FF02003EFF3118883F31288BFF36F
:102828006F8F238B23F008032383258BEA062ED58D
:1028380025F01003238305F007056669218B002E18
:10284800BFF66FAF00232768C4E9003321F0070102
:1028580041F001012183218B4FF0000901F0070AA3
:10286800AA457FF43FAF002F9BD041F00801218398
:1028780088F31188BFF36F8F002FC7D03D683946A2
:1028880033465246204610F076FB2F46F4E7AB0657
:102898007FF51AAF25F02003238305F00705FFE62F
:1028A800AB2F01012DE9F04F81468B4617461C4698
:1028B800002595B0387808B9284657E37B1C2528A9
:1028C800039306D05946C8470028C0F24F83013504
:1028D800FBE1182200210EA811F028F97B78252B9E
:1028E8007DD0002398469E469C461E46781C01468D
:1028F80010F8012B2B2A00F0A18000F29880202AE2
:1029080000F09F80232A00F09F802BB19DF8403073
:1029180043F040038DF84030B8F1000F05D09DF822
:10292800403043F020038DF84030BEF1000F05D051
:102938009DF8403043F010038DF84030BCF1000F93
:1029480005D09DF8403043F008038DF840302EB193
:102958009DF8403043F004038DF840309DF8403036
:1029680003F04400442803D16FF386138DF84030F8
:102978009DF840302A2A43F080038DF840307FD1FB
:102988009DF841204B1C42F001028DF841201A7835
:102998002E2A0CBF012100219DF8412061F341023C
:1029A8008DF8412078D15A782A2A6ED000224FF02B
:1029B8000A0C0133194611F8010BA0F13006092E53
:1029C80040F295809DF840101292C1F3400040EA11
:1029D800D2700A4660F341028DF840205CE0BA1CD0
:1029E80003928DF843309DF84130DA0740F12E818B
:1029F80054F8048BB8F1000F07DA9DF84020C8F1AD
:102A0800000842F004028DF840205E0740F127815B
:102A180054F804ABBAF1000F80F226819DF84130DA
:102A28006FF341038DF841304FF0FF3A1CE12D2A36
:102A38000DD0302A7FF469AF012358E74FF0010C1D
:102A480055E74FF0010E52E74FF001084FE7012616
:102A58004DE703460EFB0262303A184610F8016B48
:102A6800A6F1300CBCF1090FF3D999428FD09DF82B
:102A780040101192D20F62F341018DF8401086E7A1
:102A88000B4600224FF00A0EE7E79DF8412002337B
:102A980042F004028DF841201A786C2A47D02BD8CE
:102AA800682A31D06A2A4BD04C2A51D01A4612F8DB
:102AB800013B782B03928DF843309DF8412000F2BA
:102AC800BE806D2B51D8692B00F2B980572B67D87F
:102AD800412B03D0453B022B00F2B18004229DF824
:102AE800423062F302038DF84230012373E00CFB9D
:102AF80002020B46303A5DE7742A25D07A2AD5D1EE
:102B080006219DF841200CE05A78682A9DF841205A
:102B180006D1012161F3C6028DF841200233C5E7D1
:102B2800022161F3C6028DF841200133BEE75A78CD
:102B38006C2A9DF8412001D10421EBE70321F0E73D
:102B480005219DF84120ECE707219DF84120E8E7A1
:102B5800BDF8402022F4F04222F0020242F4804202
:102B680042F00202ADF84020DFE76E3BD9B2012304
:102B78008B4040F282410B4237D113F0240F51D1E0
:102B8800D8075CD503219DF8423061F302038DF824
:102B9800423002F07803A3F140014B424B411AE066
:102BA8000120A3F15801C9B200FA01F111F4624FF2
:102BB80094D140F6010631421DD111F4043F3ED0B4
:102BC8009DF8423060F3020302F07802402A8DF843
:102BD800423034D000239DF84020C2F340010B431B
:102BE80063F341028DF84020FDE602219DF8423052
:102BF80061F30203E8E702209DF8421002F0780230
:102C080060F30201402A8DF8421002BF9DF840107F
:102C180041F001018DF84010632BDBD1131E18BF62
:102C28000123D8E703219DF8423012F0780F61F3B1
:102C380002038DF8423014BF01230023CBE79DF82F
:102C4800403043F001038DF84030C3E79DF9402040
:102C5800002AACBF4FF0FF38DDF84480D5E698076E
:102C68007FF5E2AEDDF848A00023CDE911339DF8E9
:102C780042309DF8411003F00703012BC1F3C30153
:102C880033D1CB1E042B04D8DFE803F021464621BC
:102C98002100236801294FEAE372CDE90E321CD1E5
:102CA8009DF93830DA17CDE90E3204349DF84030FA
:102CB80013F0030650D03A4659464846039B10F095
:102CC80072FA0028C0F252810544039FF2E554F8D5
:102CD800043BDA17CDE90E32E8E70229E5D11AB24A
:102CE80043F3C033CDE90E23DFE7022B24D1CB1EFB
:102CF800042B04D8DFE803F0181010181800012975
:102D08004FF0000254F8043B14D00229CDE90E32EA
:102D1800CCD19BB20E93C9E7073424F00704F4E83A
:102D28000223CDE90E23C1E754F8043B0E93002398
:102D38000F93BBE7DBB2CDE7042B08D1073424F0AF
:102D48000704D4E900230834CDE90E23AEE7032BAA
:102D5800ACD154F8043BDDE79DF843007828B4D89B
:102D680062281CD825283FF4ADAD5828ADD1DDE93F
:102D78000E010DF13603009310AA08AB10F0CDF93F
:102D8800BAF1000F074680F29980002F9DD00DF10F
:102D98003603D81B002E00F0C0800130BDE0633838
:102DA800152892D801A252F820F000BF892E000100
:102DB8009B2E0001D32C0001D32C0001D32C000141
:102DC800D32C00019B2E0001D32C0001D32C000131
:102DD800D32C0001D32C0001272F0001BF2E0001A6
:102DE800E52E0001D32C0001D32C00010D2E00018B
:102DF800D32C0001BF2E0001D32C0001D32C0001DD
:102E0800BF2E0001BAF1000F0E9F35DB5146384640
:102E180010F049FE07EB000A002F3FF456AF0026DA
:102E28009DF8423013F01002059200F092800230B3
:102E38005B06119A48BF129B104448BFC018B8F1EE
:102E4800000F049240F39F809DF84020A8EB0008F3
:102E5800C2F380035007069300F19580510640F1B4
:102E680088803EB159463046C84700287EDB069B1D
:102E780001351E4630227DE0384610F00DFEC9E7C8
:102E88000E9B002601208DF8203008AF0DF1210A95
:102E9800C6E719075ABFC3F300135E012B26DDE905
:102EA8000E23002BBFF663AF524263EB43032D267C
:102EB800CDE90E235BE7002659E700269DF8402060
:102EC8000DF13603DB1B6FF386129A458DF840200F
:102ED8007FF65BAFAAEB0303119356E70E9890B306
:102EE8000DF136030093002108AB10AA10F015F974
:102EF800BDF84230BAF1000F03F0EF0343F4F0439A
:102F080043F010030746ADF84230D6DA00283FF404
:102F1800DCAE00260DF13603181A9A4680E70E9BA0
:102F280007293FF6D2AEDFE801F00C04060C0808CA
:102F38000C0C1D70C9E61D80C7E6EA17C3E90052EC
:102F4800C3E61D60C1E62F4F064607F1050A0520B6
:102F580066E71A0748BF01306AE7104607930692EA
:102F68005946C847DDE90623002804DA15B0BDE84C
:102F7800F08F202243461946002903F1FF33ECDC89
:102F8800454498466D1A2EB159463046C847002820
:102F9800ECDB01359DF84230DA0601D41B0705D574
:102FA80059463020C8470028E0DB0135059B33B17E
:102FB80059469DF84300C8470028D7DB0135049ED1
:102FC8002E4405E059463020C8470028CEDB01359D
:102FD800731B002BF6DC53463A465946484610F018
:102FE800E2F80028C2DB0544A844A8EB0503002B3F
:102FF8007FF76BAE59462020C8470028B6DB01355D
:10300800F3E700BFCF7001014FF02002EFF3118307
:1030180082F31288BFF36F8F0121044AC2F840156A
:1030280083F31188BFF36F8F0020704700000841B9
:1030380020B1034B800143F001031847704700BFDC
:10304800806E01010DF0BEBA30B50C460E4985B050
:103058000291D0F8A4110546CDE9003100F1E00154
:103068004FF0FF3320460EF0D9F950B9012384F808
:103078006430D5F8A03123B1204605B0BDE8304012
:10308800184705B030BD00BF5F33010138B50C46A5
:103098001146054610F061F9034638B92846044937
:1030A80010F05BF903460020236038BD0120FBE7E0
:1030B800FD8201012DE9F04F01238146056946682B
:1030C80085B005F55777D7E8EF2F002A03D1C7E871
:1030D800E13F0029F7D140F0B880B368B26A043BF9
:1030E8002632B3EB420F4FEA420126BFB3FBF1F39E
:1030F800B3FA83F300234FF0010428BFC3F1200380
:10310800013B9C4005F5E07800F0998010220821E9
:1031180070689A4002EB4402043099400932C5F8BD
:103128005802063122F003020A44B16A01FA03FC8C
:10313800510001EB4C01C5F85C12B16A994000EBF3
:103148004103C5F850320333134423F00303C5F891
:103158004C327368C5F85442C5F848323C4B404677
:10316800C5E9A763316800F01DFA044630BBD9F8F9
:1031780004A0D9F81090DAE9073409F52E7B012B61
:10318800584608BF103C13F042FB0023DAF824002D
:1031980030494FF4806201EB802100935846234662
:1031A8000EF02CFF09F52A702B4913F002FBDAF810
:1031B800140083685C681CB96FF05704002137E07D
:1031C8004B46264ADAF81810A04704460028F5D1DD
:1031D800DAF8140083681B69002BEDD00122DAF8B5
:1031E8001810984704460028E8D11D4B2846C5F812
:1031F800A0311C4BC5F8A4311B4B0393D5F80832FA
:103208000293D5F80032CDE90083D5F86032B26A6E
:10321800D5F8581300F08EF904460028CED105F1F0
:10322800E0000EF0A9F90028C5F860030ADB0221C6
:10323800384610F0C7F8204605B0BDE8F08F6FF0AB
:103248000B04BBE76FF01504B8E76FF07704F2E7FB
:10325800B5330101384600219B3301018F33010149
:10326800393300016D340101FD3301012DE9F843C3
:1032780006464FF001090569D0F8048005F557772F
:10328800D7E8EF3F022B03D1C7E8E29F002AF7D126
:1032980049D1264805F1400110F00EFC20B16FF02D
:1032A8000F042046BDE8F883204805F1B00110F06E
:1032B80003FC0028F3D12846D5F8581310F005F977
:1032C800044670BB71683669486983681B6933B303
:1032D800224689699847044618BB06F52E76494662
:1032E80030460EF0C3FE304605F5E07600F0B4FC3B
:1032F8003046D8F8001010F025F9044688B9014680
:10330800E822304610F012FC21464FF4DE722846BF
:1033180010F00CFC2146384610F054F8C1E76FF065
:1033280057040221F7E76FF07704BAE7FD8201013D
:1033380013B5044640B100230122CDE90032074B02
:10334800D0E909120EF01EF8A36E1B6823B1E06ED7
:1033580002B0BDE81040184702B010BDFD8201015F
:1033680013B504460846216901F55771D1E8AF1F26
:10337800022910D193B1A0B10121CDE90031134642
:10338800D0E909120DF0FEFF074B984208BF6FF015
:103398000B0002B010BD6FF00F00FAE76FF04C00A1
:1033A800F7E76FF00100F4E72EF8FFFF2DE9F74388
:1033B80088461546066906F55773D3E8AF3F022BD2
:1033C8005FD1136823B96FF0150003B0BDE8F0832F
:1033D8001B78002BF7D0D6F85893B9F1000F33D1EA
:1033E80006F5D4774FF0FF324FF0FF3338460EF032
:1033F800DDFB30462A6801A9FFF748FE019C1CB98D
:1034080038460FF0DDFFDEE705F10803A3666B69B8
:1034180084F86490E366E46360B138460FF0D0FF47
:1034280021463046236E2A68FFF70EFE0020C8F8B2
:103438000040CAE72022296804F1400010F018FB78
:1034480038460FF0BDFFF1E730460F490FF085FF12
:1034580004460028B7D005F1080383666B69C0638A
:10346800C366002380F8643020222968403010F0B9
:10347800FFFA22460121304600F03EF80028D5D058
:10348800A1E76FF00F00A0E7FD8201012DE9F04FE1
:1034980005460E4690460027D0F8A8A085B0AAF5A4
:1034A800AA742146304610F007FBE0B9114BA4F18D
:1034B800400B0293DAF810303246CDE900832946F2
:1034C8004FF0FF335846AAF5CA790DF0A7FF60B947
:1034D8007023012203FB079383F86420DAF80C3089
:1034E8000BB158469847703417B105B0BDE8F08F56
:1034F8000127D6E7CF3401011FB5144690B18AB130
:10350800012912D10A4B00F1E0010293D0F8A4314D
:10351800403201934FF0FF33204600930DF07EFFB9
:1035280004B010BD6FF01500FAE70020F8E700BFFF
:10353800CF3401012DE9F04387B00E46DDE90E8155
:103548001446DDE910251F4630B329B3DFF850C013
:1035580000F1E009002D08BF65469EB9CDE9034496
:1035680000F5CA742046059612F01BFF03ABCDE99F
:1035780000432A463B46414648460EF023F807B02A
:10358800BDE8F083002241460E9248462A4607B01D
:10359800BDE8F0430EF03EB96FF01500EFE700BF4D
:1035A80095340001F0B50E46044689B000286FD066
:1035B80001230246C3630023D0F89810364F4030E9
:1035C80040F80C7C42F8301FCDE901334FF0FF334F
:1035D8000093C36D12F0A5F9304A06AB92E80300D8
:1035E80083E8030018460DF0EDFD0546D8B904F14F
:1035F80034000DF0C7FD0546A8B93946284805AA84
:1036080012F061F9054670B9059B9A6872B10C33DE
:10361800D4F89400C4F8A0300FF086FFC4F8D400A2
:1036280030B96FF00B05284609B0F0BD0346EFE747
:10363800D4F894000FF078FFC4F8D8000028F0D030
:10364800D4F88C30D4F8A010C4F8A8300423C4F8F7
:10365800AC30C4F8C4300223A362124BB4F89420EF
:10366800D4F8D470C4F8B810C4F8D010D4F89010B6
:10367800236204F1A403A4F8B020C4F8A470C4F829
:10368800C010A4F8C820C4F8BC00A661E362CAE769
:103698006FF01505C7E700BFEA700101206E010150
:1036A800F4700101B46E01010449431E0F3013F890
:1036B800012F8A5C83421A70F9D17047FC700101AE
:1036C800F0B50746264E8DB001AD0C460FCE0FC59E
:1036D8000FCE0FC596E8070085E807003846002F8B
:1036E80039D0002C39D0381F0246214610344B7887
:1036F8000D781B0443EA0563CD7804312B4311F898
:10370800025C8C4243EA052342F8043FEFD10421CE
:10371800144C8A07036916D1C3F30742A55C1A0E35
:10372800A25C42EA0562C3F30725655DDBB2E35C90
:1037380042EA054242EA032221F0030330336B4494
:1037480053F82C3C534050F8042F013153402C2996
:103758000361DED101200DB0F0BD2046FBE700BFBC
:10376800286E0101FC700101014910220A607047AE
:1037780010ED00E072B6404080F31188BFF36F8F00
:10378800BFF34F8F30BF62B6BFF36F8F704700BF74
:1037980072B6494081F3118820BF80F3118862B660
:1037A800704700BF40B2002807DB01234109034AE4
:1037B80000F01F00834042F82130704700E100E02C
:1037C80040B200280CDB01220649430900F01F0023
:1037D8008240203341F82320BFF34F8FBFF36F8F10
:1037E800704700BF00E100E0054B420953F8222072
:1037F800012300F01F0003FA00F01040704700BFDB
:1038080000E100E040B2002801F10101ACBF00F185
:103818006040064B4FEA4111C9B2ABBF00F56140A9
:1038280000F00F0080F800131954704714ED00E001
:1038380030BFFFF7FDBF00BF08B5084B084A23F0AB
:103848007F039360BFF34F8FBFF36F8F0EF034F891
:103858000EF0D4FF00F0DCF90EF06EF80000000165
:1038680000ED00E0094A0A499368096858679967B2
:1038780008494B6843F080534B60002383F3118859
:10388800BFF36F8F9368986F704700BFB43E0021F5
:103898007070010100ED00E013498A684FF03000B4
:1038A8001044EFF3098C80E8F01F202080F3128881
:1038B800BFF36F8F0D4F4FF000668A698A603E60D4
:1038C800506F0023536780F3118802F1300090E8AD
:1038D800F01F8CF3098802F1000004B510F09EF87F
:1038E800BDE8044070470000B43E002104ED00E04C
:1038F8001EF0040F0CBFEFF30880EFF30980816915
:1039080011F8021C0229FFD001B510F078F801BDAA
:1039180042F8203C009B0B4942F81C3C019B21F0DB
:10392800010142F8183C029B42F8081C42F8143C7A
:103938004FF0807342F8043C0023203A0265436745
:10394800704700BF892B0101084B9860436E83F3D1
:103958000B88104681F30988002163B681F311882A
:10396800BFF36F8F002200230FF00AF9B43E002145
:1039780001B5EFF30580A0F110004FEAC00004493B
:10398800014409C99847BDE80140024908470000B9
:10399800446C0101A1390001044B99689869884277
:1039A80003D003494FF080520A607047B43E0021AB
:1039B80004ED00E0154B9A6A12F0007F9A6A14BF72
:1039C8001E201D2012F0807F9A6A18BF1F2012F453
:1039D800801F9A6A18BF022012F4002F9A6A18BF33
:1039E800212012F4802F9A6A18BF222012F4003F77
:1039F8009A6A18BF232012F4803F9A6A18BF2420BD
:103A08006FEA02426FEA12429A62704700ED00E0E4
:103A180010B5164B9A6A9C6A12F4805F14BF17227D
:103A2800162214F4006F9C6A18BF1822A40509D541
:103A38009A6B9A6A120404D518B19A6A22F4004261
:103A48009A621922094B986A10F4806F986A18BF15
:103A58001A2210F4807F986A40F47F4098624FF0F1
:103A680000030CBF10461B200B7010BD00ED00E0DA
:103A780010B5154B0246986A9C6A10F0100F14BFD7
:103A88001120102014F0080F9C6A18BF1220A407F8
:103A980009D5586B986A000604D51AB19A6A22F0BB
:103AA80080029A621320084B9A6A12F0010F9A6AF0
:103AB80018BF1420D20658BF9A6A9A6A42F0FF02C9
:103AC8009A6200230B7010BD00ED00E070B5444B06
:103AD80006465B6800258AB0C3F3080385F311889E
:103AE800BFF36F8F02F07F40B0F17F4F11D102F02A
:103AF8000C0008280DD010074CBF0E4601250022E7
:103B0800033B8DF80720032B05D8DFE803F01E5C84
:103B180060592E46F3E700249DF807309BB9202210
:103B2800314602A80FF0F7FF099B002D53D0C3F3CD
:103B3800080222B96FEA53236FEA43230993204608
:103B480002A90FF05AFF0AB070BD254BDA6A910737
:103B5800E1D4DA6A002ADEDBDA6A5200DBD55A6978
:103B6800B16942F480725A61BFF34F8FBFF36F8F10
:103B78005A6931F8021C22F480725A61BFF34F8FE0
:103B8800BFF36F8F4DF60272914209D09A6AD2B292
:103B980042B101200DF10701FFF76AFF0446BBE7B8
:103BA8003468B9E79A6A12F47F4F05D001200DF105
:103BB8000701FFF72DFFF1E79B6AB3F5803FAAD312
:103BC800FFF7F8FEEAE700200DF10701E4E700201F
:103BD8000DF10701EDE723F4FF7323F00103ADE7CF
:103BE80000ED00E0044B5A6942F010025A615A692C
:103BF80042F480625A61704700ED00E0EFF30880FC
:103C0800EFF3098101B57246FFF760FF01BD00BF00
:103C1800002320210348C21801331E2B82F8001309
:103C2800F9D1704700E100E0FFF70CFA202080F39B
:103C3800118808484FF48061401880F30988EFF331
:103C480014800221084380F31488BFF36F8FFFF7B5
:103C5800F3FD0000F84E0021084B9B6883420BD10E
:103C6800EFF3058343B1064B5A6842F080525A601D
:103C78005A6A22F400425A620EF04EBDB43E002148
:103C880000ED00E01FB5094C094A23460121094807
:103C980000F0EAF800230393074B0121E41A01A876
:103CA8000193029400F0EAF804B010BD000001216D
:103CB80000000021D86E0101F819002110B50C7A16
:103CC8000B6804F01F0223F01F031A43CB68640932
:103CD80023F01F03054943EA440343F00103C1F8F5
:103CE8009800C1F89C20C1F8A03010BD00ED00E09C
:103CF8002DE9F04F0F46144606464FF000084E4D8A
:103D080085B0B84580F29480D6F80490B9F1000FD8
:103D180036D0B9F11F0F40F2898019F01F0F40F01B
:103D28008580D6F800A01AF01F0F7FD150460FF0FB
:103D380079FE834609EB0A0001380FF073FE8345CC
:103D480074D11BF1160F71D05C456FDDC5F898B0C2
:103D5800D5F89C10C5F898B0D5F8A03021F01F010F
:103D680043F01F0AD6E900321A44994202F1FF399A
:103D78001ED1CA4508D131465FFA8BF00FF05BFEC1
:103D880008F101080C36BCE73146C5F898B0D5F8FB
:103D98009C3022F01F0203F01F031343C5F89C3028
:103DA800E0B20FF048FE10F1160F3FD0441CE7E7D1
:103DB800C5F898B0D5F8A020013B23F01F0302F006
:103DC8001F021343CA453146E0B2C5F8A030E8D017
:103DD8000FF031FE10F1160F28D0C5F898B0D5F8BD
:103DE8009C209DF808300AF1FF3A62F304038DF82D
:103DF8000830D5F8A0309DF808205B0863F3471217
:103E08008DF80820D6E900321344009323F01F03ED
:103E1800411C5344A3EB0903C8B223F01F0307282E
:103E2800039303D86946FFF749FFBFE76FF015040E
:103E3800204605B0BDE8F08F00ED00E00522044BF8
:103E4800C3F89420BFF34F8FBFF36F8F704700BF45
:103E580000ED00E0BFF35F8F0022024BC3F894200F
:103E6800704700BF00ED00E010B5034C2278FFF763
:103E78003FFF207010BD00BF644100212DE9F74FBE
:103E8800294D8A4606464FF00008AB46274FD045D5
:103E98001BDAD6F80490B9F1000F3FD03168084614
:103EA80001910FF0BFFD0199044609EB01000138AB
:103EB8000FF0B8FD84424FF014021D4B08D002FBEE
:103EC80008F36FF015024BF8032003B0BDE8F08F3C
:103ED80014F1160F2C60F8D01978A142F5DD02FB19
:103EE80008B0C7F89840C7F89840D7F89C4000F148
:103EF8000801007B64F304000871D7F8A0000C796E
:103F0800400860F347140C71D7F89C1021F01F018A
:103F18006960D7F8A01021F01F01296108F1010894
:103F280014350C36B3E700BF1824002100ED00E07B
:103F38006441002138B50E4D2C68082C15D8002096
:103F4800FFF788FF0B4B0C4AC3F8C020844205D109
:103F58000A4B00201C70FFF771FF38BD696801EB40
:103F68000011FFF7ABFE0130F0E74FF0FF30F4E748
:103F7800E46E010100ED00E0AAFF44006441002165
:103F8800014B1860704700BF58000021074A0346DC
:103F9800106828B9D96831B1596921B113607047DF
:103FA8006FF0770070476FF0150070472C240021E0
:103FB800052838B5054608D82A21C140C90704D5BF
:103FC800064811F0DEF9044610B90024204638BD31
:103FD80001210C3011F0DCF92576F7E7D019002122
:103FE8002DE9F04102280546DDE906870BD00428B3
:103FF8000BD020B9134811F0C4F9044638B900248D
:104008002046BDE8F0811048F5E71048F3E700F1D5
:104018000C060121304611F0BBF92576B8F1000FE6
:10402800EED0002FECD0304611F00CFAB84203D293
:1040380020460BF007FAE2E73A464146304611F0CF
:10404800DFF9DDE78819002164190021AC19002186
:1040580008B5034B0146186811F09EF9002008BD09
:1040680030240021038A1BB1024B1B685B69184787
:10407800122070472C240021044B054A1B6810604D
:104088000BB1DB6818476FF0120070472C24002131
:10409800302400212DE9F8434FF00C090E4FDFF8CA
:1040A8003C8044463E46002521463046221D0135C7
:1040B8000FF0FCFE042DA6F10806A4F10C04F3D1C0
:1040C800A9F1040919F1040FA7F12007A8F1300894
:1040D800E7D1BDE8F88300BFAC24002168250021A2
:1040E80070B505460C461E46AAB173783078C01ADA
:1040F80010F003002FD10133DBB2337030230C22D0
:104108006343043302FB05331B4A314670681A4483
:104118000FF0CFFE24E011F015F90028E5D0214674
:1041280028460AF077FF727813460028DED030213F
:104138000C20614300FB05110F480144887AC97AB5
:104148008842D3D133789B1A9B0711D1D6E9020351
:104158009847002070BD0128FCD00133DBB23370D2
:104168000122064B214628461A550AF073FFF0E74C
:104178000232D2B23270E9E7B4240021654100214D
:104188002DE9F04FDFF828A105461AF8003087B06E
:10419800002B00F085803023464C002703FB0044A9
:1041A8003C234FF00308434304330AF80070009798
:1041B8000293A3460023A16A5BF8240F05AA05937E
:1041C8000FF07EFE0646002E40D0059A92F8009029
:1041D8005378A9EB030909F00309B9F1010F05D1D7
:1041E800013B5370059BD3E902029047059BA06AE7
:1041F8001A780393D1B201915978521A02F0030246
:10420800012A16D0002259460FF062FE039B019A3C
:1042180059785A701A785E60521A02F00302012A1D
:1042280007D1244A5970029930460A4419460FF0BA
:1042380040FED4E9090105AA0FF042FEB9F1010FC9
:104248000646C0D1B8F1000F23D110BB94F82E3028
:1042580094F82F209A4226D194F82C3094F82D20E7
:1042680008F1FF389A425FFA88F81CBF84F82D30AD
:104278000127B8F1FF0FA4F10C049AD1009B7BB180
:1042880077B93A462946284607B0BDE8F04F0AF004
:104298009FBE0123294628460AF805300AF0DAFEAF
:1042A80007B0BDE8F08F84F82F3001230093D3E7DF
:1042B80065410021B42400212DE9F04F837E044696
:1042C8008BB0002B70D1427E4AB1034601220421F3
:1042D800456A0420AC460BB0BDE8F04F60470121A9
:1042E800436941760693837AC07A98425FD00B443B
:1042F800DBB2022B08BF0023A37204EB8303D3F8BD
:104308000CA0069B0291534423F07F436361237EF4
:1043180003930AF039F823680490079363680993B4
:10432800637A013B5FFA83FBFF230193BBF1FF0F25
:1043380040D1237E0893029B002B00F0EF814FF0C1
:10434800000B049B069A27689B1A23F07F4304936B
:1043580094F81880B8F1FF0F0AD02C2606FB08F64F
:10436800BD19AB68534540F22B81A3EB0A03AB6040
:10437800237E039A20469342019900F0D1810FF0E1
:1043880045FE237EFF2B40F0DA8109F0D9FF054670
:10439800002840F0D181E06109F0F6FF65766061A0
:1043A800A37E002B40F015820BB0BDE8F08F92463B
:1043B8000292ACE7099B03EBCB077B680593F8787F
:1043C80097F80280804500F096802C2505FB08F9B7
:1043D800059B3A7803EB090608F10103DBB29A4220
:1043E80008BF0023BB70059B717813F80920042AC5
:1043F800E6D905FB01F30893DDE907301D186B7852
:10440800A878082AA3EB0003DBB202D833B9062A3E
:1044180047D0012130460FF0EFFDD0E7052A36D10D
:1044280072684AB9B2683AB9F2682AB932691AB9EF
:10443800726932F07F42ECD0012B54D120460FF044
:1044480092FDA8606169049B5B1A23F07F43534483
:10445800984297BF6A69C01A9B18181A6B689CBF64
:1044680068610020002B7DD0B38A002B7AD0013BF5
:10447800B382D5F804E0DFF894928645B5F81EC0FB
:10448800B38A01D29C453BD8DFF8848264E0012BD3
:1044980027D1062A05D020460FF065FDAB78A86025
:1044A8006B70E27E73789A427DD1059B13F80930D0
:1044B800062B1CBFFF23E376059B13F80930062B58
:1044C80001D0082B71D171686369CA1A10026ED4C1
:1044D80022F07F4202EB0A03E2699A4288BFE36155
:1044E80061E0062ADDD00421234601220846656AD8
:1044F800A84787F802800BF1FF335FFA83FB15E7C3
:104508006B6A844ADFF810829A18424589BF4FF0D7
:1045180001084FF000084B446B62D5E90823F044CA
:104528009B1A0CF1FF3C6B62A0EB0800A5F81EC0BB
:10453800A3E7D5E908321344764ADFF8DC919A18E4
:104548004A4596BF01220022434472440CF1010CF3
:104558006B621044A5F81EC0B5F81EC0B38A9C450E
:10456800E7D3AB8373680344AB60B2686B692846D2
:1045780013446B61049A0FF021FDF268AB69134490
:10458800AB613269934294BF00239B1AAB61B37D40
:1045980003B1EB70019BDDE9072153547378019354
:1045A8006B7801336B70002134E704998CE75B1A50
:1045B80023F07F439A4594BF0023AAEB03038BE7BC
:1045C800AA786978AAEB030A891A049A9B44D21A32
:1045D8000492E269E88B934223BFFF23E37600232A
:1045E800D31AE361AB69C9B2002B59D0022957D15C
:1045F800002849D184F81B80AB69E361A860BB5DE2
:1046080023766A68002A49D0EB8B0593002B55D195
:10461800B5F81CE0D5E90813704607910021DDF8CC
:104628001C90DFF8F4C04B44DFF8E8909944E1456A
:104638008FBF4FF00009A3F1E873DDF80890A3F5E8
:10464800D43398BFA3F5A573914401384944E6D201
:104658006B6295F82830002B4FD00023DDF814C08A
:10466800A960F4446344EB83069B284603EB0B02E2
:1046780061690FF0A3FC019BCDF80480BB556B78F2
:104688000133DBB26B7063E60023AB60BB5D23765E
:104698006A68002AB8D12B6A002B33D1AB78F1E7CE
:1046A8000023AB60BB5D23766A68002AACD1002981
:1046B800F4D00129EFD00028F0D0ECE7AB784FF028
:1046C800000E6B70A6E7686ADDF81CC0DFF844903E
:1046D8006044DFF844C08144E1458FBF4FF00009D2
:1046E800A0F1E870DDF80890A0F5D43098BFA0F5E7
:1046F800A570914468624944013304988842E2D81D
:104708009BB2ABE70120696A9847C7E74AA9D1017C
:10471800B6562EFE5A2B17FF592B177F20460199A4
:104728000FF074FC237E039A93427FF42BAE089A11
:1047380003998A427FF426AE0023637630E6039B12
:10474800FF2B06D109F020FE054609F0EBFD00B964
:1047580065612C21227E236801FB02339E68002EAE
:1047680036D00A27DFF87480DFF87490DFF874A079
:1047780009F00AFE65698346431B23F07F43033330
:10478800B3422CBFED18AD1925F07F452846A36A22
:10479800984709F0F9FDA0EB0B0323F07F43A5EB45
:1047A8000B05033325F07F45AB4207F1FF37C3D92B
:1047B800002FDDD140F6CC134246494650460EF054
:1047C80009FD404080F311884FF0030002DFCFE776
:1047D8006676234601220321656A7AE52B72010178
:1047E8003C7401016A720101F8B5069F16461D4620
:1047F800089A10B101263046F8BD134C21722C21BD
:1048080026609DF81C6063726760013DEDB2FF2D64
:104818000FD1002EEED1099B257623620A9B636295
:104828000B9BA36209F0B0FD66816061E576E661E5
:10483800E1E707EBC5035A6017F8353001FB03229F
:10484800F31ADEB2E1E700BF742500212C22074BE2
:1048580010B402FB00335C6A2CB1A4460122032188
:10486800022010BC604710BC704700BF74250021AF
:104878002DE9F041044608462C21204E01FB046630
:10488800746804EBC00C9CF8037014F830407D1C6D
:10489800EDB2AC4298BF00259CF80140AC422AD04A
:1048A8004FF004084F43DCF80410CC1901F80780D6
:1048B8006360069B6270A360079BE360089B2361AB
:1048C8000A9BA361BDF82430A3820B9BE3610C9B78
:1048D80023620223A3700D9B63620E9BA3628CF874
:1048E8000350D6E908359847334600224146A84781
:1048F800A078BDE8F0810120FBE700BF7425002106
:10490800F8B52C241E4E04FB0066D6F804C00CEB48
:10491800C107F8781CF831C0451CEDB2AC4598BF0A
:10492800002597F801C0AC4527D04FF0050E60432D
:10493800D7F804C00CEB00040CF800E06360069B99
:104948006270A360079B0846E360089B2361BDF87B
:104958002430A3829DF82830A3750223A3700B9BF3
:1049680063620C9BA362FD70D6E90835984733460D
:1049780000220421A847A078F8BD0120FCE700BF69
:1049880074250021F8B52C25184E05FB0066D6F8CD
:1049980004C00CEBC107F8781CF831C0441CE4B221
:1049A800A44598BF002497F801C0A4451BD04FF038
:1049B800060E6843D7F804C00CEB00050CF800E0BD
:1049C8006B600223AB70069B6A706B62079B08469C
:1049D800AB62FC70D6E908349847334600220421BC
:1049E800A047A878F8BD0120FCE700BF7425002186
:1049F800F8B52C26174D06FB0055D5F804C00CEB6E
:104A0800C107F8781CF831C0441CE4B2A44598BF2B
:104A1800002497F801C0A44519D04FF0070E704341
:104A2800D7F804C00CEB00060CF800E07270022204
:104A38007362069BB270B362FC70D5E9083408460D
:104A480098472B4600220421A047B078F8BD0120E2
:104A5800FCE700BF7425002138B5054600200C4648
:104A680003F054FA10F0060F0DD10622214645B185
:104A7800064814B10FF04FF801E00FF057F8002086
:104A880038BD0348F5E70C20FAE700BF694100216B
:104A98006F4100210128024605D8044B0448002A2A
:104AA80018BF184670470020704700BF69410021B1
:104AB8006F41002108B50248FFF768FA002008BDD9
:104AC8004C6F010137B5038A0446C3B1037EB3B9FD
:104AD80001A9019300F0E8FE58B10FF07DF8019D9F
:104AE8003DB128460FF044FE01996871054811F060
:104AF800CCFD20460AF0A6FC002003B030BD6FF0C4
:104B08001500FAE7A02500212DE9FF41DFF804810F
:104B1800414E424F4FF0FF324FF0FF3340460DF009
:104B2800FBF80028F6D043790190042B15D8B3B1CF
:104B3800022B23D100220023012100200FF049F885
:104B4800044618B10146019801F042FB0022019B7E
:104B580001A81A6002F0C0F841E0062B16D04FF405
:104B6800E673324639462E480EF034FB404080F357
:104B780011884FF0030002DF0024E7E74FF0FF320F
:104B88004FF0FF330120FFF713FAD9E7C088012857
:104B980038D804F007FCE0B14268019BCAB103F1C0
:104BA800080220330393436802A99879029205F01A
:104BB80007F910F0FB0F0CD040F2BB13164A194945
:104BC80017480EF007FB404080F311884FF00300B0
:104BD80002DF0024019B01A81C6004F0A3FE002C46
:104BE80098D0204610F0DAFB05462146002010F048
:104BF800F5FB2B8A044628464BB1FFF729FA0DF03E
:104C0800E9FCECE740F2C11332463946D8E70AF02E
:104C180019FCF4E7A02500218772010176810101C2
:104C28006A720101C7720101F7B51B4D1B4F04F0F1
:104C380005FE0446019058B104F03AFE019C204656
:104C48000FF096FD01996071284611F01EFD0124B0
:104C58000DF1020101A802F013F80028F8D1019B18
:104C6800BBB101F0A3FF019E30460FF081FD019911
:104C78007071284611F009FD002CD8D1019B002B3A
:104C8800D5D14FF0FF324FF0FF3338460DF098F88A
:104C9800CDE7002CCBD1F4E7A0250021B0250021D9
:104CA80008B50FF0DAFD0448FEF7D6FF0348FEF713
:104CB800D3FF002008BD00BF601E0021E01D0021B9
:104CC800D0B588B01E4811F0BEFC4FF0FF3200216D
:104CD8001C4811F0EFFC1B4802F08CFB044658BB43
:104CE80001F09CFE002600276FF009034FF4E072E4
:104CF800CDE90243CDE90667CDE90044124B1349DB
:104D0800049413480CF0CAFE1249114811F00DFC26
:104D18006FF007034FF44072CDE90243CDE906670F
:104D2800CDE900440C4B0D4904940D480CF0B6FE37
:104D38000C490B4811F0F9FB204608B0D0BD00BF64
:104D4800A0250021B0250021314C0001384D00215B
:104D5800601E002108730101114B0001384A00212F
:104D6800E01D00211273010170B54FF0FF331546A5
:104D780005204FF0FF32FFF71BF9044660B100F140
:104D88000C060C21304610F003FB30462C6010F066
:104D980059FBA880002070BD6923064A06490748C8
:104DA8000EF018FA404080F311884FF0030002DF3C
:104DB800F0E700BF87720101768101016A72010183
:104DC80070B50D461646044658B9D223094A0A4911
:104DD8000A480EF0FFF9404080F311884FF00300B5
:104DE80002DF3246294604F10C0010F009FB0020CE
:104DF80070BD00BF87720101808101016A720101E3
:104E080010B50DF0ABFB054C204611F024FC2046F4
:104E180011F019FCBDE810400DF0B4BBA02500212D
:104E2800002270B516460D4B0D491D680D4B954275
:104E380003F1260400DC70BD04F81F6C18890132E8
:104E480008401881D8890840D881988A08409882F3
:104E5800588B084058832346E9E700BFC425002142
:104E680000FCFFFFF03E002138B5074B0546012145
:104E780018880EF0CFFE012104460C3010F0BAFA63
:104E88000570204638BD00BF504100212DE9F04F84
:104E980093B0DDE925572C788246E52C8B4628BF50
:104EA800E524CDE90D239DF874309DF984800F9396
:104EB8009DF87C30BDF8889010939DF98030289E2D
:104EC8001193336859460A933B685046CDE9084325
:104ED800239BCDF81480CDE90693119B0493109B76
:104EE80003931E9B02930F9B01931C9B0093DDE988
:104EF8000D230FF0F1FA3B68249A23443B602B788A
:104F080001201B1B2B70249B1B881B1B13804FF439
:104F1800A0220023FFF74CF8306060B941F6EF1388
:104F28000A4A0B490B480EF055F9404080F31188A6
:104F38004FF0030002DF3168279810F03EFA2B7813
:104F4800E52BBED813B0BDE8F08F00BF3673010162
:104F58006F7301016A7201012DE9F74FDFF898B10B
:104F6800CDE90012DBF800208146002A1D460C9F7F
:104F78009DF83480C0F2AD800024604EDBF800203C
:104F8800A2423CDC2622DFF878A15E4EDAF8004027
:104F980001995443601C062230440EF0BCFD0122E6
:104FA800009B311902FA09F23355CA710834305B93
:104FB8005549A21908403053D0880840D0809089BC
:104FC80008409081508A01405182062202FB054424
:104FD8003946424630190FF023FADBF800200F2A31
:104FE800CBBFDAF8003001325A1CCBF80020102A67
:104FF8000ABF0023CAF80020CAF8003069E0062278
:10500800314601980EF077FD20B916F8012C009B67
:105018009A4202D001342636B0E7262303FB04FC6B
:10502800384E06EB0C01CA7922FA09F0C0070ED4F3
:105038000620012300FB05C003FA09F31A43CA71CD
:1050480008304246394630440FF0EAF941E0B9F1F8
:10505800070F4FD1062000FB05F202EB0C0131448B
:1050680001F1080E097AC90603D102F1080060446B
:10507800E7E7002F3ED097F801909EF804104FEA1A
:10508800191ABAEB111FF0D13A789EF8037009F09B
:105098000F0901F00F0C42EA092247EA0C27974250
:1050A8001BD0634321F00F0141EA122100FB0533B5
:1050B8008EF803208EF80410B8F1000F04D13344A1
:1050C8009A7A42F0010203E033449A7A6FF30002BD
:1050D8009A72002003B0BDE8F08F9EF80230DB071B
:1050E80008D4B8F1000FF4D126230622634302FB4B
:1050F8000533E4E70120EDE7C4250021F13E002156
:10510800C0250021F03E002100FCFFFF2DE9F04FF3
:10511800ABB01A9202781C9302F00F03072B8B4650
:105128000546124940F084824378002B00F08082C3
:105138007F2300248DF892308DF893304B68CDE9A9
:10514800264498008DF894408DF895408DF8964047
:105158008DF8974003D5064B1B68D9040AD4DBF8B1
:105168000C002BB0BDE8F04F0FF091B908000021FA
:10517800000000210FF0E4FDA246DBF80C30CDE979
:105188001044CDE9144412901393CDF83CB01D940B
:105198001694199418941E9420940F9A0F9B527E7B
:1051A80095F802801F920F9A9F7ED27EC7F3400324
:1051B800C2F3400217920F9AC7F34017127E21924A
:1051C8004FEA981218F03F08229240F0198147469A
:1051D800C1460123C44640467F21EE1CCDF86C80B1
:1051E8006A789A4294BF0026D21A0F9B94BF32461F
:1051F800D2B29B4540F088811F9B229C12930023CA
:10520800DDF86CA08DF897708DF89620109227968F
:105218008DF89310CDF85880CDF844C0CDF8609043
:105228001490CDF878B01593139B002B40F0D081E3
:10523800DDF89880B8F1000F00F0AC81179B002FC3
:1052480000F0D081002B8AD00225BAF1000F40F07F
:10525800D9815746109BBF2B09D99DF89630022754
:10526800BF2B84BFBF238DF89630BF231093119BAB
:105278000BB144F00404219B109A5E421A9B76B24B
:1052880028939DF89630934201D3E52B22D928AB79
:105298000D931A9B21460C9327AB0B930DF19603A4
:1052A8000A93109B1C9A0993149B1E980893199BA8
:1052B800CDE906630DF193030593129B0493119BAB
:1052C8000393189BCDE901A3169B00930DF1970357
:1052D8000FF07AF9289B44EA47140A93279BE4B213
:1052E80009939DF8963020460893149B9DF89720C3
:1052F8000793199B1C99CDE905639DF99330049395
:10530800129B0393119B0293189BCDE900A3169B54
:105318000FF0E2F8B8F1000F3FF421AF159BBF2B57
:1053280009D99DF894300225BF2B84BFBF238DF87F
:105338009430BF2315934FF4A02200230120FEF7D9
:1053480037FE04F09F0444F00804289060B941F641
:10535800F033A84AA849A9480DF03CFF404080F323
:1053680011884FF0030002DF28991A9810F025F8E9
:105378009DF89430159A934201D3E52B21D928AB97
:105388000D931A9B21460C9326AB0B9325AB0A93DE
:10539800159B1C9A0993149B20980893199BCDE997
:1053A80006630DF192030593129B0493119B0393DB
:1053B800189BCDE901A3169B00930DF195030FF0FF
:1053C80003F9289B9DF895200A93269B1C9909931D
:1053D8009DF8943044EA45100893149B0793199B51
:1053E800CDE905639DF992300493129B0393119BB9
:1053F8000293189BCDE900A3169B0FF06DF8AEE65B
:1054080095F803802E1D18F001082FD0A94619F829
:105418000A8B3146C8F380128DF8A02090460DF112
:10542800A100062223930EF076FB1B964E46239B83
:1054380095F8039019F0020964D0002B5FD1DBF8CE
:105448000800D0F8009067B103792A78C3F3801375
:10545800B3EBD21F0DD10622314612300EF04BFBB2
:1054680038B999F84490C9F3810908E0CDF86C80FF
:10547800DEE799F84490C9F3810949F002092B78CD
:105488003146C3F3C0130622B71D0DF1A1008DF8F4
:10549800A0300EF040FBB4463E46EB7813F008000F
:1054A8001CBF3046023613F0100707D0B2785F2AC7
:1054B8004FEA52173FF653AE033601379A0642BFFA
:1054C8007288123619925B06AA7848BF16F9011B32
:1054D80005F10203C2F30502A6EB030302F1010280
:1054E800DBB2D2B258BF7F2193423FF679AEA2EB2E
:1054F800030E1EF0FF0E1CBF1346764470E64FF0F5
:10550800FE09BCE7CC46C8E70F9B9B7EDD060CD5A1
:10551800002F2DD19DF897308DF895300F9B8DF881
:10552800942026968DF892102093BAF1000F03D19B
:10553800DDF86CA0CDF85880119B1BB9CDF844C09C
:10554800CDF86090269BABB1159B13449BB2159385
:105558000FF0F6FB129B1F9A1946984298BF134604
:10556800179A12931D9B002B08BF134617935BE6EF
:105578003B46D1E7279B43B90F9B8DF8962027968A
:105588008DF8931010921E93E2E7109B13449BB280
:105598001093DDE7003F18BF0127179B7F00002B02
:1055A8003FF4DDADBAF1000F30D0139D144B1B78DA
:1055B800002B3FF44FAE149B52460093072023461E
:1055C80016990197FFF7C8FC00283FF443AEC6E5DB
:1055D800139B03F12005179B1D93139B0F93DB6807
:1055E8001393DAE5002B3FF4BAADBAF1000F0BD1F3
:1055F80055462FE636730101707301016A72010185
:1056080076410021139FD1E73D46CFE777B1149B40
:10561800002B3FF4A4AD9DF993307F2B03D1279B3A
:10562800002B3FF49CAD5546022713E63D4611E694
:10563800484B1868289098889B79ADF8A4008DF895
:10564800A6304B6898006FD5434B1B68D9046BD5BF
:105658009BF818705306C7F100079BF819807FB2B2
:1056680005D5002142460846AB1C05F08BFC3B4B98
:105678001B78002B4AD12B7803F00F03012B56D14E
:10568800002606F119020D21D2B21A980EF00CFF6D
:10569800012303702B78044603F00F03A8336B44EF
:1056A80013F8083CA0F801300FF04AFB804504F1DC
:1056B800040040D20246E11C404605F047F8E37872
:1056C8000233E3700123A372FF23002123737F2396
:1056D800E1726373A773E173217415F8083B04F151
:1056E800120003F00F02012A2FD1C3F3C0130622C0
:1056F800294663740EF00FFA3246294604F1190060
:1057080026762BB0BDE8F04F0EF005BA2A460023E6
:1057180012F8020BCDE90033C0F3801100F00F003E
:10572800FFF71AFC0028A6D02BB0BDE8F08F6E78E2
:10573800063EF6B2A5E7294611F8023B0622C3F356
:105748008013E3700EF0E7F9BCE7062261740EF0EF
:10575800EDF9D1E7787301010000002176410021BD
:10576800054A137813B91070002070478342FBD0A4
:105778006FF01500704700BF7541002138B5064B22
:10578800054618880C460EF045FA28602146BDE803
:1057980038400C300FF02EBE50410021F0B50138D2
:1057A800144687B0092879D8DFE800F0051C30785E
:1057B8007856783B5F6C10460D21FFF7DFFF022219
:1057C80000234270032203708370C2700371437117
:1057D8008271C271037243728372C37203730020B1
:1057E80007B0F0BD41211046FFF7C8FF002104466D
:1057F800402200F8011B0EF099F9637863F0580312
:105808006370A37843F00303A370E8E70921104607
:10581800FFF7B4FF0021082200F8011B0EF086F9FB
:10582800DDE701AA16461F4B03F110071546186855
:105838005968083303C5BB422A46F7D11B781221A1
:105848002B702046FFF79AFF00231122314600F8FB
:10585800013B0EF060F9C2E7C9680020FFF7FCF8C9
:105868000020FFF701FB2060B9E718211046FFF779
:1058780085FF00230446012100F8023B09F09CFC47
:105888006070ACE721211046FFF778FF002301463E
:10589800013001F8113B09F0E3FCA0E76FF01500B7
:1058A8009EE700BF807301012DE9F0470026038AB7
:1058B8008EB0022B04460F46079603D800200EB080
:1058C800BDE8F08703210C300FF0B4FD228A8378FD
:1058D8009A42F3D30388734DC3F309002B80C3F3B3
:1058E8008523082B00F0E88005D8032B0CD0042B67
:1058F80034D0012198E23F2BFBD1214607AAFFF7BC
:105908004DFF1630F5D027E003280BD0632807D0C9
:105918000128EED1E0680EF00CFF634BC3E90001EB
:105928000020ECE14FF0FF324FF0FF3041F6FF71FD
:105938005E4B1A605E4B1E705B4BC3E900011F2073
:1059480000215C4BC3E9000101F0CAFD3046FFF7B6
:105958008BFA0790FFF754FA0798B0E70138082840
:10596800C7D801A353F820F095590001BF59000189
:10597800795A0001FB580001FB580001FB5800014F
:10598800FB580001FB580001955A0001092107A89E
:10599800FFF7F4FE002303708370C3706FF00E03EB
:1059A800437105230C2283714FF0FF33427002715B
:1059B800C3710372D0E7412107A8FFF7DFFE00217A
:1059C8000446402200F8011B0EF0B0F8A379227FAC
:1059D80063F03F03A371E37A62F03C0243F00403EF
:1059E800E372E37B227743F02803E373237C627F2F
:1059F80043F002032374E37D42F0080243F00403FA
:105A0800E375A37E627743F01703A376E37E63F022
:105A18003303E37694F8263043F0600384F82630A5
:105A280094F8293043F0200384F8293094F823307F
:105A380063F0070384F8233094F8243043F0070315
:105A480084F8243094F8283043F0040384F828308C
:105A5800FF2384F8273094F82C3063F0270384F868
:105A68002C3094F82D3043F0030384F82D3073E77D
:105A7800092107A8FFF782FE00210446082200F842
:105A8800011B0EF053F86023637165E7072107A82F
:105A9800FFF774FE0146002001F8010B0EF06BFCC5
:105AA8005AE700BF5041002108000021C425002109
:105AB8007641002100000021013873283FF619AF14
:105AC80001A353F820F000BFA15C0001AB5C00010A
