:1000000068470020A12F000095570100752F0000C0
:10001000752F0000752F0000752F0000752F000050
:10002000000000000000000000000000052C00009F
:10003000752F000000000000712B0000752F0000DC
:10004000A92C0000A92C0000A92C0000A92C00005C
:10005000A92C0000A92C0000A92C0000A92C00004C
:10006000A92C0000A92C0000A92C0000A92C00003C
:10007000A92C0000A92C0000A92C0000A92C00002C
:10008000A92C0000A92C0000A92C0000A92C00001C
:10009000A92C0000A92C0000A92C0000A92C00000C
:1000A000A92C0000A92C0000A92C0000A92C0000FC
:1000B000A92C0000A92C0000A92C0000A92C0000EC
:1000C000A92C0000A92C0000A92C0000A92C0000DC
:1000D000A92C0000A92C0000A92C0000A92C0000CC
:1000E000A92C0000A92C0000A92C0000A92C0000BC
:1000F000A92C0000A92C0000A92C0000A92C0000AC
:10010000A92C0000A92C0000A92C0000A92C00009B
:10011000A92C0000A92C0000A92C0000A92C00008B
:10012000A92C0000A92C0000A92C0000A92C00007B
:10013000A92C0000A92C0000A92C0000A92C00006B
:10014000A92C0000A92C0000A92C0000A92C00005B
:04015000A92C0000D6
:04015400FFFFFFFFAB
:1001580053B94AB9002908BF00281CBF4FF0FF3126
:100168004FF0FF3000F00CB8ADF1080C6DE904CE8B
:1001780000F05CF9DDF804E0DDE9022304B0704723
:10018800704700BF844641EA000313F0030349D1D6
:10019800403A23D30B6803604B6843608B688360E5
:1001A800CB68C3600B6903614B6943618B698361E9
:1001B800CB69C3610B6A03624B6A43628B6A8362D1
:1001C800CB6AC3620B6B03634B6B43638B6B8363B9
:1001D800CB6BC36340304031403ADBD230320BD373
:1001E8000B6803604B6843608B688360CB68C360AF
:1001F80010301031103AF3D20C3205D351F8043BC9
:1002080040F8043B043AF9D2043208D0D2071CBFA4
:1002180011F8013B00F8013B01D30B8803806046CD
:10022800704700BF082A13D38B07B1D010F003031F
:10023800AED0C3F10403D21ADB071CBF11F8013B8F
:1002480000F8013BA4D331F8023B20F8023B9FE7BA
:10025800043AD9D3013A11F8013B00F8013BF9D22D
:100268000B7803704B7843708B78837060467047C7
:1002780080EA010C1CF0030F37D110F0030C20F0BA
:10028800030021F0030150F8042B08BF51F8043B88
:100298000ED08CF0030C6FF07F434FEACC0C23FA9E
:1002A8000CFC51F8043B42EA0C0243EA0C0300BF81
:1002B800A2F1013C9A4201BF2CEA020C1CF0803FDB
:1002C80050F8042B51F8043BF2D04FEA02604FEA91
:1002D8001222012828BFB0EB036F08BF1B0AF4D015
:1002E80003F0FF03000EC01A704710F0030F0AD086
:1002F80010F8012B11F8013B012A28BF9A42F4D0CB
:10030800A2EB030070474DF8045D50F8042B01F090
:10031800030521F0030151F8043B022D26D04DD8E6
:1003280022F07F45B5EB132FA2F1013C2CEA020C19
:100338000DD11CF0803C08BF51F8043B0AD185EA76
:100348000205B5EB036F0CD150F8042BE8E74FEA30
:1003580013235BE03CF07F4C54D10B784FEA1265D5
:1003680054E04FEA126503F0FF034FE04FEA0245FD
:10037800A2F1013C4FEA15452CEA020CB5EB134FEC
:1003880018D11CF0803C08BF51F8043B07D185EA1E
:100398000205B5EB034F09D150F8042BE6E75FEAF5
:1003A8000C4C2FD10B884FEA12452FE04FEA03433C
:1003B8004FEA12454FEA134328E000BF02F0FF0559
:1003C800B5EB136FA2F1013C2CEA020C0DD11CF025
:1003D800803C08BF51F8043B0AD185EA0205B5EB19
:1003E800032F0AD150F8042BE8E74FEA13630DE016
:1003F80012F0FF0F06D051F8043B4FEA122523F004
:100408007F4303E04FF0000020BC704705F0FF0277
:1004180003F0FF00012828BF904204BF2D0A1B0AE1
:10042800F4D0A2EB000020BC704700BF2DE9F047D4
:1004380086468C460846089E154674461946002B83
:1004480040F0C1808542B2FA82F245D94AB1C2F180
:10045800200300FA02FC954094402EFA03F343EA85
:100468000C0C4FEA154EA8B2230CBCFBFEF80EFB91
:1004780018CC08FB00F943EA0C43994528D9EB1836
:1004880008F1FF3704D2994502D9A8F102072B4495
:10049800A3EB0903A4B2B3FBFEFC0EFB1C330CFB5D
:1004A80000F044EA0344A04214D92C190CF1FF339C
:1004B80004D2A04202D9ACF102032C44241A43EA24
:1004C80007401EB1D440002334607360BDE8F08754
:1004D8004746DDE76346F1E792BB431B01214FEA3C
:1004E800154EAFB2200CB3FBFEFC0EFB1C330CFB0D
:1004F80007F840EA0343984561D9EB180CF1FF303F
:1005080004D2984502D9ACF102002B44A3EB0803AE
:10051800A4B2B3FBFEFC0EFB1C330CFB07F744EA4A
:100528000344A7424DD92C190CF1FF3304D2A7423A
:1005380002D9ACF102032C44E41B43EA0040C0E7B3
:10054800C2F120039540944020FA03F12EFA03F3F8
:100558004FEA154E9040AFB20343B1FBFEFC0EFBD1
:100568001C10190C0CFB07F841EA0041884522D9F8
:1005780069180CF1FF3004D2884502D9ACF10200A9
:100588002944A1EB08019BB2B1FBFEFC0EFB1C1138
:100598000CFB07F743EA01439F420ED9EB180CF115
:1005A800FF3104D29F4202D9ACF102012B44DB1B7C
:1005B80041EA004193E76046E3E76146F7E76046B2
:1005C800A4E76346B8E7834206D916B9002108466E
:1005D8007CE7C6E900E0F9E7B3FA83F78FB983420D
:1005E80001D3724508D8BEEB020460EB0303012077
:1005F8009C461EB9002169E73846FAE7C6E9004C6F
:10060800F8E7C7F1200CBB400EFA07F522FA0CF404
:100618002EFA0CF1BA401C4320FA0CF3B8404FEA0A
:10062800144901431FFA84FEB3FBF9F809FB18309B
:100638000B0C08FB0EFA43EA00439A4540D9E3182D
:1006480008F1FF3004D29A4502D9A8F102002344E8
:10065800A3EB0A0389B2B3FBF9F809FB183308FBCB
:100668000EFE41EA03418E452CD9611808F1FF338B
:1006780004D28E4502D9A8F10203214443EA00407E
:10068800A1EB0E01A0FB02984145CE46434602D39A
:1006980006D14D4504D20138B9EB020E68EB0403CC
:1006A800002EA7D0B5EB0E0261EB030101FA0CFC9A
:1006B80022FA07F3F9404CEA0303C6E9003199E747
:1006C8004046C5E74346D9E72DE9F04F824616462E
:1006D8001C4600259FB00391307810B9284600F0D9
:1006E80085BD731C2528069306D00399D04700289A
:1006F800C0F27C8501351BE21822002110A813F0F6
:10070800B9FD7378252B00F0BA80002398469E46E1
:100718009C461846711C0F4611F8012B2B2A00F035
:10072800DD8000F2D480202A00F0DB80232A00F04C
:10073800DB802BB19DF8483043F040038DF84830FA
:10074800B8F1000F05D09DF8483043F020038DF82C
:100758004830BEF1000F05D09DF8483043F0100333
:100768008DF84830BCF1000F05D09DF8483043F0B3
:1007780008038DF8483028B19DF8483043F0040349
:100788008DF848309DF8483003F04401442903D1DE
:100798006FF386138DF848309DF848302A2A43F0C5
:1007A80080030E978DF8483040F0A3809DF84930BB
:1007B80043F001038DF849307B1C1A782E2A0CBFB0
:1007C800012100219DF8492061F341028DF849205B
:1007D8000CD15A1C0E925A782A2A40F09A809DF819
:1007E8004920023342F004028DF849201A786C2A15
:1007F80000F0BB8000F29D80682A00F0A3806A2A7E
:1008080000F0BC804C2A00F0C18013F8012B782A34
:1008180006938DF84B2000F201816D2A00F2C38007
:10082800692A00F2FB80572A00F2DA80412A04D0B4
:10083800A2F14503022B00F2F18004219DF84A3011
:1008480002F0DF02A2F1410761F302037A429DF848
:1008580049107A4162F3C7110A068DF84A308DF8BB
:100868004910CBB200F1198103F07802182A40F040
:1008780003816FF3C6038DF849300023F2E0B21C00
:1008880006928DF84B309DF84930D90740F1078121
:1008980054F8042B002A049208DA9DF8482042F004
:1008A80004028DF84820049A524204925A0740F1F3
:1008B800FE8054F8047B002F80F2FD809DF84930BB
:1008C8006FF341038DF849304FF0FF37F3E02D2ADD
:1008D8000DD0302A7FF42DAF01231CE74FF0010C17
:1008E80019E74FF0010E16E74FF0010813E7012052
:1008F80011E70EA801F0E0F90E9BBB423FF45DAF93
:100908009DF848201390C00F60F341028DF84820ED
:1009180053E70EA801F0D0F99DF848301490C3F3BE
:10092800400242EAD07262F341038DF848300E9BD0
:100938005CE7742A26D07A2A7FF467AF06219DF8EF
:1009480049200CE05A78682A9DF8492006D10121EF
:1009580061F3C6028DF84920023356E7022161F39C
:10096800C6028DF8492001334FE75A786C2A9DF862
:10097800492001D10421EBE70321F0E705219DF887
:100988004920ECE707219DF84920E8E7BDF8482011
:1009980022F4F04222F0020242F4804242F00202C3
:1009A800ADF84820DFE76E3AD3B201229A4040F210
:1009B80082431A429DF8493037D112F0240F5FD193
:1009C800D1072BD503219DF84A2003F07803A3F122
:1009D800400061F3020243428DF84A20434141E05E
:1009E8000120A2F15801C9B200FA01F111F4624FD5
:1009F8007FF423AF40F6010319429DF849301AD11C
:100A080011F4043F0AD09DF84A2060F3020203F073
:100A18007803402B8DF84A207FF42FAF9DF848309B
:100A280043F001038DF8483027E702219DF84A205A
:100A380061F30202EBE702209DF84A1003F0780305
:100A480060F30201402B8DF84A1002BF9DF8481050
:100A580041F001018DF84810632A7FF40EAF003B86
:100A680018BF01239DF84820C2F340010B4363F3EC
:100A780041028DF8482006E713F0380FCED1FCE686
:100A880003219DF84A2013F0780F61F3020214BF86
:100A9800012300238DF84A20E4E70123E2E79DF9CA
:100AA8004820002AACBF4FF0FF32139AFDE69F079B
:100AB8007FF50AAF149F0023CDE913339DF84A3020
:100AC80003F00702042A9DF8492007D1900705D4AE
:100AD8009DF949100029ACBF06270D2703F007032D
:100AE800012BC2F3C30233D1D31E042B04D8DFE891
:100AF80003F02146462121002368012A4FEAE371C9
:100B0800CDE910311CD19DF94030D917CDE910310C
:100B180004349DF848309907079350D03246504620
:100B2800069B039914F098F90028C0F25F830544E6
:100B3800069ED1E554F8043BD917CDE91031E8E712
:100B4800022AE5D119B243F3C033CDE91013DFE728
:100B5800022B24D1D31E042B04D8DFE803F018108D
:100B680010181800012A4FF0000154F8043B14D063
:100B7800022ACDE91031CCD19BB21093C9E70734D2
:100B880024F00704F4E80201CDE91001C1E754F8A4
:100B9800043B109300231193BBE7DBB2CDE7042B92
:100BA80008D1073424F00704D4E900010834CDE95A
:100BB8001001AEE7032BACD154F8043BDDE79DF8F8
:100BC8004BB0BBF1780FB3D8BBF1570F49D8BBF185
:100BD800250F00F09180BBF1240FA9D9BBF1410F7B
:100BE80003D0ABF14502022AA2D8DDE91012002A8F
:100BF800C0F23681079B1E0700F13581C3F3001947
:100C08004FEA4919C2F30A50C2F31302002840F010
:100C18002D8151EA020614BF01260026D20242EABB
:100C28005152C902BBF1460F40EA010E42EAE07C8C
:100C380008BF4FF0660B5EEA0C0CCDE90C1200F011
:100C48009B81002E40F049810D9AA0F2FE3842F0B7
:100C580000420D920020DDE90C1206464FF0050C0B
:100C680055E1ABF1580120293FF662AF01A050F8D9
:100C780021F000BF070E0000390B0000390B0000FF
:100C8800390B0000390B0000390B0000390B00004C
:100C9800390B0000390B0000F30B0000390B000082
:100CA8008B0D00009F0D0000F30B0000F30B0000FC
:100CB800F30B0000390B00009F0D0000390B0000FA
:100CC800390B0000390B0000390B0000410E000001
:100CD800070E00000D0E0000390B0000390B000054
:100CE800070D0000390B0000070E0000390B00004B
:100CF800390B0000070E000058460399F6E4002F50
:100D0800109E3ADB3946304613F098FC3718002E0F
:100D18003FF40EAF4FF000099DF84A3013F010026F
:100D2800059200F05882023013F04003DDF84C8041
:100D3800089318BF149B404418BFC018049BCDF8F3
:100D48001C80002B40F362829DF848201B1A500734
:100D58000493C2F3800B00F15982510640F1498295
:100D6800B9F1000F07D048460399D0470028C0F2D0
:100D78003D82D946013530223CE2304613F0BAFBB9
:100D8800C4E7109B4FF0000901208DF85C300DF18D
:100D98005D0717AEC0E7079B1A0754BFC3F30019D6
:100DA8004FF02B09DDE9102358BF4FEA4919002BF2
:100DB80006DA4FF02D09524263EB4303CDE91023C5
:100DC800DDE910010DF17503009312AA17AB00F0CD
:100DD80089FF0646002F0CDB9DF848200DF17503AE
:100DE8009B1B6FF386129F428DF8482001D9FB1A8E
:100DF8001393002E3FF49CAE0DF175075BE04FF0A6
:100E08000009DDE71098002800F0E0810DF1750376
:100E18000093002117AB12AA00F064FFBDF84A3016
:100E2800064603F0EF0343F4F04343F010034FF09A
:100E38000009ADF84A30CDE7109B072A3FF678AE97
:100E4800DFE802F00C04060C08080C0C1D706FE6B5
:100E58001D806DE6EA17C3E9005269E61D6067E682
:100E68004FF02D09CEE64FF02B09CBE640F2FF7686
:100E7800B0422FD1A0480BF10103DBB2C35C0A4397
:100E880003F003031ED1012B0BBF492369234E2115
:100E98006E210CBF462266228DF85C309DF84830E2
:100EA8008DF85D106FF386138DF85E208DF848304D
:100EB8000DF15F0717AEB81BB9F1000F3FF42CAF67
:100EC800013029E7012B15BF6E234E2361214121F3
:100ED8001A46E1E70026A1E6013849185241002ADE
:100EE800FADACDE90C12AFE6490841EAC2715208B4
:100EF800B2F1333F404608F10108F5D200F102088B
:100F080001200CFB02FEA1FB0C12013E724418F1F9
:100F1800020FE9DB08B1CDE90C12DDE90C21B8F1CB
:100F2800000F2CDCC8F10400A0F1200C08F11C080B
:100F3800C24001FA08F821FA0CFCC1400BF0DF00AE
:100F480042EA0802472842EA0C0238D1F01C01DBC9
:100F5800B7422ADAABF10203002F5FFA83FB7BDD8D
:100F68009DF84800013F830676D43B1E18BF012335
:100F7800059307F101082CE04FF000086AE60232F9
:100F880041F100010CA808F1FF380136CDE90C2128
:100F980013F033FFDDE90C2192184941002908F1CB
:100FA800FF38F9DACDE90C21B7E79DF84830BF1BC7
:100FB80098064FD43B1E18BF0123059304E0002375
:100FC800BBF1660F0593D4D117EB06084FF0660BFB
:100FD80044D4B8F1100FA8BF4FF010089FED447B20
:100FE80010208DED0E7B0B90DDE90E03B8F1000F9C
:100FF80037D1121841EB0301B1F1805F41D2CDE93D
:101008000C21079BBBF1660F03F0200240F0BD8066
:10101800002E41DC30218DF85C10002A6ED1002FA3
:1010280040F3B5812E228DF85D2086B17242BA4216
:10103800A8BF3A46002A1392A7EB0207D4BF0022A2
:1010480001229DF84A1062F345118DF84A100DF1FE
:101058005E0839E00023B0E7002389E74FF0000875
:10106800BCE7400840EAC3705B08CDE90E030EA850
:10107800CDE9082108F1FF3813F0BFFEDDE90821AA
:10108800B2E7520842EAC1720CA84908CDE90C211E
:10109800013613F0B2FEB4E70DF15C080B99002994
:1010A80009DD0BA90CA8079213F0BFFE013E079AB1
:1010B80008F8010BF2D113969AB9002F40F3658115
:1010C8002E2108F8011B0026002F20DD0B9A002A8C
:1010D8001DDD0BA90CA813F0A8FE013F08F8010BB1
:1010E800F2E72E2208F8012BEDE700BFAFF30080EE
:1010F80000000000000000083C7C02002E228DF851
:101108005D20002EA3D0002F90DC0DF15E08059B1A
:10111800002B4ED1149747460BF0DF02452A23D106
:10112800002EBABF76422D232B23632EC8BF64211D
:101138007B70C4BFB6FBF1F301FB13664FF00A01E5
:10114800C8BF03F13000B6FBF1F3D2BFBA1CFA1CDA
:10115800B87087F800B0174603F1300001FB13633D
:10116800303307F8020B5370139B002B2CDC149BB5
:10117800002BD4BF002301239DF84A2063F3861275
:1011880000238DF84A203B7094E60BA90CA807921F
:1011980013F04BFE079A30288DF85C0018BF06F153
:1011A800FF3612B9002F40F3F2802E228DF85D2011
:1011B8004DE7474617F8012C08F1FF38302AF8D0D8
:1011C8002E2A08BF4746A7E70123D5E7714F814676
:1011D8007E1F0520A0E51A0748BF0130A4E5104688
:1011E80009920399D0470028099A05DA1FB0BDE88B
:1011F800F08F2022DDF810B0594600290BF1FF3B93
:10120800EDDC049BCDF810B02B445D1AB9F1000F4A
:1012180005D048460399D0470028E7DB0135089BED
:10122800002B77D09DF94930002B28DB3346DFF8B7
:10123800689118789B4619F80020013352073FD46B
:101248009DF84A30AE1B98065E4407D44246002AF1
:1012580008F1FF383BDC079B33449E1A9BF80000DB
:101268002E280AD10399D0470028BFDBB8F1000F18
:1012780006F1010631DC0BF1010B5D4638E0B146A1
:1012880099F80000C846702809F1010913D1AE1B6E
:10129800149D46443544AB1B002B33DC3B46424689
:1012A8005046039913F0D8FD00289FDB3044049E74
:1012B8000546064464E00399D0470028E0DA95E73C
:1012C80005930399D0470028059BB2DA8EE73020B2
:1012D8000399D0470028B9DA88E730200399D04726
:1012E80008F1FF38C0E70399D0470028FFF67EAF22
:1012F8002878A84619F8003001355907F3D4A6EB29
:101308000B06C5E730200399D0470028FFF66EAFDB
:101318000136C0E79DF84A30DA0601D41B0706D526
:1013280030200399D0470028FFF660AF0135059BB0
:101338003BB103999DF84B00D0470028FFF656AF04
:101348000135A84406E030200399D0470028FFF66D
:101358004DAF0135A8EB0503002BF4DC3B463246C4
:101368005046039913F078FD0028FFF63FAF284454
:101378009DE720200399D0470028FFF637AF0135B5
:10138800731B002BF5DCFFF7D3BB1646BFE60DF148
:101398005D08BCE6008202003D7C020000000000FF
:1013A8002DE9F0472DED028B04469FED498B4A4EFF
:1013B80084B04FF02003EFF3118783F31288BFF353
:1013C8006F8FD4F8C8508DB9022104F1E00018F0ED
:1013D800D2FD002843D100238DED008B39460293BE
:1013E80004F1D0023D4812F06DF9E2E7D4F8CC20C0
:1013F8002B689542C4F8C83008BFC4F8CC30D4F87C
:10140800E03043F00203C4F8E030EB6823F0040353
:1014180043F00103EB606B6887F31188BFF36F8FAC
:10142800284698474FF02003EFF3118983F3128879
:10143800BFF36F8FEB68990723F0010219D4EA60B4
:10144800D4F8E03023F00203C4F8E03089F31188BF
:10145800BFF36F8FDB05ACD412F032F8A9E704F1C3
:10146800D80500220121284618F01BFF0028F8D1D2
:10147800B1E7306823F00303EB600028E0D00027D1
:10148800BA46D0F800800028DAD042680146954272
:101498000BD1016897B972683160824200D17160DE
:1014A80040F808AB11F002FC3946B8F1000F0BD038
:1014B800D8F8002040460F469046E4E73960726845
:1014C800824208BF7760EBE74246F3E7AFF300805C
:1014D800FFFFFFFFFFFFFFFF7C23002024260020E3
:1014E800014811F0E3BB00BF10060020014811F0CD
:1014F800DDBB00BF2806002070B511460546002256
:101508000D48049E15F0F9F9041E04DA0B4813F08F
:10151800AAF8204670BD29463268074815F0E1F957
:10152800041E01DA0648F2E7346001D00024F0E72F
:10153800044813F098F8F9E75C1C00205A7D020073
:10154800677D0200797D02004FF400400021F0B56C
:10155800424D434CEE6E0023E6FB0041414A85B004
:101568002046FEF7F5FD404E02460B463F4811F077
:1015780027FD33682BB93E4805B0BDE8F04013F0AD
:1015880072B84FF4A0733B4C039303AB0093D4E9B8
:1015980000233948FFF7B0FFD4E90012039B37480E
:1015A800591842F10002D0E90070B942C4E90012AA
:1015B800824122BF00210020C4E9000100212E4AF7
:1015C8002F4C5B088B4202F1020225D14FF0FF320B
:1015D8004FF0FF332B4815F0B6FA04460D210C30B6
:1015E80015F0B8FA238AB5F86810E2681A440B4473
:1015F80023820192B5F8683000210093204A012324
:10160800306809F019F9431C01460FD11E4805B08E
:10161800BDE8F04013F027B812F8017C12F8020C6C
:10162800013140EA072024F8020BCBE7174B184892
:101638001A88511C19800023214614F06DFE021EE1
:1016480009DA1349134813F00EF8204605B0BDE82F
:10165800F04004F015BC05B0F0BD00BF300100201B
:101668003F420F0040420F00981E002090070020C4
:10167800887D0200C0070020D8240020C807002069
:101688009423002060070020B47D0200D4240020A9
:10169800A01E0020DF7D02002DE9F04FE5B0A54D2A
:1016A800284618F0B8FA28B9A34865B0BDE8F04F45
:1016B80012F0D9BF2A69A9681368284623F0806305
:1016C80013600B684FF4C0221A219847002843DBA7
:1016D8009A489B4CC46004F0C9F900287BD1214684
:1016E800CDE9430043A804F00DF92146024600283D
:1016F80035D0944812F0B7FF934803F031FF0646FF
:10170800914814F032FE002E56DA904812F0ABFFE2
:10171800206823797C22002143900DF211108DF866
:10172800103112F0A7FD8122894943A812F0F6FD75
:101738008122884943A812F0F1FD0023864801223E
:1017480043A9C0E90033836015F091F804460028E6
:1017580043D0824812F087FF65B0BDE8F08F80481B
:1017680012F081FF7F4EDFF8EC81771C7D4943A89A
:1017780004F014F9E0B97378D3B13378012B04D1AC
:101788003946794812F06FFFF0E741463846FEF7D0
:101798006FFD034630B932697449C1E900207448C5
:1017A80012F061FF39463269724812F05CFFDDE7DA
:1017B80043A815F0AEF89FE7002801DA6E48A5E7C0
:1017C8006E4B0022314608F0E5FE6D4B186000288C
:1017D8009ED16C489AE76C4867E76C496C4818F0EA
:1017E80071FC204602F0C0FA014618B1694812F0AF
:1017F8003AFFB1E7684812F036FFDFF84C9109F17B
:10180800640B4FF4A02206ABCDE90B234FF4000282
:10181800624E0A9316AC23ABCDE90E230D930FCE7F
:101828000FC43368002104AA16A8236002F0C8FE7A
:10183800014608B15A48DAE75A4B08A9CDE90830F9
:10184800049802F0EDFE804610B101465648CEE7F6
:10185800564812F008FF564B28221846414612F007
:1018680009FD012713AC10AEC6E901885149306063
:10187800C4E90169276014F04DFDADF87880DFF800
:1018880054813A4639464C48CDE91B74CDF874B0BA
:1018980012F0E9FE41461BA803F09CFE824630B1D7
:1018A8000146464812F0DFFE514645489FE7D8F802
:1018B800000005A914F0C7FE10B10146414896E79B
:1018C8004FF0160A41F6520103900AA815F090F954
:1018D80005990AA815F096F9BDF82C20039B6270AB
:1018E8000A9A2146626084F800A03A460498009358
:1018F80014F03EFB014608B1334878E70DA9D8F843
:10190800000014F0A9FE014608B130486FE7BDF8A1
:1019180038301BA98DF86D300D9B3A4604988DF828
:101928006CA01C9302F0E8FE0146002854D0284819
:101938005DE700BFA8A70100037E02000C0100209C
:10194800197E02001E7E020030010020927E0200F5
:10195800317F0200597E02005C1C0020497F020092
:10196800397E0200481C00204E7E0200C807002075
:10197800637E02007A7E0200C67E0200D007002045
:10198800981E0020F97E0200337F020051150000E6
:10199800900700205B7F02007B7F0200E0AB010024
:1019A800927F02002003C003C17F0200F97F02007A
:1019B800A01E0020000100201480020053800200B5
:1019C8007A800200A0800200C0800200ED80020040
:1019D8000D8102009C1E002031463080B0700498B2
:1019E80014F0F4FA014608B1174800E7049814F017
:1019F8002FFB014608B11548F9E6154812F033FEE9
:101A08000499D8F8000014F0B6FD014608B1114851
:101A1800EDE64FF0FF324FF0FF330F4811F06CF94D
:101A28000E4812F020FE002200230D4811F0C8FADB
:101A38002B691B685B01AB684FF080614CBF1B6969
:101A4800DB6808489847DCE63A81020064810200B6
:101A58008F810200AA81020010060020D0810200B6
:101A680090070020A8A70100014B1B68184700BF7A
:101A7800A4010020014B1860704700BFA40100209A
:101A880007B50B460021024600910348FEF71CFEED
:101A980003B05DF804FB00BF711A00002DE9F047A0
:101AA800058B04462807904611D4022905F007053E
:101AB80040F0CD80204613F093F878B10138218B9F
:101AC800042811D8DFE800F0C3106D8595000129BE
:101AD8000CBF45F0100545F02005258388F31188D3
:101AE800BFF36F8FBDE8F08701F0070AAA4500F041
:101AF800A6800027B9463E46A368002B00F0BD80AB
:101B080041F00801218388F31188BFF36F8FA16822
:101B1800002900F0BB800D68002900F0B78033462B
:101B280052462046D1F80480C047002D76D02B6855
:101B380029461D46F0E701F007035A1F012A1BD862
:101B4800002221F00701062B276889B2C4E9002288
:101B580009D13B4603E0628B013262831B68002B8C
:101B6800F9D141F002012046218313F039F8002809
:101B78007BD041F0200177E0042B0AD121F0070146
:101B880089B22046218313F02BF810B141F02001CF
:101B98002183218B01F0070AAA4550D00027B946B6
:101BA800AAE7236921F0070141F00601062DD3F8C1
:101BB800009021832DD1B9F1000F40D041F00801E8
:101BC800218388F31188BFF36F8F20463949C847AE
:101BD80029E021F00701236941F0040189B2042DAD
:101BE800D3F804902183E6D000274FF0040A3E463C
:101BF80082E721F00701236941F0050189B2052D2B
:101C0800D3F808902183D6D000274FF0050A3E4626
:101C180072E700274FF0060A3E466DE72B4687E736
:101C2800B9F1000FD1D14FF02003EFF3118883F3FE
:101C38001288BFF36F8F238B23F008032383258B30
:101C4800EA062ED525F01003238305F007056669FB
:101C5800218B002EBFF66FAF00232768C4E900333D
:101C680021F0070141F001012183218B4FF0000988
:101C780001F0070AAA457FF43FAF002F9BD041F03F
:101C88000801218388F31188BFF36F8F002FC7D015
:101C98003D68394633465246204612F0CDFF2F465E
:101CA800F4E7AB067FF51AAF25F02003238305F090
:101CB8000705FFE66D4C0100F0B5024601680A27EA
:101CC8000020074E0B461C780131355D6D0701D4A5
:101CD8001360F0BD07FB0043A3F13000F2E700BF3B
:101CE8003D7C02002DE9F84F15469A46D378224AE2
:101CF8006F2B12F803B080460F460BF0030B29D068
:101D080024D8582B0CBF10260A26DDF82890324616
:101D1800002340463946FEF71BFA092AD4B21ED8DA
:101D28003034B045E4B277F1000709F8014D01D32A
:101D3800D14511D82B789B0605D5082E15D1AB783F
:101D480043F00803AB704846BDE8F88F03F0F7038B
:101D5800702BD7E70826D8E780460F46D7E7BBF1B0
:101D6800010F0CBF37345734DBE7102EEBD1AB78BB
:101D780043F01003E6E700BF3D7C020010B5094BB5
:101D8800094C00F01F024009012818BF234603EB45
:101D98008203D3F8002222F0E04242EA0172C3F83B
:101DA800002210BD002884500025845070B54FF0E3
:101DB8002003EFF3118683F31288BFF36F8F01249A
:101DC800134B144DC3F8004502230321C5F8D03640
:101DD8000020FFF7D3FF2046FFF7D0FF2146C5F8C4
:101DE80004472920C5F80449C5F8004BFFF7C6FF8A
:101DF8002820FFF7C3FF2B20FFF7C0FF2A20FFF79B
:101E0800BDFF86F31188BFF36F8F002070BD00BF40
:101E1800001000500040005048B1054B054A1B68AF
:101E2800B3FBF2F35843044B43F0010318477047E0
:101E38003804002040420F00B0AC0100062807D14A
:101E48000122044BC3F80025BFF34F8F20BFFDE7E5
:101E5800704700BF0040005006F03EBD08B504487A
:101E680017F0DBFF034B0020C3E9003308BD00BFB8
:101E7800C81E0020DC1E0020F8B5064612F03AFB0A
:101E88000546124F4FF0FF324FF0FF33104810F065
:101E980023FE3C68BC420AD1002412E0A06812F07C
:101EA80029FBA84206D07B689C42F5D02468002C08
:101EB800F4D1F1E72A463046A16812F049FB002820
:101EC800F1D1034810F082FE2046F8BDDC1E002048
:101ED800C81E002010B504464FF0FF324FF0FF3304
:101EE8000C4810F0F9FD34B96FF01504094810F0EA
:101EF8006DFE204610BDA0680028F5D0FFF7BCFF96
:101F08000028F1D1044B5A68C4E9003214605C60BF
:101F18000446EBE7C81E0020DC1E0020034A1368B5
:101F28000BB9526813600020704700BFA801002059
:101F380030B50C460E4985B00291D0F8AC11054673
:101F4800CDE9003100F1E0014FF0FF33204610F0F9
:101F580099F950B9012384F86430D5F8A83123B130
:101F6800204605B0BDE83040184705B030BD00BF79
:101F7800D550010038B50C461146054613F0A8F8AF
:101F8800034638B92846044913F0A2F8034600204E
:101F9800236038BD0120FBE73C8902002DE9F04FA2
:101FA800012381460569466885B005F56B77D7E852
:101FB800EF2F002A03D1C7E8E13F0029F7D140F00D
:101FC800B880B368B26A043B2632B3EB420F4FEADB
:101FD800420126BFB3FBF1F3B3FA83F300234FF0BA
:101FE800010428BFC3F12003013B9C4005F5E478B8
:101FF80000F099801022082170689A4002EB440290
:10200800043099400932C5F86002063122F0030213
:102018000A44B16A01FA03FC510001EB4C01C5F80E
:102028006412B16A994000EB4103C5F85832033392
:10203800134423F00303C5F854327368C5F85C42AF
:10204800C5F850323C4B4046C5E9A963316800F0F9
:102058001DFA044630BBD9F804A0D9F81090DAE983
:10206800073409F5307B012B584608BF103C18F09F
:1020780023F80023DAF8240030494FF4806201EB9A
:10208800802100935846234610F0FAFE09F52C707B
:102098002B4917F0E3FFDAF8140083685C681CB971
:1020A8006FF05704002137E04B46264ADAF818103B
:1020B800A04704460028F5D1DAF8140083681B69A4
:1020C800002BEDD00122DAF81810984704460028B2
:1020D800E8D11D4B2846C5F8A8311C4BC5F8AC31D2
:1020E8001B4B0393D5F810320293D5F80832CDE98B
:1020F8000083D5F86832B26AD5F8A81300F08EF9D3
:1021080004460028CED105F1E00010F067F9002858
:10211800C5F8B0030ADB0221384613F00EF8204652
:1021280005B0BDE8F08F6FF00B04BBE76FF0150446
:10213800B8E76FF07704F2E72B510100282600205A
:10214800115101000551010021220000E351010055
:10215800735101002DE9F84306464FF0010905695E
:10216800D0F8048005F56B77D7E8EF3F022B03D151
:10217800C7E8E29F002AF7D149D1264805F1400176
:10218800FEF776F820B16FF00F042046BDE8F8831B
:10219800204805F1B001FEF76BF80028F3D1284676
:1021A800D5F8A81313F04CF8044670BB716836696B
:1021B800486983681B6933B322468969984704468E
:1021C80018BB06F530764946304610F091FE304689
:1021D80005F5E47600F0F8FE3046D8F8001013F064
:1021E8006CF8044688B90146E822304612F042F8F5
:1021F80021464FF4E272284612F03CF82146384650
:1022080012F09BFFC1E76FF057040221F7E76FF068
:102218007704BAE73C89020013B5044640B10023AD
:102228000122CDE90032074BD0E909120FF0DEFF99
:10223800A36E1B6823B1E06E02B0BDE810401847DA
:1022480002B010BD3C89020013B504460846216956
:1022580001F56B71D1E8AF1F022910D193B1A0B17C
:102268000121CDE900311346D0E909120FF0BEFF74
:10227800074B984208BF6FF00B0002B010BD6FF01B
:102288000F00FAE76FF04C00F7E76FF00100F4E792
:102298002EF8FFFF2DE9F74388461546066906F52F
:1022A8006B73D3E8AF3F022B5FD1136823B96FF08C
:1022B800150003B0BDE8F0831B78002BF7D0D6F8E3
:1022C800A893B9F1000F33D106F5D8774FF0FF3254
:1022D8004FF0FF33384610F0FFFB30462A6801A95B
:1022E800FFF748FE019C1CB9384612F024FFDEE7D0
:1022F80005F10803A3666B6984F86490E366E463F8
:1023080060B1384612F017FF21463046236E2A681E
:10231800FFF70EFE0020C8F80040CAE7202229680F
:1023280004F1400012F056F9384612F004FFF1E7C4
:1023380030460F4912F0CCFE04460028B7D005F10C
:10234800080383666B69C063C366002380F8643042
:1023580020222968403012F03DF9224601213046FA
:1023680000F03EF80028D5D0A1E76FF00F00A0E7F5
:102378003C8902002DE9F04F05460E46904600279D
:10238800D0F8B0A085B0AAF5AE7421463046FDF766
:102398006FFFE0B9114BA4F1400B0293DAF810304B
:1023A8003246CDE9008329464FF0FF335846AAF557
:1023B800CE790FF067FF60B97023012203FB079302
:1023C80083F86420DAF80C300BB15846984770341B
:1023D80017B105B0BDE8F08F0127D6E745520100D7
:1023E8001FB5144690B18AB1012912D10A4B00F1E8
:1023F800E0010293D0F8AC31403201934FF0FF3343
:10240800204600930FF03EFF04B010BD6FF015009A
:10241800FAE70020F8E700BF455201002DE9F04334
:1024280087B00E46DDE90E811446DDE910251F460A
:1024380030B329B3DFF850C000F1E009002D08BF20
:1024480065469EB9CDE9034400F5CE74204605964D
:1024580017F0CBFB03ABCDE900432A463B46414688
:1024680048460FF0E1FF07B0BDE8F083002241467F
:102478000E9248462A4607B0BDE8F04310F0FEB871
:102488006FF01500EFE700BF7D230000F0B50E46A2
:10249800044689B000286FD001230246C363002395
:1024A800D0F89810364F403040F80C7C42F8301F76
:1024B800CDE901334FF0FF330093C36D16F051FEA1
:1024C800304A06AB92E8030083E80300184607F099
:1024D8005FFA0546D8B904F1340007F039FA054621
:1024E800A8B93946284805AA16F00DFE054670B960
:1024F800059B9A6872B10C33D4F89400C4F8A030E4
:1025080012F0CDFEC4F8D40030B96FF00B052846A0
:1025180009B0F0BD0346EFE7D4F8940012F0BFFE0F
:10252800C4F8D8000028F0D0D4F88C30D4F8A01023
:10253800C4F8A8300423C4F8AC30C4F8C43002236B
:10254800A362124BB4F89420D4F8D470C4F8B8102D
:10255800C4F8D010D4F89010236204F1A403A4F8AE
:10256800B020C4F8A470C4F8C010A4F8C820C4F8F7
:10257800BC00A661E362CAE76FF01505C7E700BFB4
:102588001B820200F4AB010025820200F4AC0100BA
:102598002DE9F84305464FF02003EFF3118683F346
:1025A8001288BFF36F8F4FF00C090D4B0D4F1C684D
:1025B800DFF834802CB986F31188BFF36F8FBDE83C
:1025C800F883D4E90123002D18BF13462BB198F8DE
:1025D800142009FB02F2B85C98472468EAE700BFB8
:1025E800FC1E0020F01E00204C230020012270B5A4
:1025F800164B1C7D04F01F039A40D043144B61090D
:1026080003EB8103D3E8EF1F01EA0005C3E8E65FA7
:10261800002EF7D10A4213D00E4B0F4D8BB10C236D
:102628006343EA185178E85C12F03BFC0020FFF79E
:10263800AFFF0C235C4300232A192B51C2E9013355
:1026480070BD83F31188BFF36F8FEFE74C23002031
:10265800041F0020AB4E0100F01E00202DE9F041C0
:10266800324B07461D7D4FF02003EFF3118883F3AB
:102678001288BFF36F8F0C246C432D4B2D4E195DC0
:102688001A19002947D007CA06EB040C8CE8070082
:1026980000221A5588F31188BFF36F8F0C236B4300
:1026A800F05CF218A8B37B1C10D04FF40040002156
:1026B800D2F808C0204C0023ECFB00411F4A2046FA
:1026C800FDF746FD0121381A17F034FE10F0BCFE64
:1026D8000120FFF75DFF1A4B6A0903EB8203012211
:1026E80005F01F018A40D3E8EF0F1043C3E8E10F5C
:1026F8000029F8D1134B3BB10C2303FB05F0331829
:102708005978305CFFF79AFBFFF770FF10F0B0FEC6
:102718000120BDE8F0810146284600F015F80028A0
:10272800B8D007C8344484E80700B3E74C23002036
:10273800E41E0020F01E00203F420F0040420F0020
:10274800041F0020451E00002DE9F04F85B00E46FD
:1027580003A900F043F84FF4004704464FF0000B7C
:102768001B4B039DD3F800A0431E1BB203EB43038E
:10277800DFF8648005EB830524B9A146484605B017
:10278800BDE8F08FC446594668680023E0FB07C1DE
:10279800104A6046FDF7DCFCC44659460190A8681B
:1027A8000023E0FB07C10B4A6046FDF7D1FCBAF1F4
:1027B800FF3FA94601D0824505D9731CDED0019B95
:1027C8001844B042DAD9013CA4B20C3DD4E700BFAA
:1027D800D401002040420F003F420F0008B9024BCD
:1027E8000B600020704700BF18AD01002DE9F04FC5
:1027F800002703689DB003934368DFF8B0A10493F2
:102808008368DDE903460593C36806930369DDE938
:1028180005BE0793436908938369DDE9072C09938B
:10282800C36998460A93099B0193CD590CAB2DBAFD
:102838005AF8049BDD514FEAF223A94483EAB21304
:10284800019D83EA72634B4425EA020502EA0C09FA
:1028580085EA09052B44434486EA0B054FEA743898
:1028680088EAB408254006EA0B0985EA090588EADA
:10287800B458A844043703EB0E05402F4344DE4602
:10288800DDF8048000937FD14FF0100A464B0B937C
:1028980051460AF1010A1CAB0AF00F0703EB870740
:1028A80057F8403C01F00F094FEAB34801F10E0711
:1028B8000931029388EAF31801F00F011CAB03EB0E
:1028C800810103EB890907F00F0751F8401C03EB5E
:1028D800870759F8403C57F8407C1944029B4FEA57
:1028E800F74E88EAD3088EEA774E8EEA972E41444F
:1028F80071444FEAF52E0B9B05EA02088EEAB51ED5
:102908002CEA05078EEA756E87EA0807774453F8BC
:1029180004EF49F8401C77440F440B930199009B3E
:1029280039444FEA733E84EA06078EEAB30E1F4025
:1029380004EA06088EEAB35E87EA08077744BAF124
:10294800400F01EB0B0E0F44B346CDF804C023D162
:10295800039B00993B440360049B0B444360059B25
:1029680023448360069B3344C360079B734403611D
:10297800089B2B444361099B134483610A9B63446E
:10298800C3611DB0BDE8F08FB346CDF804C026463C
:102998009446009C2A4648E7944626462A46009CC8
:1029A8007546009774E700BF54AD010018AD0100EB
:1029B80010B50446C8B17022002112F0BBFC0B4BC5
:1029C8000B4A0C49C4E900230B4B0C48C4E9021319
:1029D8000B4BC4E9040301200A4BA36103F17453B0
:1029E800A3F52303A3F69243E36110BD85AE67BB4D
:1029F80067E6096A72F36E3C3AF54FA57F520E51AD
:102A08008C68059BABD9831F014910220A60704767
:102A180010ED00E072B6404080F31188BFF36F8F6D
:102A2800BFF34F8F30BF62B6BFF36F8F704700BFE1
:102A380072B6494081F3118820BF80F3118862B6CD
:102A4800704700BF40B2002807DB01234109034A51
:102A580000F01F00834042F82130704700E100E099
:102A680040B200280CDB01220649430900F01F0090
:102A78008240203341F82320BFF34F8FBFF36F8F7D
:102A8800704700BF00E100E0054B420953F82220DF
:102A9800012300F01F0003FA00F01040704700BF48
:102AA80000E100E040B2002801F10101ACBF00F1F3
:102AB8006040064B4FEA4111C9B2ABBF00F5614017
:102AC80000F00F0080F800131954704714ED00E06F
:102AD80030BFFFF7FDBF00BF144A08B5144B22F002
:102AE8007F029A60BFF34F8FBFF36F8FD3F88820B0
:102AF80022F47002C3F88820D3F8882042F4A00298
:102B0800C3F888204FF04042C3F83422BFF34F8FF8
:102B1800BFF36F8F0023E1EE103A0FF007FE10F0BD
:102B2800E3FD00F02DFA0FF041FE00BF00000000A9
:102B380000ED00E0094A0A49936809689867D9676F
:102B480008494B6843F080534B60002383F3118896
:102B5800BFF36F8F9368D86F704700BF4C23002076
:102B68001C7C020000ED00E022498A6882F8C1E07E
:102B78004FF030001044EFF3098C80E8F01F1EF08E
:102B8800100F03D102F1800080EC108A202080F31E
:102B98001288BFF36F8F184F4FF000660A6A8A6079
:102BA8003E6092F9C1E0906F0023936780F311882B
:102BB8001EF0100F03D00023E1EE103A03E002F1FB
:102BC800800090EC108AEFF3148323F0040383F35E
:102BD8001488BFF36F8F02F1300090E8F01F8CF378
:102BE800098802F1000004B512F0D7FDBDE80440E1
:102BF800704700004C23002004ED00E01EF0040F95
:102C08000CBFEFF30880EFF30980816911F8021C0B
:102C18000229FFD001B512F0B1FD01BD42F8203CF8
:102C2800009B0D4942F81C3C019B21F0010142F830
:102C3800183C029B42F8081C42F8143C4FF0807381
:102C480042F8043C002383674FF47D43203A026531
:102C5800C0F8C030704700BF894601000023E1EE8C
:102C6800103AEFF3148323F0040383F31488BFF3BB
:102C78006F8FBFF36F8F094B9860836E83F30B8858
:102C8800104681F30988002163B681F31188BFF3E8
:102C98006F8F0022002311F0F3FC00BF4C230020AB
:102CA80001B572B60B4AD06900281EBF0021D16158
:102CB80017F0A4F862B6EFF30580A0F110004FEA10
:102CC800C0000549014409C99847BDE801400349C6
:102CD800084700004C23002068A80100E92C0000E8
:102CE800044B9968186A884203D003494FF0805210
:102CF8000A6070474C23002004ED00E0154B9A6AE7
:102D080012F0007F9A6A14BF1E201D2012F0807FE7
:102D18009A6A18BF1F2012F4801F9A6A18BF0220EF
:102D280012F4002F9A6A18BF212012F4802F9A6A91
:102D380018BF222012F4003F9A6A18BF232012F409
:102D4800803F9A6A18BF24206FEA02426FEA124253
:102D58009A62704700ED00E010B5194B0246986A78
:102D68009C6A10F4805F14BF1720162014F4006FBB
:102D78009C6A18BF1820A40509D5986B986A0004A6
:102D880004D51AB19A6A22F400429A6219200C4BAF
:102D98009A6A12F4806F9A6A18BF1A20D2050CD466
:102DA8009B6A13F4005F18BF1C20054A936A43F41A
:102DB8007F43936200230B7010BD1B20F5E700BF13
:102DC80000ED00E010B51C4B0246986A9C6A10F0B2
:102DD800100F14BF1120102014F0080F9C6A18BFA0
:102DE8001220A40709D5586B986A000604D51AB1B1
:102DF8009A6A22F080029A6213200F4B9A6A12F0A4
:102E0800010F9A6A18BF142012F0200F9A6A18BF8F
:102E18001520D40658BF9B6A074B9A6A920642BF90
:102E28005A6A22F400525A629A6A42F0FF029A627F
:102E380000230B7010BD00BF00ED00E070B5444BDF
:102E480006465B6800259CB0C3F3080385F3118828
:102E5800BFF36F8F02F07F40B0F17F4F11D102F0C6
:102E68000C0008280DD010074CBF0E460125002283
:102E7800033B8DF80720032B05D8DFE803F01E5C21
:102E880060592E46F3E700249DF807309BB9682265
:102E9800314602A8FDF776F9099B002D53D0C3F3FC
:102EA800080222B96FEA53236FEA432309932046A5
:102EB80002A912F061FC1CB070BD254BDA6A9107BB
:102EC800E1D4DA6A002ADEDBDA6A5200DBD55A6915
:102ED800B16942F480725A61BFF34F8FBFF36F8FAD
:102EE8005A6931F8021C22F480725A61BFF34F8F7D
:102EF800BFF36F8F4DF60272914209D09A6AD2B22F
:102F080042B101200DF10701FFF75CFF0446BBE762
:102F18003468B9E79A6A12F47F4F05D001200DF1A1
:102F28000701FFF719FFF1E79B6AB3F5803FAAD3C2
:102F3800FFF7E4FEEAE700200DF10701E4E70020CF
:102F48000DF10701EDE723F4FF7323F00103ADE76B
:102F580000ED00E0044B5A6942F010025A615A69C8
:102F680042F480625A61704700ED00E0EFF3088098
:102F7800EFF3098101B57246FFF760FF01BD00BF9D
:102F8800002320210348C2180133452B82F800137F
:102F9800F9D1704700E100E0FEF75EFF202080F3E2
:102FA800118808484FF40061401880F30988EFF34E
:102FB80014800221084380F31488BFF36F8FFFF752
:102FC8008BFD000028360020084B9B6883420BD1FC
:102FD800EFF3058343B1064B5A6842F080525A60BA
:102FE8005A6A22F400425A6210F00CBB4C230020AB
:102FF80000ED00E01FB5094C094A234601210948A4
:1030080000F0EAF800230393074B0121E41A01A812
:103018000193029400F0EAF804B010BD0000072004
:103028000000002018AE01009007002010B50C7AAF
:103038000B6804F01F0223F01F031A43CB686409CE
:1030480023F01F03054943EA440343F00103C1F891
:103058009800C1F89C20C1F8A03010BD00ED00E038
:103068002DE9F04F0F46144606464FF000084E4D26
:1030780085B0B84580F29480D6F80490B9F1000F75
:1030880036D0B9F11F0F40F2898019F01F0F40F0B8
:103098008580D6F800A01AF01F0F7FD1504612F095
:1030A80080FB834609EB0A00013812F07AFB83455E
:1030B80074D11BF1160F71D05C456FDDC5F898B05F
:1030C800D5F89C10C5F898B0D5F8A03021F01F01AC
:1030D80043F01F0AD6E900321A44994202F1FF3937
:1030E8001ED1CA4508D131465FFA8BF012F062FB57
:1030F80008F101080C36BCE73146C5F898B0D5F898
:103108009C3022F01F0203F01F031343C5F89C30C4
:10311800E0B212F04FFB10F1160F3FD0441CE7E766
:10312800C5F898B0D5F8A020013B23F01F0302F0A2
:103138001F021343CA453146E0B2C5F8A030E8D0B3
:1031480012F038FB10F1160F28D0C5F898B0D5F852
:103158009C209DF808300AF1FF3A62F304038DF8C9
:103168000830D5F8A0309DF808205B0863F34712B3
:103178008DF80820D6E900321344009323F01F038A
:10318800411C5344A3EB0903C8B223F01F030728CB
:10319800039303D86946FFF749FFBFE76FF01504AB
:1031A800204605B0BDE8F08F00ED00E00522044B95
:1031B800C3F89420BFF34F8FBFF36F8F704700BFE2
:1031C80000ED00E0BFF35F8F0022024BC3F89420AC
:1031D800704700BF00ED00E010B5034C2278FFF700
:1031E8003FFF207010BD00BF182600202DE9F74FC3
:1031F800294D8A4606464FF00008AB46274FD04572
:103208001BDAD6F80490B9F1000F3FD031680846B0
:10321800019112F0C6FA0199044609EB0100013840
:1032280012F0BFFA84424FF014021D4B08D002FB83
:1032380008F36FF015024BF8032003B0BDE8F08FD8
:1032480014F1160F2C60F8D01978A142F5DD02FBB5
:1032580008B0C7F89840C7F89840D7F89C4000F1E4
:103268000801007B64F304000871D7F8A0000C790A
:10327800400860F347140C71D7F89C1021F01F0127
:103288006960D7F8A01021F01F01296108F1010831
:1032980014350C36B3E700BF081F002000ED00E02E
:1032A8001826002038B50E4D2C68082C15D800209B
:1032B800FFF788FF0B4B0C4AC3F8C020844205D1A6
:1032C8000A4B00201C70FFF771FF38BD696801EBDD
:1032D8000011FFF7ABFE0130F0E74FF0FF30F4E7E5
:1032E80024AE010000ED00E0AAFF440018260020EB
:1032F800014B1860704700BFD8010020F8B50D4693
:10330800094F461EC0F10104A3199D4201DC28465D
:10331800F8BD73780A2B02D10D203B6898473B68AB
:1033280016F8010F9847EFE7D801002008B51D21CE
:103338000448FFF7E3FF404080F311884FF0030093
:1033480002DF00BF34820200084B0020D3F80425B6
:10335800D20744BF0022C3F804251022044BC3F847
:1033680040244FF05023C3F81406704700D0005093
:103378000030005038B50546054813F0E4FB044614
:1033880020B101210C3013F0E5FB2576204638BD2D
:10339800B006002010B50B460A490246D1F8D800FD
:1033A80020B9BDE810400120FFF7E4BF13F005FC89
:1033B800012100230446017603820C3013F0CAFB76
:1033C800204610BD0000002070B504460F2C0D46A5
:1033D8001046194605D80D2C0DD9BDE87040FFF7E9
:1033E800D9BF132C07D10C4813F0ADFB044638B9EC
:1033F8000024204670BD02460B4645B10748F3E756
:1034080001210C3013F0A6FB01232376F1E70120FC
:10341800BDE87040FFF7AEBF340700205806002013
:1034280010B5012104460C3013F012FC2146BDE80A
:1034380010400423014A007812F012BAACAE010021
:1034480038B5254813F0A0FB0446002843D0037E76
:10345800012B0ED0052B3BD101F09AFA1F4BD3F864
:10346800DC30002B37D0BDE838401D491D4816F028
:1034780012BE038A012B0CD840F66B131A4A1B495B
:103488001B4811F000FD404080F311884FF0030005
:1034980002DF022104F10C0013F0DAFB0546007884
:1034A80012F0C9F983070CD440F66F130E4A11497C
:1034B8000F4811F0E8FC404080F311884FF00300FA
:1034C80002DF2878032321460B4A12F0C9F9204667
:1034D80002F0D6FCC2E738BDDC0000200000002066
:1034E800180200207816002094820200C882020088
:1034F800E1820200FE82020094AE0100F8B50746A0
:10350800907A0E46144602F0F9FB2D4B834255D1B2
:10351800204602F0FBFB0C232A4D03FB0050438896
:10352800BB424BD1284FD7F8D80020B102F0A8FCF5
:103538000023C7F8D830204602F0E8FB0C2707FB29
:1035480000504368C3B1BEB9204602F0DFFB012238
:1035580007FB00504068D0E90031007A01F01F07EE
:10356800BA404909F8B103EB8103D3E8EF0F1043E0
:10357800C3E8E10F0029F8D1204602F0C7FB0C2769
:1035880007FB00508368CBB1204602F0BFFB7843AD
:103598002E54204602F0BAFB07FB0055A868BDE888
:1035A800F8400FF083BBD24303EB8103D3E8EF0F5E
:1035B8001040C3E8E10F0029DED0F7E7F8BD00BFEF
:1035C800840600201C1F00200000002038B50421BC
:1035D80004460C3013F03CFB4578017822464088BD
:1035E800FFF78CFF25B1BDE8384002480FF05EBBFD
:1035F80038BD00BFC000002038B5032104460C3098
:1036080013F026FBE368057822461978B0F8010024
:10361800FFF774FF25B1BDE8384002480FF046BBFC
:1036280038BD00BFC000002010B5C1E900239DF8D7
:1036380008300C460B7202F069FB0C22024B02FBAD
:1036480000335C6010BD00BF1C1F00202DE9F0474F
:103658004FF0FF324FF0FF33064617480F4613F07E
:1036680072FA4FF00008044600F10C0A0121504696
:1036780013F070FA204684F8188002F047FB4FF0E8
:103688000C090E4D09FB00504680204602F03EFB17
:1036980009FB0050C0F80880204602F037FB09FB00
:1036A800005503215046C5F8048013F08AFA0680B5
:1036B80087702046BDE8F087840600201C1F002084
:1036C800F0B515460C4687B021B9FFF7BFFF044691
:1036D800002847D001220021684616F03CFC20460D
:1036E80002F014FB0C23214F03FB0070C0F808D034
:1036F800204613F062FA01461D4813F05CFA4FF4B5
:10370800A022002368460FF0F7FA064680B14FF46E
:10371800A573184A1849194811F0B5FB31461848DD
:1037280011F0B1FB404080F311884FF0030002DF35
:10373800204602F0EBFA0C2358433E5C56B1204673
:1037480002F09EFB092E14BF6FF004006FF06E00AC
:1037580007B0F0BD15B12C600020F9E7204602F053
:103768008FFBF9E76FF06800F2E700BF1C1F00202D
:10377800E4000020948202002C830200E18202000F
:1037880035830200F7B5144B054693F94F300C46C4
:10379800002B1DDA14B9204603B0F0BD082C4FF0F9
:1037A800000142F2180001AA264628BF0826FFF7A2
:1037B80087FF0028F0D1019F3246F9682846013179
:1037C800FCF7E0FC384602F05BFB3544A41BE1E75C
:1037D8006FF08500E0E700BF000000200138C0B2AC
:1037E80002289ABF014B185C0020704791830200A1
:1037F800024BD3F8FC305B69184700BF000000207B
:103808002DE9F0473C4FDFF80C8107F11409FB68FC
:1038180048466FF39433FB6001F02AFD451C4FF0D6
:10382800FF324FF0FF332946334810F0C7F860B134
:1038380040F6EC1342463149314811F024FB404030
:1038480080F311884FF0030002DF2B4E15B90FF0FB
:1038580037FEDCE7F368C3F38633042B42D1337BAE
:10386800002B42D100220023264813F071F90446A8
:1038780060B940F67E1342462349214811F003FB04
:10388800404080F311884FF0030002DFDFF888A082
:103898004FF0FF324FF0FF331C480FF02DFADAF8E3
:1038A800D80020B102F0ECFA0023CAF8D83020463C
:1038B80013F083F9CAF8D8002046FFF799FF88B1BA
:1038C80012480FF0F3F9204602F020FA0C22104BB0
:1038D8001F2102FB003022464088FFF70FFE2046DA
:1038E80002F0CEFA1436013DB0E7012BFAD1306967
:1038F800383801F007FDF5E7DC0100202C830200D1
:10390800E1820200E40000208E840200C000002052
:103918001C1F002094820200000000202DE9F041C5
:10392800044600F10C06304613F09AF9B4F81080FA
:103938000546B8F1010F0CD840F68D531B4A1C49B7
:103948001C4811F0A0FA404080F311884FF00300A2
:1039580002DF3046022113F07BF90746007811F0A8
:103968006AFFC20706460CD440F691530F4A124923
:10397800104811F088FA404080F311884FF0030096
:1039880002DF032321460D4A387811F069FFB30797
:1039980007D56369A4F8108013FA85F5E560BDE8DA
:1039A800F0812046BDE8F04102F06ABA9482020034
:1039B800C8820200E1820200558302007CAE010049
:1039C80038B5037E0446012B06D0052B10D002F033
:1039D80057FA6FF0150014E0C368187811F02BFF40
:1039E800C207054602D52046FFF798FFAB0707D563
:1039F8002146044813F0B2F80349044816F04BFB7B
:103A0800002038BDDC0000201802002078160020B5
:103A1800084A0346D2F8FC0030B9D96839B1596967
:103A280029B1C2F8FC3070476FF0770070476FF02B
:103A38001500704700000020044BD3E8EF1F41F049
:103A48000401C3E8E21F002AF7D17047880000206C
:103A5800F7B5B94DD5F8FC30996811F0010119D1C5
:103A680040F6034001AAFFF72BFE0446002860D168
:103A78000198C3681B785BB905F18803D3E8AF2FB9
:103A880002F00902D3E8EF1FC3E8E42F002CF9D1B4
:103A980002F0F6F9002141F2030001AAFFF710FE37
:103AA8000446002845D1019BA44EDA68D2F80100EB
:103AB800D2F8051003C6184602F0E2F9214641F291
:103AC800010001AAFFF7FCFD044690BB0198C368FA
:103AD8005A7885F824205A88EA841A7985F82520A6
:103AE800B3F807202A85B3F805306B8502F0C8F9CA
:103AF800214641F2020001AAFFF7E2FD0446C0B9DF
:103B0800019FFA68531C41323446186859680833D3
:103B180003C493422646F7D1384602F0B1F900F0C3
:103B280003FF044628B995F830305E0604D46FF0D8
:103B38001204204603B0F0BD01466A4642F2030073
:103B4800FFF7BEFD04460028F3D1009B7C4EDA68DF
:103B5800D2F80100D2F8051003C6184602F090F911
:103B680095F893300F2B21D995F85D3098061DD51F
:103B7800214642F2600001AAFFF7A2FD0446002890
:103B8800D7D1019FFC68A3889AB262B1A27952B1D9
:103B9800A5F8A030A279114606F10C0016F0DBF961
:103BA800A37985F8A230384602F06AF995F83060B2
:103BB80016F0200617D1022140F66D40FFF746FDAA
:103BC800044600285FD002210C3012F0FAFF0123CE
:103BD800214603704670324640F66D40FFF770FD8F
:103BE80004460028A5D195F85030190712D56A4621
:103BF800002142F21C00FFF763FD0446002898D11B
:103C08000098C368D3F80120D3F80530C5E9262306
:103C180002F036F9082142F20100FFF717FD0446C9
:103C280088B308210C3012F0CCFF95F8932012F0DD
:103C3800300F2BD0434912F0200F434B18BF0B46CF
:103C48003F2A03D9520648BF43F04063102242700E
:103C580007220226827000221B0E21460670C370BE
:103C6800027142718271C27142F20100FFF728FDB0
:103C7800044600287FF45DAF082140F60140FFF7B5
:103C8800E5FC074620B96FF0680452E72F4BD7E7E9
:103C980008210C3012F095FF802343702023047014
:103CA80084700471447184712246C670C3713946A8
:103CB80040F60140FFF704FD044600287FF439AFC1
:103CC800014601AA4FF60140FFF7FAFC044620BB63
:103CD800019802F0D5F821464FF6024001AAFFF7F5
:103CE800EFFC0446C8B90198C368B3F80130A5F8D9
:103CF800753002F0C5F895F875305B070DD521468B
:103D08004FF6034001AAFFF7DBFC30B90198C368FE
:103D18005B7885F8743002F0B3F800F051FA044685
:103D280000287FF406AF01F051F9044600287FF41B
:103D380000AFFFF781FEFCE6000000202C00002009
:103D4800900000200210070302100701021007006C
:103D580010B5FFF77DFE034B1B6813B1BDE810409B
:103D6800184710BD341F002070B5334D0646D5F8EE
:103D7800FC3088B0002B59D005F18803D3E8EF2F29
:103D880022F00202C3E8E12F0029F7D1D3E8EF4F70
:103D980044F00102C3E8E12F0029F7D114F001042F
:103DA80047D1264B1E60012205F1C000114616F0CE
:103DB800D2F805F1E40016F0A9F800220023CDE9B5
:103DC80006236FF008034FF48062CDE90243CDE982
:103DD80000441B4B1B4904941B480EF0D9FD1B499A
:103DE800194816F006F81A4816F066F96FF0070336
:103DF8004FF400621749164800940FF041F816492D
:103E0800134815F0F6FFD5F8FC30DB6898470446F0
:103E180048B926B908B0BDE87040FFF719BE05F1EA
:103E280078000FF027F8204608B070BD6FF0120434
:103E3800F9E76FF07704F6E700000020341F002050
:103E480009380000282A0020B01500206E830200DF
:103E580078160020282E002074830200004870473E
:103E68007A830200F8B506460025094FFB79ECB2C3
:103E7800A34202D86FF0010009E0C4EBC401304648
:103E8800394411F065FD01350028EFD02046F8BD12
:103E98000000002037B504460D4671B12846124986
:103EA80011F056FD48B929461048C4EBC404204413
:103EB80011F05BFD002003B030BD684611F09EFC98
:103EC8000028F8D16846FFF7CDFF0028F5DA074B40
:103ED800C4EBC4006946184411F047FD002DE9D031
:103EE80001462846E4E700BF818202000000002066
:103EF80038B506221149054610F00CF9C8B106215B
:103F080042F20500FFF7A2FB0446A0B106222946AB
:103F18000C3012F05CFE0022214642F20500FFF749
:103F2800CFFB38B90548294611F01AFD012300F8DE
:103F3800013C002038BD6FF06800FBE71D00002041
:103F480070B50D46044618B9BDB16FF0150070BDC7
:103F58001B4911F0FDFC0028F6D12378012BF4D180
:103F6800A37903F0C003C02BEFD12046FFF77AFFF7
:103F78000028E9DB6FF07700E9E7124DEB79012BB8
:103F88001AD005F18803D3E8AF3FDB070BD5EE79EC
:103F980021463046FFF77EFF0028D8D1EB7930461E
:103FA8000133EB71D3E7002CCFD02046044911F040
:103FB800CFFC0028EBD0C8E76FF00B00C7E700BFC5
:103FC800818202000000002073B5044698B10021E8
:103FD80041F2090001AAFFF773FB064658B9019B95
:103FE8000622DD680E490135284610F093F828B9F5
:103FF800019801F045FF002002B070BD0622284656
:10400800084910F087F80028F2D02946601C11F002
:10401800A7FC0198267001F033FF0120ECE700BFF0
:104028008E8202008882020007B56846FFF7CCFF3F
:10403800044BD87118B169460020FFF72BFF03B075
:104048005DF804FB00000020F7B5184B054693F80F
:1040580076300E46DB0703D40024204603B0F0BDBB
:1040680000214FF6094001AAFFF72AFB0346002862
:10407800F2D101981627C26854780232B44228BF98
:1040880034469C4202DC01F0FBFEE6E7114607FBE2
:10409800035602F1140C51F804EB614546F804EBA1
:1040A800F9D10988013331801632EAE7000000208F
:1040B80070B5154D88B0EC792CB9012102A8FFF72D
:1040C800C3FFE871C0B90021084608B0BDE87040D8
:1040D800FFF736BF02AB06FB02310DF1010011F00C
:1040E8003FFC0123694610468DF80030FFF7D2FEE9
:1040F800013410B108B070BD1626EB79E2B29342D4
:10410800E8D80020F6E700BF000000202DE9F041C4
:1041180090460E461D46024600284BD0002B49D03B
:10412800CF07047831D5254FB8F1000F13D0880692
:104138000AD4C4EBC403FB5C012B15D02B70B20668
:104148000FD543F002030BE097F890305906F0D4EE
:104158006FF0850006E0C4EBC403FB5C012B03D0C1
:104168002B700020BDE8F081072101FB0471104687
:10417800013111F006FC0028F4D1C4EBC4043B5D06
:104188002B70B8F1000FECD0D9E74B070ED50B4ECA
:10419800C4EBC407F35D012BE2D1072111FB043105
:1041A800314411F0EEFBF35D2B70DBE711F02BFCD3
:1041B8000123F9E76FF01500D4E700BF00000020E5
:1041C80010B50A4CE3790BB1002010BDFFF72CFFA6
:1041D8000028FAD1E379002BF6D1FFF769FF002810
:1041E800F3D1601CBDE81040FFF782BE000000203C
:1041F800F0B5264B074693F891300D469B0687B0DD
:1042080037D500F110061121304611F02FFC98B374
:104218001021304611F02AFCA84230D002214FF478
:104228000150FFF713FA044660B302210C3012F074
:10423800C8FC002303807B780246437055B10123F4
:1042480012210370304611F011FC18B1137843F0B5
:10425800020313703246204603A910230095FFF786
:10426800E3F9002221464FF40150FFF729FA07B07D
:10427800F0BD6FF08500FAE76FF01500F7E76FF013
:104288007700F4E76FF06800F1E700BF0000002056
:1042980038B502690446436852B140F201421342FC
:1042A80001D1002038BD03F48262B2F5806FF8D0E6
:1042B800590502D413F4F84FF3D11A4A9A43F0D0AF
:1042C800194D2078EB798342EBD9C0EBC000072267
:1042D800164928440FF01EFF0028E2D06068C20784
:1042E80006D495F82430082B02D8A3689F2BD8D978
:1042F80010F0300F02D02369002BD2D0C30601D4AE
:10430800236943B9D4E902239A42CAD81F2AC8D9D3
:10431800B3F5804FC5D800F46030B0F5603018BFF1
:104328000120BFE70006040000000020818202008F
:1043380038B50E4D284611F096FB10F0010412D145
:10434800A5F110031846502221460FF093FF0346AB
:10435800D5E8EF2F42F00102C5E8E12F0029F7D197
:1043680018465C7038BD0020FCE700BF70170020BD
:104378002DE9F74FD1F810A00746BAF100040E4610
:1043880042F236004FF01901934618BF0124FFF797
:104398005DF98146002800F0FF8019210C3012F0E9
:1043A80010FC0546192200210FF064FF224638460A
:1043B800716805F10A03FFF7A9FE0446002840F0DA
:1043C800BA8007F10900BAF1000F00F0B88031692E
:1043D80011F0C4FC304611F076FD7B7880462B70D6
:1043E800B368EB70C3F307221B0C2A716B71F36877
:1043F800C3F30722AB711B0CEA712B72706811F0C2
:1044080023FB0023AB747F23EB74012368722B75A5
:104418007268510503D5140558BF0223AB7573683C
:10442800D80442BF03232B75AB75736883F480648B
:10443800C4F3802459044FEA041448BF44F04004EC
:104448009A0444BF44F02004A4B2DB0544BF01230E
:104458002B76736813F0010F03F4007100F08C8061
:1044680044F0010292B2BAF1000F6FD011B9BBF15A
:10447800000F66D044F00304A4B2DB064CBF44F03E
:10448800040244F00C02316992B205F10B00A24615
:1044980011F064FC144673784946A5F8014042F2CD
:1044A8003600EB7501AAFFF70BF90446002842D144
:1044B800019807F11005C36893F901303B7601F0C4
:1044C800DFFC0121284611F065FC6FF0080111F0AE
:1044D800D4FA000758D46FF48041284611F0CDFA79
:1044E80008F1FF335A425A410821284611F03DFC91
:1044F800A8F102014A424A412846092111F035FC37
:1045080072680A21284602F0010211F02EFC0B21E4
:104518002846CAF3400211F028FC72680D2128468B
:10452800C2F3800211F021FC72680C212846C2F304
:10453800802211F01AFC204603B0BDE8F08F18491C
:1045480046E7B8F1020F95D0144696E758050DD402
:1045580044F00304A4B269B9BBF1000F0ED1B8F15D
:10456800020F0BD0BAF1000F87D103E051B144F02C
:104578000304A4B2A2468EE70029EDD044F0020459
:10458800A4B2EFE71446E7E73846F91C11F0F9F949
:104598000028A0D00446CEE76FF06804CBE700BF40
:1045A8008182020010B5054CA06930B16FF001019D
:1045B800103011F062FA0023A36110BD0000002042
:1045C800F8B50446154811F04EFA43070F4616464B
:1045D8001AD52046FFF75CFEC8B1FFF7A9FE0546CD
:1045E800C0B123782146002203704761FFF7C0FE5F
:1045F800044638B16FF0010105F1100011F03DFAE1
:104608002046F8BD3560FBE76FF00A04F8E76FF065
:104618001504F5E76FF00B04F2E700BF88000020EF
:10462800F8B5344A074692F891300C46980603D4F8
:104638006FF085052846F8BD07F110060B213046B6
:1046480011F014FA10B16FF01505F3E70A2130469E
:1046580011F00CFA0028F6D10C21304611F006FAB8
:104668000028F0D02388052BEDD961889942EAD338
:1046780092F89430D90602D463685A07D8D407212F
:1046880042F23E00FEF7E2FF054678B307210C3000
:1046980012F097FA00220260C0F803207B782946BE
:1046A80003702388A0F801306388A0F8033063689A
:1046B800C3F340039B01A0F8053042F23E00FEF729
:1046C800FFFF05460028B5D163685B0708D51221AE
:1046D800304611F05FFB1121304611F05BFBA9E772
:1046E8006FF48021304611F0C8F9F4E76FF06805DF
:1046F800A0E700BF000000202DE9F0473E4B06462A
:1047080093F891300C469B0688B071D500F11005DE
:104718001121284611F0AAF9074628B96FF01504A7
:10472800204608B0BDE8F087002A4FD0002CF5D00D
:104738000023194604F1010C04E01CF8330001338E
:10474800023001449342F8D1FC2942D8CDE9004215
:104758006946012202A811F09BF904460028DFD11E
:10476800079D002DDCD0FC2D28BFFC2505F1030A90
:1047780042F23F005FFA8AF1FEF768FF8046A0B375
:1047880051460C3012F01DFA8146524600210FF0B6
:1047980071FD49467378EAB201F8033B02A811F0AB
:1047A800A0F9079B89F80200D7B1002B0CBF03239F
:1047B80001230022414642F23F0089F80130FEF70A
:1047C8007FFF00270028CBD00446A9E713461146EF
:1047D800B0E71021284611F049F90028B6D09DE726
:1047E800B3FA83F35B095B00E3E76FF0680497E7CC
:1047F8006FF0850494E700BF0000002037B5C56856
:104808006B788BBB194811F02EF9C2072CD5184CC0
:10481800204611F0AAFB6FF0800104F1100011F09E
:104828002CF96FF0400104F1100011F026F943064D
:104838000CD5204611F0FEF863693BB11B682BB11B
:104848002A79204601A98DF804209847094B9B69CD
:10485800A34209D10E21054811F008F920B903B087
:10486800BDE83040FFF79EBE03B030BD7017002092
:104878006017002000000020F0B5C46885B02378D8
:10488800DBB9134E304611F0EEF8C30715D573683F
:10489800A6F110078BB19B687BB10134204610F05C
:1048A800C6FF02AD214650B1284610F0B5FF7B691E
:1048B80008489B68019501A9984705B0F0BD16F80E
:1048C800100C11F059F80146284611F047FAEEE7A6
:1048D800701700206017002030B58DB0202104A883
:1048E800FEF750FF0446C8B915F044FD4FF47A7539
:1048F800A0FB053205FB0121DB0B43EA4143C90B51
:10490800CDE9023108232022009306486B4404A90C
:1049180010F0D2FE002808BF6FF0040420460DB046
:1049280030BD00BFB017002007B508216846FEF764
:1049380029FF38B908226946054810F09DFE20B1C4
:10494800FFF7CAFF03B05DF804FB6FF00400F9E756
:10495800B017002038B50D46044698B191B10B4AFE
:1049680010F0C3FE431C07D1FFF7B6FF48B929462C
:104978002046064A10F0B9FE01280CBF00206FF04F
:10498800040038BD6FF01500FBE700BFB01700202A
:1049980070B5038A0446032B0BD86A23194A1A49AF
:1049A8001A4810F070FA404080F311884FF0030065
:1049B80002DF042104F10C0012F04AF9FF224388B7
:1049C80006886276228AC3F30D03C6F30B009A4267
:1049D800608304D02046BDE8704001F051BA00F071
:1049E80087FD05460028F5D000F08AFD214660764F
:1049F800320B284611F0EDFB2846BDE8704011F057
:104A080025BC00BFBC830200C8820200E18202000C
:104A18000146014811F01DBCDC0600202DE9F041DB
:104A28000D4616461C4600284AD0002948D0037B6C
:104A3800032B41D1076897F89930002B40D04B8A57
:104A48000CB9032B3FD9072B3DD983685B6853B159
:104A58001E491B88B1F8A02091F8A2104A4393423E
:104A680028BF13469BB22A8A9A422CD805F10C001B
:104A78009CB9042112F0D3F82B4606801A8A5B6889
:104A88001444002BFAD1043C448029463846BDE83A
:104A9800F04100230E4A00F0AFBB082112F0BFF826
:104AA8002A46002304608680118A52680B44002A33
:104AB800FAD1083BC380E8E76FF07F00BDE8F081DA
:104AC8006FF01500FAE76FF07900F7E700000020B3
:104AD8005F6001002DE9F04F89B081460C460292D3
:104AE80000F11003D3E8AF3F9B032DD50B685BB3F0
:104AF8000A794AB303EB820053F8041B21B30D680B
:104B0800002D40F0F3808968F1B14968E1B10D8862
:104B1800FB2D19D88978042916D89842ECD1E37B63
:104B2800012B11D8A37B012B0ED8012A0CD1A36825
:104B3800714AFF3B934207D840F69B72A389053B15
:104B48009BB2934240F286806FF0150491E04FF0DB
:104B5800080B06F8033C46F8083C46F80C3CD4F829
:104B680000A094F80480A6F10C050AEB8808C24559
:104B780040F0838023791F2142F268002B72FEF7F0
:104B880065FD8046002800F0AB802B68002B00F004
:104B9800B080DFF874A153F8083C1F210C30CAF824
:104BA800003012F00EF86A7A0F3000F80F2C99F8DE
:104BB800012000F80E2C2A7A00F80D2CA26800F8C3
:104BC8000C2CC2F30721120C00F80A2CDAF800208A
:104BD80000F80B1C5168098820F8091CA18920F8E5
:104BE800071C5168C97800F8051C5268927800F8CB
:104BF800042CA27B00F8032CE27B00F8022C217C19
:104C080000F8011C002964D0034604F11102213484
:104C180052F8041BA24243F8041BF9D10123404671
:104C2800364A009305A9FEF7FFFC0022414642F2EE
:104C38006800FEF745FD0446002853D156F80C3CA1
:104C4800002B4AD00222103B1A731B69002B44D058
:104C5800103BF9E7294ED6E8EF3F43F00102C6E8DA
:104C6800E12F0029F7D113F001033FF470AF6FF083
:104C78000B04204609B0BDE8F08F012120485AF8FE
:104C8800047B00F093FA0146D8B180F802B038608E
:104C9800687A039181F89000022081F894003868BE
:104CA80000F02EFC03996B6881F8910000203968A8
:104CB800C1F88C7007F1100138613BB9C5E90011E2
:104CC80055E738600F4811F0CFF9D0E719606960EF
:104CD8004DE710220FF0CEFAA0E7029B1D60C8E74F
:104CE8006FF06804074811F0BFF9C2E76FF0770466
:104CF800BFE79B68FFDE00BF00FF0F00481F0020D2
:104D0800E81800203C1F0020381F00202DE9F84338
:104D1800C468394D63788BB1D5E8AF3F9B0768D538
:104D28002178A5F10C00002908BF1F2111F0D3F943
:104D3800A5F10C00BDE8F84311F096B9D5E8EF3FAE
:104D480023F00203C5E8E23F002AF7D1217829B908
:104D5800627C15F8043C9A4205D01F21274811F0BF
:104D6800BAF92648E6E755F80C6C002E41D00F46F4
:104D78004FF001088946103E07F1080304EB43038E
:104D880035685B882B80B4F80F30A5F89630637AC5
:104D980085F898302279638843EA0243C5F89C3045
:104DA800E279B4F8053043EA0243C5F8A030207A26
:104DB800FEF714FD85F8AA00A37A072185F8AB3021
:104DC800237B284685F8AC30E27AB5F89630534311
:104DD800C5F8A430B4F80D3085F89980A5F8A83046
:104DE80085F89A9000F022FB366916B10137103E1B
:104DF800C2E7BDE8F88300BF481F00203C1F002021
:104E080008B5C3681A7842B95978044811F063F9AB
:104E1800BDE80840014811F027B908BD3C1F002033
:104E28002DE9F047064686B000287ED08378082B07
:104E38007BD1D0F88C70002F77D01422002101A8E4
:104E48000FF018FA03238DF80530BB68D7F80090E7
:104E58005A6842B199F899302BB1556899F894304D
:104E680085B1022B11D096F89430023B012B5CD807
:104E780096F89000314B03EB001006B0BDE8F04700
:104E880011F037B9022BEED101AD2B69297B0BB993
:104E98000029E8D10D3142F26E00C9B2FEF7D6FB07
:104EA80080460028DFD000F10C0A0D21504611F091
:104EB80088FEB9F8003004460380002383702B78FD
:104EC800C3706B7803716B88A0F80530AB88A0F8C5
:104ED8000730AB684372C3F307221B0C8272C3729C
:104EE800297B0173504611F06CFE227B2969FBF780
:104EF80049F96A46414642F26E00FEF7E1FB002896
:104F0800B1D10098C3681A782AB9B3F80120B9F862
:104F180000309A4202D000F0B3FFA4E700F0B0FFDF
:104F280003233B737B681B6813B906B0BDE8F087A1
:104F3800384606B0BDE8F047184700BF3C1F0020C0
:104F48002DE9F04104464FF00008144F4FF02002BD
:104F5800EFF3118382F31288BFF36F8F216A29B9A7
:104F680083F31188BFF36F8FBDE8F081606A0A6828
:104F7800814208BF6262226283F31188BFF36F8F98
:104F8800D1E901563846C1E90188C1F80C8014F00E
:104F9800C9FF002231462046A847D7E7400600202F
:104FA800002270B50446D1E90156CA60C1E9012260
:104FB800054814F0B7FF314620462B46BDE870403F
:104FC8006FF06D02184700BF4006002070B500243E
:104FD800064D074E29463046013414F0A3FF042C31
:104FE80005F11005F6D1002070BD00BF4C1F002050
:104FF800400600208378082B0BD1074BB3F8A0009C
:1050080040B193F8A220A433002A14BF1846002008
:1050180070470020704700BF000000202DE9F84FBE
:10502800044616469A460D46FFF7E4FF0022002381
:105038000DF062FE0746002840F0B280002E00F016
:105048008580A37806F10C0B082B0CBF564B8046C5
:10505800584608BFB3F8A08011F006FE40456CD949
:10506800A378082B6FD1504BB3F8A08055F80C1FCC
:105078004246584611F0ABFD4146284611F0E0FD86
:10508800A37AB569072B40F088804FF02003EFF32F
:10509800118283F31288BFF36F8F002D61D0002334
:1050A8002B60A369002B59D1C4E9055582F31188F7
:1050B800BFF36F8FA378082B3CD1042106F10C00B5
:1050C80011F0ADFD238843EA0A330380338A043B99
:1050D8004380042330463376FEF78AFB50B34FF003
:1050E8002003EFF3118183F31288BFF36F8F002D34
:1050F8004DD0002263695BB19D4245D12B68002ADF
:105108003CD1A2696361954200D1A36100232B6061
:1051180081F31188BFF36F8F6FF004072046FFF704
:1051280069FF0DF0C3FD2DB1002329462046B36168
:10513800FFF736FF3846BDE8F88F584611F094FD62
:105148001FFA80F892E74FF000088FE7002200234B
:1051580004F1380011F0FCFC064691E71D60A561DA
:10516800A4E7A36933B103F10C09DB680133C9F87B
:1051780000309BE7E36904F11C09F7E71360A369B2
:105188009D4208BFA261C1E71A461B68B3E7D9F878
:105198000030013BC9F80030BAE76FF07F07BDE780
:1051A8006FF06807C6E700BF00000020002238B58E
:1051B8008A4202D10024204638BD012400F1B803F8
:1051C800D3E8EF5F002D04D1C3E8EC4FBCF1000F2A
:1051D800F6D102D0C0302244EAE70028EAD00446DB
:1051E800B82200210FF046F8024904F1280014F013
:1051F80035FFE0E77D610100F8B51F46837A054673
:10520800072B0E4614461AD14AB30EF0F5F9164B81
:105218008342164807BF002200234FF0FF324FF0A9
:10522800FF330DF00FFD0146D8B1AB7A0022072BF2
:1052380008D0C0E90122C2600C4814F073FE6FF078
:105248007F00F8BDC0E90147C2600024B16105F1E3
:1052580038003146347711F0AEFC2046F1E71146AC
:10526800F3E76FF06800ECE7581B002040060020C9
:1052780070B504461F4815F0F3F9002201212046B5
:105288001C4B15F0D0F904F114051B4BD3E8AF2FD4
:105298000AB9012070BDA3F1B80113F8AE3C73B987
:1052A8000B1DD3E8EF2F22F04000C3E8E60F002ED5
:1052B800F7D1530603D5084610F068FFE9E78B7A63
:1052C800072BE6D10D48FFF795FE03460028E0D0EE
:1052D8008268896B49B142B90221284615F0A3F9C1
:1052E8000123022084F82030D4E700220421044B53
:1052F800F3E700BF28020020A0190020E8180020CA
:10530800201900202DE9F047837A054673B9031D5B
:10531800D3E8EF2F22F04001C3E8E41F002CF7D1B7
:10532800530603D5BDE8F04710F030BF05F138004B
:1053380014F00DFE044660B940F26933374A384923
:1053480038480FF0A0FD404080F311884FF003006B
:1053580002DF204611F031FCAB78018A082B14BF1C
:105368000023314B044608BFB3F8A030027F9942AE
:1053780007D832B9022321462846FFF74FFE0646D2
:1053880020E017464FF00009DFF89CA0AA78238A8E
:10539800082A2BD0DBBB0123002223770323EAE76B
:1053A8000246C0F8189080F81C903B4621462846D3
:1053B800FFF734FE0646B8B107F0010740462777E5
:1053C80000F05EFD204600F05BFD053624D1002389
:1053D800A6692046A36100F053FDEEB13146284688
:1053E800BDE8F047FFF7DCBD0127CFE7BAF8A020FA
:1053F8009A42D0D24FF0FF334FF0FF320020FFF730
:1054080007FBAB7A8046072BCAD000F039FD20464F
:10541800BDE8F04700F034BDBDE8F087F283020034
:105428008E840200E18202000000002038B5837AF1
:1054380004468B423BD0817223B98378082B01D074
:1054480010F0C9FEA37A012B16D800254FF02002D0
:10545800EFF3118382F31288BFF36F8FE26902B30F
:10546800013AE26183F31188BFF36F8F2046FFF79B
:10547800C1FD0DF01BFCE9E7072B18D1A378042B1D
:1054880015D004F1380014F041FD002117480EF042
:10549800F1FAA378082B0AD12046BDE83840FFF777
:1054A800BFBC616921B983F31188BFF36F8F38BD21
:1054B800A0690A68814208BFA261626183F311880A
:1054C800BFF36F8F4FF02002EFF3118382F312883E
:1054D800BFF36F8FCA68E261CD6083F31188BFF3B1
:1054E8006F8F2046FFF75CFDC0E700BF2802002051
:1054F80002460121014810F082BE00BFE8180020D2
:105508008378082B11BF0020034BC01A034B04BF3C
:1055180080115843C0B27047E8180020ABAAAAAA65
:1055280083680E4AFF3B934216D84378012B13D861
:1055380003785A1E012A01D9042B0DD18388B3F5AB
:10554800805F09D240F69B73C088053880B29842C4
:105558008CBF0020012070470020704700FF0F001B
:1055680007B588B1012101AA10F0E9FE78B1019BC5
:105578005B681B78013BDBB20C2B0BD8074A52F84F
:10558800230003B05DF804FB6FF00200F9E74FF069
:10559800FF30F6E76FF00100F3E700BFFCAE010053
:1055A800012310B50A4CD4E8EF2F002A03D1C4E830
:1055B800E13F0029F7D10CBF1846002007D18C2203
:1055C8000021A4F18C000EF055FEA4F18C0010BD52
:1055D800182000202DE9F04F89B00446069129B91A
:1055E8006FF01507384609B0BDE8F08F0025069B17
:1055F8001D600028F4D00368002BF1D0037B012B39
:10560800EED880680028EBD0FFF78AFF0028E7D0A3
:105618002B460C252668B34227D1764D2B6E002BDE
:1056280047D1A268744E0592009302932368009AAA
:10563800934233D803217148FFF78CF907460028B5
:10564800D0D1DFF8B081D8F86050002D00F0B880D4
:1056580055F80C6C0C3D002E00F0B080243EB0686C
:10566800022110F006FF766AF5E705FB03F2616890
:10567800881889580029B3D08268002AB0D000223F
:10568800476805FB02F038580028A9D0C0690028EF
:10569800A6D101329142F4D10133BCE70C23009A20
:1056A80061685343326801EB030A2AB1514810F08C
:1056B80012FF6FF00B0795E7DAF80800C6E9020257
:1056C800686E4F4AC8B9C5E91822CB58029A1344E4
:1056D800012BEBD84FF0000905EB82131433DFF8E8
:1056E8002C810393DAF800304B4509D8029B4B44D0
:1056F8000293009B0133009398E702606A66E4E72F
:105708000C2303FB09F3DAF8042002EB030BD3584C
:105718000193DAF808300793D8F808300493002B7F
:10572800C4D11946AC2240460EF0A4FD022388F8E5
:105738000030FFF735FF07460028B7D0314910F091
:1057480050FE4146384610F063FEBB68059958681C
:1057580010F0C5FDBB6807995B68586810F088FDB4
:10576800384610F03BFE4246079B0199049810F01A
:10577800BDFD019B059A03981A610C23C8F8A45033
:10578800DBF80420DBF808105A43FAF7FBFCDBF8D7
:105798000430039A049942F8043C019A019B51622F
:1057A800726824333AB9C6E90033039B09F1010949
:1057B8004033039396E713607360F6E7ED6844E7B8
:1057C800059BC8F80C30237B88F80130637B88F888
:1057D80002305BB10C4D04F10E031E342A461868E2
:1057E8005968083303C2A3421546F7D1069BC3F88C
:1057F8000080F7E61C2000208420002020200020C4
:1058080090200020380200206C20002094200020E6
:10581800084B0246596811B11968884207D0D86800
:1058280030B1996804488A4218BF0020704718466A
:10583800704700BF402100204821002008B50448D7
:1058480014F0EBFA034B0020C3E9003308BD00BF96
:10585800502100206421002002460B4601480DF02B
:105868003BB900BF5021002001480DF0AFB900BF7F
:10587800502100202DE9F84F824608460E4617466B
:105888000EF038FE4FF0000983464FF0FF314FF01D
:10589800FF30FFF7E1FF1A4BC8461C689C4208BF5F
:1058A800002454B9FFF7E0FFB8F1000F25D0CAF87B
:1058B8000080F7B90020BDE8F88FA569A94507D889
:1058C800AB4505D3012D0AD9725D2F2A07D032B115
:1058D8004D465A689442E5D0A9462468E1E72A462D
:1058E8003046E1680EF034FE054B0028F0D1A046A2
:1058F800EFE7D8F818303B60DCE76FF00100DAE733
:1059080064210020F7B505460E4621B96FF015044D
:10591800204603B0F0BD08460EF0ECFD0028F5D097
:1059280033782F2BF2D16B6873BB2F6867BB304677
:105938001849FAF79DFC044680B94FF0FF304FF044
:10594800FF31FFF789FF144A6C601368934214BF54
:105958001F4627462F60FFF787FFD9E73A463146AB
:1059680001A8FFF787FF041ED2DB019BDA69126AE0
:105978006AB16B60DB69314628461B6A9847041E8A
:10598800C6DAC5E90077C3E76FF00F04C0E76FF028
:105998008504BDE7317F0200642100202DE9F04134
:1059A800476806460D4617B3FB695B6A002B54D05F
:1059B800DFF8B0804F1C73682946DB6930465B6AA4
:1059C8009847041E10DB6B7873B12B78012B0BD131
:1059D80041463846FAF74CFC0028ECD038462049B6
:1059E800FAF746FC0028E6D02046BDE8F0810368B7
:1059F80013B94B700024F7E7DFF86C804FF0FF30E5
:105A08004FF0FF31FFF728FFD8F80040D8F80430EE
:105A1800444508BF002424B9FFF726FF6FF00104AE
:105A2800E2E73268944214D10123284600F8013B8A
:105A3800E1680C2219440EF0CDFD00236B732B6135
:105A4800D8F804309C4218BF2768FFF70DFF37606D
:105A5800D0E79C42E0D02468DDE76FF08504C3E717
:105A68007084020071840200642100202DE9F04155
:105A7800044620B96FF015052846BDE8F081C068D6
:105A88000028F7D02368002B46D10EF033FD0128FB
:105A98000746EFD9E3681B782F2BEBD1204E4FF048
:105AA800FF304FF0FF31FFF7D7FE3568B54220D100
:105AB800A068FFF7ADFE48B3D0F80480B8F1000F36
:105AC80024D0D8F82C3023B320469847051E06DB8F
