:020000040100F9
:10000000C89B0021E5A0000113F30201B9A0000183
:10001000B9A00001B9A00001B9A0000100000000D2
:10002000000000000000000000000000AD9D000185
:10003000B9A0000100000000559D0001B9A0000119
:100040002D9E00012D9E00012D9E00012D9E000180
:100050002D9E00012D9E00012D9E00012D9E000170
:10006000C52902012D9E00012D9E00012D9E00013B
:100070002D9E00012D9E00012D9E00012D9E000150
:100080002D9E00012D9E00012D9E00012D9E000140
:100090002D9E00012D9E00012D9E00012D9E000130
:1000A0002D9E00012D9E00012D9E00012D9E000120
:0800B0002D9E00012D9E0001B0
:1000B80053B94AB9002908BF00281CBF4FF0FF31C7
:1000C8004FF0FF3000F00CB8ADF1080C6DE904CE2C
:1000D80000F008F8DDF804E0DDE9022304B0704719
:1000E800704700BF2DE9F04786468C460846089EB3
:1000F800154674461946002B40F0C1808542B2FA75
:1001080082F245D94AB1C2F1200300FA02FC9540B7
:1001180094402EFA03F343EA0C0C4FEA154EA8B2AA
:10012800230CBCFBFEF80EFB18CC08FB00F943EAD5
:100138000C43994528D9EB1808F1FF3704D29945A3
:1001480002D9A8F102072B44A3EB0903A4B2B3FB1D
:10015800FEFC0EFB1C330CFB00F044EA0344A042F7
:1001680014D92C190CF1FF3304D2A04202D9ACF1F6
:1001780002032C44241A43EA07401EB1D44000234A
:1001880034607360BDE8F0874746DDE76346F1E712
:1001980092BB431B01214FEA154EAFB2200CB3FBB3
:1001A800FEFC0EFB1C330CFB07F840EA03439845A2
:1001B80061D9EB180CF1FF3004D2984502D9ACF1A3
:1001C80002002B44A3EB0803A4B2B3FBFEFC0EFB16
:1001D8001C330CFB07F744EA0344A7424DD92C19FA
:1001E8000CF1FF3304D2A74202D9ACF102032C442C
:1001F800E41B43EA0040C0E7C2F120039540944065
:1002080020FA03F12EFA03F34FEA154E9040AFB2ED
:100218000343B1FBFEFC0EFB1C10190C0CFB07F88A
:1002280041EA0041884522D969180CF1FF3004D20F
:10023800884502D9ACF102002944A1EB08019BB220
:10024800B1FBFEFC0EFB1C110CFB07F743EA014354
:100258009F420ED9EB180CF1FF3104D29F4202D90C
:10026800ACF102012B44DB1B41EA004193E76046F5
:10027800E3E76146F7E76046A4E76346B8E78342E9
:1002880006D916B9002108467CE7C6E900E0F9E777
:10029800B3FA83F78FB9834201D3724508D8BEEB0E
:1002A800020460EB030301209C461EB9002169E7A4
:1002B8003846FAE7C6E9004CF8E7C7F1200CBB401E
:1002C8000EFA07F522FA0CF42EFA0CF1BA401C4388
:1002D80020FA0CF3B8404FEA144901431FFA84FE90
:1002E800B3FBF9F809FB18300B0C08FB0EFA43EACC
:1002F80000439A4540D9E31808F1FF3004D29A45E3
:1003080002D9A8F102002344A3EB0A0389B2B3FB84
:10031800F9F809FB183308FB0EFE41EA03418E4544
:100328002CD9611808F1FF3304D28E4502D9A8F1FF
:100338000203214443EA0040A1EB0E01A0FB02980E
:100348004145CE46434602D306D14D4504D2013835
:10035800B9EB020E68EB0403002EA7D0B5EB0E0232
:1003680061EB030101FA0CFC22FA07F3F9404CEAAD
:100378000303C6E9003199E74046C5E74346D9E794
:1003880000230B60038A032B40F29D802DE9F04780
:1003980000F10C0804460E464046042188B02FF0B0
:1003A800E9F9228A47880388BA4227D358044FEAD2
:1003B800133AC3F30139C3F30B0524D40BF0F2FE4F
:1003C80044A3D3E9002384464FF0070E4049A0FB1D
:1003D80001010EFB0C11FFF76BFE023D1AF0010F35
:1003E8000390ADB217D0E368012D00934FF00003DE
:1003F8008DF80690ADF80470029322D96FF01500BD
:1004080008B0BDE8F087042140462FF0B3F9043F57
:100418000068BFB2E1E7404604212FF0ABF902883B
:10042800E368ADF808204288043F012D8DF8069056
:10043800ADF80A200093ADF80470DFD84388FB2B91
:10044800DCD8284616F0A2FC04460028D6D043681B
:10045800002BD3D0284616F087FC0028CED00027E2
:1004680090F83C1090F846203B46806B520901F00A
:100478007F010497FFF71CFE05460A46A38BE91A7D
:1004880062F10001490646BF3A461D46A0839DF821
:100498001C30069562F306038DF81C30A38B626846
:1004A8000133A3836946D07906F0B2F80028A7D0B3
:1004B800C306A3D5304602210CF0EEFB6FF06800AE
:1004C80008B0BDE8F0876FF015007047AFF3008003
:1004D8008D49FD1A00CA9A3B000000000000000088
:1004E80001A1D1E900017047FF7901C010000000A7
:1004F8002DE9F8430E46D0E90D17D0F83080CC1915
:100508003034A045154619D81BA3D3E900231C4F46
:10051800A1FB0701FFF7CCFD0346A4EB0800A0FBF5
:10052800070123F07F4414A3D3E90023FFF7C0FD9C
:1005380020F07F4034602860BDE8F883DFF8409001
:100548000DA3D3E90023A8FB0901FFF7B1FD0AA316
:10055800D3E90023044607F13000A0FB0901FFF7A7
:10056800A7FD24F07F4420F07F4034602860BDE878
:10057800F88300BFAFF300808D49FD1A0700000023
:1005880000CA9A3B000000002DE9F04F8BB0159C83
:100598001D46636C80460E4617469DF850904BB139
:1005A800B4F882301BB1B4F880209A422AD2D4F829
:1005B800842052BB4FF6FF739D421ED0237801332F
:1005C800DBB22370002B00F0A88000226049614B49
:1005D800C1E9008704F11C0781F80A900D81996030
:1005E800CF60012011460AF0EDF8002840F0848021
:1005F800636C13B1204614F083F994F8240010F0CA
:1006080001070CD00BB0BDE8F08F40F27123616F89
:10061800A1FB0313914273F10003CBD3F2E704214A
:1006280009A822F06FFC3846CDE90377CDE90177B8
:10063800009740F24717099B47490694A1FB0321FD
:10064800A3EB010C01EB5C01444A090A07FB1133D7
:10065800A21A4349D208A1FB0212424952080232A7
:1006680001330591D2B2012109930BF06DFC10F012
:10067800FD0F0BD03C493D4840F2BA733C4A2EF07E
:1006880027FA40F2BA713A482DF0D1FED4F88480A6
:10069800DDF824A0B4F88070B8F1000F4AD0002F1C
:1006A80048D040F27122636F05F1010902FB03FB98
:1006B8000722304B05FB0BB5A6FB030102FB061115
:1006C80021A3D3E90023FFF7F3FC0722294B0544B4
:1006D800AAFB030102FB0A111BA3D3E90023FFF7BE
:1006E800E7FC58442844804586BFA8EB0505C4F8B4
:1006F8008450C4F884B01FE040F64D131C4A1E49CC
:100708001A482EF0E5F940F64D1119482DF08FFEE4
:10071800636C002B7FF46EAF6FE74FF414631749D7
:100728001248134A2EF0D4F94FF4146110482DF0F2
:100738007EFE4AE705F101094F44A4F880700BB02A
:10074800BDE8F08FAFF3008000CA9A3B00000000BC
:10075800884E00219C04002121F1D490D019002159
:10076800BD86F21AD12E0101901C0301BC150301AC
:10077800701B03018D49FD1AE81A03018C1C030143
:100788002DE9F04F95B00B92002900F08E810228D8
:10079800054600F2DD82982600FB06F6DFF814B362
:1007A80099460BEB060494F8882012F0010740F0F4
:1007B800DA82FF2394F8250084F8273000F003003C
:1007C80021F062FC94F88800410700F1178194F841
:1007D800353004EB83039F6B94F8293004EB8303D3
:1007E800D3F82CA0002F00F0F1803A46514620465D
:1007F80013F04EFA8046002840F053819AF80030F2
:1008080013F00E0F40F06081236A002B40F04781FF
:1008180011F0D8FA0C90002800F0048311F0DEFAE9
:100828000D90002800F0478319F00AF88046002848
:1008380000F0F2824FF6FF730385D0F8880008F1C4
:100848001C030E93002800F0278308F17C0208F1AE
:10085800780109F017FF002398F88E20C8F888302F
:1008680022F0070288F88E2098F87620A8F88C30B5
:1008780063F3C30288F876209AF8003003F00F0378
:10088800072B00F0F582012298F8763023F07703E1
:1008980043F0110388F876307F2388F8D2304FF080
:1008A8000003A8F832300023C8F82E3088F83B300F
:1008B8000023C8E91233C8F85030A8F89231A8F8D4
:1008C80088314FF4C02398F87700C8F88C3198F82D
:1008D8003930794962F3020003F03F0398F83C206D
:1008E80063F07F0388F8393022F0070211F8013BE2
:1008F80088F83C2098F89E2103F0010363F3000276
:1009080088F8770088F89E2108F29F1006220E9337
:100918002EF096FD684B98F89E21591C0E9B08F204
:10092800A51063F3410288F89E2106222EF088FD67
:1009380040461BF08BFE4FF0000388F848310C9BB3
:10094800C8F8503119F008FB98F8983160F30203A1
:1009580088F8983119F006FB002298F8983160F36E
:10096800C50388F8983198F88431404662F341030A
:1009780088F884319AF8003003F00F03072B0ABF78
:1009880094F825100121490919F090FF08F1D400C5
:100998001BF014FC9823002203FB05B30C99D966BD
:1009A8000D99196708F11C032362C8E9052288F824
:1009B8000020C8F81C8022F097FD002800F08980EC
:1009C800204612F0E1F84FF003086AE09AF8003088
:1009D80003F00F03072B62D006F13400584422F0CD
:1009E8003BFF10F0FF085CD10421062294F8353053
:1009F80004EB83039F6B39707A70F6E606F1890180
:100A08003A46C0F3C000594421F008FDFF2884F895
:100A180027003FF4DCAE384621F07CFBD7E698236C
:100A280000200226254A03FB05B3CDE90200244F26
:100A3800059212AA08920694079700901B69DDF8A0
:100A48002C80AA19032104930193D2B2434612962B
:100A58000BF00AFA12A911F059FAC0B94AF2D832C1
:100A68000092184A12A908910592032143460122CF
:100A7800CDE90300CDE901000797069412960BF023
:100A8800F3F912A911F042FA002800F048819823DE
:100A980003FB05B31B6A13B1204612F075F84FF03B
:100AA8000C08404615B0BDE8F08F15B0BDE8F04F12
:100AB80012F0A8B8D0190021573A03019105000196
:100AC80055110101052A010103F00F03072B00F05E
:100AD800AC81C34B1B78022B00F0AD819823002218
:100AE80003FB05B31A6400231A464FF098084FF029
:100AF8000009012108FB05B8C8F88420A8F882304D
:100B080094F825300DF14100C3F382030B9394F858
:100B18002630A8F8809003EA010294F824300C9259
:100B2800C3F342038DF8413009F050FF0246002814
:100B3800ADD00C990B9B00915046394611F0FEFE42
:100B48003122A849B8F87470A0FB01010BF806908F
:100B5800C4E90599C8E902299FA3D3E90023C8F885
:100B68000490FFF7A5FAC8F810000BF01BFB00F182
:100B78000F030B93002F00F0228194F8248069F36F
:100B8800000884F8248018F001087FF448AF4FF07B
:100B9800980A0AFB05BAA36CDAF81090002B00F04B
:100BA800CF801B680D9393F85E3003F00303012B8D
:100BB8000F9340F0C5800DF1430312A901930DF185
:100BC800420342460C91009320460B46202100F038
:100BD800B3FA804600287FF464AF04220DF149017E
:100BE80011A82EF02DFC0D98119914F01BFD666CC0
:100BF800002E00F0708136680B9A09F10203134445
:100C08000C993046129300F0D3F98446129B424661
:100C180003F1020833690D9998442046E044CDF861
:100C280038C001F089FB424603460D99204601F081
:100C3800CBFB00287FF42BAFDAF844309DF8432033
:100C4800DDF83C805A759DF8423084F829309823A5
:100C580040F2712242F6DC30002103FB05B35B6FE2
:100C6800E3FB020140F2E2420023FFF721FAA6F873
:100C780040000E9A3046129900F0C6F900287FF419
:100C880006AF4FF0010A0C9B91210893022312939F
:100C98004FF6FF7309F2471CCDF810904FF000098A
:100CA80051480393A7FB0002504B01FB072105EBBA
:100CB800450292000694CDF8089043F802C0134408
:100CC80009934B4BAF1C07934A4BFFB2059342A3C2
:100CD800D3E90023FFF7ECF901463A46019148466B
:100CE80003210B9BCDF800900BF06CF80C9911F0D8
:100CF8000DF900287FF4CBAEBAF1000F0FD096F8AB
:100D0800523043F0010386F85230B8F1000F06D094
:100D18000D9A92F85E3043F0020382F85E30982311
:100D280003FB05B393F88820002042F0010283F802
:100D3800882016F01BFD80B9012021F087F90CE00E
:100D4800666C002E58D112ABB2460D960C939AE7FA
:100D5800234B1B78022B3FF4A2AE4FF0000840460D
:100D680015B0BDE8F08F1E4B1B78022BF5D194F817
:100D7800352094F8293004EB820204EB83032046E3
:100D8800926BD96A12F084FF804600287FF489AEFE
:100D9800236C002B3FF483AE1A7902F0FF0152B99D
:100DA80042F21072A4F880100B99A4F8829002FB0A
:100DB80001F1C4F884101B79002BCED06FE69AF8A5
:100DC800009009F00F09A9F10109B9FA89F94FEA68
:100DD8005919D2E6AFF300808D49FD1A07000000CB
:100DE800E387002100CA9A3B002AE784A84E002125
:100DF80055110101910500010B9A09F102033668AA
:100E08001344129312AB194630460C9300F0D0F8F5
:100E18000023CDE90D301AE70D9810F0E5FF0C9886
:100E280010F0D6FF4FF007083BE69AF802305A0652
:100E38007FF54FAEE8E410F0C5FF804688B310F0A8
:100E4800CDFF00283BD09823002203FB05B3C0F850
:100E580000800271186494F82430DB073FF543AE34
:100E680042F210720B994B4602FB01F10A463CE62E
:100E780094F82530D2B25B0963F3020288F8762031
:100E880094F82530D2B25B0963F3061288F876200D
:100E980094F825205209FFE408F18000C8F888007A
:100EA800D3E4982303FB05B31B6A002BBAD0204672
:100EB80011F06AFEB6E70C9810F08AFFB2E79823A3
:100EC80003FB05B31B6A13B1204611F05DFE4046D3
:100ED80010F07EFFA6E7B246D5E600BF000000008E
:100EE8002DE9F04104460D46012194F824308AB0DA
:100EF80094F82680C3F342030DF12300164608EA4E
:100F0800010894F825708DF8233009F05FFDC7F3C8
:100F1800820702463B4631462846CDF8008011F04C
:100F28000DFD21A3D3E900231B49A0FB0101FFF715
:100F3800BFF823690546984223D20022191A019264
:100F4800164A174B0291A21A0221D208A3FB0232B9
:100F5800002352080A440991124909AE059118461E
:100F68000321CDE903330696D2B200930AF0ECFFD1
:100F7800314610F0CBFF40B9256100200AB0BDE82A
:100F8800F081FAD90021EA1AD9E70C200AB0BDE8A5
:100F9800F08100BFAFF3008000CA9A3BD01900214E
:100FA800BD86F21A551101018D49FD1A070000008E
:100FB80030B583B004460D4613F00AF800233122F9
:100FC8000F496360A260E360A0FB01010AA3D3E9B3
:100FD8000023FFF76DF8014621F07F41032001AAA5
:100FE80021611EF0D7FF10B9019B02332B6000204E
:100FF80003B030BDAFF300808D49FD1A0700000033
:1010080000CA9A3B000000002DE9F04300268DB08D
:1010180088461746C0E905665422214906700446E9
:1010280009F000FB40F2E24302220546B4F8400012
:101038001C4903FB00F00B92A0FB010116A3D3E9A6
:101048000023FFF735F80DF12C090694CDF8209010
:10105800216904460F4414491046079113494FF477
:101068007A72059119460023CDE90367FFF720F846
:1010780001460535EDB243462A4602913046032122
:10108800019400960AF0F0FE494610F03FFF0DB0BB
:10109800BDE8F083AFF300808D49FD1A070000001A
:1010A800104F002100CA9A3B55110101154001015A
:1010B80070B51E46C3781546DC074CBF00F10A041C
:1010C800041D9A074FF00702174848BF06341B074C
:1010D800A1FB000302FB013111A3D3E9002348BFA0
:1010E8000234FEF7E5FFAD1B10492844A1FB00318F
:1010F8000D09490C04D001210D4BA3FB0030450913
:10110800A278207822F01F02C5F3042361F3C710E8
:10111800134320706570A370204670BDAFF3008044
:1011280000CA9A3B000000008D49FD1A898888880A
:10113800B5814E1B000000002DE9F04F40F201265A
:101148000027A3B08E430C4605460D9208931E97C0
:1011580000F0828295F8293005EB8303D3F82C90B0
:1011680004F4007399F800600B9306F00F06072E3D
:1011780016D023B90C26304623B0BDE8F08F089965
:10118800042211F8014B20A82EF05AF921462846CE
:10119800209A12F0CDFD0646304623B0BDE8F08F08
:1011A80099F8023013F03F0209921CBF99F8032006
:1011B800099209F104020C920B9A12B17F2B00F2EA
:1011C8006A822C9905F1280022F00CFC80460378ED
:1011D80099F8001023F03F0301F00F010B4300F8CA
:1011E800023B99F8023098F802109B0963F38711C3
:1011F80088F802101190686C002705F11C0200287D
:1012080000F02183437D026800EB83039B691292FF
:1012180093F803B00A93023310930BF001030F9372
:101228000A9B2D99043314301D9322F0DBFB0746EB
:10123800037898F8001023F03F0301F00F010B43E7
:1012480003700A9839780378099AC3F3801363F313
:10125800861139700378C9B2DB0963F3C711397095
:1012680098F80230B9789B0963F38711B9703B1D70
:1012780014F001014FF0010A02F001021C9340F042
:10128800F881002A00F05A8299F800303A78C3F3BE
:10129800801363F386123A7098F8003061F386136E
:1012A80088F8003009F10A030C930F9B002B40F0DB
:1012B80055821C9B06331C930BF002031B93099B5E
:1012C8009B0740F120824FF0030A0C9B3A780633C3
:1012D8000C9399F80030DB0963F3C7123A701C9B32
:1012E80006331C9398F800306FF3C71388F8003062
:1012F8000BF0020313B11D9B06331D93099B13F0DA
:101308000803159302D00C9B02330C9314F00803C6
:1013180040F028821F931C9B4AF0080A02331C9352
:101328001BF00803169302D01D9B02331D93099BE3
:1013380013F01003179302D00C9B03330C934FF058
:1013480018038DF84C3008F109030E93E0060BF0F2
:101358001003199300F1BF810D9BD90600F1C881D4
:101368000BF01003002B40F05F820BF01003149376
:101378001AF0100F5FFA8AF302D01C9A03321C92FB
:101388000BF020021892A20600F187810D981D9992
:1013980080060A4600F193810BF02000002840F0F7
:1013A8003D820BF020011A919B0602D51C9B12333B
:1013B8001C93099B580610D50C9B01330C9395F888
:1013C800253003F01C03102B00F06F824FF05803F8
:1013D8008DF84C3008F10A030E931BF0400F03D030
:1013E80001321D924AF0400A1AF04003099302D0D4
:1013F8001C9B01331C930E9B1199A3EB010B5FFA05
:101408008BFBBBF1020F04D84FF0010B08F103036B
:101418000E93109BD21AD2B2022A03D801220A9B39
:1014280003331D930A9B5B789342C0F0B2811C9BE7
:10143800B91C5B1ADBB2022B02D80123F91C1C91E0
:101448000B99002940F0A781610500F119820D99D7
:101458008C0540F1C6810B9A2092002419460B9402
:1014680098F8022088F801B00BF1FF3B6BF30502F6
:1014780088F80220BA78013B63F30502BA707970E4
:10148800209922461C982DF0C4FF1E9921B11C9862
:101498000B9A20442DF0D4FFBB78980600F0DA8030
:1014A800139B590640F104820C9A0E9912F8013CDC
:1014B800541E01F8013C4E1E189B13B11D9B123B94
:1014C8001D935FFA8AF39A0602D51C9B123B1C9364
:1014D8001A9B23B1194612221C982DF09AFF179BCC
:1014E80003B1033C16F8033C95F825906FF3050308
:1014F80006F8033C22F056F84FEA5919002199FAE8
:10150800A9F232288CBF002001208945B2FA82F264
:1015180008BF4FF0FF3216F8033C520160F3861300
:101528006FF3C71306F8033C199B06F8021C06F86C
:10153800012C13B11D9B033B1D931C985FFA8AF382
:10154800DB06149B44BF03381C9023B103221946C1
:101558002DF05FFF1C98159B03B1023C169B13B13D
:101568001D9B023B1D93831E1C9395F87E3016F835
:10157800042C03F00F0363F3071206F8042C10F889
:10158800012C63F3071200F8012C1F9B002B00F0BD
:10159800DA815A781B7802F00F0243EA022316F820
:1015A800042C22F00F0242EA132206F8042CDAB2C5
:1015B80006F8052C00F8022C10F8012C22F00F0276
:1015C80042EA132300F8013C5FFA8AF39E070CD520
:1015D8001B9B002B00F0CF811D9906391D911C988B
:1015E800062206381C902DF02BFF5FFA8AF3D807E5
:1015F8000CD50F9B002B00F0C1811D9906391D9158
:101608001C98062206381C902DF01AFF98F8023014
:101618000A98990618BF9DF84C30394618BF88F8C3
:101628000330BB789A064FF4967318BF87F803A067
:10163800019395F8264095F8253004F001045B09DC
:10164800149A009413F062FA129B93F85230DB0755
:1016580000F1448100268EE54FF4B4639C499D480F
:101668009D4A2DF035FA4FF4B4619B482CF0DFFE0B
:1016780070E5089B13F8010B08933B7860F3861319
:101688003B7098F800306FF3861388F80030002A12
:101698003FF40BAE06E612266DE54AF020031A93D6
:1016A800089B122218461CA9053300F8012B0422B6
:1016B80008932DF0C5FE1A9B1D999A46DBB20BF0D4
:1016C80020000A4600283FF46CAE00221A9201F16D
:1016D80012021D9268E6089B0422184605330893F7
:1016E80003231CA900F8013B4AF0100A2DF0A8FEBC
:1016F8000BF01003002B3FF438AE002314931D9B0E
:1017080003331D9334E600297FF4ECAD0BF002039C
:10171800002B00F091800A9B3A781B784FF0030A5F
:10172800DB0963F3C7123A701C9B06331C9398F8C5
:10173800003061F3C71388F80030DCE50F9B43B332
:101748000A9B3A781B78C3F3801363F386123A70C6
:1017580098F8003061F3861388F800301D9B063333
:101768001D93A6E5089B0422194605330893022316
:101778001FA801F8013B0E912DF062FE0E9904227C
:1017880008461CA92DF05CFE1C9B4AF0080A02338F
:10179800C5E51F26EFE40D93089B0A981946407883
:1017A8001C78821A5FFA82FC053301F801CB042207
:1017B80020A80893CDF840C00B912DF041FE0B995D
:1017C800042208461DA92DF03BFE0D9B002C30D1AC
:1017D800209900297FF441AE1D9A0B942092109C09
:1017E80006E0DDE90A014478A41A1D9AE4B22092C1
:1017F8000A19BF2A3FF7BFAC1A190A44FF2A40F357
:10180800BF8001331C44089BC1451C7000F0AE80AA
:101818000A9B9F4200F0A5804526ACE44AF02003CD
:101828009A461A91DBB252E71D9B4AF0100A1493AC
:1018380066E700210B91DBE798F8003061F3C713E6
:1018480088F800305AE5104613F002F81290002884
:1018580000F0A0801298012290F83130BB4600EBCE
:101868008303596B0F978C461CF8023B0A9103F0CF
:101878003F031C30CDF840C04A70CF700B70CFE4E6
:101888000D93089B1EA81946053308930A9B5C789C
:1018980011F8013BA41A1D9A0B93209204222DF0F3
:1018A800CFFDE4B20B990D9BA2E74AF0400A94E5FC
:1018B800099B4BB1DDE91C32511E1D91591E1C912B
:1018C80012F8012C03F8012C0E9E0C9CF4E500BFC5
:1018D800F81D0301BC150301341D0301129C2046A9
:1018E80012F076FB3BA3D3E900233349A0FB0101A7
:1018F800FEF7DEFB236920F07F449C4245D2002698
:101908001F1B0223DDF8488054222C4940462193AE
:1019180008F088FE00232A4A21AD0592421D0321C2
:101928001846CDE90333029706950196D2B2009383
:101938000AF00AFB294610F0E9FA00287FF41AACED
:10194800C8F8104086E695F87E201E4902F00F027E
:1019580031F8123003F1010C21F812C0C3F30B0364
:101968001DE62D9A6B6C12785A7555E72C9B1B78DF
:1019780085F829304CE7063C214630E6A11F3FE6B2
:101988000B9A11191944C9B26AE57FF663AE0027AC
:10199800E61AB6E7C1457FF4EEAB40F2D3530A4AE4
:1019A8000A490B482DF094F840F2D35106482CF020
:1019B8003EFDFFF7E0BB00BF00CA9A3B104F002175
:1019C80055110101EC4E0021341D0301481E03018D
:1019D800BC1503018D49FD1A070000000000000036
:1019E8002DE9F04F91B00C460391059312F022F8BF
:1019F800002800F0AB8290F888300546DF070ED447
:101A080090F87E309C0640F19D80039B13F0FD0FFB
:101A180040F010810C24204611B0BDE8F08F022C54
:101A2800F8D990F87E309E0640F18C80039A042AFB
:101A380000F236821523D340DB0740F114820024DC
:101A48000DAB04930DF13503184604222146069385
:101A58008DF834402DF0FFFC039B042B40F0898067
:101A68000DF12F0301930DF12E03224600934FF43D
:101A78000071049B2846FFF75FFB27460446B846DB
:101A8800069B0893002CC6D107946B6C002B00F0C2
:101A98005B82039A12F0FD0F03D0079A002A00F028
:101AA8007D81BB7813F03F0B00F00882FB7803F0D0
:101AB800080A03F0010903F0020B21F021FF064692
:101AC800002800F0B782002307227370F370327089
:101AD800B31CBAF1000F00F0DC82B9F1000F40F03E
:101AE8006482BBF1000F00F08B8207F10A01F278E3
:101AF800301D42F00802F270022209932DF0A0FC7A
:101B0800099B06F1060AAAEB03035FFA83F9B37887
:101B1800B9F1020F6FF38713B370079B9CBF4FF0A7
:101B2800010906F1030A002B40F01F82079B059A62
:101B38004B441344FF2B40F3D880B84500F088820B
:101B4800452468E7039B042B3FF464AF00F2A881A7
:101B58001523039AD340DA0775D500210DF1350313
:101B68001846069304220DAB04938DF834102DF01B
:101B780072FC686C0DF12F01437D002600EB830396
:101B88001430D3F8188021F02DFFA9460746DDF858
:101B980014B005E0BAF1000F00F075815746A84669
:101BA8000024042221460DF13A008DF839402DF029
:101BB80052FC049B009401933A4641464FF4047347
:101BC800484612F029FB044668B145280BD0C6499F
:101BD800C6484FF4A373C64A2CF07AFF4FF4A3719A
:101BE800C3482CF024FC9DF839301E44B6B206EBED
:101BF8000B02BF2A00F3AF81D8F80451D7F804A12B
:101C0800002DC7D14D469B46BAF1000F0BD0B949FC
:101C1800B6484FF4B173B64A2CF05AFF4FF4B1717D
:101C2800B3482CF004FC452C00F017820DF1390361
:101C3800089327E7039A042A00F232811523D34038
:101C4800D8073FF5FCAE05990DF1350318468DF818
:101C5800341004221AA906932DF0F2FB039B012BE2
:101C680040F00C810DF12F0201920DF12E020DAB07
:101C780000924FF40071102228460493FFF75CFA93
:101C88004528044600F0D580002C7FF4C4AE686C6B
:101C9800002800F05981059FBF2F40F28D81BF2693
:101CA80004221AA906988DF834602DF0C9FB042285
:101CB8001AA90DF13A008DF839602DF0C1FB686C56
:101CC80007F14103DBB214300CA9079321F08AFE17
:101CD8009DF830209DF82F3080469A4240F09D8133
:101CE8000DF1390347460893CFE67370B37809F1CD
:101CF800FF3161F30503B370059A1A9950462DF028
:101D08009FFB042206990CA82DF09AFB95F8253024
:101D18007F2B4FEA531840F2698195F826207B788B
:101D280002F001025200DB0001322B33934003F52D
:101D38002974DDF8309099F800306FF3050389F8BD
:101D4800003021F02FFC98FAA8FC32288CBF002024
:101D58000120B8F1000FBCFA8CFC08BF4FF0FF3C23
:101D6800654BA3FB042399F80020190B02F03F02EE
:101D780042EA80121B0901EB4C1189F8013089F8FD
:101D8800002089F80210D7F8040120B10023C7F811
:101D9800043121F049FEC7F804616B6C95F888207E
:101DA800D10740F1BD801C6894F8523013F0010847
:101DB80040F0A68040F2712342F6DC3041466A6F5B
:101DC8000CAFE2FB030140F2E2420023FEF770F998
:101DD800A4F840000AF0E6F90646204612F0F8F8A2
:101DE80031234649A360A0FB01013DA3D3E90023A9
:101DF800C4F80480C4F80C80FEF75AF9014621F0B3
:101E08007F413A46032021611EF0C4F8002800F003
:101E1800438106F10F0100222046FFF7F5F800285C
:101E280040F03D8194F8523043F0010384F8523079
:101E380067E0059A9DF839301AA9D31A0698042242
:101E48008DF834302DF0FCFA0DF12F0301930DF1CC
:101E58002E03009310224FF400712846049BFFF7CD
:101E68006BF9044610E705990DF135038DF8341028
:101E7800042218461AA906932DF0E2FA039B032BB5
:101E88003FF4F0AE17E04FF4B1731A491748184AF7
:101E98002CF01EFE4FF4B17115482CF0C8FA7DE6FF
:101EA80005990DF135038DF83410042218461AA946
:101EB80006932DF0C5FA0DAB04935AE621F020FDE8
:101EC8000646002800F0B4800723B246337086F82F
:101ED80001B0B31C0AF803BF15E600BFAFF30080DA
:101EE8008D49FD1A07000000701E0301BC1503018F
:101EF800341D0301881E03018988888800CA9A3B1B
:101F08000CAF394605F1280021F06CFD002201468E
:101F18002846FEF7E5FF044600287FF47CAD6B6C8D
:101F28009DF82F205A75039B012B19D0033B012BD9
:101F380016D9039B012B94BF0022012295F87E300D
:101F480062F3451385F87E30002464E54224204678
:101F580011B0BDE8F08FB84500F08B8007245AE532
:101F68009DF82E3085F82930E3E7089B0422591C98
:101F78000CA82DF065FA089B0C991B78079A194450
:101F880050460C912DF05CFA049B3A4601930023CD
:101F98004146009328464FF4047312F03DF9002897
:101FA8006DD1079B05949A44C0E5BBF1000F3FF43F
:101FB8009CAD07F110019AE514300CA921F012FD2F
:101FC8009DF830209DF82F3006469A421AD1D6F84F
:101FD800040120B10023C6F8043121F025FD0023B7
:101FE800069A98461F46079308924EE57B784FEA73
:101FF800680243440933DB00D34003F5967498E63E
:10200800391D74E5FE2327492748284A2CF060FD2E
:10201800FE2126482CF00BFAD9E7F1232149224862
:10202800224A2CF055FDF12120482CF000FA57E601
:10203800D946DA4640F2AD131C4A1D491A482CF01D
:1020480047FD40F2AD1119482CF0F1F900263AE5A8
:102058006B6C9DF82F205A7572E59DF83E30059CF3
:10206800ABEB030B07930DF139038DF839B00893E7
:102078000BE5D9F844309DF82F205A756EE7B8451E
:1020880001D00446C7E46B6C9DF82F2004465A75AE
:10209800C1E406F1030A36E50C990231BBE60D24CA
:1020A800B9E400BF601E0301BC150301341D030120
:1020B800EC1D0301000000002DE9F04F836C93B084
:1020C80009931B680B90642218468F490A9308F0FD
:1020D800A9FA0025FF2300F108070424CDE90E55CD
:1020E8008A4E0DF1440A0DF136090DF140080DF143
:1020F800380B8DF83530FFB20CE00F9BAB4202D0A5
:102108006CB3013CE4B29DF83530FF2B38D09F42C8
:1021180046D00F9D002002217D4BCDE90189059312
:10212800CDE90300CDF818A0CDF800B00FAB0DF144
:102138003502119109F0DCFF022800F0D180119BD3
:10214800002BDAD04FF406633246724972482CF0FD
:10215800BFFC4FF4066130462CF069F9CDE740F634
:10216800620332466C486D492CF0B2FC40F66201BD
:1021780030462CF05CF99DF83530FF24FF2BC6D192
:1021880040F664033246644865492CF0A1FC40F6E9
:10219800640130462CF04BF99DF835309F42B8D198
:1021A800109B6049A3F57422A2F510728A420E9F13
:1021B80007D903F1E873013F03F5D4330E9703F50C
:1021C800A57359490A9AA1FB0313126E55499E0C2F
:1021D800A2F57423A3F510738B4207D902F1E872B4
:1021E800013702F5D4320E9702F5A5720B9B596C94
:1021F8004D4B487DA3FB0232950C0A7D1095824217
:10220800D3B204D00133DBB2022B08BF002301EBA9
:1022180083018C69E378D8074CBF0A3404349907E2
:102228004FF00701414848BF06341A0748BF023437
:10223800DB06A7FB000301FB073131A3D3E9002329
:1022480048BF0334FDF734FF731B1844B0F5161F5D
:1022580005D36378A0F5161043F040036370344B40
:10226800A3FB002319095B0C46D00123314AA2FBCA
:102278000020C0F34C116278099863F3451202F00C
:10228800E00242EA112221706270018A838ABDF855
:1022980036200B441344238290F8242090F825100C
:1022A8009BB28A4205D0C08C1B1A13F4004F08BF9A
:1022B8000A46099B02EB420203EB42011831052250
:1022C800201D2DF0BDF8237A03F01F03237221F09F
:1022D80067F9237A43EA4013237213B0BDE8F08FFD
:1022E800119B022B7FF42BAF0221002009F048FF3D
:1022F800119B022BF8D022E7C1F30C01BBE700BF0A
:1023080000CA9A3B0000000030500021D81E03018B
:1023180085530101901D0301BC150301981D03019C
:10232800C81D0301BFBDF07F83DE1B438D49FD1A25
:1023380089888888B5814E1B38B500230C46C1E9C9
:1023480005330B707AB3256A53789278687A3E33EE
:10235800C2F305029B1A7F284FEA5011DBB21AD943
:10236800AA7ADB0002F0010252002B3301329340BB
:1023780003F2A631002531221148A26065600EA340
:10238800D3E90023E560A1FB0001FDF791FE0346B8
:102398002361284638BD0B4409334910DB00CB4084
:1023A80003F22E21E6E791F8453001EB83039A6C9E
:1023B800C9E700BFAFF300808D49FD1A0700000090
:1023C80000CA9A3B000000002DE9F0470D4640F294
:1023D800E240B5F85C608CB0904600FB06F66422DB
:1023E80028461D499A4608F01DF90223002704468D
:1023F8001A480B93A6FB000115A3D3E90023FDF7A8
:1024080057FE0DF12C090695CDF82090296905464F
:102418005144CDE9037112491046079111494FF40F
:102428007A72059119460023FDF742FE01460834E9
:10243800E4B24346224602913846032101950097AB
:1024480009F012FD49460FF061FD0CB0BDE8F087B8
:102458008D49FD1A070000003050002100CA9A3B40
:10246800551101014D5401012DE9F0418A784B784D
:102478008AB003F13E01C2F30503C91AC9B2044682
:1024880013F0B6F821A3D3E900231D49A0FB0101ED
:10249800FDF70EFE236920F07F45AB4224D90027C3
:1024A800A3EB05080223642216492046099308F085
:1024B800B9F80023144A09AE059200F10802032175
:1024C8001846CDE90333CDF8088006960197D2B2B5
:1024D800009309F039FD31460FF018FD48B9256120
:1024E80000200AB0BDE8F081FAD24FF00008EF1AD8
:1024F800D8E70C200AB0BDE8F08100BFAFF3008038
:1025080000CA9A3B30500021551101018D49FD1A2E
:1025180007000000000000000023FF222DE9F04F13
:10252800D0F854B08FB0DBF81C600424C6F34726FB
:102538000B361D46CDE90B33814F0DF1340A0DF1F1
:102548002A090DF12C0809908DF82920F6B20CE023
:102558000C9BAB4202D074B3013CE4B29DF8293025
:10256800FF2B39D09E4247D00C9D00200221754B8D
:10257800CDE903000593CDF818A0CDF80890CDF863
:1025880000800CAB0DF1290201900D9109F0B0FD0E
:10259800022800F0BF800D9B002BD9D040F2634386
:1025A8003A46694969482CF093FA40F26341384643
:1025B8002BF03DFFCCE740F265433A466348644957
:1025C8002CF086FA40F2654138462BF030FF9DF832
:1025D8002930FF24FF2BC5D140F267433A465B48B8
:1025E8005C492CF075FA40F2674138462BF01FFF22
:1025F8009DF829309E42B7D1BDF82A20BBF80E506D
:102608009BF8263015445B0903FB05F5DBF8183009
:102618009BF81C60ED18099BC6F3060693F8442046
:1026280093F8451046F100068A4206F07F06D3B2B9
:1026380004D00133DBB2022B08BF0023099A02EB56
:1026480083039C6CE37858074CBF0534043419079E
:102658004FF0070148BF0234DA0648BF03343E484A
:102668005B060B9B48BF0134A3FB000201FB03215F
:1026780031A3D3E90023FDF71BFD384BA3FB00234F
:102688001A095B0C52D0364BA3FB00300123C0F370
:102698004D100021E278A07063F3861202F0C002A8
:1026A80042EA1022280AE27040EA06602A0C65F322
:1026B800070142EA06422B0E60F30F2143EA062384
:1026C80062F3174163F31F61099A84F82260C4F822
:1026D8001E1092F8583092F859209A4217D00522C5
:1026E8009BF827500BF12001D54004F119002CF07C
:1026F800A7FE95FAA5F2002DB2FA82F208BF4FF0B4
:10270800FF32637F03F01F0343EA421363770FB07E
:10271800BDE8F08F0D9B022B7FF43DAF0221002016
:1027280009F02EFD0D9B022BF8D034E7C2F30D0003
:10273800AFE700BFAFF3008000CA9A3B000000007B
:10274800381F03018D660101901D0301BC150301AB
:10275800981D0301C81D03018D49FD1A89888888C1
:10276800B5814E1B000000002DE9F04FB1B09DF877
:10277800F44002280B949DF8F840BDF8E8800E94C8
:102788009DF8FC40BDF8EC900D949DF800419DF833
:10279800F0A00C9407D81E46E823044F044603FB18
:1027A80000735B6A23B10C25A2E300BF981B0021CC
:1027B8000846154611F03EF90F90002800F097835F
:1027C800D0F848B0BBF1000F00F09183DBF8383047
:1027D800002B40F08C836B1E1E2B00F29383D94B89
:1027E800A6F580729A4200F28D8340F6FE7208F1D7
:1027F800FF339BB2934200F28583B9F57A6F00F2FA
:102808008183BAF10F0F00F27D830B9B072B00F237
:102818007983DDE90C2313430E9A1343012B00F24D
:102828007183C94B186807F0F3FEA842C0F02B84E7
:102838000FF0C8FA1290002800F025840FF0C2FAB1
:102848001590002800F01C844246E821FB2A28BF86
:10285800FB2201FB04FE0B9805F01F0343EA4033FB
:1028680002F00F01C2F303107246BA18CDF858E00F
:1028780096464FF0000C1092B2F8462002F4FF5230
:102888001343AEF846309EF84A3003F00F0343EA8C
:1028980001138EF84A309EF84B3023F00F030343A0
:1028A8008EF84B30DEF83C3064F35023CEF83C30E1
:1028B8009EF8553043F001038EF855300EF18C0325
:1028C800CDF844B01396E3461E46CDF850809E4896
:1028D80007F06AFE002380460470436000F10C0292
:1028E80000F1080180690BF1010B002800F00C834E
:1028F80007F0C8FE00234046C8F81830A8F81C3076
:102908002022924907F08EFE5FFA8BF39D4226F84B
:10291800020FDCD8DDE913684FF47A7303FB09F280
:10292800B2FBF6F2109B022AB3F84A3038BF0222F3
:10293800C3F3071909F1FF334344B3FBF9F3013A31
:10294800D0B200FB03F35FFA83FEBEF1070FDDF898
:1029580044B040F2DE8207257D490EF10602A1FB54
:102968000213D21A03EB5203C3F38703C3EBC30367
:102978005FFA83FE2B46149506FB00F003FB00FC70
:102988000AF1010303F00F0303FB05F5DDF840A08E
:102998000C9805F01F0211929AF84620051E14980B
:1029A80040F2E24160F347129AF84F008AF8462055
:1029B80063F307108AF84F005046BAF83E209AF899
:1029C8004730DDF844A018BF01256AF3040380F8F6
:1029D800473001FB0EF3BCFBF3FC01FB0CF161F388
:1029E8000F121391C2870B9AAD00530740F19882DA
:1029F8000C9B90F85510002B14BF8B226B2209F109
:102A080002032B4401F00101DB00490001311B33B3
:102A18008B408A4003F20E2302F20E22C3F3130303
:102A280092B2109DC3F3034095F84A1085F84830D8
:102A380021F00F01014385F84A10C3F3072185F8F7
:102A48004910119995F8460001FB03F102F22E2274
:102A580000F01F0092B200FB01221399A1F5FA6061
:102A6800824205F1450100F24782119A0E9803FB54
:102A780002F2C2F3130250B14879CA7020F00F0075
:102A880040EA1240C2F307220A711A464871DDF87B
:102A980040C0C2F303459CF853309CF84E006FF3D6
:102AA800071320F00F008CF84C208CF85330284383
:102AB800DBB2C2F307228CF84E008CF84D200F2BA6
:102AC8008ABF149B0023BEFBF3F3109888BF03F062
:102AD8000F0390F84B205FFA86F963F3071280F82A
:102AE8004B204B7BC6F3034223F00F0313434B7376
:102AF800C6F3072381F80B900B7390F84E2090F8DB
:102B08004F3008F00F0102F00F0242EA011280F87C
:102B18004E2023F00F03C8F30312134380F84F30FD
:102B280000F12803184621469A4608F015F9C6F31D
:102B38000B231493C6F303431793002840F01E8217
:102B480008E000BFFFFE0F008C51002190510021CA
:102B580025499224109D022105F12C03184605F100
:102B680040060E93119620F0A7F930461EF0C0F9E2
:102B7800002195F8453019AA60F3050385F845301A
:102B8800CDE9001195F83C30A96361F3060385F897
:102B98003C3095F85D300D9803F03F0385F85D30C3
:102BA80095F83D30C5F82E1060F3000385F83D30E8
:102BB8000DF1630385F8571085F8561085F86010F5
:102BC8000F9802931AAB12F06BFD0546002840F0EF
:102BD800BC81DDE919120C9B0090002B14BF3B232C
:102BE80023238DF878301EAB019358464FF4807339
:102BF80014BF3926212612F06BFD0546002840F047
:102C0800A48104220DF179011BA82CF019FC2C22B7
:102C18001B9B01361E701B9B51465A70139AD04B52
:102C28001B9EA3FB022304227079C3F3802C20F09F
:102C3800070EF07800F07F0040EACC10F070C3F384
:102C4800C2404EEA000E86F805E0DDF840E0C3F326
:102C5800C72333719EF84600737960F3C703737115
:102C68009EF84700B37960F30403B3719EF84630C9
:102C7800B0795B0963F34710B071DEF84830707AB9
:102C8800C3F3034C20F00F00F37140EA0C00C3F3C8
:102C98000723707233729EF84B30C0B2D34063F38F
:102CA80007107072DEF84C30307BC3F3034C20F011
:102CB8000F0040EA0C00B372C3F307233073F372BA
:102CC8009EF84F30C0B2D34063F307103073BEF89C
:102CD8004A3006F10F00C3F3071373732CF0B0FBEF
:102CE800149B179A337508F00F0342EA0313C8F3CD
:102CF80007180E990222737586F8139086F81680C5
:102D080006F117002CF09CFB0522119906F1190019
:102D18002CF096FB0B9BDDF840E093FAA3FA002B0E
:102D2800BAFA8AFA08BF4FF0FF3A737F0D9A03F098
:102D38001F0343EA4A137377DEF83830B377DEF8B7
:102D480038301B0AF377BEF83A3086F820309EF800
:102D58003B3086F821309EF83C30C3F3060343EA43
:102D6800C21386F822300C9B002B40F03081109A59
:102D78000DF1A00A92F83C300DF1B00865F3C713C5
:102D880082F83C300F9B10981C334362E8230022E2
:102D980003FB04731299C3F898101599C3F8B81077
:102DA800169B0062FA548261426190F847200346FC
:102DB8007F2A4FEA521040F2EE80184693F83C30D2
:102DC800B0F84A105B0990F85500C1F3071103F0F9
:102DD80004030231194400F00100C900DB0040007F
:102DE80001301B316B338140834001F20E2103F225
:102DF8000E23E820312600FB04740020DDF840C0D3
:102E080002F01F029CF846C003F22E230CF01F0CA0
:102E18000CFB02F201FB02314FA3D3E90023C4E902
:102E28000106E0604F48A1FB0001FDF741F90646A5
:102E3800206109F0B7F9034642460F3331460320B3
:102E48002C931DF0A7F82C9B002800F0BC800B9356
:102E58000223444C2893139B434AA3FB0448434B47
:102E68002046DA6041463CA3D3E90023FDF720F968
:102E78004FF0070C4FF000093D4B049620F07F46B9
:102E8800A6FB0331109ACDF820A00692D26BE01A67
:102E98000CFB0611374BC2F34722079302F10B02D2
:102EA800354BD2B268EB01010C9205934FF47A725C
:102EB8000023CDF80C90FDF7FBF8DDE90B32032178
:102EC800029001964846CDF8009008F0CDFF514693
:102ED8000FF01CF8002840F0D880169B9DF863205E
:102EE80020331F44CBF838708BF8292000E04225A6
:102EF800284631B0BDE8F08F12980EF069FF15989A
:102F08000EF066FF1225F3E708F11000C8F8180064
:102F1800EEE40EF00702734614920EF01F052BE53F
:102F28000B9901F00302931D4B442B4411352A449D
:102F38000333C1F34001DB00D200CB40CA409633D3
:102F48009632C3F3130392B26BE512980EF040FF6A
:102F580015980EF03DFFCBE78D49FD1A07000000DC
:102F68005917B7D100CA9A3BA55902014C0500214F
:102F78008D49FD1A551101019166010140F247136F
:102F88005B495C485C4A2BF0A3FD40F247115A4864
:102F98002BF04DFADEE5109991F83C30B1F84A6013
:102FA8005B09811DC6F3071603F004033144194475
:102FB8000343033111334010C900DB00C140C34053
:102FC8009631963315E702330B932C9340E74B4B1E
:102FD8004B4A0EF1640893E803001C9220900132DA
:102FE8008DF8841040460821CDF889501D92CDF8FF
:102FF800855023951FF060FF0822414606F1230003
:103008002B362CF01DFA102130461FF055FF419940
:1030180024AA20A82CF00BFBC0B200285AD10DF12D
:10302800A00A524624A81CA92CF0E3FAC0B2002832
:1030380043D10DF1B0083146434650461DAA2CF045
:1030480013FBC0B260BBDDF84090042299F88430CD
:1030580009F1680143F0010389F8843009F16C062D
:1030680009F189002CF0ECF930461022414607F0AE
:10307800DFFA99F83C3043F0800389F83C3081E668
:1030880012980EF0A5FE072532E7109B1298C3F898
:1030980024900EF09DFE15980EF09AFEFFF783BB64
:1030A80040F2BB1317491348134A2BF011FD40F2A5
:1030B800BB1111482BF0BBF9C5E740F2B913114910
:1030C8000C480D4A2BF004FD40F2B9110A482BF0C8
:1030D800AEF9AEE740F2B7130A490648064A2BF0A4
:1030E800F7FC40F2B71104482BF0A1F997E700BFAD
:1030F8007C1F0301BC150301381F0301741403016D
:1031080032474942C0190301F8B5274C9DF818E029
:1031180094F8545015F002053FD107074FEA5006BE
:1031280004D594F8B870BF0737D4643469B39127CD
:103138004FEA401C1D48A4F84410A2FB00014FEAC6
:10314800CE0E07FB021194F83C200EF0180E0CF07E
:10315800200C66F302024CEA0E0C94F832E084F874
:103168003C2094F854202EF0380E4CEA0E0C63F3F1
:10317800830284F8542084F832C009A3D3E90023D9
:10318800FCF796FFA0642846F8BD94F83C30284622
:1031980061F3020384F83C30F8BD0C252846F8BDDD
:1031A8008D49FD1A0700000000520021002AE7841B
:1031B80070B504469126124D02854FEA411CA3FBC7
:1031C80005019DF810E006FB03114FEACE0EA37D22
:1031D8000EF0180E0CF0200C4CEA0E0C23F03803FD
:1031E8004CEA030C84F816C003A3D3E90023FCF7C8
:1031F8005FFFE06270BD00BF8D49FD1A0700000047
:10320800002AE784000000002DE9F047044690F802
:10321800543090F832206FF30003C3F3800060F35A
:1032280086128CB084F8543084F8322004F13E01C0
:1032380008F0F4FF0025912194F83220B4F84430C6
:10324800794802F0790284F83220A3FB0002C4E92D
:10325800055501FB032172A3D3E900232570E4611E
:10326800FCF726FFA36C31220F33984298BF2B46F8
:103278006E4E23616E4B6560E56098BFA564A51B23
:10328800A3FB0535C5F347150746A26025BB96F88D
:10329800A03003F00703032B24D9D4F84880B8F1F1
:1032A800000F1FD09121B6F8A8305F48A3FB000299
:1032B80001FB03215AA3D3E90023FCF7F9FE874257
:1032C80010D1D6F8AC30984447450BD308F1020822
:1032D800474598BF256105E0012D03D196F83C309C
:1032E800DB0770D44FF0000908F05CFF236A00F197
:1032F8000F06002B49D00DF12C0891214E444FF0B8
:10330800020A4FF00009CDF820800694B4F8443042
:10331800226945480492A3FB000201FB0321454BA7
:10332800CDF82CA00793444BCDF80C9005933CA303
:10333800D3E90023FCF7BCFE104619464FF47A7215
:103348000023FCF7B5FE01460D35EDB20291334678
:1033580003212A4648460197CDF8009008F084FDDD
:1033680041460EF0D3FD60B994F8543043EA0A039D
:1033780084F8543010F028FB08B300200CB0BDE8E6
:10338800F0870C200CB0BDE8F0870DF12C08CDE9D2
:103398000A330320434621690AAA02F069FC00287F
:1033A800ABD11FA3D3E900230B992448A1FB00014B
:1033B800FCF77EFE0A9B20F07F461E449DE75046A0
:1033C8001EF044FED9E7D4F84880B8F1000F89D040
:1033D8009121B6F8443014484FF0000AA3FB0002CC
:1033E80001FB03210EA3D3E90023FCF761FE87420A
:1033F8007FF478AFB36C98444745FFF473AF08F196
:10340800020847453FF66EAFC4F810A0B36CC4F885
:1034180048A003F10209C6F848A065E7AFF30080A9
:103428008D49FD1A07000000002AE7840052002198
:103438001F85EB5155110101B16F010100CA9A3B7B
:103448002DE9F04F0B790C46063B834695B0072BC8
:1034580005D8DFE803F0A9047E42040404134C49AC
:1034680040F23F134B484C4A2BF032FB40F23F11DD
:10347800494815B0BDE8F04F2AF0D9BFD1F8088007
:10348800D8F83C305BB1454942484FF49073424A02
:103498002BF01EFB4FF490713F482AF0C8FFD8F874
:1034A80000500026284615F07BF90346E380D5F83E
:1034B800A030E268109398F80B30284603F0070311
:1034C8000E930D9215F06CF91030C3B2B246374620
:1034D80035460B960C960F938CE08B681A460C9326
:1034E80015682F4B9D4240F07A81D5F82CA0BAF18F
:1034F800000F00F0D18440222946284607F092F8B0
:103508000F30C3B20F93DAF80060304614F014F9A4
:103518000746002800F0808290F859200C9B11077C
:1035280048BF00225B7958BF026E03F00703022BE5
:103538000B9200F06B82042B00F0F481012B00F059
:10354800E4811349FD231348134A2BF0C1FAFD21E6
:103558008EE7D1F808A0DAF818304BB111490D48B8
:10356800A0230D4A2BF0B4FAA0210B482AF05FFFE4
:10357800DAF80070002697F8593018074CBF002376
:103588003B6E38460B9314F0BDF8042329E000BFC6
:10359800C02B0301BC15030114200301F42003010F
:1035A800F4520021B0200301D1F808A0DAF818304D
:1035B8004BB1AF49AF488E23AF4A2BF089FA8E2121
:1035C800AD482AF034FFDAF80070002697F8593031
:1035D80038461D074CBF00233B6E0B9314F092F83E
:1035E8000123B04635460D300E93C3B20F930C96A7
:1035F80010960D960021E27E94F8213061F3820244
:10360800C4F800B0E160E276002B00F0AE8094F8D8
:103618002220920600F0A78094F9232094F8233002
:10362800002A7ADBD80704F124090AD50B9A32B1AB
:1036380097F8592002F03002202A40F0858104F1E1
:103648002A09990748BF09F106095A0748BF09F12D
:10365800010913F008021CBF4A4609F1020913F0D8
:10366800100116BFCDF84490119109F1030998068D
:1036780015D509F1120112910B99002900F0D0809B
:10368800002A00F0CD8051783846090915F016F95E
:10369800002840F0BD82DDF8489094F8233094F873
:1036A8002220590648BF09F10109C2F3050204F1B5
:1036B80022010132A9EB0101C9B2D2B291429EBFE7
:1036C800511ACBB2114694F8212088BF00238A42B0
:1036D80092BF0022521AD2B2129222790D2A51D0E8
:1036E800119B002B5FD09A785978130203F4F85392
:1036F8000B4358D0002E40F017815F2A40F29E817C
:10370800B8F1000F00F0B982D8F800201299B2F889
:10371800A4301944A183A2F8A4600B9B5BB197F86D
:10372800593003F03003202B05D097F859306FF348
:10373800051387F85930002D00F0C9806B6B002BFA
:1037480000F0A48097F85420D20700F16181DC6072
:103758006C63EB6A002B00F0CB80284615B0BDE8FF
:10376800F04F14F0FBB9013BDBB2B8F1000F5AD0AF
:103778000021D8F80020B2F8A4000344A383A2F8DB
:10378800A410CAE7002BABD0A0791A464946139378
:1037980015F0E8F910980028A2D04A462146139B54
:1037A80000F04EFD9CE7B8F1000F00F00781002102
:1037B800D8F800201298B2F8A4301844A083A2F8D0
:1037C800A410002EA9D0002D00F012816B6B002BE5
:1037D80000F00E81DC606C6315B0BDE8F08F284600
:1037E80013F0AAFF8246002800F0BA80D4F808A097
:1037F800DAF818300C93002B00F034820C9B1D680B
:10380800EB6A534509D01D491A48CC231A4A2BF0B4
:103818005FF9CC2118482AF00AFEFF230F9372E6BD
:10382800DDF848903BE7002D44D02A8F13449BB223
:103838002B87A3830B9B4BB197F8593003F03002C9
:10384800202A03D068F3051387F859306B6B002BD7
:103858007FF478AF40F2EB2309490648064A2BF07B
:1038680037F940F2EB2104482AF0E1FD11E000BFEE
:10387800B0200301BC15030114200301C820030173
:10388800582003016B6B002B40F0C280B8F1000F89
:10389800E0D0214658460EF0BDFAD8F8003093F82B
:1038A8006E301B077FF555AFD8F83C30002B3FF43E
:1038B80050AF91E7A3830B9B4BB197F8593003F0B6
:1038C8003002202A03D065F3051387F859302146C2
:1038D80058460EF08FFA0D9A2AB101231146106846
:1038E80013710EF087FA15B0BDE8F04F0EF08CBAE0
:1038F80040F2F5234C494D484D4A2BF0E9F840F287
:10390800F5214B482AF093FD27E706224FF00008DF
:10391800A67E22710E93C6F3C006CDF84080CDF87E
:10392800348067E60822F1E7B8F1000F00F09081D3
:10393800D8F800201299B2F8A43019440B46002197
:10394800A383A2F8A4103EE794F82010637E4A46A9
:103958003846C1F3801114F03BFF94F823306EE62B
:10396800D4F80880D8F83C300C93002B00F014826F
:103978000C9B1D68EB6A434509D02E492B48DB2375
:103988002B4A2BF0A5F8DB2129482AF050FD0C9B87
:10399800D8F800605B7903F007030E93FF230F93B9
:1039A8000D233046237114F0FBFEE080D6F8A030DA
:1039B8000026109337460B960D961BE6002D00F057
:1039C80032812B8F129A1A4493B22B87A383002E2D
:1039D8007FF4FCAE0B9B002B3FF438AF97F85930BF
:1039E80003F03003202B7FF4A0AEA7E6129BA3833D
:1039F80040F2DD130E4A10490C482BF069F840F2EA
:103A0800DD110B482AF013FD6B6BE3E607227DE717
:103A18009C427FF4DFAEDFE60C9B80465B7903F0C7
:103A280007030E93BCE700BFE8200301BC150301A0
:103A380014200301DC20030108210301002D00F0FC
:103A480067812B8F129A13442B87B8F1000F00F06F
:103A58002F810122D8F800101298B1F8A430119ED5
:103A6800184483B20C98A1F8A430A3833178037961
:103A780061F305030371B3785B0902FA03F3427932
:103A880063F302024271E37E1E0700F13681BAF148
:103A9800000F00F0628197F8543013F0010340F0F2
:103AA800AB81CAF8183011980C9990F90030002BA6
:103AB800ACBF1E224FF496728A60867841784FEA2E
:103AC800062606F4F85646EA010602FB06F60278D0
:103AD800ACBF3E234FF4A67352064CBF32274FF4B7
:103AE800FA7706FB07F7B84A0C99A2FB0727BF0C21
:103AF800487907F1100203EB42038B6000F00700DE
:103B080001211FF049FB0E9B61695B07A1F13001A0
:103B180040F1C080A27E94F82130C2F380025200A6
:103B2800DB0001322B33934003F5BC730E44361A85
:103B3800F61BF61A002331226B60EB600C9BAA601F
:103B48005B7903F00703032B00F2A18003F109025C
:103B5800D2005B1022FA03F39C4F00F22E20184487
:103B6800A0FB070196A3D3E90023FCF7A1FA0346BB
:103B780023F07F43A6FB07012B6191A3D3E9002320
:103B8800FCF796FA0F9A20F07F47FF2A17D00020FB
:103B980023690121403BCDE900003B4408F0F0F9DE
:103BA80010F0FD0F0BD08A498A484FF42B738A4ACC
:103BB8002AF08EFF4FF42B7187482AF038FC4022F8
:103BC8008649284606F02EFD0026854B0121CDE9C1
:103BD8000735844BCDE905352A692369049200F13C
:103BE8000F02CDE9026630460097403BD2B20196FB
:103BF80008F03AF910F0FD0F3FF4EEAD7A494FF4B2
:103C08002F737448744A2AF063FF4FF42F712FE41E
:103C18004B46224629463846DDF8489000F054F9CC
:103C280094F823303BE5129BA383002E7FF4E0AE8B
:103C38000B9B002B3FF44BAE97F8593003F0300242
:103C4800202A3FF444AE6FF3051387F859303EE657
:103C5800002D3FF4CBAE2B8F129A1A4493B22B87C8
:103C6800A383B3E5C92361495A485B4A2AF030FF68
:103C7800C92159482AF0DBFBC0E5002D00F09C80E3
:103C88002B8F129A1A4493B22B87A383A2E64FF480
:103C9800347361E7DDF838C094F821200CF0030391
:103CA80013440933DA00CCF3400322FA03F33DE767
:103CB8006B6B002B4FD0DC6001232A8F0C98119E70
:103CC8006C63A2833178027961F305020271B278DC
:103CD80052099340427963F302024271E37E180766
:103CE80065D543F00403E3760C9BCAF818300C9AA8
:103CF80013796FF3861313716EE543F00403E376CB
:103D08000C9B21465846C8F83C300EF083F8EEE785
:103D1800374806F049FC054600287DD00D9B067003
:103D2800C363129BC0E905660387BAF1000F14BF8D
:103D380053464346C36290F82030066366F3C713C0
:103D480080F8203000F11C034663C0610C93B8F181
:103D5800000F7FF47EAE2C63AEE7D8F83C3083B119
:103D6800D8F83C300C9A93420BD02249194840F2BB
:103D78005623194A2AF0ACFE40F2562116482AF07A
:103D880056FBD8F8003093F86E30190767D40C9BAF
:103D9800C8F83C302C6386E6D82314490D480E4AEF
:103DA8002AF096FED8210C482AF041FBE0E5BAF14A
:103DB800000F7FF470AED8E7129BA38338E700BFEB
:103DC8008D49FD1A0700000083DE1B4300CA9A3B99
:103DD80060210301BC15030114200301F4520021E2
:103DE8007D7801012979010190210301C020030197
:103DF800F05200211C2103010B9B002B3FF442AD24
:103E080097F8593003F03002202A3FF43BAD6FF3A6
:103E1800051387F8593091E4E37E1A0744BF43F04D
:103E28000403E376B8F1000F26D00022D8F800107A
:103E38001298B1F8A43018440B9BA083A1F8A420D1
:103E4800002B3FF444AD97F8593003F03001202996
:103E58003FF43DAD62F3051387F8593037E50B9B06
:103E68002BB197F8593003F03002202ACFD16B6B71
:103E7800002B7FF467AC0CE50B9B002B3FF427ADC0
:103E880097F8593003F03002202A3FF420AD68F348
:103E9800051387F859301AE5B823084A084909482C
:103EA8002AF016FEB82105482AF0C1FA4022294610
:103EB800284606F0B7FBDAF80030FFDE14200301CD
:103EC80088200301BC1503012DE9F04F046E9846C4
:103ED8008946191D94F83E308DB084F83F3003EBC5
:103EE80043034FEA430A0AF13205254416460746BA
:103EF800052228462BF0A4FA2B79284603F01F0345
:103F08002B71052106F062FD04EB0A0393F83720B4
:103F180000F03F0060F30502012883F8372040F2E3
:103F28004B8197F8593094F86E20C3F3010363F37B
:103F3800000284F86E2007F15A01062204F12005D8
:103F480004F168002BF07CFA042208F109012846E4
:103F58002BF076FA28461DF01FF80322208608F178
:103F68000D0104F124002BF06BFA40F2E24042F21A
:103F78001071B8F81030E38599F8212094F82730AB
:103F880062F3020384F82730B8F802B0B4F85E2070
:103F98001FFA8BF900FB09F909F1FF3301FB023322
:103FA800B3FBF9F39BB2A4F86030B4F860309BB26D
:103FB800062B00F204810023A4F85C30062294F852
:103FC8006E30022562F3061384F86E3098F808A064
:103FD80094F828304FEA5A1A6AF3C50384F828304F
:103FE8001FF0E0FA034650460B931FF0DDFA0B9BD7
:103FF800184409FB00F0884B00F5742000F23F20BC
:10400800A3FB00304FEA5903800C963B6064A3641D
:1040180098F80130002013F0200F0CBF1E234FF436
:104028009673636597F8593065F3051387F8593027
:1040380013F05EFB874200F0DF8090F8593065F39B
:10404800051380F85930A8227449204606F0EAFA88
:104058000C22D4F8983005469F60A3F822B01A7154
:10406800D88094F8272083F824A0C2F3020283F8AA
:10407800212094F82700012100F007001FF08CF898
:1040880098F801C098F80030676D0CF01F0172694C
:1040980043EA012307FB032294F827101CF0400F82
:1040A800676C01F0070118BF02F51612032996F88C
:1040B8002130A9EB070740F28C80B17E6FF02F0CFE
:1040C800C1F38001DB00490001312B338B404FF4F1
:1040D800347103F5BC73ACEB03031B1A13440B9345
:1040E8004FF0000A3123DFF8388100F22E2008440F
:1040F800A360C4F804A046A3D3E90023C4F80CA025
:10410800A0FB0801FBF7D4FF8346A7FB0897454BA4
:104118002BF07F4B6366C4F810B03DA3D3E90023AE
:1041280048463946FBF7C4FF4FF4567307220694F6
:10413800CDF810B036693C4908933C4B20F07F44D9
:104148000791A4FB033102FB0411B9EB0300384BC0
:1041580067EB01014FF47A7205930023CDF80CA0A8
:10416800FBF7A6FF03460B9A0293A2FB080128A3BC
:10417800D3E900230194FBF79BFF04461035403E2A
:10418800EDB224F07F4433462A465046012100947C
:1041980007F06AFE10F0FD0F0ED040F259332549A2
:1041A8002548264A2AF094FC40F2593123480DB09C
:1041B800BDE8F04F2AF03BB90DB0BDE8F08FB4F878
:1041C8006030B4F85C20063B9BB29A427FF6F6AEAC
:1041D800F2E66FF02F0C0B4409334FEA610EDB0057
:1041E80023FA0EF3ACEB030309311B1AC90013447D
:1041F80021FA0EF10B9373E7012013F079FA90F886
:10420800593065F3051380F859301CE7AFF3008087
:104218008D49FD1A0700000083DE1B43801C002126
:1042280000CA9A3B4D7C0201A58001018D49FD1A07
:10423800757F0101BC1B0301BC1503011422030196
:10424800002B00F0AE822DE9F04706460F461446D3
:1042580090B00BE062782C2A15D06A1C93420FD3D9
:104268005B1B013B13F0FF03144409D02578002D94
:10427800F0D101225B1B013B13F0FF031444F5D17D
:1042880010B0BDE8F087222BFAD9222D01D03A2DA3
:10429800F6D1042204F10F0106F124002BF0D0F826
:1042A80006F13E08022204F1170106F128002BF05E
:1042B800C7F8052204F1190140462BF0C1F896F819
:1042C8004230404603F01F0386F84230052106F0CD
:1042D8007DFB96F8433000F03F0060F305030128AA
:1042E80086F84330CCD90022D6F88831C3F8A0200C
:1042F8000123617F49098B4096F8451063F3471104
:1043080086F84510637996F84410DB0863F30401D6
:1043180086F84410A17996F84430490961F34713A7
:1043280086F84430A07996F8453060F3040386F89F
:104338004530207AE37943EA0023607A86F84830EA
:104348001B0A86F8493096F84A3000F00F0023F02F
:104358000F03034386F84A3096F84B30607B23F00E
:104368000F0343EA101386F84B3096F84A3000F0F2
:104378000F0003F00F0343EA001386F84A30607A0F
:1043880096F84B30000960F3071386F84B30DBB220
:104398000F2B98BF114696F8533061F3071386F830
:1043A8005330A37AE17A43EA0123217B86F84C3023
:1043B8001B0A86F84D3096F84E3001F00F0123F0B5
:1043C8000F030B4386F84E30237B96F84F101B09DA
:1043D80063F3071186F84F10217DE37C43EA01233C
:1043E800617D86F850301B0A86F8513096F85230B5
:1043F80001F00F0123F00F030B4386F8523096F8B3
:104408003C10A37F62F3060186F83C10B363E27F99
:1044180043EA0223CAB26FF3060286F83C20B3636C
:1044280094F8202043EA024396F83C20B3636FF3E4
:10443800060286F83C2094F8212043EA0263B3631D
:1044480096F83C306FF3060386F83C3094F8222047
:10445800DBB262F306031A0686F83C3000F1778176
:1044680096F83C306FF3C71386F83C301C200022C6
:1044780006F18C0306F1FC01A6F8700186F872219A
:1044880043F8042F8B42FBD1002206F5B67143F89E
:10449800042F8B42FBD140F2E24042F2107194F8B3
:1044A8000480E3784FEA480848EAD3186379D6F8D5
:1044B800882103F0070348EA4328A6F82A8000FB6E
:1044C80008F8B6F88C3101FB0383013BB3FBF8F322
:1044D8009BB2A6F88E3192F828901FF063F8C9F3C2
:1044E800C209054648461FF05FF82B1808FB03F37E
:1044F800B74A03F5742303F23F23A2FB03239B0C63
:10450800C6F874314FEA5803963BC6F87831E37819
:1045180096F8450013F0400F0CBF1E234FF4967316
:104528000121C6F8843140091EF036FEE378A478EC
:1045380003F03F03B6F88C2044EA0324D6F884310C
:10454800012A03FB04F47D6900F23981A14B13F8B9
:104558003210002940F033819F49D1F88811002991
:1045680000F02D8103EBC2035978A5F1300296F8CB
:1045780044C096F84F5096F853302D094FEA5C1C0A
:104588001B090CFB0533013901FB03F3D6F888112D
:10459800B56C91F82710C5F3130501F0070103293D
:1045A80005FB032297F8213040F2CB80B97EDB006F
:1045B800C1F3800149002B3301318B4003F5BC73F3
:1045C8001444241A3122E41A0023C6E90132F360A4
:1045D80096F8452096F83C30D6F874515B097F2A46
:1045E80003F00403A8EB05054FEA521140F2A2803C
:1045F8009B0103F585431033DFF8E09100F22E208C
:104608001844A0FB090170A3D3E90023FBF750FD70
:104618006DA3D3E9002320F07F403061A4FB09019A
:10462800FBF746FD3B6920F07F48403B03EB080A57
:1046380007F0B8FD014650460F3107F0B5FD0302FB
:1046480023D596F83C30D6F874C19E46A5EB0C00ED
:10465800204496F84440B26B64091219C3F3060368
:1046680043F1000363F3060ED6F88031B263634466
:10467800C6F88031A0FB090153A3D3E9002386F8CB
:104688003CE0FBF715FD20F07F48554B554A304676
:10469800DA6051494FF4E87205F0C4FF4AA3D3E940
:1046A80000234E4C8246A5FB044520462946FBF7CD
:1046B800FFFC3B690696A3F1400940F231233269B9
:1046C80008934FF6FF730492072247490393474B19
:1046D80020F07F470791A7FB033102FB0711E01A7F
:1046E800434B65EB01014FF47A7205930023FBF706
:1046F800DFFC04460AF11206F6B24B4632460121A7
:1047080000200197CDF80080029407F0ADFB10F06F
:10471800FD0F3FF4B5AD40F2322336493648374AEB
:104728002AF0D6F940F23221344810B0BDE8F047FB
:1047380029F07DBE0B4403F58473DB004910CB40A0
:104748005AE70B440933DB004910CB4038E73A2DD0
:104758007FF486AE2A4B082204F1230106F15700A4
:104768000B932AF06DFE0CAB0BAA04F12B0106F596
:10477800C9702AF079FFA8B996F8773006F15B017D
:1047880043F00103042286F8773006F15F0506F14D
:104798007C002AF055FE284610220CA905F048FF97
:1047A80064E670474FF4DD7316491348134A2AF03C
:1047B8008FF94FF4DD71114829F039FEDCE7002349
:1047C8005B78FFDEAFF300808D49FD1A070000001B
:1047D80083DE1B4384530021D01D002100CA9A3B6D
:1047E8000C060021E5830201398D01018D49FD1A6E
:1047F800558C0101BC1B0301BC15030118230301DF
:1048080033474942C01903012DE9F04F05468BB0E3
:104818008B46012002219A46144625F055FF0022B6
:1048280002218146012005F099FF4FF4D8723A49D8
:10483800284605F0F7FE06461336F6B20121002099
:104848003246364B009507F0D9FB10F0FD0F0BD020
:104858003349344841F6CB73334A2AF039F941F6E3
:10486800CB71314829F0E3FD304BA4FB034828A362
:10487800D3E9002320464146FBF71AFC07222C4BBC
:1048880020F07F47A7FB033102FB0711E01A68EB12
:1048980001014FF47A720023FBF70AFCCDE900B757
:1048A800029008950695296995F93940214804919F
:1048B8002149534631EA240128BF01464FF6FE74C8
:1048C80005911E493246079100200121039407F003
:1048D800CBFA10F0FD0F0BD0114912484FF4FF53DB
:1048E800114A2AF0F5F84FF4FF510F4829F09FFDBF
:1048F800B9F1000F02D10BB0BDE8F08F01220221FF
:1049080010460BB0BDE8F04F05F028BFAFF30080AC
:104918008D49FD1A07000000A01F0021F197010131
:1049280060210301BC150301D423030100CA9A3B8B
:104938008D49FD1A05F8010105FA01019997010150
:104948004FF6FF732DE9F043046A8DB0228D9A4229
:1049580000F087800546204618F02EF995F82C308F
:10496800012B00F01581022B00F00081002B00F0D4
:10497800DF8094F84871002F40F0FC80E68DB4F891
:104988003080002E70D100232A8D08F10106CDE970
:104998000A33B6B2002A6FD094F93930002BC0F22E
:1049A8004F810023A4F88E3195F82A30D90740F1B9
:1049B800F5800023A4F89231314620460DF12702F4
:1049C80017F07EFE743000F04D81B4F88C312BB1B5
:1049D800B34240F214819B1BA4F88C31B4F888319F
:1049E8002BB1B34240F202819B1BA4F88831258E7B
:1049F80017B9A84500F0F1800135ADB294F8D1306F
:104A080013F0010159D1DDE90A030246002B40F0F9
:104A1800F480002800F0E38019461E46228DE469E0
:104A28000090B54813320191059001210020CDE98D
:104A3800035702960694D2B207F086FA10F0FD0FDB
:104A48000FD00DF0A1FA84420BD0AC49AC4840F22B
:104A5800BC73AC4A2AF03CF840F2BC71A94829F072
:104A6800E6FC0DB0BDE8F08300232A8D4644CDE96D
:104A78000A33B6B2002A8FD195F82A30DA0798D4CB
:104A8800B4F88E31002B00F08980B34240F21481D3
:104A98009B1BA4F88E31B4F89231002B8CD09E4227
:104AA80080F0EE8000229B1B9BB2062BA4F892316B
:104AB800228600F2B48001277EE794F939206FF34B
:104AC8000003002A84F8D1307FDB94F87600C0F325
:104AD800C00100F007001EF05DFBB4F86E30B4F8BA
:104AE8006C10194401F519710844874980A3D3E96A
:104AF8000023A0FB0101FBF7DBFA266920F07F40C9
:104B0800864234BF811B361A206138BF0026DDE992
:104B18000A0328BF00210246002B7FF47FAF50EA2A
:104B2800010C7FF47BAF002E59D01846194675E763
:104B380094F88E3003F01803182B7FF41AAFA18D68
:104B4800B4F88A218B1D9A42D2BF1346931F5B1A71
:104B5800B4F88611C8BF9BB2994200F0A780A4F8A8
:104B68008631A4F88831A4F88C2102E73D231F463A
:104B780084F8483118232046228D84F87071A4F8EF
:104B8800562184F854310DB0BDE8F04315F032BB1E
:104B98000023A4F88C31A4F88831EAE6B4F89231FD
:104BA800002B7FF47CAF40F2E24342F21071628D39
:104BB80003FB02F2B4F8903101FB0323013BB3FB82
:104BC800F2F39BB2A4F8923167E794F877000121D9
:104BD80000F007001EF0E0FA7FE73D460EE7002DE3
:104BE8005DD0002110460E460B4617E700232046ED
:104BF800A4F8883117F0DEFDF9E60E460EE70DF051
:104C08003FF9014600284DD00023A4F88C311B231E
:104C1800228D0371C28000680DF0FCF8DEE694F97D
:104C280039309342BFF6C8AEB8F1000F7FF443AFF6
:104C3800D4F87C315A08DB0753D4C4F87C21BBE68E
:104C480028460AAA0BA904F1D409FBF751FC4846E7
:104C580017F0F6FA98B3484617F0F2FA98B300231B
:104C680023869EE618239DF82720218D2046A4F848
:104C7800561184F8702184F8543115F0BBFAF0E627
:104C880018220823218D2046A4F8561184F85421AF
:104C980084F8703115F0AEFA0DB0BDE8F083002F3E
:104CA8009FD1DEE60123A4F88C3197E6B4F88C1185
:104CB80000297FF45EAE54E718223E23E2E7FF2086
:104CC80015F02EFAC7E70246D4E91E0105F0F2FCFA
:104CD8000028C4D194F83C30580744BFA38D2386DC
:104CE8005FE642F00042C4F87C21E4E6AFF30080BE
:104CF8008D49FD1A0700000055970101982403010A
:104D0800BC150301D423030100CA9A3B000000002C
:104D18002DE9F04F87B0BDF84440CDE90432029444
:104D28000378BDF84840BDF840800394BDF84C5066
:104D38000446468EB0F82E90B0F810B10191002BC1
:104D480000F0CA80013EB6B2A368721B92B2002B73
:104D5800D4F80C71009209DAE168626823F0004324
:104D680091422CBF7F18BF18A360FF1A009A638D69
:104D780002FB03F39BB2B3FBF8F202FB08F080B22C
:104D880083421FFA82FA80F09680C01A40F2E2430A
:104D980003FB00F058A3D3E900235949A0FB010104
:104DA800FBF786F920F07F400744D9444D44AD1BFA
:104DB80040F2E24694F839305544DB09E58506FBB4
:104DC80008F500F08D80226C0099A36CDFF8309113
:104DD80002FB1133A3641EF0E5FB834694F87801C7
:104DE800C0F342001EF0E0FB059B834406FB03F37F
:104DF80005FB0BFB23650BF5742B424B0BF23F2B8A
:104E0800A3FB0B3B4FEA9B4303FB0AF02364A5EB90
:104E1800030BA36C6A080344963A934228BF1346CF
:104E2800C4E911230023A0FB0901C4F8803132A38F
:104E3800D3E90023FBF73CF9049B3F1A3248A0FB57
:104E480003302DA3D3E90023800A06FB00F0A0FB62
:104E58000901FBF72DF90646029B2946A385039B0A
:104E68002046A4F89031A4F82A8017F063FC274B59
:104E7800A18D2B44B3FBF5F3881D9AB29042A4F898
:104E88008A2102D2521A063A92B2019BA4F88621CC
:104E980013B10023A4F892313B465A4631462046C6
:104EA800FFF7B2FC94F8843143F0010384F88431AD
:104EB80007B0BDE8F08F08FB123140F2E24389B237
:104EC80003FB01F10CA3D3E900230D48A1FB00016A
:104ED800FBF7EEF83F1A68E74E445E44B6B233E794
:104EE800049B0748AB46A3FB000103A3D3E90023B7
:104EF800FBF7DEF8461CAFE78D49FD1A07000000F6
:104F080000CA9A3B83DE1B435917B7D17FC3C90137
:104F18002DE9F04F0446154688460B6897B0D3F83C
:104F280000A094F820300622C3F3801314A804F1DB
:104F380022018DF847302E682AF082FA98F811007D
:104F480012ABFF280D900B9300F017821A460DF153
:104F580047011CF0BBFB9DF847700237FFB28DF884
:104F6800477094F82090D4F800C04FEAD9190AF194
:104F78008F0B594648460B9B07F00102CDF830C00D
:104F880014F0F6FF002840F0E08196F89E210B9976
:104F980067F341020E9086F89E2106F2A5100622BC
:104FA8002AF04EFA96F89E21594669F3000286F8CF
:104FB8009E2106F29F1006222AF042FA05F1040902
:104FC800032204F1320105F108002AF039FA05F14B
:104FD8001807042204F12E0148462AF031FA052266
:104FE80004F13E0138462AF02BFA0521384605F02F
:104FF800EDFC6A7F00F03F0060F305026A7794F8E1
:1050080043200128C2F30401A977218F02F01F026F
:10501800E98189B240F299811B3202F01F020B2A02
:1050280000F293810E9B002900F08F8140F2E2424A
:10503800D8F800104B60638FE9892B82E08EDAF88C
:10504800443002FB01F70E90002B00F00D8240F671
:10505800C41240F6A6639AF825107F2988BF1A461D
:105068000F920021304617F079FB94F8433096F8F8
:1050780078215B0963F3430286F878211EF092FADF
:10508800834696F87801C0F342001EF08DFA40F28C
:10509800E242584407FB00F0CD4B00F5742000F2C3
:1050A8003F20A3FB00307B08800C963B6862AB6214
:1050B80094F83530394602FB03F3AB63A38F3046CF
:1050C800A6F8903117F036FBC24BC34A3B44B3FBFA
:1050D800F7F3C6F894219AB2A6F88A21298A881D7E
:1050E800824204DDC1F57F41FA310A4492B2A6F842
:1050F80086214946042206F5BE702AF0A1F9DAF89D
:105108004430002B00F0AB814FF0010BE20700F1B7
:1051180044814FF4807323849AF827001DF0AAFA7B
:105128000146062204F12F00002900F02E8104F127
:1051380028012AF085F90D9B04F12900FF2B00F0C6
:105148002781062214A92AF07BF99DF84730062208
:105158000B9984F8223004F123002AF071F9EB89C5
:105168003046E3862B8A2387B6F89031638796F812
:105178007831C3F3420384F83C3014F06DFB0346E6
:105188002146AB810C98E380D8F804400CF032FE3D
:105198001C23AA8923712368E2800B93BBF1000FBB
:1051A80040F0088184F820B00DF0D2FF002840F0CC
:1051B8002F8121460B980CF02DFE95F85B000121FC
:1051C80000F00700B5F85040B5F852901DF0E4FF24
:1051D80009EB040104464FF0000931237F4801F52B
:1051E80018712144B360A1FB000177A3D3E9002320
:1051F800C6F80490C6F80C90FAF75AFF034640F236
:10520800E24C23F07F4333616D6AD8F80C307D1B84
:105218000E9F4A460CFB07330F9F303B02210120AB
:105228001F4405F09BFADAF844303C1BABB11F6809
:1052380038460FF0C9FA0246053248460121684B44
:105248000097D2B206F0DAFE012800F0218197F823
:1052580052306FF3000387F8523050460EF098FB37
:1052680002465E48A4FB0001144657A3D3E9002375
:10527800FAF71EFF8146CDF804A0D8F80830584A3E
:10528800403B009229F07F49A21C01210020D2B2A4
:105298004B4406F0EFFE012800F0E8809AF824302D
:1052A800DB0700F1AD80304614F0D6FA4B4B0446CC
:1052B800A5FB035A44A3D3E9002328465146FAF72D
:1052C800F7FE0696D8F808300722A3F140084FF4F5
:1052D800EF734FF0000B08934249434B20F07F4790
:1052E8000791A7FB0331E81A404B02FB071105930E
:1052F80033696AEB01014FF47A72CDE903B30023F5
:10530800FAF7D6FE01461334E4B202914346224628
:1053180058460121CDE9009706F0A6FD10F0FD0FD3
:105328000BD03349334840F2DF13334A29F0D0FB1E
:1053380040F2DF11304829F07AF8012202211046A4
:1053480005F00CFA17B0BDE8F08F00220126CAF864
:10535800142095F82030214662F3000385F82030A8
:10536800E5680C9826710CF045FD294628682E71D1
:105378000CF050FD17B0BDE8F08F0622184614A9AE
:105388002AF05EF89DF84770EBE52AF064F8D2E65B
:10539800062200212AF05FF8D7E64FF482731749F6
:1053A8001448154A29F094FB4FF48271124829F0E9
:1053B8003EF8AEE66B7F484643F040036B771BF040
:1053C800EBFDE883EEE600BF8D49FD1A07000000FB
:1053D80083DE1B437FC3C901404B4C0000CA9A3B84
:1053E800C9F7010199F701018D49FD1A05F8010175
:1053F80060210301BC15030190280301D41803019F
:105408000023012218461146009306F0F7FD4AE7EB
:1054180021460B980CF0EEFCDAF840405046236821
:105428000B930EF0B5FA5FFA80F9B9F1020F09D8BB
:1054380000231222A4F8069022712372AA896372AB
:105448006281B6E64FF4AC731A491B481B4A29F02F
:105458003FFB4FF4AC71194828F0E9FFE8E794F8EE
:105468002030C3F3401B51E60F92FAE50CF08CFD97
:1054780082453FF413AF4FF42A7311490E480F4A7F
:1054880029F026FB4FF42A710C4828F0D0FF05E7D5
:105498000CF07AFD87423FF4DAAE4FF42A730849DC
:1054A8000548064A29F014FB4FF42A71034828F0EE
:1054B800BEFFCCE6B01B0301BC1503019028030115
:1054C800EC280301000000002DE9F04F04468DB0E0
:1054D800BDF86850002005951646CDE906419DF8AF
:1054E8005C90BDF860A0BDF864B09DF86C50039363
:1054F80012F04EF9002800F0AC8009F001070446CC
:10550800384606F07BFE04902FB1062105F09EF880
:10551800002800F0A780DDE903213846169B14F027
:1055280027FD002840F09180012012F031F98046D3
:10553800002800F08E806B0740F18F80036A002BF3
:1055480000F0958008F11C0494F8203065F30203FC
:1055580084F820306368002B00F09E806368039A0B
:105568001D68089302F0010A089B93F85A00C0F3DB
:10557800C00100F007001DF00DFE94F8203003F084
:105588000703032B79D803F12802D2005B10DA4015
:10559800B5F86C30934238BF1346A5F86C3094F8D0
:1055A800203003F00703032B64D803F12802D2004C
:1055B8005B10DA40B5F86E3000F51870934238BFCA
:1055C8001346A5F86E30089BB3F85010B3F8523064
:1055D8000144BB481944A1FB0001B7A3D3E9002348
:1055E800FAF766FD034623F07F432B6130461CF033
:1055F8006DFD238C03F07F0363F0FF032384002EEB
:105608003ED0A9F10203012B40F2368198F85430BC
:10561800169969F3830388F8543094F820300622E9
:105628006AF3861384F8203004F1080029F008FF93
:10563800059B2046A3820021DDE906230096FDF79D
:10564800B7FD00200DB0BDE8F08F0B200DB0BDE810
:10565800F08F0C200DB0BDE8F08F236A23B1A0466F
:105668001C3471E71220F1E7036A2362F7E7236A23
:10567800036267E74FF429629CE74FF4296287E7E2
:105688001DF094F90028BCD03246039816991CF0F6
:10569800C5FE84F82100B4E70CF094FB09900028BB
:1056A80000F0088114F0CCF80546002800F0FF80CF
:1056B800203005F0A1F905F11C030893002840F0FB
:1056C800E680032105F124001DF0F6FB4FF6FF7379
:1056D800D5F88800A5F82CB0A5F82AA02B850028B5
:1056E80000F0E0804FF0000B05F17C0205F1780135
:1056F80004F0C8FFB5F87630012123F4EF6323F0F6
:10570800070343F4887343F00103A5F8763095F84E
:105718008E30284623F0070385F88E30C5F888B008
:10572800A5F88CB015F0C2F87F23C5F82EB085F81F
:10573800D230A5F832B005F134001BF0D9FB95F84A
:105748003930012160F3050385F839300DF12F0058
:105758001DF0B2FB059B4FF4C022A5F8903140F232
:10576800E24303FB0AFA574B9DF82F105344B3FB4F
:10577800FAF3C5F88C21544A85F83BB0A2FB010224
:10578800D20802EB4202A1EB820195F839200531DB
:1057980002F03F0285F8392095F83C2085F83A1048
:1057A800A98D22F0030285F83C20881D9AB2824216
:1057B800A5F892B1A5F888B1A5F88A2102DD063AC4
:1057C800521A92B24FF0000BA5F88621284616F01F
:1057D8003DFF5146284616F0ADFF099B85F848B1B4
:1057E800C5F8503195F878316FF3000385F87831B2
:1057F800039B03F0010A14F0AFFB95F8983160F3AE
:10580800020385F8983114F0ADFB95F8983160F3F0
:10581800C50385F8983195F8843105F1D4006BF308
:10582800410385F8843116F0C9FC3123AB6095F843
:105838009E3106226AF34103169985F89E31C5F810
:1058480004B0C5F80CB005F2A51029F0F9FD95F8DB
:105858009E31062269F3000385F89E31049905F20A
:105868009F1029F0EDFD05F11C036360C5E905BB38
:1058780085F800B0ED6177E600201CF04BFC94F849
:105888002030B94643F0800384F82030BEE6C323B5
:105898000E490F480F4A29F01BF9C3210D4828F07B
:1058A800C6FD0EE705F18000C5F888001AE70998DB
:1058B8000CF08EFA0720C9E68D49FD1A0700000092
:1058C80000CA9A3B7FC3C901ABAAAAAAC01903019F
:1058D800BC1503011C2903012DE9F04F0446274696
:1058E8008DB017F8208F15460E4606220AA804F137
:1058F800280129F0A5FD94F82090FB07C8F3C018EB
:10590800C9F3401900F11A8100232384B17C0622CF
:1059180011F00101777C04F12F0000F0F98004F107
:10592800220129F08DFDFF2F04F1290B04F1230A30
:1059380000F0F7805246384604F122011BF0C6FEFB
:1059480094F822305846023306220AA984F82230F5
:1059580029F076FD3368D3F80080EB89E3862B8A3B
:105968002387B8F8303063871DF01AFE84F83C00AE
:105978002F68384613F070FF03460021AB81384684
:10598800E38016F0EBFE2146206874680CF032FACA
:105998001C23AA89D4F800A0E2802371B9F1000F72
:1059A80040F0D9802146504684F820900CF032FA15
:1059B800D7E90123934238BF134640F2E24295F8F3
:1059C8005A00ED89C0F3C00100F0070003F10F0988
:1059D80002FB05F5F4681DF0DDFB203400220221EE
:1059E800241A012004F0BAFE404611F08BFE02464C
:1059F8006B48A4FB0001144667A3D3E90023FAF718
:105A080057FB8246CDF80480B368664AA3EB0903C6
:105A180000922AF07F4A04F10D0201210020D2B23F
:105A2800534406F027FB10F0FD0F0BD05E495F488A
:105A380040F2E6335E4A29F04BF840F2E6315C4822
:105A480028F0F5FC012011F091FE044688B180454C
:105A580000F09980204611F055FE02460D320121D2
:105A68000020544B0094D2B206F0C8FA10F0FD0F93
:105A78007CD14FF000080C22012143464046CDF866
:105A8800008006F0BBFA384613F0E6FE42A3D3E9DD
:105A9800002304464248B668A5FB0001FAF708FB54
:105AA80040F2164108914449069707914349054633
:105AB800059139691046CDE903814FF47A72194688
:105AC8000023FAF7F5FA01461334A6EB0906E4B207
