:10000000007D0020455100002F6C010019510000B7
:1000100019510000195100001951000000000000A2
:10002000000000000000000000000000094900007E
:100030001951000000000000B548000019510000EF
:10004000B9490000E9EA0000B9490000B9490000D7
:10005000B9490000B9490000B9490000B949000098
:10006000B9490000B9490000B9490000B949000088
:10007000B9490000B9490000B9490000B949000078
:10008000B9490000B9490000B9490000B949000068
:10009000B9490000B9490000B9490000B949000058
:1000A000B9490000B9490000B9490000B949000048
:1000B000B9490000B9490000B9490000B949000038
:1000C000B9490000B9490000B9490000B949000028
:1000D000B9490000B9490000B9490000B949000018
:1000E000B9490000B9490000B9490000B949000008
:1000F000B9490000B9490000B9490000B9490000F8
:1001000053B94AB9002908BF00281CBF4FF0FF317E
:100110004FF0FF3000F00CB8ADF1080C6DE904CEE3
:1001200000F008F8DDF804E0DDE9022304B07047D0
:10013000704700BF2DE9F04786468C460846089E6A
:10014000154674461946002B40F0C2808542B2FA2B
:1001500082F245D94AB1C2F1200300FA02FC2EFA1C
:1001600003F3954043EA0C0C94404FEA154EA8B2B5
:10017000BCFBFEF8230C0EFB18CC08FB00F943EA8D
:100180000C43994528D9EB1808F1FF3704D299455B
:1001900002D9A8F102072B44A3EB0903A4B2B3FBD5
:1001A000FEFC0EFB1C330CFB00F044EA0344A042AF
:1001B00014D92C190CF1FF3304D2A04202D9ACF1AE
:1001C00002032C44241A43EA07401EB1D440002302
:1001D00034607360BDE8F0874746DDE76346F1E7CA
:1001E00092BB431B01214FEA154EAFB2B3FBFEFC9D
:1001F000200C0EFB1C330CFB07F840EA0343984528
:1002000062D9EB180CF1FF3004D2984502D9ACF159
:1002100002002B44A3EB0803A4B2B3FBFEFC0EFBCD
:100220001C330CFB07F744EA0344A7424ED92C19B0
:100230000CF1FF3304D2A74202D9ACF102032C44E3
:10024000E41B43EA0040C0E7C2F1200320FA03F1B7
:10025000954090402EFA03F303434FEA154EAFB298
:10026000B1FBFEFC0EFB1C10190C0CFB07F841EA5D
:100270000041884504FA02F422D969180CF1FF30D4
:1002800004D2884502D9ACF102002944A1EB08014F
:100290009BB2B1FBFEFC0EFB1C110CFB07F743EA03
:1002A00001439F420ED9EB180CF1FF3104D29F425B
:1002B00002D9ACF102012B44DB1B41EA004192E779
:1002C0006046E3E76146F7E76046A3E76346B7E7C2
:1002D000834206D916B9002108467BE7C6E900E04B
:1002E000F9E7B3FA83F78FB9834201D3724508D88F
:1002F000BEEB020460EB030301209C461EB9002103
:1003000068E73846FAE7C6E9004CF8E7C7F1200C81
:10031000BB4022FA0CF41C432EFA0CF120FA0CF329
:10032000B84001434FEA14490EFA07F5B3FBF9F858
:100330001FFA84FE09FB18300B0C08FB0EFA43EA87
:1003400000439A4502FA07F240D9E31808F1FF305A
:1003500004D29A4502D9A8F102002344A3EB0A0370
:1003600089B2B3FBF9F809FB183308FB0EFE41EA2A
:1003700003418E452CD9611808F1FF3304D28E4514
:1003800002D9A8F10203214443EA0040A0FB0298ED
:10039000A1EB0E014145CE46434602D306D14D4561
:1003A00004D2B9EB020E68EB04030138002EA6D08C
:1003B000B5EB0E0261EB030101FA0CFC22FA07F324
:1003C0004CEA0303F940C6E9003198E74046C5E727
:1003D0004346D9E7000000002DE9F0470F46D0E979
:1003E0000BA1D0F83490DFF8688001EB09043034B9
:1003F000A245164614A3D3E9002314D8A1FB080193
:10040000FFF77EFE10A3D3E90023A4EB0A0420F03B
:100410007F45A4FB0801FFF773FE20F07F403D609D
:100420003060BDE8F087AAFB0801FFF769FE20F005
:100430007F4509F1300004A3D3E90023A0FB0801A4
:10044000E9E700BFAFF300808D49FD1A0700000007
:1004500000CA9A3B000000002DE9F047044690F8DE
:10046000440094F82030404F6FF3000084F84400BB
:10047000C0F3800060F386138CB084F8203004F160
:100480002D0117F0E7F8A68E94F82030E4610025DE
:10049000A6FB07014FF0910C03F079030CFB06114A
:1004A000C4E9055584F8203025702DA3D3E9002335
:1004B000FFF726FE3123C4E90235A36B65600E33D6
:1004C00098428EBF2361A5632061284D064617F030
:1004D000BBF802230B93651B5423B5FBF3F5244BA8
:1004E000CDE906430DF12C0A224BCDF820A005934F
:1004F000236904934FF00009CDF80C90B4F834C090
:10050000B8464FF0910E00F10E07ACFB08010EFB50
:100510000C1113A3D3E90023FFF7F2FD104619468F
:100520004FF47A720023FFF7EBFD0235EDB2CDE90F
:1005300001600321CDF800903B462A46484608F06A
:10054000FDFD51460BF012F840B994F8443043F0E9
:10055000020384F844300CB0BDE8F0870C20FAE7C1
:100560008D49FD1A07000000002AE784205300206F
:100570007DB10000E5BD00002DE9F04105460020F9
:10058000164698460BF06CFE0446A8B36B0813F0B1
:10059000040731D190F82C2031B967F3020280F8BA
:1005A0002C203846BDE8F08163F3020290F8443015
:1005B00080F82C2068F3830380F844309DF81830CD
:1005C00081866D01DB0003F0180305F020051D4353
:1005D00090F8203023F038031D4380F820500A485B
:1005E0009125A6FB000106A3D3E9002305FB061114
:1005F000FFF786FDA063D4E70C27D2E7AFF30080B6
:100600008D49FD1A07000000002AE7840000000061
:100610002DE9F04F0B7995B0063B12900D46072B54
:1006200000F28681DFE813F0080084015F0080009B
:1006300084018401840158018B680C939B685BB131
:100640009C4A9D499D488E2315F0ADFD404080F3A6
:1006500011884FF0030002DF0C9B1E6896F84930AA
:100660001A0754BF336D002330460B930BF0BEFDC9
:100670000230C3B2109301234FF000080F93474696
:100680004446C146CDF84480CDF83880129B6A7E3E
:100690002B60002363F3C7126A7695F82120EB6084
:1006A00032B195F82210880640F07881013AD2B232
:1006B000002F00F040813B68B3F8A4100A44AA83DD
:1006C0000022A3F8A4200B9B4BB196F8493003F00D
:1006D0003002202A1CBF6FF3051386F84930002C26
:1006E00040F0048448E18B680C939B685BB1714ACD
:1006F00071497248A02315F056FD404080F31188DF
:100700004FF0030002DF0C9B1E6896F849301B0770
:1007100054BF336D002330460B930BF067FD02305E
:10072000C3B210930423A7E7D1F80890D9F800408A
:1007300020460CF0ABF800283DD0A36A0C9333B3ED
:100740005F493C22204616F0D4FD0330C3B210931B
:100750000C9B1F6838460BF05DFD99F8053003F0DF
:10076000070306460F9300287CD10D232B713846D2
:100770000CF09EFBE8804FF00008D7F8A0301193F2
:100780003746CDF82C804646CDF838807EE7494A7A
:100790004C494A48B82315F006FD404080F31188C3
:1007A0004FF0030002DF46493C22204616F0A1FD2F
:1007B0000C9B1B68FFDE20460BF02CFDAF680C90F5
:1007C00020B3D7F808900C97B9F1000F0BD1394A34
:1007D0003D493A48C92315F0E6FC404080F31188B2
:1007E0004FF0030002DFD9F80040A36ABB420BD0F0
:1007F000304A36493148CC2315F0D5FC404080F3CF
:1008000011884FF0030002DFFF23A0E7D7F83C90E8
:100810003E46B9F1000F0BD1264A2B492748D82371
:1008200015F0C1FC404080F311884FF0030002DF57
:10083000D9F80040A36ABB420BD01E4A24491F4886
:10084000DB2315F0B0FC404080F311884FF003002B
:1008500002DF99F805303F6803F007030F93FF2389
:10086000109382E790F84920170754BF026D0022C9
:10087000022B0B9210D0042B18D0012B18D0FD2383
:100880000C4A14490D4815F08EFC404080F3118845
:100890004FF0030002DF04E2072395F819802B7163
:1008A0000027C8F3800811970E97EFE60823F4E7B6
:1008B0000623F2E768B90100F9B9010031A6010089
:1008C000A0530020B1B90100FFB901000CBA01002A
:1008D00007BA0100F4C201008F68FB6B63B1A64A3E
:1008E000A649A7484FF4907315F05DFC404080F393
:1008F00011884FF0030002DF3C6820460CF0D8FA64
:10090000E880D4F8A0301193FB7A03F007030F932B
:100910002046EB680E930CF0CBFA04304FF0000841
:10092000C3B2CDE90B88109346464446C146ADE6B6
:1009300040F23F13A4E7D4B1A38E1A440B9B92B2AA
:10094000A286AA83002B40F0DC82236B002B40F0B0
:10095000D082894A8B498A4840F2EB2315F023FC68
:10096000404080F311884FF0030002DFD9E20B9B77
:10097000AA83002B40F07982129829460AF078FD6C
:100980000E9B33B10E9A01231068137111460AF0C1
:100990006FFD15B0BDE8F04F0AF070BD95F923105A
:1009A00095F823200029FFF68EAED10705F1240B20
:1009B00011D50B9A6AB196F8492002F03002202A2C
:1009C00007D095F820105A46C1F38011304617F031
:1009D00003F905F12A0B95F823309A0748BF0BF16C
:1009E000060B580748BF0BF1010B13F008021CBFA0
:1009F0005A460BF1020B13F0100116BFCDF834B0BC
:100A00000D910BF1030B990605D50B9B0BB1002A39
:100A10004FD10BF1120B95F8233095F8222095F861
:100A200021A05B0648BF0BF1010B05F12201C2F3C7
:100A30000502ABEB01010132C9B2D2B291429DBFB6
:100A4000511ACBB2114600232A798A4586BFAAEBF8
:100A5000010A5FFA8AFA4FF0000A0D2A0ED16BB133
:100A60001A46A879139359460CF092FC119B2BB1AE
:100A7000139B11985A46294600F00AFC0D9B002B47
:100A80004DD09A780D991302497803F4F8530B432B
:100A900045D0B8F1000F1AD15F2A40F28F80002FA5
:100AA0004BD03A68B2F8A4305344AB83A2F8A48088
:100AB00009E651783046090917F0BCF80028A8D09B
:100AC0005B462A462146304600F062FAA1E7DFB9CC
:100AD00054B1A38E53449BB2A386AB83236B2BB13B
:100AE000236BDD602563DCE0A5F81CA0224A2649C3
:100AF000234840F2DD1315F056FB404080F3118887
:100B00004FF0030002DFEBE73A68B2F8A430534439
:100B1000AB830023A2F8A430002CDFD1E6E707B3B3
:100B20003A68B2F8A4305344AB830023A2F8A4304F
:100B3000B8F1000F3FF4C7ADEEE73CB3A38E5344CA
:100B40009BB2A386AB830B9B002B00F0CF8196F862
:100B5000493003F03002202A00F0C8816FF30513FA
:100B6000C2E12CB3A38E53449BB2A386AB83B8F1EE
:100B7000000FE8D0B2E700BF68B901001FBA01005A
:100B800031A60100ACB9010032BA0100A5F81CA0E1
:100B90000B9B002B3FF4F0AE96F8493003F0300287
:100BA000202A3FF4E9AE6FF3051386F84930E3E6F7
:100BB000A5F81CA0B8F1000FEAD097E7002C73D17C
:100BC000B94816F061FB0446F8B9AB7ED80742BFBE
:100BD0006B7E43F080036B76002F00F05081396804
:100BE000B1F8A4305344AB830B9B0022A1F8A4209E
:100BF000002B3FF4C1AE96F8493003F030012029B4
:100C00003FF4BAAE62F30513CFE790F8203080F8D6
:100C1000008068F3C71380F820300C9BA0F834A044
:100C2000002B08BF3B46C0E90B88C0E905888362FA
:100C30000E9BC06100F11C098363002F38D03B6814
:100C4000B3F8A42092441FFA8AFAA3F8A4A00D9B3B
:100C5000A5F81CA01A7899F8043062F3050389F806
:100C600004300D9B9A7801235209934099F805208E
:100C700063F3020289F80520AB7E13F0010224D051
:100C80006B7E43F080036B76DFB11298C7F83C901F
:100C9000294616F0C5FE99F804306FF3861389F8DB
:100CA000043015B0BDE8F08FA38E5344A386C4E78B
:100CB000236B23B1DD60B4F834A02563C7E7E56298
:100CC000F9E70C9BC3F80890E5E70C9B002B00F0BC
:100CD000B08096F8443013F0010340F0FB800C9A8A
:100CE00093600D9B0D9A93F9003099F805006F4FB2
:100CF000002BACBF1E234FF49673C9F8083092F84E
:100D0000028052784FEA082808F4F85848EA0208A6
:100D10000D9A127812F0400F14BF32224FF4FA727B
:100D200003FB08F802FB08F2B2FBF7F703EB4703FB
:100D30004033C9F80830012100F0070017F0F1F83E
:100D40000F9B95F821206E6903F0030313440F9A5B
:100D50000933C2F34002DB00D340303EF61A46446A
:100D600031234FF00008C4E90183C4F80C8099F8DE
:100D70000530DFF83C9103F003010931C3F3400370
:100D8000C900D94001F50471361A084444A3D3E9D7
:100D90000023A0FB0901FFF7B3F920F07F40206199
:100DA000F01B3FA3D3E90023A0FB0901FFF7A8F93B
:100DB000109BFF2B20F07F4619D02B69109A3F3BE8
:100DC000CDE9008833440121404608F047FA10F08D
:100DD000FD0F0CD0374A384938484FF42B7315F0C3
:100DE000E2F9404080F311884FF0030002DF3449FC
:100DF0003C22204616F07DFA32492B690894CDE951
:100E000006413149059121690491C21C0020CDE9B8
:100E10000200CDE900603F3BD2B2012108F08EF91B
:100E200010F0FD0F3FF43DAF224A28494FF42F73D5
:100E300028E527B1FB6B7BB1FB6B4B450CD01D4A02
:100E400023491E4840F2562315F0ADF9404080F387
:100E500011884FF0030002DF3B6893F86E30D9062B
:100E60005AD4C7F83C90E5623BE796F8493003F066
:100E70003002202A3FF480AD64F3051395E60B9B06
:100E8000002B3FF479AD96F8493003F03002202A68
:100E90003FF472AD67F3051387E600BFAFF3008040
:100EA0008D49FD1A070000009C53002040420F00AE
:100EB00000CA9A3B68B9010087BA010031A6010057
:100EC000A053002039C40000E9C40000B4BA0100F6
:100ED00046BA01000B9B4BB196F8493003F0300144
:100EE000202903D062F3051386F84930236B002BC9
:100EF00042D096F84420D20727D59D427FF4F1AD29
:100F0000CFE696F8493003F03002202A1CBF67F381
:100F1000051386F8493018E50B9B73B9236B002B3A
:100F2000E7D11298294616F07BFD3B6893F86E30A6
:100F3000DB060CD5FB6B53B1B3E696F8493003F0F2
:100F40003002202A7FF40AAEE8E7DD602563A36A59
:100F500063B90B4A0B490C4840F2F52315F023F90D
:100F6000404080F311884FF0030002DF204615B0A7
:100F7000BDE8F04F0BF0D6BB002FD2D1E9E400BFA3
:100F800068B9010013BA010031A601000000000099
:100F90002DE9F04F046D94F83E6084F83F604FF007
:100FA000060A0AFB064808F132088DB00546894654
:100FB0009346191D052240461F4615F06CFE98F811
:100FC000043003F01F0388F804300521404616F072
:100FD000E0F90AFB064600F03F0096F8373001289A
:100FE00060F3050386F8373040F2358195F84930D3
:100FF00094F86E20C3F3010363F3000284F86E20BB
:1010000005F14A01524604F1200604F1680015F08A
:1010100042FE042207F10901304615F03CFE30463D
:1010200016F086FE0322208607F10D0104F124004C
:1010300015F031FE3B8AE38599F8212094F827309A
:1010400062F3020384F82730B7F802A0B4F85E20F8
:1010500040F2E2431FFA8AF803FB08F808F1FF3375
:1010600042F2107101FB0233B3FBF8F39BB2A4F818
:101070006030B4F860309BB2062B40F2EF80B4F8D9
:101080006030B4F85C20063B9BB29A4201D9A4F8C8
:101090005C3094F86E30062262F3471384F86E30A9
:1010A00097F8089094F828304FEA591969F3C50366
:1010B00084F8283016F065FF064648460EF07EF9A3
:1010C000321808FB02F202F57422674B02F23F224B
:1010D000B2FBF3F24FEA5803963B6264A3647B7859
:1010E00013F0200F0CBF1E234FF49673636595F821
:1010F0004930022262F3051385F8493020460BF08F
:10110000D7FED4F898300C229D60A3F822A01A7163
:10111000D88094F8272083F82490C2F3020283F841
:101120002120064694F82700012100F0070016F060
:10113000F8FE7D7897F800C0626D94F8277005F08E
:101140001F034CEA032CDBF81430A3F1300102FB3F
:101150000C129BF8211007F0030319440931C7F35F
:101160004007C900F94015F0400FA2EB01020CBF87
:1011700000254FF41615121A03F109012A44C9007B
:101180000B92F940626C394F01F504714FF0000980
:10119000A8EB020808443122C4E90192C4F80C907B
:1011A0002FA3D3E90023A0FB0701FEF7A9FFA8FBAB
:1011B000078520F07F4A2E4B6366C4F810A028A351
:1011C000D3E9002340462946FEF79AFFDBF81030AA
:1011D000CDF80C90A3F13F0B4FF456730893254BB9
:1011E000CDE90643244BCDE904A3244B20F07F44F2
:1011F000A4FB03310722B8EB030002FB041165EBEB
:1012000001014FF47A720023FEF77AFF0B9914A3C1
:10121000D3E90023CDE90140A1FB0701FEF770FFF0
:10122000043620F07F40F6B200905B463246012142
:10123000484607F083FF10F0FD0F0CD0104A11490B
:10124000114840F2593314F0AEFF404080F311884A
:101250004FF0030002DF0DB0BDE8F08F002316E76A
:101260008D49FD1A0700000040420F0000CA9A3B5A
:10127000AD0F0100F1CB000031CB00008D49FD1A0C
:1012800038BB010001B9010031A6010000000000D7
:101290002DE9F047044690B00F4615463BB12E7835
:1012A00046B16A782C2A0CD0721C934203D210B03B
:1012B000BDE8F08701229B1B013B03F0FF031544AF
:1012C000ECE7222BF3D9222E01D03A2EEFD10422C3
:1012D00005F10F0104F1240015F0DDFC04F13E08D6
:1012E000022205F1170104F1280015F0D4FC0522B3
:1012F00005F11901404615F0CEFC94F8423003F098
:101300001F0384F842300521404616F042F894F855
:10131000433000F03F0060F30503012884F84330B8
:10132000C5D9D4F818310022C3F8A020697F012361
:1013300049098B4094F8451063F3471184F8451030
:101340006B7994F84410DB0863F3040184F84410CB
:10135000A97994F84430490961F3471384F844307B
:10136000A87994F8453060F3040384F84530287A6E
:10137000EB7943EA0023687A84F848301B0A84F842
:10138000493094F84A3000F00F0023F00F03034374
:1013900084F84A30687BDBB200F00F0C03F00F03D7
:1013A00043EA0C1384F84A3094F84B3023F00F03CF
:1013B00043EA101384F84B30687ADBB2000960F31B
:1013C000071384F84B30DBB20F2B94F8533098BFDF
:1013D000114661F3071384F85330E97AAB7A43EA94
:1013E0000123297B84F84C301B0A84F84D3094F893
:1013F0004E3001F00F0123F00F030B4384F84E3001
:101400002B7B94F84F101B0963F3071184F84F10DE
:10141000297DEB7C43EA0123697D84F850301B0A67
:1014200084F8513094F8523001F00F0123F00F038B
:101430000B4394F83C1084F85230AB7FA36362F303
:10144000060184F83C10EA7F43EA0223CAB26FF334
:10145000060284F83C20A36395F8202043EA024367
:1014600094F83C20A3636FF3060284F83C2095F8BF
:10147000212043EA0263A36394F83C306FF3060330
:1014800084F83C3095F82220DBB262F306031A069A
:1014900084F83C3040F160813A2E40F05D81B44BDD
:1014A0000B93082205F1230104F1570015F0F3FB1B
:1014B0000CAB0BAA05F12B0104F5917015F091FE10
:1014C00060B1AC4AAC49AD484FF4DD7314F06BFE2B
:1014D000404080F311884FF0030002DF94F877302A
:1014E00043F00103042204F15B0184F8773004F136
:1014F0005F0604F17C0015F0CEFB10220CA93046EB
:1015000015F0FCFE1C230022A4F8003184F802210F
:1015100004F18C0304F1FC0143F8042F9942FBD140
:101520002E79EB78760046EAD3166B7903F0070341
:1015300046EA432640F2E243668516FB03F6B4F81A
:101540001C3142F2107202FB0363013BB3FBF6F362
:101550009BB2A4F81E31D4F8183193F8289016F0F5
:1015600010FDC9F3C209804648460DF027FF08EB7D
:101570000003734303F57423814A94F8450003F292
:101580003F23B3FBF2F3C4F804317308963BC4F86D
:101590000831EB7813F0400F0CBF1E234FF4967305
:1015A000C4F814310121400916F0BBFCEB7895F822
:1015B000029003F03F0349EA0329D4F8143180462E
:1015C000B4F88C0003FB09F90CF066F9D4F8183173
:1015D00097F8211093F827207D6902F003030B444C
:1015E0000933C2F34002DB00D340403D94F84F1072
:1015F00094F84420ED1A94F85330090952091B0954
:1016000001FB0233A26CC2F31302534342784D44F0
:10161000A5EB0805013A02FB035500233122C4E97A
:101620000132E36094F83C3094F845205B09C2F342
:10163000411103F004030B4403F58473C2F38012D9
:10164000DB00D34003F5047303EB0800DFF83481BB
:1016500045A3D3E90023A0FB0801FEF751FD20F0CC
:101660007F4041A3D3E900232061A5FB0801FEF7D9
:1016700047FD3B6920F07F493F3B994415F0E4FF6B
:1016800000F10E01484615F0E1FF030218D5D4F829
:10169000042194F84410B31A1D44D4F810311344B3
:1016A000C4F81031A26B94F83C304909C3F306002A
:1016B000521840F1000161F30603A26384F83C3044
:1016C000314B324ADA6020460BF0C6FE26A3D3E93E
:1016D00000238146A6FB0801FEF712FD194640F2E1
:1016E00032233F6908932A4BCDE90643294B0593E2
:1016F000236904934FF6FF73824603931046002339
:101700004FF47A72FEF7FCFC17A3D3E90023CDE96E
:1017100001A0A5FB0801FEF7F3FC09F1050620F086
:101720007F403F3FF6B200903B4632460121002009
:1017300007F004FD10F0FD0F3FF4B9AD0D4A164956
:101740000E4840F2332314F02EFD404080F3118800
:101750004FF0030002DFAAE594F83C306FF3C713A3
:1017600084F83C30CEE600BF8D49FD1A070000002A
:10177000334749426ABC0100B8B7010031A60100F5
:1017800040420F0000CA9A3B78050020D1180100A2
:1017900065D500006DD4000001B901000000000013
:1017A00038B5134B984205460C460BD9114A1249DD
:1017B0001248762314F0F7FC404080F311884FF074
:1017C000030002DF0E4BE117E41841F1000160193C
:1017D00041F1000104A3D3E90023FEF791FC104678
:1017E00038BD00BFAFF30080E27F841E0000000020
:1017F000E17F841E6EBD0100C2BD010031A6010063
:10180000E27F841E0000000038B5144615F01CFF6E
:10181000214615F01BFF044610F4000021D10334CB
:101820000E2C1DD9124A1349134840F2D91314F053
:10183000BAFC12480725A4FB00010BA3D3E900233F
:1018400005FB0411FEF75CFC0D4902460D4814F03F
:10185000AAFC404080F311884FF0030002DF012012
:1018600038BD0020FCE700BF00CA9A3B0000000022
:1018700077BE0100F4C2010031A601008D49FD1AB6
:10188000DDBF01008ABF01002DE9F04F89B0044699
:1018900010F0E4F9C0B2002842D116F04BFB94F8E6
:1018A0003460C6F3C406013EF6B200254FF01C08B2
:1018B0002F464FF0010A08FB06F994F8342094F8FB
:1018C000240002F00703B3EB501F4FEA501EC0F094
:1018D000F38194F82FC094F832B04FEA1C1CBCEB93
:1018E0001B1F4FEA1B1140F2E482002F40F0D6820A
:1018F00013466AF3020384F8343001315B4661F326
:10190000071384F8323094F8E2304B441C3354F817
:101910002330002B00F0E9810135EDB20127CCE73F
:1019200010F0BCF9C7B210F0AFFA514A1378013386
:10193000137010F0C5FBB0BB4E4BB4F86C001F70B9
:1019400016F0A0F994F8341094F8333094F8246029
:10195000C1F30205C3F303021544627F013DC2F3E4
:101960000002154494F8322012097609013A02FB6C
:10197000065594F82F201B09120902FB0633427802
:10198000C2EBD10203FB0255A36AEDB2C3F313030A
:101990005D4310F089FB401B10F08CFB10F096FBB0
:1019A000401B10F099FB16F0C5FA94F83420D108CA
:1019B0004E1EF6B2002F3FF478AF94F8243002F0B8
:1019C0000702B2EB531F57D194F82F2094F832003E
:1019D0001209B2EB101F4FD194F8332002F00F0020
:1019E000B0EB121F48D103F01F038B4244D1637F39
:1019F000DD0741D5C3F3021262F34303637710F0AE
:101A00005BF9037803F00303032B05467FF44DAF26
:101A1000C378012B0CD194F86630002B7FF445AFCE
:101A2000037984F86630B0F80530A4F868303CE7F4
:101A3000002B7FF43AAF94F8653098067FF435AF09
:101A40002F1D0521384615F0A4FC01287FF62DAF87
:101A500094F8653060F3050384F865300522394653
:101A600004F1600015F017F9B5F80930DDE700BFA3
:101A7000805D00207F5D002002200CF0FBF8054611
:101A800000283FF412AF844F3B784BB990F82120E7
:101A900000F120010332814815F0FDF801233B706D
:101AA00095F82020910609D5637FC2F38202C3F323
:101AB000420191421CBF62F30613637794F8E2205F
:101AC00094F8343094F82B10C3F30203013A1A440B
:101AD00094F83330C1F30311C3F3030313FB012361
:101AE000DFB294F8353094F8E02003F01F0304EBE4
:101AF0004303BA42B3F86C8098BFBA1A404698BF05
:101B0000D7B216F0BFF894F834204378B3EBD20F75
:101B10007FF4CBAE95F82130002B3FF4C6AE4FF0EA
:101B20001C0919FB067904EB8909D9F87030002BE0
:101B30007FF4BBAE94F8E230BB4204D994F8E130B4
:101B4000BB427FF6B2AE94F91C30002B1FDA10F0C6
:101B500023FB60B9524A5349534840F20F3314F003
:101B600022FB404080F311884FF0030002DF10F0A9
:101B700031FB60B94A4A4D494B4840F2123314F0E8
:101B800012FB404080F311884FF0030002DF0CF09D
:101B900091F80423A5F806802B7194F8247094F82A
:101BA0002B10A26994F833007F09D940D21B237F00
:101BB00094F83470C3F3060307F0070763F10003DA
:101BC000013FD21903F07F0343F1000300F00F003F
:101BD00003F07F03E0FB0123AA602A7B63F3060284
:101BE0002A73B4F86C0016F04DF8039010F02AFA3E
:101BF000049010F065FA94F824A094F833804FEA2A
:101C00005A1A08F00F030AF1FF32134494F82B20FC
:101C100093FBFAF3120953436289534340F2E242C1
:101C200002FB030794F82500400916F0AEFA049968
:101C300083461F484FF0070EA1FB000C14A3D3E905
:101C400000230EFB01C1FEF75BFA94F82F304FEA38
:101C500018181B0903FB0A88A36AC3F3130303FBC9
:101C600008F8039B5B78A7EB0B07013B074403FBDA
:101C70001877104BB7FBF3F203FB1277AB892F6198
:101C80006FF3CE13AB81C9F870500EE6AFF300804E
:101C900000CA9A3B00000000815D0020825D0020A8
:101CA00036C1010057B8010031A6010098C10100FA
:101CB0008D49FD1A0080841E013303F0070363F38E
:101CC000020284F8342094F8E220013A134494F894
:101CD000E020DBB29A429CBF9B1ADBB24B441C3320
:101CE00054F82330002B40F03C8194F834B04FEA94
:101CF000DB0B07AA211D584615F05CFB07A816F060
:101D000017F804F10801022207460DF119008DF8B9
:101D100018B014F0C0FF07A80FF026FF9DF81A10A6
:101D2000BDF8183040F25B6043EA01410FF0AAFFB2
:101D3000BBF1000F40F0778294F867000DF0F8F9DE
:101D400094F91C30002B80F2128394F82420A669A9
:101D5000237F5209C3F30603B61A63F100050FF09F
:101D6000ABFF05F07F058046C4F8535004F15805D9
:101D7000042204F13701C4F84F60284614F08BFFA9
:101D800007AA2946284615F0E0FA94F8251042469D
:101D9000490904F13F0010F0BFF90FF025FF10F0E2
:101DA0004DF8B4F86C0015F06DFF94F8345094F8C9
:101DB000332094F82460C2F30301C5F302030B44FB
:101DC000617F013BC1F300010B4494F83210090913
:101DD0007609013901FB063394F82F10120909091D
:101DE00001FB06224178C1EBD50102FB0133DEB2D3
:101DF000AF4BA56A93F80080C5F313057543B8F19E
:101E0000000F00F0B78210F05BF9804694F82500CF
:101E10000121400916F058FA94F825305B09024672
:101E2000184616F0B2F9043D454401218046184693
:101E3000AD1A16F047FAA5EB0805291A002010F094
:101E4000DBF800EB8605113594F8250001214009E7
:101E500016F038FA94F825305B090544184616F058
:101E600094F901210544184616F02EFA284410F082
:101E7000FBF810F03DF9217F94F82420A06900239D
:101E8000520901F07F01FEF73BF9411E3A4689B243
:101E9000204616F084F909B0BDE8F08FACEB0101E3
:101EA0005B4601FB0E5E6CF307130EF0FF0584F832
:101EB000323094F8333003F00F01B1EB131F4FEAC7
:101EC000D20B05D2013161F3030384F8333010E7FC
:101ED00000F01F0058454DD994F8351094F86AC0A9
:101EE000C1F304030133DBB29C4561D903F01F0346
:101EF0000A4663F3040204EB430384F83520B3F885
:101F00006C0015F0BFFE94F8243090F801B003F097
:101F10001F02934528D8658E94F82F104FEACB0204
:101F200042F0010225F47F6545F0100584F8342065
:101F30000BF1FF326586D2B25B090909C5F303359F
:101F400001FB0355931B013B15FB03F594F8E230AD
:101F500008FB02331C33EDB254F82330002B3FF45E
:101F6000C8AE0135EDB2A8E494F8343062F3C7038B
:101F700084F83430637F13F0010B1FD1C3F30212D6
:101F8000C3F342018A4219D094F8252043F001039B
:101F90006377C2F3421294F91C30520042F00102FE
:101FA000002BD2B208DA0C2108200FF0F5FDA0E6D4
:101FB000134660F3C703DBE70821F5E794F83530F3
:101FC00094F8E2906FF30403002684F83530354628
:101FD00094F82430F7B203F01F03BB4222D884F8F0
:101FE000E2900DB109F04AFA09F07EFC064660B9AC
:101FF000304A3149314840F2234314F0D4F840408C
:1020000080F311884FF0030002DF94F86650002D32
:1020100000F0BF8006233370204609B0BDE8F04FC2
:102020000DF0B8B894F8353003F01F0304EB430308
:102030000137B3F86CA0504615F024FE4378FFB288
:10204000BB4217D194F8243094F8E280DFF870B0E6
:102050005B095F1EFFB27BB994F8352094F86A10D3
:10206000C2F304030133DBB2994284BF63F3040279
:1020700084F835200136ABE71C2303FB068304EB11
:1020800083031D6FF5B100221A67286829460BF0FB
:1020900027FE94F8E03008F101095FFA89F94B4511
:1020A0008CBFC8464FF00008C1463B46D1E700BF91
:1020B000805D002036C101006A9D010031A601004B
:1020C0000080841E02200BF0D5FD05460028E0D0DC
:1020D0000BF0F0FD95F82030A5F806A06FF3010392
:1020E00085F82030002385F8213004232B71A26964
:1020F000237FD21BC3F3060363F10003013AAA60F6
:1021000003F07F032A7B43F17F0363F306022A7304
:10211000B4F86C0015F0B6FD03900FF093FF059036
:102120000FF0CEFF049094F82500A54B400916F05F
:102130002CF8059981464FF0070EA1FB030C0EFB0E
:1021400001C19DA3D3E90023FDF7DAFF049B94F8B6
:102150002F1094F82420A3EB0903184494F833308B
:10216000520909091B0901FB0233A26AC2F31302D7
:102170005343039A5278013A02FB1300B0FBFBF37E
:102180000BFB1300AB892861012262F3CE13AB81F4
:102190007BE794F865309A0623D0217F94F82420B9
:1021A000A0692B46520901F07F01FDF7A9FFB4F8A1
:1021B0006830C01A030414D4052204F1600104F14C
:1021C0001E0014F068FD94F8652094F82330C2F3E3
:1021D000050161F3050365F3050284F8233084F8F3
:1021E0006520052377493370774BB27909781B78DE
:1021F000B38061F30002B271002B3FF40DAF94F88D
:102200002500400915F0C1FF30610FF059FF054668
:102210000FF068FF2D1AB560D4F8F030F36000239A
:10222000C4E93C33F8E6002D3DD194F836000CF0BB
:102230007FFF94F91C30002B80F2848094F82410E6
:10224000A26994F83460237F94F833004909521A44
:1022500094F82B1006F0070600F00F004FEA11115A
:10226000C3F3060306F1FF3600FB016663F10003CA
:1022700003F07F03B6184FF0010043F100050BF0A7
:10228000F9FC804660B9514A5149524840F2A64390
:1022900013F089FF404080F311884FF0030002DF04
:1022A00008F1200860E594F83430C3F3C403013B1F
:1022B0005FFA83F8464543D0217F94F82420A06933
:1022C00094F823A05209002301F07F01FDF718FFC5
:1022D00004F1120301930AF03F0A04F1100304F120
:1022E0001E09013800934A465346394680B215F01C
:1022F0004CFD94F82F1094F8243094F833205B09A7
:102300000909120901FB0322A8EB0603013B02FBAA
:102310001353DDB204F1100604F11E0804F1120992
:10232000002D84D094F82320CDF80090334602F09D
:102330003F0241463846013D15F076FDEDB2EFE72C
:102340000020E7E701200BF095FC054660B91F4A25
:102350001F49204840F2BD4313F025FF404080F361
:1023600011884FF0030002DF05F1200015E50FF0A2
:10237000A3FC12E50FF0B6FE0544294640460FF0D7
:102380003BFE0135854206460CD0104A12491148E1
:1023900040F2FD4313F007FF404080F311884FF0F7
:1023A000030002DFD4F8F030D4F8F450303305EBFA
:1023B0004305354448E500BF00CA9A3B00000000D1
:1023C0008D49FD1A7F5D0020805D002036C101002F
:1023D00039C0010031A60100A5C10100442902D085
:1023E000014812F027BB70477438002008B50D4A29
:1023F0001378ABB943899BB1012111700A4A017965
:10240000117040F2E2425343084A016813600848E1
:10241000072214F040FC0748BDE8084012F00ABB50
:1024200008BD00BF815B0020785B00206045002074
:10243000795B00208C380020014812F0FBBA00BF05
:10244000BC380020014812F0F5BA00BFD438002093
:10245000014812F0EFBA00BFA4380020014812F082
:10246000E9BA00BF5C3800202DE9F0435D488DB02B
:1024700013F046FB002004F015F8044630B1014685
:1024800059480DB0BDE8F04313F03ABB5748584FD8
:10249000DFF8608105F058F8574805F073F9574E9A
:1024A0003C700FCE07AD0FC533682B60002107A825
:1024B00004F0AAFF014628B1514813F021FB0DB0EA
:1024C000BDE8F08388F800004E484FF0FF324FF02F
:1024D000FF3312F0D5FA014608B14B48EDE705F09D
:1024E00013F8054610B101464848E6E74849072277
:1024F00003A814F0D0FB474B05951B788DF81330DB
:10250000454BADF818501D6801A9062303A85D438B
:1025100042F21073B5FBF3F3ADF81A3005F066F82C
:10252000014608B13D48C8E73D483E4A4FF40046E1
:10253000E5FB06010023FDF7E3FD06460D460246D6
:102540000B46394812F09CFA014650B1374813F057
:10255000D7FA019805F008F8014600289FD03448C2
:10256000ABE7344832462B4612F08AFA014660B98E
:10257000314D324EDFF8C8900198294602AA05F085
:102580008BFC014690B12F4897E72F4813F0B8FA1B
:102590003B78002B83D1DCE7484613F0B1FA029870
:1025A00014F0C1FC014698B1284886E74FF4A022F8
:1025B0000023304612F064FA01460028ECD124488A
:1025C0004FF0FF324FF0FF3312F05AFA014638B99C
:1025D00020480022002312F053FA0028CCD15EE7F5
:1025E0001D486AE7BC9A0100D49A01009C010020B2
:1025F000805B0020815B002080010020E0960100CC
:10260000F49A01008C380020179B01003E9B0100CA
:10261000795B0020785B002060450020619B010011
:102620003F420F0040420F00BC3800208A9B01004F
:10263000B69B0100A4380020080100205C3800206F
:10264000269C0100059C0100DF9B01004C9C0100C1
:1026500074380020D4380020709C01002DE9F04F20
:1026600091B08407009302F004030293C2F3C20303
:1026700003F10103DDF86880039205460E460593D9
:1026800040F0BE81041D30B1072909D86FF01B004E
:1026900011B0BDE8F08F01F00706341DC6F1080641
:1026A000009B4FF00009591E4FF0040A4FF0FF3312
:1026B0000193CDF810904F46CB4653460DB1009A8A
:1026C00022600598002800F3EB809A48009A824225
:1026D00003D399488242C0F0E380039AA4EB050E2D
:1026E00092074FEA9E0000F106810F2F00F2B4809E
:1026F000002D00F0088107F140020DEB020C019A59
:102700000CF8200C0CF8102C049801300490EAE02E
:102710007A2860D84B280ED847285CD829282FD88B
:10272000252855D057D820287DD02338D0F1000B4C
:102730004BEB000B77E0A0F14C0CBCF12E0F4AD80C
:10274000DFE80CF071494949494949494949494932
:102750004C49494949494949495A494C4C5A5A5A9C
:10276000714C6E497149184C18494983804C49494C
:102770004C49800000204FF0000B4FF0040A39E074
:10278000A0F12A0C5FFA8CFC012202FA0CFC1CEA74
:102790000E0F48D11CF062502ED11CEA020B42D021
:1027A000013C5444CAF1000C04EA0C04002D61D031
:1027B000A3EB050CA444B4453FF668AF002868D1EC
:1027C000042B47D158F8043B2360043404232AE047
:1027D000019A013A01924FF0000B24E011F8010C2C
:1027E0006C2834D111F8023C00206C2B8346C4D1F4
:1027F0004FF0080A5346D3E708F1070828F0070806
:102800000734F8E802AB24F0070435B106982044F9
:10281000B0423FF63BAFC4E900AB08344FF0000BC9
:102820004FF0080A534611F8010F002878D0BBF189
:10283000000F7FF46DAF2528F5D1019B0133019383
:102840004FF0010B4FF0040AECE7584693E70020E5
:102850008346A5E7082B02D06FF0150018E708F1B2
:10286000070828F00708F8E80223C4E90023083421
:102870000823D8E768B9042B02D108F10408A4E7BB
:10288000082BE9D108F1070828F0070808F1080823
:10289000EDE7059A013A059258F8042B00920DE7EE
:1028A000039A900720D5A4EB050E4FEA9E004FF047
:1028B000010CBEF5007FCFD20F2FCDD8F5B107F1B7
:1028C00040020DEB020EC0B2019A0EF8200C0EF879
:1028D000102CBCF1000F3FF417AF60F07F000EF832
:1028E000200C09F101090137C5F1080204340692F0
:1028F0004FF6DA7E97E74FF0000CDAE7BCF1000FF5
:1029000001D00136EFE7029802360028EBD100989B
:10291000CDE9063114F09FF9DDE906310644E2E71E
:10292000631BB3F5806F97D245B9A6F10804E01890
:10293000AEE600BF4093010050C50100029A286036
:102940009B082B709DF81030C2B1EB7085F8029097
:10295000B9F1000F05D008A80022C5F1010C97427B
:102960000ED1C5F101030DF120084FF0000A0193CB
:102970000DF1300B574512D1601B89E66B70E5E70E
:1029800010F8013B190608D504EB0C0EB64503F010
:102990007F033FF67BAE04F8013B0132DFE7B9F17C
:1029A000000F03D098F90020002A17DB029BD3B157
:1029B0001AF80B2004F8012B0022019B98182044E0
:1029C000B0423FF663AE98F8000004F8010B00999E
:1029D0000392204614F05FF9039A14440AF1010AA5
:1029E00008F10108C6E798F8002055F82230009356
:1029F000029B45F82230009814F02DF9421CDCE7C8
:102A00006FF00D0044E600BF2DE9F04F95B000AF28
:102A10000446D7F878B0BB61CBF3C0037A623B6160
:102A2000396251B903784678807800EB83002044FE
:102A30000D46AE421AD8031B3B6294F80290E3782D
:102A40007B614E46B9F1000F02D01BF0010F16D189
:102A50007B6953BB7B6A1BB1BA69396A20469847C8
:102A60003D6A28465437BD46BDE8F08F00F10108A5
:102A7000404614F0F0F8013040440135D9E794F8AD
:102A800000A06368FB617B6A4FEA8A02FA6004EB8C
:102A90008A0A002B40F003813D6AD04609EB0A0305
:102AA0000026434550D1CA4413E01BF0020FD1D099
:102AB00094F800A04FEA8A03FB606368FB617B6ABD
:102AC00004EB8A0A002B7AD13D6AB9F1000F50D18C
:102AD0004E461BF0050F0CBF022301237B627B696E
:102AE0000AEB43090BF002033B62CA45B9D01AF85E
:102AF000021B1AF8013C54F82380AE4B984502D3D0
:102B0000AD4B98453BD33B69002B45D0F86912F09B
:102B1000BBFF002840D0E8468AB06A46A74B536105
:102B2000A74B9361FB69C2E9073140F201339384FB
:102B3000A44B42F8103FA44800234FF4325101F057
:102B4000B9F8023DC546D0E718F8012B7B6254F86E
:102B5000220014F080F8FA6F7B6A01303AB1D7F89E
:102B6000802096423EBFFA6F22F8160001360544D7
:102B700097E71BF004061CBF7E6ACA44A9E73B69BD
:102B800023B1F86912F080FF0028C4D11BF0010FB7
:102B900005D17B6AED1AA8E73B6A002BA5D0404619
:102BA00014F059F8FB6F43B1D7F880309E423FBF15
:102BB000FA6F431C22F816300136054495E7B9F147
:102BC000000F71D01BF0040671D0C846002607F133
:102BD00040004A46514614F05EF87B695B00BB60DA
:102BE0007B69CA440AEB43037B610BF002037B6001
:102BF0007B699A455DD12378FB6163781BF0020FF6
:102C000006EB03020CBF4FEA580100211BF0010F35
:102C1000D2B240F09D801BF0040F14BF404600204C
:102C200094F802B094F803A03B616270A070E17068
:102C3000BA69F9687B6A20469847051EFFF611AF0E
:102C4000FB6923703B6963704146BA697B6A84F80B
:102C500002B084F803A007F140009847B0F10008E3
:102C6000C0F2A3803B6ABA697869A3EB0901FB68EB
:102C7000C91ABB68C91A7B6A98470028C0F29780B6
:102C8000A84408EB00054FF0000B07F1300AB345EC
:102C900060DB0021BA697B6A08469847E1E607F1E4
:102CA00030004FF0000894E74E46C84695E7B0461E
:102CB00093E71AF8021B3F4A1AF8015C54F82530D2
:102CC000934202D33C4A93421CD33B6923B1F86937
:102CD00012F0DAFE00288BD17B68F3B908F12802E4
:102CE00007F12800024408F1010302F8101C07F163
:102CF000500252FA83F308F102085FFA88F803F8E9
:102D0000105C75E73B692BB1F86912F0BDFE002835
:102D10007FF46EAF1BF0010F09D006F1280207F116
:102D20002801731C561806F8205CDEB260E71BF021
:102D3000040F3FF45DAF08F1280207F1280108F104
:102D4000010302EB010808F8105C5FFA83F84FE713
:102D5000002065E71BF80A3087F82F3054F82390DD
:102D6000FB6FFBB133F81B80BA697B6A012107F165
:102D70002F00984700281ADB0544B8F1000F06D150
:102D8000484613F068FF00F101081FFA88F8BA6995
:102D90007B6A414648469847002808DB05440BF10A
:102DA000010B74E7D7F87C80DEE7454659E6054617
:102DB00057E600BF4093010050C501009B9C0100F5
:102DC000429D01000500000164960100014B18605E
:102DD000704700BFA801002030B587B00025CDE9BD
:102DE00003010446009503A90548059500F018F96C
:102DF000DDE904309842B8BF255407B030BD00BFAC
:102E0000D75A01002DE9F047058B04462807904664
:102E100011D4022905F0070540F0CD80204613F0BB
:102E200058F878B10138218B042811D8DFE800F078
:102E3000C3106D85950001290CBF45F0100545F0C4
:102E40002005258388F31188BFF36F8FBDE8F087D5
:102E500001F0070AAA4500F0A6800027B9463E46C1
:102E6000A368002B00F0BD8041F00801218388F3A6
:102E70001188BFF36F8FA168002900F0BB800D6837
:102E8000002900F0B780D1F804803346524620462E
:102E9000C047002D76D02B6829461D46F0E701F08B
:102EA00007035A1F012A1BD8002221F00701062B15
:102EB000276889B2C4E9002209D13B4603E0628B4E
:102EC000013262831B68002BF9D141F0020121839A
:102ED000204612F0FEFF00287BD041F0200177E071
:102EE000042B0AD121F0070189B22183204612F078
:102EF000F0FF10B141F020012183218B01F0070A7E
:102F0000AA4550D00027B946AAE7236921F0070156
:102F100041F00601062DD3F8009021832DD1B9F19F
:102F2000000F40D041F00801218388F31188BFF3DE
:102F30006F8F3A492046C84729E021F007012369ED
:102F400041F0040189B2042DD3F804902183E6D026
:102F500000273E464FF0040A82E721F0070123696B
:102F600041F0050189B2052DD3F808902183D6D010
:102F700000273E464FF0050A72E700273E464FF015
:102F8000060A6DE72B4687E7B9F1000FD1D14FF064
:102F90002003EFF3118883F31288BFF36F8F238B25
:102FA00023F008032383258BEA062ED525F0100392
:102FB000238305F007056669218B002EBFF66FAFEE
:102FC00000232768C4E9003321F0070141F0010123
:102FD0002183218B01F0070AAA454FF000097FF4F5
:102FE0003FAF002F9BD041F00801218388F3118867
:102FF000BFF36F8F002FC7D03D6839463346524626
:10300000204612F092FF2F46F4E7AB067FF51AAF89
:1030100025F02003238305F00705FFE6575F010035
:103020002DE9F04F814695B08B4617461C4600258A
:10303000387808B9284658E37B1C2528039306D026
:103040005946C8470028C0F250830135FBE11822D9
:1030500000210EA813F02AFE7B78252B7DD00023BB
:10306000781C98469E469C461E46014610F8012B49
:103070002B2A00F0A18000F29880202A00F09F8087
:10308000232A00F09F802BB19DF8403043F040038D
:103090008DF84030B8F1000F05D09DF8403043F076
:1030A00020038DF84030BEF1000F05D09DF8403070
:1030B00043F010038DF84030BCF1000F05D09DF8AF
:1030C000403043F008038DF840302EB19DF8403079
:1030D00043F004038DF840309DF8403003F0440085
:1030E000442803D16FF386138DF840309DF84030AB
:1030F0002A2A43F080038DF840307FD19DF841208B
:1031000042F001024B1C8DF841201A782E2A9DF8BE
:1031100041200CBF0121002161F341028DF84120C3
:1031200078D15A782A2A6ED0013300224FF00A0C47
:10313000194611F8010BA0F13006092E40F29580D6
:103140009DF840101292C1F3400040EAD2700A4646
:1031500060F341028DF840205CE0BA1C03928DF8C8
:1031600043309DF84130DA0740F12E8154F8048B4A
:10317000B8F1000F07DA9DF8402042F004028DF804
:103180004020C8F100085E0740F1278154F804ABE5
:10319000BAF1000F80F226819DF841306FF34103B0
:1031A0008DF841304FF0FF3A1CE12D2A0DD0302A26
:1031B0007FF469AF012358E74FF0010C55E74FF05A
:1031C000010E52E74FF001084FE701264DE70EFBD5
:1031D0000262303A0346184610F8016BA6F1300C33
:1031E000BCF1090FF3D999428FD09DF8401011928C
:1031F000D20F62F341018DF8401086E70B460022A2
:103200004FF00A0EE7E79DF8412042F004028DF8E6
:10321000412002331A786C2A47D02BD8682A31D043
:103220006A2A4BD04C2A51D01A4612F8013B03921D
:10323000782B9DF841208DF8433000F2BE806D2B35
:1032400051D8692B00F2B980572B67D8412B03D096
:10325000453B022B00F2B1809DF84230042262F31C
:1032600002038DF84230012373E00CFB0202303A76
:103270000B465DE7742A25D07A2AD5D19DF84120E6
:1032800006210CE05A78682A9DF8412006D10121D8
:1032900061F3C6028DF841200233C5E7022161F3D4
:1032A000C6028DF841200133BEE75A786C2A9DF89A
:1032B000412001D10421EBE70321F0E79DF84120F3
:1032C0000521ECE79DF841200721E8E7BDF8402003
:1032D00022F4F04222F0020242F4804242F0020262
:1032E000ADF84020DFE76E3BD9B201238B4040F2BE
:1032F00082410B4237D113F0240F51D1D8075CD54E
:103300009DF84230032161F302038DF8423002F050
:103310007803A3F140014B424B411AE0A3F158015D
:10332000C9B2012000FA01F111F4624F94D140F6C4
:10333000010631421DD111F4043F3ED09DF84230C8
:1033400060F3020302F07802402A8DF8423034D054
:1033500000239DF84020C2F340010B4363F3410278
:103360008DF84020FDE69DF84230022161F3020312
:10337000E8E79DF84210022002F0780260F30201B3
:10338000402A8DF8421002BF9DF8401041F0010123
:103390008DF84010632BDBD1131E18BF0123D8E733
:1033A0009DF84230032161F3020312F0780F8DF88B
:1033B000423014BF01230023CBE79DF8403043F097
:1033C00001038DF84030C3E79DF94020002AB4BFC7
:1033D000DDF844804FF0FF38D5E698077FF5E2AE80
:1033E000DDF848A09DF841100023CDE911339DF888
:1033F000423003F00703012BC1F3C30133D1CB1ECD
:10340000042B04D8DFE803F021464621210023687D
:1034100001294FEAE372CDE90E321CD19DF9383013
:10342000DA17CDE90E3204349DF8403013F003066C
:1034300050D0039B3A465946484612F09DFE00285C
:10344000C0F253810544039FF2E554F8043BDA17B8
:10345000CDE90E32E8E70229E5D11AB243F3C033D1
:10346000CDE90E23DFE7022B24D1CB1E042B04D899
:10347000DFE803F0181010181800012954F8043B75
:103480004FF0000214D00229CDE90E32CCD19BB20C
:103490000E93C9E7073424F00704F4E80223CDE9CA
:1034A0000E23C1E754F8043B0E9300230F93BBE7B0
:1034B000DBB2CDE7042B08D1073424F00704D4E9AC
:1034C00000230834CDE90E23AEE7032BACD154F82A
:1034D000043BDDE79DF843007828B4D862281CD867
:1034E00025283FF4ADAD5828ADD10DF1360300933A
:1034F000DDE90E0108AB10AA12F0F8FDBAF1000FD9
:10350000074680F29A80002F9DD00DF13603D81B1C
:10351000002E00F0C1800130BEE06338152892D83B
:1035200001A252F820F000BFFD3500000F36000068
:10353000473400004734000047340000473400009F
:103540000F360000473400004734000047340000C5
:10355000473400009D360000353600005B36000021
:103560004734000047340000813500004734000034
:10357000353600004734000047340000353600007F
:10358000BAF1000F0E9F35DB5146384613F06AFB47
:1035900007EB000A002F3FF456AF00269DF842309B
:1035A00013F01002059200F0938002305B06119A2E
:1035B00048BF129B0492104448BFC018B8F1000FD6
:1035C00040F3A0809DF84020A8EB0008C2F38003E0
:1035D0005007069300F19680510640F189803EB174
:1035E00059463046C84700287FDB069B01351E46FA
:1035F00030227EE0384613F02EFBC9E70E9B8DF893
:103600002030002608AF0DF1210A0120C6E7190776
:103610005CBFC3F300135E01DDE90E2348BF2B2618
:10362000002BBFF662AF524263EB4303CDE90E239A
:103630002D265AE7002658E700269DF840200DF178
:103640003603DB1B6FF386129A458DF840207FF618
:103650005AAFAAEB0303119355E70E9890B30DF1FF
:103660003603009310AA08AB002112F03FFDBDF80D
:10367000423003F0EF0343F4F04343F01003BAF198
:10368000000F0746ADF84230D6DA00283FF4DBAE33
:103690000DF13603181A00269A467FE70E9B07297C
:1036A0003FF6D1AEDFE801F00C04060C08080C0C64
:1036B0001D70C8E61D80C6E6EA17C3E90052C2E6DF
:1036C0001D60C0E62E4F064607F1050A052065E796
:1036D0001A0748BF013069E707931046069259461A
:1036E000C8470028DDE9062304DA15B0BDE8F08FED
:1036F000202243461946002903F1FF33ECDC454400
:103700006D1A98462EB159463046C8470028ECDB62
:1037100001359DF84230DA0601D41B0705D559461C
:103720003020C8470028E0DB0135059B33B19DF808
:1037300043005946C8470028D7DB0135049E2E4474
:1037400005E059463020C8470028CEDB0135731B01
:10375000002BF6DC53463A465946484612F00CFD1B
:103760000028C2DB0544A844A8EB0503002B7FF723
:103770006AAE59462020C8470028B6DB0135F3E77A
:103780006C9D010010F024B82DE9F047DFF8588057
:10379000044607464FF0010914B93846BDE8F087E2
:1037A00094FAA4F5B5FA85F509FA05F32E0108EBAC
:1037B00005156FEA030A24EA03042B7B002BEBD0E8
:1037C00058F806301B694BB94644042273682846F2
:1037D000196807EA0A0700F059FADDE72846984712
:1037E0000028D9D1F0E700BFBC96010030B51049E0
:1037F000104889B0002215F01CFC0F4D0F49002223
:103800000023CDE9062300240E23CDE90334CDE9BE
:1038100001440B4B00944FF44072284610F07CFF9B
:103820000849284615F03AF9204609B030BD00BFD6
:1038300049380000C03E0020383A0020C061002016
:10384000393B0000729D0100014811F0F3B800BF40
:10385000443800202DE9F04780461F480F4612F0FB
:1038600019FF0646002830D000252846BDE8F0871D
:10387000237B73B12368DB680BB12046984723682C
:103880001B69D3B9636804221968204600F0FEF969
:10389000013610344C45EBD3B8F1000FE5D0002DC4
:1038A000E2D02846FFF770FF0546002FF7D0002131
:1038B0004FF4A47011F056FDF1E720469847002818
:1038C000E0D00AFA06F31D43E2E7044CDFF810905B
:1038D00005464FF0010ADDE774450020BC96010063
:1038E000DC960100014B53F8200070478C970100D3
:1038F00008B5034608462BB1044A136000F04CFC9F
:10390000002008BD6FF01500FBE700BFAC010020F0
:1039100010B5044C237813B9034811F08BF8012338
:10392000237010BD825B00204438002010B504468F
:10393000084812F0AFFE5CB1BFF35B8F064B53E853
:10394000001F013943E80012002AF8D1BFF35B8F52
:1039500010BD00BF6C450020704500200020064BC4
:10396000BFF35B8F014653E8000F43E80012002AC3
:10397000F9D1BFF35B8F70476C45002070B5FFF73E
:10398000EDFF084C084E0546B44200D370BD636895
:103990005B792BB123685B6813B1294620469847B1
:1039A0001034F1E7BC960100DC96010010B5044C20
:1039B0000449204612F0FEFC034B1C6010BD00BF02
:1039C000EC3700207897010064450020084A094838
:1039D00008B500231370084A1360084A4FF40041E9
:1039E0001360FFF785FFBDE80840FFF7DFBF00BFAA
:1039F000835B0020916601006C450020704500202B
:103A0000014600220148002312F0F5BCEC370020EB
:103A1000014812F08EBD00BFEC370020024B01467A
:103A2000186812F0D8BD00BF64450020014812F0AC
:103A30000EBE00BFEC37002070B5284B1878002868
:103A40004BD0FFF7E5FF054690B1BFF35B8F244BEA
:103A500053E8001F013943E80012002AF8D1BFF3F0
:103A60005B8F204C204EB4422DD32846FFF7D6FF63
:103A70001E4B1F4C1B68002B19DD15F0B2FA4FF4DA
:103A80007A72A0FB020302FB0131C30BD4E90020D0
:103A900043EA41439B1A4FEAD13140F2E93261EBEC
:103AA0000001934271F1000101D3FFF767FFD4E9F0
:103AB000003213F57A7342F10002C4E90032BDE826
:103AC0007040FFF7B3BF63685B7923B12368294671
:103AD0001B68204698471034C5E770BD825B002004
:103AE00070450020BC960100DC9601006C4500206A
:103AF000B83E002070B50D4D297861B90120FFF75F
:103B0000A9FE0B4C0B4EB44206D3FFF795FF0028DD
:103B1000FBD101232B7070BD63685B791BB12368F7
:103B200020469B6898471034EDE700BF835B002078
:103B3000BC960100DC96010000212DE9F047084603
:103B4000FFF788FE044648B340F267684FF000096B
:103B500011F022FC1A4B186030B11A4B1B68092B6C
:103B600002DD194810F066FF184FDFF85CA0002551
:103B700044B12046FFF708FE044618B94FF0FF385D
:103B80004FF0FF39FFF758FF064628B9B5B942464E
:103B90004B46504610F074FF3546E9E74FF0FF38CA
:103BA0004FF0FF39D4E72B689B691BB10022114607
:103BB000284698471035BD42F5D3E8E7044DFAE7AB
:103BC000684500207045002044380020DC96010044
:103BD000BC96010013B5184812F05CFD174B1B781A
:103BE0007BB14FF02003EFF3118483F31288BFF30E
:103BF0006F8FFFF721FF84F31188BFF36F8F02B03F
:103C000010BD0F4B1B68002BF9D050B900220023C8
:103C1000CDE900230B484FF40042002311F00CFEC5
:103C2000EDE70A28EBD1074815F00FFA064802B075
:103C3000BDE8104010F0FEBE70450020835B002000
:103C400068450020C03E00204438002010B5064BD7
:103C50001B68044698472146A060044812F049FCBE
:103C6000BDE81040FFF7B6BFAC010020EC370020E4
:103C7000044A054B9B1AB1EBD30F34BF52F8310005
:103C800000207047EC950100BC960100084BC31A58
:103C900010B41B1144680133237143689A7143685F
:103CA0001960436801225A7110BCFFF731BE00BF92
:103CB000BC9601002DE9F04F8FB0C1F3CB44C1F3A6
:103CC000492605900D46904699461734002E3CD063
:103CD0004FF0040B09AF4FF00A0A002231460BAB3C
:103CE000CDF808B00197CDF800A04046CDE90B22F1
:103CF0000D920796FEF788FEC0F30903181920F00D
:103D0000070080081E4663F352250693FFF778FEEE
:103D1000044678B1069B0C93103000220B900D9254
:103D2000CDE9017B0C4A0799CDF800A00BAB4046CA
:103D3000FEF76AFE66F3522505994B462A46204651
:103D40000FB0BDE8F04F12F0DBBC24F00700800894
:103D5000FFF756FE0446EDE7D56601002DE9F04F6A
:103D600087B0DDE91269DDE9105A04460F46934633
:103D70009846B6B31021CDF8009033465246002045
:103D8000CDF81490FEF76AFC0146174B039104F03E
:103D900007040BF0070BE40003EA412305F11700C9
:103DA00044EA8B141C430844104B20F0070003EA3C
:103DB000C54380081C43FFF723FE054640B13EB1D2
:103DC0000399CDF80090334652461030FEF746FC7A
:103DD000434622463946284607B0BDE8F04F12F068
:103DE0008FBC3146D1E700BF00FE07000000F87F1E
:103DF0000EB403B503AB014653F8042B04480193FA
:103E000012F0A5FC02B05DF804EB03B0704700BFF0
:103E100077670100CA0605D48B064CBF02490349E7
:103E2000FFF7E6BF704700BF889D0100879D010036
:103E30002DE9F04F89B09B469DF848300493DDE9A9
:103E400013930593049B0692DDE9157604460D460F
:103E5000002B00F0878006F00803079312F038FC6F
:103E600006F0020A024600284BD086492046FFF79A
:103E7000BFFF8046BAF1000F08D016F0440F42D1C0
:103E800081492A462046FFF7B3FF804406F001032C
:103E90005BB17E4B049A7E4953F822207D4B20462D
:103EA000002A08BF1A46FFF7A3FF06F00803002BFD
:103EB00055D0794B049A794953F822202046FFF7D0
:103EC00097FF0546069B2BB175491A462046FFF71A
:103ED0008FFF0544BBF1000F05D072495A462046BA
:103EE000FFF786FF05444544B9F1000F49D1002F83
:103EF0004FD1F30700F1C08031462046FFF78AFF1B
:103F0000B4E08046B6E7684B18680028BDD0674B20
:103F10004FF47A7E1B68B5FBF3F54FF46162B5FB95
:103F2000F0F300FB1355B3FBF2FA0EFB05F502FBB1
:103F30001A323C21B5FBF0FCB2FBF1F300FB1C553F
:103F400001FB13220EFB05F50092B5FBF0F5584975
:103F5000CDE901C552462046FFF74AFF95E706F036
:103F60000805AFE7BBF1010F06D1B9F1000F64D12D
:103F7000002F7BD000250CE0B9F1000FF8D04D48A0
:103F80005CE04D484D494B46224611F04CFD002F58
:103F900068D0DFF82C91DFF82CA1102F3146204695
:103FA000B84628BF4FF01008FFF734FF4FF0000B62
:103FB0005D4545DC059B51461A782046FFF718FF02
:103FC0004FF0010B1BF0070F03D149462046FFF7C6
:103FD0000FFFD8453BD9059B514613F80B202046CF
:103FE000FFF706FF0BF1010BBBF1100FEAD13649C9
:103FF00020464FF0000BFFF7FBFE5A46059B9A5CEC
:10400000A2F120015F2928BF2E2230492046FFF768
:10401000EFFE0BF1010BBBF1100F1DD01BF0070FD2
:1040200003D149462046FFF7E3FED8455A46E5D876
:1040300049462046FFF7DCFEEBE71F48049DA1E759
:1040400049462046FFF7D4FE0BF1010BB0E72049AB
:104050002046FFF7CDFEC5E7059BB7EB08074344B5
:1040600005939AD1049B002B7FF443AF204609B0FF
:10407000BDE8F04F12F072BB064A05492046FFF733
:10408000B7FE39E78F9D0100939D01009C970100C9
:10409000BCA701008A9D0100B0970100B89D0100F6
:1040A000BE9D0100C29D01007C4500207845002096
:1040B0009C9D0100AD670100776701004F6701001B
:1040C000CF9D0100C79D0100D19D0100D39D01003E
:1040D000CD9D01002DE9F0410F884B688E6886B0B8
:1040E00005460C469046C7F382175BB1134A9B1AEC
:1040F00043F3CF0100291FDB2078C0F3C200FFF794
:10410000B7FD03462146608851F8102B0097C2F393
:104110004922002A01EB0204C0F3CB0008BF0021B2
:10412000CDE90308CDE90114002231462846FFF706
:104130007FFE06B0BDE8F0810023E3E7EC950100C7
:1041400073B542F20F738B4228BF0B4605680F4AC6
:1041500004460521684611F0E0FC63680C495B6881
:1041600006460B22284612F0E5FA63683246694695
:1041700028465B6812F0DEFA636806495B681B221A
:10418000284612F0D7FA02B070BD00BFECB10100B2
:10419000F29D0100D69D0100074A002101239042B3
:1041A00006D8064A01B901231360054B1860704711
:1041B00040085B000121F2E740420F0078450020F3
:1041C0007C450020014B01221A707047845B00205F
:1041D000014B00201960704794450020024B0348B2
:1041E00001221A7012F0BABA855B0020E097010034
:1041F0000148FFF7A5BF00BFE097010010B5064BCF
:1042000018680C46FFF76EFB21460346BDE81040D8
:1042100002480F22184700BF94450020E097010094
:1042200010B9074B18707047064B1B781BB141F251
:10423000883014F0D8BEA420002111F093B800BF3C
:10424000845B0020855B00202DE9F843DFF8749043
:104250001D4F80460E46042499F8005095B910F081
:1042600073F828463246414610F01CF8054610F017
:1042700075F8E5B101233B7099F8003073B9304609
:10428000BDE8F88332464146002010F00BF80546A1
:10429000EFE72046FFF7C4FF651E2C46002010F014
:1042A00049F80028EBD03B78002BF2D1E7E73B78C8
:1042B000002BE4D0013C2046FFF7B2FF3B78002BF7
:1042C000CAD1DCE7855B0020845B0020014B002025
:1042D00019607047AC450020024B034801221A7058
:1042E00012F03CBA975B00200C9801000148FFF7E0
:1042F00027BF00BF0C98010010B5064B18680C468C
:10430000FFF7F0FA21460346BDE8104002480F22AD
:10431000184700BFAC4500200C980100F8B5074FC6
:104320000D4604464618B44201D12846F8BD14F89B
:10433000011BBB6801485B689847F4E730940100B3
:104340002DE9F84305464FF02003EFF3118683F380
:104350001288BFF36F8F0E4B0E4F1C68DFF838804A
:104360004FF00C092CB986F31188BFF36F8FBDE8AD
:10437000F883D4E90123002D18BF13462BB198F818
:10438000142009FB02F2B85C98472468EAE700BFF2
:10439000C8450020BC450020CC58002070B5194B02
:1043A0001C7DBFF35B8F04F01F0301229A40164B64
:1043B000610903EB8103D04353E8001F01EA0005C4
:1043C00043E80056002EF7D1BFF35B8F0A4213D0AB
:1043D0000E4B0F4D8BB10C236343EA18E85C517808
:1043E00012F07CFC0020FFF7ABFF0C235C432A1982
:1043F00000232B51C2E9013370BD83F31188BFF351
:104400006F8FEFE7CC580020D0450020DD6C010015
:10441000BC4500202DE9F041354B07461D7D4FF08E
:104420002003EFF3118883F31288BFF36F8F0C24FE
:10443000304B314E6C431A19195D00294CD007CA14
:1044400006EB040C8CE8070000221A5588F311884B
:10445000BFF36F8F0C236B43F218F05C002839D048
:104460007B1C10D0D2F808C0244C254A4FF40040E1
:104470000021ECFB004100232046FBF741FE012117
:10448000381A14F08EFD10F0AFFE0120FFF758FF30
:10449000BFF35B8F1B4B6A0903EB820305F01F011F
:1044A00001228A4053E8000F104343E8000100292D
:1044B000F8D1BFF35B8F144B3BB10C2303FB05F02A
:1044C0003318305C597812F0FDFBFFF767FF10F0EE
:1044D0009FFE0120BDE8F0810146284600F016F855
:1044E0000028B3D007C8344484E80700AEE700BF13
:1044F000CC580020B0450020BC4500203F420F00B2
:1045000040420F00D0450020C56C01002DE9F04F5E
:1045100085B00E4603A900F043F81E4B039DD3F867
:1045200000A0DFF87480431E1BB203EB4303044674
:1045300005EB83054FF400474FF0000B24B9A1466B
:10454000484605B0BDE8F08F6868144AC44659462D
:10455000E0FB07C100236046FBF7D2FD0190A8688D
:104560000E4AC4465946E0FB07C100236046FBF7EC
:10457000C7FDBAF1FF3FA94601D0824505D9731C9A
:10458000DED0019B1844B042DAD9013CA4B20C3D04
:10459000D4E700BFB00100203F420F0040420F00AF
:1045A00008B9024B0B600020704700BF1C98010047
:1045B0000449431E0F3013F8012F8A5C1A7083429E
:1045C000F9D17047479E0100F0B5264E07460C46CC
:1045D0000FCE8DB001AD0FC50FCE0FC596E8070009
:1045E00085E807003846002F38D0002C38D0381F17
:1045F0002146024610344B780D781B0443EA0563CC
:10460000CD782B438D78043143EA05238C4242F860
:10461000043FF0D1144C04218A07036916D1C3F377
:104620000742A55C1A0EA25C42EA0562C3F30725A5
:10463000DBB2655DE35C42EA054242EA032221F017
:10464000030330336B4453F82C3C534050F8042F91
:10465000013153402C290361DED101200DB0F0BDA2
:104660002046FBE7F4960100479E01000149102215
:104670000A60704710ED00E072B6404080F3118888
:10468000BFF36F8FBFF34F8F30BF62B6BFF36F8F33
:10469000704700BF72B6494081F3118820BF80F394
:1046A000118862B6704700BF2DE9F84F824600AF0F
:1046B0000C46002952D06E468AB0D1E90012A36898
:1046C0006D46DFF8A8902A486861A8464FF0060BAF
:1046D000C5E90691C5E9082348F810BF25484246B8
:1046E00000234FF44151FFF7E5FAB546D4E9031230
:1046F0006369AD4620486B62C5E90509C5E9071243
:10470000C5F810B01B48002342464FF44151FFF753
:10471000D1FAB54688B0E3696D46184AEB61A84600
:104720004FF0040BC5E9052948F810BF11480023D4
:1047300042464FF40151FFF7BDFAB546A369AD46B5
:104740000F4AEB61C5E90529C5F810B009480023F7
:1047500042464FF40151FFF7ADFAB54621465046A7
:104760000FF022FEBD46BDE8F88F00BFF29F0100AA
:10477000479F01009C9601007A9F0100AD9F0100B8
:10478000C09F010040B2002807DB044A4109012311
:1047900000F01F00834042F82130704700E100E044
:1047A00040B200280CDB4309064900F01F0020330B
:1047B0000122824041F82320BFF34F8FBFF36F8F58
:1047C000704700BF00E100E0054B420900F01F0008
:1047D00053F82220012303FA00F01040704700BF75
:1047E00000E100E040B20028A8BF00F1604001F104
:1047F0000101B8BF064B4FEA4111ACBF00F5614063
:1048000000F00F00C9B2B4BF195480F8001370470C
:1048100014ED00E008B572B6044B9A691AB1002293
:104820009A6114F042F962B608BD00BFCC5800206E
:1048300030BFFFF7FDBF00BF0F4A08B50F4B22F096
:104840007F029A60BFF34F8FBFF36F8FD3F888203A
:1048500022F47002C3F88820EFF3148323F00403DA
:1048600083F31488BFF36F8F0FF05EFE10F00CFE21
:1048700000F05CFC0FF09CFE0000000000ED00E08A
:10488000094A0A4993680968D967094998674B68D2
:1048900043F080534B60002383F31188BFF36F8F85
:1048A0009368D86F704700BFCC5800207C9A0100F5
:1048B00000ED00E012498A684FF030001044EFF339
:1048C000098C80E8F01F202080F31288BFF36F8FDF
:1048D0000C4F4FF00066CA698A603E60906F0023FB
:1048E000936780F3118804B5104600F065FCBDE8BD
:1048F000044002F1300090E8F01F8CF30988704703
:10490000CC58002004ED00E01EF0040F0CBFEFF3C4
:104910000880EFF30980816911F8021C0229FFD099
:1049200001B512F07CF901BD42F8203C009B42F831
:104930001C3C0A49019B42F8183C029B42F8143C7B
:1049400021F001014FF0807342F8043C42F8081C4A
:104950000023203A02658367704700BF355B010082
:10496000094A0346906870B113F1160F806E05D0A6
:10497000A0F140029A4205D8834203D2814228BF67
:104980000020704700207047CC58002008B5094B24
:104990000D461446986000F00FFC204685F3098808
:1049A000002163B681F31188BFF36F8F00220023CB
:1049B00011F0C0F8CC58002001B572B60B4A9069CE
:1049C00000281EBF0021916114F06FF862B6EFF36A
:1049D0000580A0F110004FEAC0000549014409C953
:1049E0009847BDE80140034908470000CC58002023
:1049F00048940100F9490000044B9968D86988423D
:104A000003D003494FF080520A607047CC58002011
:104A100004ED00E02DE9F84300AF6E4688B0804613
:104A20000D466A46554B564C53614FF0030994614D
:104A30004FF4C25142F8109F524812F0FFF8524B07
:104A40009B6AD904B54640F1828088B06A464F4BD4
:104A50004C48C2E905344FF4C25142F8109F12F09D
:104A6000EDF81720B546484B9B6A1A050FD56E46E0
:104A700088B06A46464B4348C2E90534032342F8EE
:104A8000103F4FF4C25112F0D9F81820B5463E4EEF
:104A9000B36A9B0529D5E94688B06A463D4B39483B
:104AA000C2E90534032342F8103F4FF4C25112F01B
:104AB000C5F8B36BB26A1004CD4615D588B06A4606
:104AC0003549D3610423C2E905142E4842F8103F4A
:104AD0004FF4015112F0B2F8CD46B8F1000F03D0F7
:104AE000B36A23F40043B3621920274B9B6A59052C
:104AF0000FD56E4688B06A46284B2248C2E9053475
:104B0000032342F8103F4FF4C25112F097F81A20D5
:104B1000B5461D4B9A6AD2051BD56E4688B06A46CB
:104B20001F4B1848C2E90534032342F8103F4FF4E5
:104B3000C25112F083F81B20B546134A936A43F41E
:104B40007F43936200232B70BD46BDE8F883162097
:104B500089E79B6A9B04F0D56E4688B06A46114B84
:104B60000848C2E90534032342F8103F4FF4C2510C
:104B700012F064F81C20B546DFE700BFFB9F010080
:104B8000D6A301009C96010000ED00E015A00100F5
:104B90002AA0010041A001005EA0010077A0010051
:104BA00096A00100B2A00100F8B500AF6D4688B034
:104BB0006A46474B474C536103269461464842F886
:104BC000106F4FF4C25112F039F8444B9B6A9B01AD
:104BD000AD467AD588B06A46414B3F48C2E90534B4
:104BE0004FF4C25142F8106F12F028F81E20AD4663
:104BF0003A4B9B6ADE010FD56D4688B06A46394B49
:104C00003548C2E90534032342F8103F4FF4C2513E
:104C100012F014F81F20AD46304B9B6A1D030FD5D0
:104C20006D4688B06A46304B2B48C2E905340323F1
:104C300042F8103F4FF4C25112F000F82120AD4667
:104C4000264B9B6A59030FD56D4688B06A46274BA1
:104C50002148C2E90534032342F8103F4FF4C25102
:104C600011F0ECFF2220AD461C4B9B6A9A030FD536
:104C70006D4688B06A461E4B1748C2E905340323C7
:104C800042F8103F4FF4C25111F0D8FF2320AD4637
:104C9000124B9B6ADB030FD56D4688B06A46154BF5
:104CA0000D48C2E90534032342F8103F4FF4C251C6
:104CB00011F0C4FF2420AD46084A936A6FEA03430B
:104CC0006FEA13439362BD46F8BD1D2090E700BF15
:104CD000E5A00100CAA301009C96010000ED00E0E0
:104CE00001A1010018A1010036A1010058A1010095
:104CF00081A101009FA101002DE9F84F00AF6C4692
:104D000088B0914682468B466A465C4B5C4D536147
:104D1000032695615B4842F8106F4FF4C25111F0C1
:104D20008DFF594B9B6ADB06A54652D588B06A4673
:104D3000564B5448C2E905354FF4C25142F8106F42
:104D400011F07CFFA54611244F4B9B6A18070FD525
:104D50006C4688B06A464E4B4A48C2E90535032383
:104D600042F8103F4FF4C25111F068FFA5461224DB
:104D7000454EB36A99072ED56C4688B06A46454BB6
:104D80004048C2E90535032342F8103F4FF4C251B1
:104D900011F054FFD6F83480B36A1A06A54669D5D7
:104DA00088B06A463C4BC2F81C80C2E90535042332
:104DB00042F8103F33484FF4015111F03FFFA54630
:104DC000BBF1000F03D0B36A23F08003B362132456
:104DD00003E01024B8E76FF015082B4B9B6ADB0744
:104DE0000FD56C4688B06A462C4B2648C2E905357B
:104DF000032342F8103F4FF4C25111F01FFFA546A4
:104E00001424214B9B6A9E060FD56C4688B06A46D7
:104E1000234B1C48C2E90535032342F8103F4FF4E9
:104E2000C25111F00BFFA5461524174B9A6AD506FF
:104E300002D49A6A90070AD55B68190507D55146CE
:104E40004046FFF78DFD10B180F3098802240E4B18
:104E50009A6A920642BF5A6A22F400525A629A6AC9
:104E600042F0FF029A622046002389F80030BD46D6
:104E7000BDE8F88F6FF01508A9E700BFCEA10100CB
:104E8000E0A301009C96010000ED00E0E8A1010014
:104E90002AA001001FA201003BA2010055A20100AF
:104EA000B2A001002DE9F047864B8AB0D3F8048008
:104EB00000AF0546C8F30804002686F31188BFF347
:104EC0006F8F02F07F43B3F17F4F13D102F00C03D9
:104ED000082B1ED16D4688B06A467B4B53617B4BD5
:104EE0009361032342F8103F79484FF4C25111F007
:104EF000A5FEAD46002635460023FB71E31E092BB7
:104F000000F2C180DFE803F00AA7AAA3BFBFBFBFBA
:104F1000BFAD10074CBF0D460126EDE7E84688B04F
:104F20006A466C4BDFF8B09153614FF0030AC2F848
:104F30001890674842F810AF4FF4C25111F07EFE4E
:104F40000023604CFB71E36A9A07C5460DD588B013
:104F50006A46624BC2E9053942F810AF4FF4C251BC
:104F60005B4811F06BFEC5468BE0E36A002B03DA69
:104F700088B06A465A4BEDE7E36A5B0040F18180F6
:104F800088B06A46574B5248C2E905394FF4C251BE
:104F900042F810AF11F052FE6369AA6943F48073BE
:104FA000C5466361BFF34F8FBFF36F8F636932F8FC
:104FB000022C23F480736361BFF34F8FBFF36F8FB5
:104FC0004DF602739A4208D0A36ADBB293B3FA1D7E
:104FD00001212846FFF790FE3BE088B02B686A4627
:104FE0004149D3610423C2E90519394842F8103F09
:104FF0004FF4015111F022FE2C68C546FB79ABB984
:105000002022294607F1080011F045FE7B6A002E98
:1050100052D0C3F3080222B96FEA53236FEA432345
:105020007B6207F108012046FFF73EFB2837BD46AB
:10503000BDE8F087A36A13F47F4F04D0F91D012067
:10504000FFF7E8FC05E0A36AB3F5803F19D3FFF74B
:10505000ABFD0446D2E7FA1D0021BAE7F91D002096
:10506000EEE76C4688B06A46204B5361204B936153
:10507000032342F8103F16484FF4C25111F0DEFDF1
:10508000A5460024BAE71B4A1B4B18F4F87FE846F4
:105090008AB018BF13466A46184951611849C2E9D7
:1050A000061340F201339384103C164B14624FF404
:1050B000315142F8103F53E723F4FF7323F001030B
:1050C000AEE700BF00ED00E0A6A20100FCA30100D6
:1050D0009C960100D5A20100F1A30100F0A20100FD
:1050E00015A3010027A301004AA301006AA3010040
:1050F000BCA301008DA2010078A2010092A30100CF
:10510000A9A3010005000001024A536943F01003FE
:105110005361704700ED00E0EFF30880EFF3098181
:1051200001B57246FFF7BEFE01BD00BF0448002373
:105130002021C2180133302B82F80013F9D17047B7
:1051400000E100E0FEF71EFB202080F311880848F4
:105150004FF40461401880F30988EFF314800221B2
:10516000084380F31488BFF36F8FFFF765FB0000DF
:10517000406F0020084B9B6883420BD1EFF30583FF
:1051800043B1064B5A6842F080525A605A6A22F480
:1051900000425A6210F006B9CC58002000ED00E041
:1051A000024B034A0348012100F09AB80000042092
:1051B000000000201C980100826E054B403A1A60E6
:1051C000044A4021C3E901121846012100F092B8B7
:1051D000D445002000000B152DE9F041DFF8BCE0BC
:1051E0009C4600AF154600238B421CDA4468002C15
:1051F00051D0BCF1000F1FD0661E344217D06C4650
:1052000088B06A46264951612649C2E9061304233B
:1052100042F8103F244800234FF40151FEF74AFDA5
:105220006FF01505A5462846BD46BDE8F0811F2C48
:10523000E5D902681642E2D1202C026886685FFA3E
:1052400085F816D9B4F1004F15D8013CB4FA84F4AE
:10525000C4F11F046400B8F1070F46EA04060CD934
:105260006C4688B06A46114B5361114BC2E9063552
:10527000CDE70824EFE73E24EDE722F01F022A43A2
:1052800042F0100246F00106CEF89850CEF89C206D
:105290000135CEF8A06001330C30A5E700ED00E049
:1052A00008A4010072A401008C9601002FA4010043
:1052B00059A40100044B0522C3F89420BFF34F8F7B
:1052C000BFF36F8F704700BF00ED00E0BFF35F8F4B
:1052D000024B0022C3F89420704700BF00ED00E0AD
:1052E00010B5034C01232278FFF776FF207010BD24
:1052F000985B002008B5094A00231278FFF76CFF7D
:1053000010F1160F03D0064B0022072800DD08BD60
:10531000C3F89800C3F8A0200130F6E7985B00209E
:1053200000ED00E014490868082810B521D8FFF7FF
:10533000CDFF124C49680022904201F10C0105D1C9
:105340000F4B1870FFF7B6FF002010BDC4F898206F
:1053500051F80C3C23F01F03134343F01003C4F82F
:105360009C3051F8043C43F00103C4F8A0300132F2
:10537000E2E74FF0FF30E8E72898010000ED00E099
:10538000985B0020014B1860704700BFB4010020FB
:1053900010B54FF02003EFF3118083F31288BFF3B1
:1053A0006F8F114A0123C2F840354FF080424FF011
:1053B0008051C2F87835D1F83041082C08D1D1F8A5
:1053C0003411052904D8094C615C09B1C2F838369A
:1053D0004FF080430122C3F8802580F31188BFF38A
:1053E0006F8F002010BD00BF00E0014097A40100B6
:1053F00020B1034B800143F001031847704700BF01
:10540000709701000E4B402970B528BF40210D4C0C
:1054100046181D46B04203F1020304D1002305F8EB
:105420001130074870BD02781209A25C03F8022C03
:1054300010F8012B02F00F02A25C03F8012CE9E73F
:10544000B75B0020F9A4010030B503788BB00446A7
:1054500007AD032B21D8DFE803F0021A1C1E124906
:10546000284611F0EEFB059563780493A378039327
:10547000E37802932379019363790093A3790B4A2C
:105480000B481E2110F049FB09480BB030BD0949FB
:10549000E6E70949E4E70949E2E7094A0A2128461B
:1054A00010F03BFBDFE700BFB4A40100D6A401006D
:1054B000995B0020BBA40100C2A40100CCA40100A0
:1054C00087A6010038B50546052D1046194603D1BB
:1054D000BDE8384002F0ECB9054812F0A8FF0446D8
:1054E00020B100210C3012F0A9FF2576204638BDEE
:1054F0005C39002010B50B460A490246D1F8D800A5
:1055000020B9BDE810400120FFF7DCBF12F09CFF7E
:10551000012300210376018204460C3012F08EFF35
:10552000204610BD0000002070B504460F2C0D462B
:105530001046194605D80D2C0DD9BDE87040FFF76F
:10554000D9BF132C07D10C4812F071FF044638B9AB
:105550000024204670BD02460B4645B10748F3E7DC
:1055600000210C3012F06AFF01232376F1E7BDE839
:1055700070400120FFF7A6BF0C3A0020043900203C
:1055800070B50B4D06460FCD8EB001AC0FC40FCDDC
:105590000FC40FCD0FC40C2E2B6823609BBF0EAB26
:1055A00003EB8606034856F8340C0EB070BD00BFFE
:1055B000209701000AA50100B0B50B460D8A00AF87
:1055C00004462946D868FFF71DFF8CB06A460A4B8F
:1055D00053610A4BC2E9063440F203531385084B6A
:1055E000C2E908504FF4525142F8103F054811F0FB
:1055F00098FBBD46B0BD00BF12A50100EFAA010097
:105600000600000144960100B0B502EBC30300AFF1
:105610000446934203D12046FFF7CEFF1AE010461E
:1056200010F8085BA5421BD10B8A5078984213D919
:105630006D468AB06A460B4951610B491462C2E952
:105640000613052342F8103F08484FF4215111F08A
:1056500068FBAD46BD46B0BD536808469847F9E7BC
:105660000246D6E738A50100DBAA010044960100F6
:1056700010B5012104460C3012F031FF2146034AD7
:105680000078BDE810400923FFF7BEBFD0980100A5
:1056900080B5012100AF0C3012F021FF88B00378F3
:1056A0006A460749516107490748C2E906130423BE
:1056B00042F8103F4FF4015111F033FBBD4680BD5D
:1056C0005EA50100C0AA0100449601002DE9F8433F
:1056D000804600AF907A4E4D0E4614460CF078FE90
:1056E00085421AD0A47A20460CF072FE6E468CB029
:1056F0006A46484B5361484B9562C2E90638072316
:10570000C2E908404FF4625142F8103F434811F09B
:1057100008FBB546BD46BDE8F88320460CF060FEA8
:105720003F4D4FF00C0909FB00504388434518D00A
:1057300020460CF055FE09FB00506C468AB04388A9
:105740006A4638495161344913620523C2E9061893
:10575000324842F8103F4FF4225111F0E2FAA546C8
:10576000D8E7DFF8C480D8F8D80020B10CF0F2FEFA
:105770000023C8F8D83020460CF032FE4FF00C0859
:1057800008FB00504368EBB1E6B920460CF028FE58
:1057900008FB005001224068D0E90031007A01F096
:1057A0001F0C02FA0CF2490928B3BFF35B8F03EB1D
:1057B000810353E8000F104343E800010029F8D1AA
:1057C000BFF35B8F20460CF00BFE4FF00C0808FB7C
:1057D00000508368002B9DD020460CF001FE08FB92
:1057E00000F02E5420460CF0FBFD08FB0055A86885
:1057F0000FF020F98EE7D24303EB8103BFF35B8FF9
:1058000053E8000F104043E800010029D8D0F7E723
:105810003039002084A50100FCAA01004496010053
:10582000E0450020BDA501000000002038B504219E
:1058300004460C3012F053FE457801784088224629
:10584000FFF744FF25B10348BDE838400FF0F2B838
:1058500038BD00BFC000002038B5032104460C301D
:1058600012F03DFEE36805781978B0F80100224691
:10587000FFF72CFF25B10348BDE838400FF0DAB838
:1058800038BD00BFC000002010B5C1E900239DF85D
:1058900008300B720C460CF0A3FD034B0C2202FBEC
:1058A00000335C6010BD00BFE04500202DE9F047EB
:1058B0004FF0FF324FF0FF3306461748174D0F46A3
:1058C00012F0B5FD044600F10C0A00214FF000086B
:1058D000504612F0B3FD84F8188020460CF080FD8D
:1058E0004FF00C0909FB0050468020460CF078FD73
:1058F00009FB0050C0F8088020460CF071FD09FB40
:10590000005503215046C5F8048012F0C9FD0680F9
:1059100087702046BDE8F08730390020E045002040
:105920002DE9F04387B0804600AF15460C4621B9FB
:10593000FFF7BCFF044600285CD001220021384656
:1059400013F079F920460CF04BFDDFF8B0900C23F2
:1059500003FB00908760204612F076FD0146284840
:1059600012F070FD4FF4A022002338460FF088F8A3
:10597000064680B1234A244924484FF4A57310F009
:1059800012FC2348314610F00EFC404080F3118891
:105990004FF0030002DF20460CF022FD0C23584399
:1059A00019F80060F6B16D468AB06A46194B53612A
:1059B000194B1662C2E90638052342F8103F174812
:1059C0004FF4225111F0ADF92046AD460CF0C2FD66
:1059D000092E14BF6FF004006FF06E001C37BD4637
:1059E000BDE8F08315B12C600020F7E720460CF0ED
:1059F000B1FDF9E76FF06800F0E700BFE045002077
:105A0000DC000020F4A5010028A6010031A6010059
:105A10004EA601006EA6010009AB010044960100EC
:105A2000F7B5144B93F94F30002B05460C461DDAA1
:105A300014B9204603B0F0BD082C01AA4FF00001B4
:105A400042F21800264628BF0826FFF769FF002803
:105A5000F0D1019FF96832460131284611F01BF957
:105A600038460CF077FD3544A41BE1E76FF0850064
:105A7000E0E700BF000000200138C0B202289ABF52
:105A8000014B185C002070479FA90100024BD3F81E
:105A9000F4305B69184700BF000000202DE9F04F8B
:105AA000DFF86C81DFF86C9183B008F1140A00AF65
:105AB000D8F80C3050466FF39433C8F80C3002F02D
:105AC00063FC451C52484FF0FF324FF0FF3329462C
:105AD0000FF0FEFE60B15049504840F6EC134A46C4
